{
  "abi": [
    {
      "inputs": [],
      "stateMutability": "nonpayable",
      "type": "constructor"
    },
    {
      "anonymous": false,
      "inputs": [
        {
          "indexed": true,
          "internalType": "bytes32",
          "name": "role",
          "type": "bytes32"
        },
        {
          "indexed": true,
          "internalType": "bytes32",
          "name": "previousAdminRole",
          "type": "bytes32"
        },
        {
          "indexed": true,
          "internalType": "bytes32",
          "name": "newAdminRole",
          "type": "bytes32"
        }
      ],
      "name": "RoleAdminChanged",
      "type": "event"
    },
    {
      "anonymous": false,
      "inputs": [
        {
          "indexed": true,
          "internalType": "bytes32",
          "name": "role",
          "type": "bytes32"
        },
        {
          "indexed": true,
          "internalType": "address",
          "name": "account",
          "type": "address"
        },
        {
          "indexed": true,
          "internalType": "address",
          "name": "sender",
          "type": "address"
        }
      ],
      "name": "RoleGranted",
      "type": "event"
    },
    {
      "anonymous": false,
      "inputs": [
        {
          "indexed": true,
          "internalType": "bytes32",
          "name": "role",
          "type": "bytes32"
        },
        {
          "indexed": true,
          "internalType": "address",
          "name": "account",
          "type": "address"
        },
        {
          "indexed": true,
          "internalType": "address",
          "name": "sender",
          "type": "address"
        }
      ],
      "name": "RoleRevoked",
      "type": "event"
    },
    {
      "inputs": [],
      "name": "ADMIN_ROLE",
      "outputs": [
        {
          "internalType": "string",
          "name": "",
          "type": "string"
        }
      ],
      "stateMutability": "view",
      "type": "function"
    },
    {
      "inputs": [],
      "name": "_msgData",
      "outputs": [
        {
          "internalType": "bytes",
          "name": "",
          "type": "bytes"
        }
      ],
      "stateMutability": "view",
      "type": "function"
    },
    {
      "inputs": [],
      "name": "_msgSender",
      "outputs": [
        {
          "internalType": "address",
          "name": "",
          "type": "address"
        }
      ],
      "stateMutability": "view",
      "type": "function"
    },
    {
      "inputs": [],
      "name": "_txSender",
      "outputs": [
        {
          "internalType": "address",
          "name": "",
          "type": "address"
        }
      ],
      "stateMutability": "view",
      "type": "function"
    },
    {
      "inputs": [],
      "name": "getAdminRole",
      "outputs": [
        {
          "internalType": "string",
          "name": "",
          "type": "string"
        }
      ],
      "stateMutability": "view",
      "type": "function"
    },
    {
      "inputs": [
        {
          "internalType": "string",
          "name": "role",
          "type": "string"
        },
        {
          "internalType": "address",
          "name": "account",
          "type": "address"
        }
      ],
      "name": "grantRole",
      "outputs": [],
      "stateMutability": "nonpayable",
      "type": "function"
    },
    {
      "inputs": [
        {
          "internalType": "string",
          "name": "role",
          "type": "string"
        },
        {
          "internalType": "address",
          "name": "account",
          "type": "address"
        }
      ],
      "name": "hasRole",
      "outputs": [
        {
          "internalType": "bool",
          "name": "",
          "type": "bool"
        }
      ],
      "stateMutability": "view",
      "type": "function"
    },
    {
      "inputs": [
        {
          "internalType": "string",
          "name": "role",
          "type": "string"
        },
        {
          "internalType": "address",
          "name": "account",
          "type": "address"
        }
      ],
      "name": "renounceRole",
      "outputs": [],
      "stateMutability": "nonpayable",
      "type": "function"
    },
    {
      "inputs": [
        {
          "internalType": "string",
          "name": "role",
          "type": "string"
        },
        {
          "internalType": "address",
          "name": "account",
          "type": "address"
        }
      ],
      "name": "revokeRole",
      "outputs": [],
      "stateMutability": "nonpayable",
      "type": "function"
    }
  ],
  "bytecode": "60c0604052600560808190526437bbb732b960d91b60a0908152620000289160019190620001c7565b503480156200003657600080fd5b50620000e4600180546200004a906200026d565b80601f016020809104026020016040519081016040528092919081815260200182805462000078906200026d565b8015620000c95780601f106200009d57610100808354040283529160200191620000c9565b820191906000526020600020905b815481529060010190602001808311620000ab57829003601f168201915b5050505050620000de620000ea60201b60201c565b620000ee565b62000312565b3390565b620000fa828262000182565b6200017e576001600083604051620001139190620002aa565b90815260408051602092819003830181206001600160a01b03861660009081529352908220805460ff1916931515939093179092559062000156908490620002aa565b90815260405190819003602001902060020180549060006200017883620002e8565b91905055505b5050565b60008083604051620001959190620002aa565b908152604080519182900360209081019092206001600160a01b0385166000908152925290205460ff16905092915050565b828054620001d5906200026d565b90600052602060002090601f016020900481019282620001f9576000855562000244565b82601f106200021457805160ff191683800117855562000244565b8280016001018555821562000244579182015b828111156200024457825182559160200191906001019062000227565b506200025292915062000256565b5090565b5b8082111562000252576000815560010162000257565b600181811c908216806200028257607f821691505b60208210811415620002a457634e487b7160e01b600052602260045260246000fd5b50919050565b6000825160005b81811015620002cd5760208186018101518583015201620002b1565b81811115620002dd576000828501525b509190910192915050565b60006000198214156200030b57634e487b7160e01b600052601160045260246000fd5b5060010190565b610a0c80620003226000396000f3fe608060405234801561001057600080fd5b50600436106100935760003560e01c80638b49d47e116100665780638b49d47e14610104578063a1e6ab9f14610115578063b3ecf23614610128578063c19ae2ed14610130578063c877097d1461014357600080fd5b8063119df25f146100985780636c9cd097146100b7578063731f21a0146100da57806375b238fc146100ef575b600080fd5b335b6040516001600160a01b0390911681526020015b60405180910390f35b6100ca6100c5366004610721565b610149565b60405190151581526020016100ae565b6100ed6100e8366004610721565b61018c565b005b6100f7610234565b6040516100ae9190610813565b6000366040516100ae929190610846565b6100ed610123366004610721565b6102c2565b6100f7610337565b6100ed61013e366004610721565b6103cd565b3261009a565b6000808360405161015a9190610875565b908152604080519182900360209081019092206001600160a01b0385166000908152925290205460ff16905092915050565b6102266001805461019c90610891565b80601f01602080910402602001604051908101604052809291908181526020018280546101c890610891565b80156102155780601f106101ea57610100808354040283529160200191610215565b820191906000526020600020905b8154815290600101906020018083116101f857829003601f168201915b50505050506102213390565b6103e7565b6102308282610441565b5050565b6001805461024190610891565b80601f016020809104026020016040519081016040528092919081815260200182805461026d90610891565b80156102ba5780601f1061028f576101008083540402835291602001916102ba565b820191906000526020600020905b81548152906001019060200180831161029d57829003601f168201915b505050505081565b6001600160a01b03811633146102265760405162461bcd60e51b815260206004820152602f60248201527f416363657373436f6e74726f6c3a2063616e206f6e6c792072656e6f756e636560448201526e103937b632b9903337b91039b2b63360891b60648201526084015b60405180910390fd5b606060006001805461034890610891565b80601f016020809104026020016040519081016040528092919081815260200182805461037490610891565b80156103c15780601f10610396576101008083540402835291602001916103c1565b820191906000526020600020905b8154815290600101906020018083116103a457829003601f168201915b50939695505050505050565b6103dd6001805461019c90610891565b61023082826104cb565b6103f18282610149565b61023057610409816001600160a01b0316601461054c565b8260405160200161041b9291906108cc565b60408051601f198184030181529082905262461bcd60e51b825261032e91600401610813565b61044b8282610149565b1561023057600080836040516104619190610875565b90815260408051602092819003830181206001600160a01b03861660009081529352908220805460ff191693151593909317909255906104a2908490610875565b90815260405190819003602001902060020180549060006104c283610957565b91905055505050565b6104d58282610149565b6102305760016000836040516104eb9190610875565b90815260408051602092819003830181206001600160a01b03861660009081529352908220805460ff1916931515939093179092559061052c908490610875565b90815260405190819003602001902060020180549060006104c28361096e565b6060600061055b836002610989565b6105669060026109a8565b67ffffffffffffffff81111561057e5761057e6106ef565b6040519080825280601f01601f1916602001820160405280156105a8576020820181803683370190505b509050600360fc1b816000815181106105c3576105c36109c0565b60200101906001600160f81b031916908160001a905350600f60fb1b816001815181106105f2576105f26109c0565b60200101906001600160f81b031916908160001a9053506000610616846002610989565b6106219060016109a8565b90505b6001811115610699576f181899199a1a9b1b9c1cb0b131b232b360811b85600f1660108110610655576106556109c0565b1a60f81b82828151811061066b5761066b6109c0565b60200101906001600160f81b031916908160001a90535060049490941c9361069281610957565b9050610624565b5083156106e85760405162461bcd60e51b815260206004820181905260248201527f537472696e67733a20686578206c656e67746820696e73756666696369656e74604482015260640161032e565b9392505050565b634e487b7160e01b600052604160045260246000fd5b80356001600160a01b038116811461071c57600080fd5b919050565b6000806040838503121561073457600080fd5b823567ffffffffffffffff8082111561074c57600080fd5b818501915085601f83011261076057600080fd5b813581811115610772576107726106ef565b604051601f8201601f19908116603f0116810190838211818310171561079a5761079a6106ef565b816040528281528860208487010111156107b357600080fd5b8260208601602083013760006020848301015280965050505050506107da60208401610705565b90509250929050565b60005b838110156107fe5781810151838201526020016107e6565b8381111561080d576000848401525b50505050565b60208152600082518060208401526108328160408501602087016107e3565b601f01601f19169190910160400192915050565b60208152816020820152818360408301376000818301604090810191909152601f909201601f19160101919050565b600082516108878184602087016107e3565b9190910192915050565b600181811c908216806108a557607f821691505b602082108114156108c657634e487b7160e01b600052602260045260246000fd5b50919050565b7f416363657373436f6e74726f6c3a206163636f756e74200000000000000000008152600083516109048160178501602088016107e3565b7001034b99036b4b9b9b4b733903937b6329607d1b60179184019182015283516109358160288401602088016107e3565b01602801949350505050565b634e487b7160e01b600052601160045260246000fd5b60008161096657610966610941565b506000190190565b600060001982141561098257610982610941565b5060010190565b60008160001904831182151516156109a3576109a3610941565b500290565b600082198211156109bb576109bb610941565b500190565b634e487b7160e01b600052603260045260246000fdfea26469706673582212208248bef4e0739c6e1f2f0e7ac416e875fd8c0173004e47db8d6f7e12ef0fd24364736f6c634300080c0033",
  "bytecodeSha1": "26265ab91ad25c54e590dbe2d82d7120ccfb2801",
  "compiler": {
    "evm_version": "istanbul",
    "optimizer": {
      "enabled": true,
      "runs": 200
    },
    "version": "0.8.12+commit.f00d7308"
  },
  "contractName": "AccessControl",
  "language": "Solidity",
  "natspec": {
    "kind": "dev",
    "methods": {
      "getAdminRole()": {
        "details": "Grants `role` to `account`. If `account` had not been already granted `role`, emits a {RoleGranted} event. Requirements: - the caller must have ``role``'s admin role."
      },
      "hasRole(string,address)": {
        "details": "Returns `true` if `account` has been granted `role`."
      },
      "renounceRole(string,address)": {
        "details": "Revokes `role` from the calling account. Roles are often managed via {grantRole} and {revokeRole}: this function's purpose is to provide a mechanism for accounts to lose their privileges if they are compromised (such as when a trusted device is misplaced). If the calling account had been granted `role`, emits a {RoleRevoked} event. Requirements: - the caller must be `account`."
      },
      "revokeRole(string,address)": {
        "details": "Revokes `role` from `account`. If `account` had been granted `role`, emits a {RoleRevoked} event. Requirements: - the caller must have ``role``'s admin role."
      }
    },
    "version": 1
  },
  "opcodes": "PUSH1 0x80 PUSH1 0x40 MSTORE CALLVALUE DUP1 ISZERO PUSH2 0x10 JUMPI PUSH1 0x0 DUP1 REVERT JUMPDEST POP PUSH1 0x4 CALLDATASIZE LT PUSH2 0x93 JUMPI PUSH1 0x0 CALLDATALOAD PUSH1 0xE0 SHR DUP1 PUSH4 0x8B49D47E GT PUSH2 0x66 JUMPI DUP1 PUSH4 0x8B49D47E EQ PUSH2 0x104 JUMPI DUP1 PUSH4 0xA1E6AB9F EQ PUSH2 0x115 JUMPI DUP1 PUSH4 0xB3ECF236 EQ PUSH2 0x128 JUMPI DUP1 PUSH4 0xC19AE2ED EQ PUSH2 0x130 JUMPI DUP1 PUSH4 0xC877097D EQ PUSH2 0x143 JUMPI PUSH1 0x0 DUP1 REVERT JUMPDEST DUP1 PUSH4 0x119DF25F EQ PUSH2 0x98 JUMPI DUP1 PUSH4 0x6C9CD097 EQ PUSH2 0xB7 JUMPI DUP1 PUSH4 0x731F21A0 EQ PUSH2 0xDA JUMPI DUP1 PUSH4 0x75B238FC EQ PUSH2 0xEF JUMPI JUMPDEST PUSH1 0x0 DUP1 REVERT JUMPDEST CALLER JUMPDEST PUSH1 0x40 MLOAD PUSH1 0x1 PUSH1 0x1 PUSH1 0xA0 SHL SUB SWAP1 SWAP2 AND DUP2 MSTORE PUSH1 0x20 ADD JUMPDEST PUSH1 0x40 MLOAD DUP1 SWAP2 SUB SWAP1 RETURN JUMPDEST PUSH2 0xCA PUSH2 0xC5 CALLDATASIZE PUSH1 0x4 PUSH2 0x721 JUMP JUMPDEST PUSH2 0x149 JUMP JUMPDEST PUSH1 0x40 MLOAD SWAP1 ISZERO ISZERO DUP2 MSTORE PUSH1 0x20 ADD PUSH2 0xAE JUMP JUMPDEST PUSH2 0xED PUSH2 0xE8 CALLDATASIZE PUSH1 0x4 PUSH2 0x721 JUMP JUMPDEST PUSH2 0x18C JUMP JUMPDEST STOP JUMPDEST PUSH2 0xF7 PUSH2 0x234 JUMP JUMPDEST PUSH1 0x40 MLOAD PUSH2 0xAE SWAP2 SWAP1 PUSH2 0x813 JUMP JUMPDEST PUSH1 0x0 CALLDATASIZE PUSH1 0x40 MLOAD PUSH2 0xAE SWAP3 SWAP2 SWAP1 PUSH2 0x846 JUMP JUMPDEST PUSH2 0xED PUSH2 0x123 CALLDATASIZE PUSH1 0x4 PUSH2 0x721 JUMP JUMPDEST PUSH2 0x2C2 JUMP JUMPDEST PUSH2 0xF7 PUSH2 0x337 JUMP JUMPDEST PUSH2 0xED PUSH2 0x13E CALLDATASIZE PUSH1 0x4 PUSH2 0x721 JUMP JUMPDEST PUSH2 0x3CD JUMP JUMPDEST ORIGIN PUSH2 0x9A JUMP JUMPDEST PUSH1 0x0 DUP1 DUP4 PUSH1 0x40 MLOAD PUSH2 0x15A SWAP2 SWAP1 PUSH2 0x875 JUMP JUMPDEST SWAP1 DUP2 MSTORE PUSH1 0x40 DUP1 MLOAD SWAP2 DUP3 SWAP1 SUB PUSH1 0x20 SWAP1 DUP2 ADD SWAP1 SWAP3 KECCAK256 PUSH1 0x1 PUSH1 0x1 PUSH1 0xA0 SHL SUB DUP6 AND PUSH1 0x0 SWAP1 DUP2 MSTORE SWAP3 MSTORE SWAP1 KECCAK256 SLOAD PUSH1 0xFF AND SWAP1 POP SWAP3 SWAP2 POP POP JUMP JUMPDEST PUSH2 0x226 PUSH1 0x1 DUP1 SLOAD PUSH2 0x19C SWAP1 PUSH2 0x891 JUMP JUMPDEST DUP1 PUSH1 0x1F ADD PUSH1 0x20 DUP1 SWAP2 DIV MUL PUSH1 0x20 ADD PUSH1 0x40 MLOAD SWAP1 DUP2 ADD PUSH1 0x40 MSTORE DUP1 SWAP3 SWAP2 SWAP1 DUP2 DUP2 MSTORE PUSH1 0x20 ADD DUP3 DUP1 SLOAD PUSH2 0x1C8 SWAP1 PUSH2 0x891 JUMP JUMPDEST DUP1 ISZERO PUSH2 0x215 JUMPI DUP1 PUSH1 0x1F LT PUSH2 0x1EA JUMPI PUSH2 0x100 DUP1 DUP4 SLOAD DIV MUL DUP4 MSTORE SWAP2 PUSH1 0x20 ADD SWAP2 PUSH2 0x215 JUMP JUMPDEST DUP3 ADD SWAP2 SWAP1 PUSH1 0x0 MSTORE PUSH1 0x20 PUSH1 0x0 KECCAK256 SWAP1 JUMPDEST DUP2 SLOAD DUP2 MSTORE SWAP1 PUSH1 0x1 ADD SWAP1 PUSH1 0x20 ADD DUP1 DUP4 GT PUSH2 0x1F8 JUMPI DUP3 SWAP1 SUB PUSH1 0x1F AND DUP3 ADD SWAP2 JUMPDEST POP POP POP POP POP PUSH2 0x221 CALLER SWAP1 JUMP JUMPDEST PUSH2 0x3E7 JUMP JUMPDEST PUSH2 0x230 DUP3 DUP3 PUSH2 0x441 JUMP JUMPDEST POP POP JUMP JUMPDEST PUSH1 0x1 DUP1 SLOAD PUSH2 0x241 SWAP1 PUSH2 0x891 JUMP JUMPDEST DUP1 PUSH1 0x1F ADD PUSH1 0x20 DUP1 SWAP2 DIV MUL PUSH1 0x20 ADD PUSH1 0x40 MLOAD SWAP1 DUP2 ADD PUSH1 0x40 MSTORE DUP1 SWAP3 SWAP2 SWAP1 DUP2 DUP2 MSTORE PUSH1 0x20 ADD DUP3 DUP1 SLOAD PUSH2 0x26D SWAP1 PUSH2 0x891 JUMP JUMPDEST DUP1 ISZERO PUSH2 0x2BA JUMPI DUP1 PUSH1 0x1F LT PUSH2 0x28F JUMPI PUSH2 0x100 DUP1 DUP4 SLOAD DIV MUL DUP4 MSTORE SWAP2 PUSH1 0x20 ADD SWAP2 PUSH2 0x2BA JUMP JUMPDEST DUP3 ADD SWAP2 SWAP1 PUSH1 0x0 MSTORE PUSH1 0x20 PUSH1 0x0 KECCAK256 SWAP1 JUMPDEST DUP2 SLOAD DUP2 MSTORE SWAP1 PUSH1 0x1 ADD SWAP1 PUSH1 0x20 ADD DUP1 DUP4 GT PUSH2 0x29D JUMPI DUP3 SWAP1 SUB PUSH1 0x1F AND DUP3 ADD SWAP2 JUMPDEST POP POP POP POP POP DUP2 JUMP JUMPDEST PUSH1 0x1 PUSH1 0x1 PUSH1 0xA0 SHL SUB DUP2 AND CALLER EQ PUSH2 0x226 JUMPI PUSH1 0x40 MLOAD PUSH3 0x461BCD PUSH1 0xE5 SHL DUP2 MSTORE PUSH1 0x20 PUSH1 0x4 DUP3 ADD MSTORE PUSH1 0x2F PUSH1 0x24 DUP3 ADD MSTORE PUSH32 0x416363657373436F6E74726F6C3A2063616E206F6E6C792072656E6F756E6365 PUSH1 0x44 DUP3 ADD MSTORE PUSH15 0x103937B632B9903337B91039B2B633 PUSH1 0x89 SHL PUSH1 0x64 DUP3 ADD MSTORE PUSH1 0x84 ADD JUMPDEST PUSH1 0x40 MLOAD DUP1 SWAP2 SUB SWAP1 REVERT JUMPDEST PUSH1 0x60 PUSH1 0x0 PUSH1 0x1 DUP1 SLOAD PUSH2 0x348 SWAP1 PUSH2 0x891 JUMP JUMPDEST DUP1 PUSH1 0x1F ADD PUSH1 0x20 DUP1 SWAP2 DIV MUL PUSH1 0x20 ADD PUSH1 0x40 MLOAD SWAP1 DUP2 ADD PUSH1 0x40 MSTORE DUP1 SWAP3 SWAP2 SWAP1 DUP2 DUP2 MSTORE PUSH1 0x20 ADD DUP3 DUP1 SLOAD PUSH2 0x374 SWAP1 PUSH2 0x891 JUMP JUMPDEST DUP1 ISZERO PUSH2 0x3C1 JUMPI DUP1 PUSH1 0x1F LT PUSH2 0x396 JUMPI PUSH2 0x100 DUP1 DUP4 SLOAD DIV MUL DUP4 MSTORE SWAP2 PUSH1 0x20 ADD SWAP2 PUSH2 0x3C1 JUMP JUMPDEST DUP3 ADD SWAP2 SWAP1 PUSH1 0x0 MSTORE PUSH1 0x20 PUSH1 0x0 KECCAK256 SWAP1 JUMPDEST DUP2 SLOAD DUP2 MSTORE SWAP1 PUSH1 0x1 ADD SWAP1 PUSH1 0x20 ADD DUP1 DUP4 GT PUSH2 0x3A4 JUMPI DUP3 SWAP1 SUB PUSH1 0x1F AND DUP3 ADD SWAP2 JUMPDEST POP SWAP4 SWAP7 SWAP6 POP POP POP POP POP POP JUMP JUMPDEST PUSH2 0x3DD PUSH1 0x1 DUP1 SLOAD PUSH2 0x19C SWAP1 PUSH2 0x891 JUMP JUMPDEST PUSH2 0x230 DUP3 DUP3 PUSH2 0x4CB JUMP JUMPDEST PUSH2 0x3F1 DUP3 DUP3 PUSH2 0x149 JUMP JUMPDEST PUSH2 0x230 JUMPI PUSH2 0x409 DUP2 PUSH1 0x1 PUSH1 0x1 PUSH1 0xA0 SHL SUB AND PUSH1 0x14 PUSH2 0x54C JUMP JUMPDEST DUP3 PUSH1 0x40 MLOAD PUSH1 0x20 ADD PUSH2 0x41B SWAP3 SWAP2 SWAP1 PUSH2 0x8CC JUMP JUMPDEST PUSH1 0x40 DUP1 MLOAD PUSH1 0x1F NOT DUP2 DUP5 SUB ADD DUP2 MSTORE SWAP1 DUP3 SWAP1 MSTORE PUSH3 0x461BCD PUSH1 0xE5 SHL DUP3 MSTORE PUSH2 0x32E SWAP2 PUSH1 0x4 ADD PUSH2 0x813 JUMP JUMPDEST PUSH2 0x44B DUP3 DUP3 PUSH2 0x149 JUMP JUMPDEST ISZERO PUSH2 0x230 JUMPI PUSH1 0x0 DUP1 DUP4 PUSH1 0x40 MLOAD PUSH2 0x461 SWAP2 SWAP1 PUSH2 0x875 JUMP JUMPDEST SWAP1 DUP2 MSTORE PUSH1 0x40 DUP1 MLOAD PUSH1 0x20 SWAP3 DUP2 SWAP1 SUB DUP4 ADD DUP2 KECCAK256 PUSH1 0x1 PUSH1 0x1 PUSH1 0xA0 SHL SUB DUP7 AND PUSH1 0x0 SWAP1 DUP2 MSTORE SWAP4 MSTORE SWAP1 DUP3 KECCAK256 DUP1 SLOAD PUSH1 0xFF NOT AND SWAP4 ISZERO ISZERO SWAP4 SWAP1 SWAP4 OR SWAP1 SWAP3 SSTORE SWAP1 PUSH2 0x4A2 SWAP1 DUP5 SWAP1 PUSH2 0x875 JUMP JUMPDEST SWAP1 DUP2 MSTORE PUSH1 0x40 MLOAD SWAP1 DUP2 SWAP1 SUB PUSH1 0x20 ADD SWAP1 KECCAK256 PUSH1 0x2 ADD DUP1 SLOAD SWAP1 PUSH1 0x0 PUSH2 0x4C2 DUP4 PUSH2 0x957 JUMP JUMPDEST SWAP2 SWAP1 POP SSTORE POP POP POP JUMP JUMPDEST PUSH2 0x4D5 DUP3 DUP3 PUSH2 0x149 JUMP JUMPDEST PUSH2 0x230 JUMPI PUSH1 0x1 PUSH1 0x0 DUP4 PUSH1 0x40 MLOAD PUSH2 0x4EB SWAP2 SWAP1 PUSH2 0x875 JUMP JUMPDEST SWAP1 DUP2 MSTORE PUSH1 0x40 DUP1 MLOAD PUSH1 0x20 SWAP3 DUP2 SWAP1 SUB DUP4 ADD DUP2 KECCAK256 PUSH1 0x1 PUSH1 0x1 PUSH1 0xA0 SHL SUB DUP7 AND PUSH1 0x0 SWAP1 DUP2 MSTORE SWAP4 MSTORE SWAP1 DUP3 KECCAK256 DUP1 SLOAD PUSH1 0xFF NOT AND SWAP4 ISZERO ISZERO SWAP4 SWAP1 SWAP4 OR SWAP1 SWAP3 SSTORE SWAP1 PUSH2 0x52C SWAP1 DUP5 SWAP1 PUSH2 0x875 JUMP JUMPDEST SWAP1 DUP2 MSTORE PUSH1 0x40 MLOAD SWAP1 DUP2 SWAP1 SUB PUSH1 0x20 ADD SWAP1 KECCAK256 PUSH1 0x2 ADD DUP1 SLOAD SWAP1 PUSH1 0x0 PUSH2 0x4C2 DUP4 PUSH2 0x96E JUMP JUMPDEST PUSH1 0x60 PUSH1 0x0 PUSH2 0x55B DUP4 PUSH1 0x2 PUSH2 0x989 JUMP JUMPDEST PUSH2 0x566 SWAP1 PUSH1 0x2 PUSH2 0x9A8 JUMP JUMPDEST PUSH8 0xFFFFFFFFFFFFFFFF DUP2 GT ISZERO PUSH2 0x57E JUMPI PUSH2 0x57E PUSH2 0x6EF JUMP JUMPDEST PUSH1 0x40 MLOAD SWAP1 DUP1 DUP3 MSTORE DUP1 PUSH1 0x1F ADD PUSH1 0x1F NOT AND PUSH1 0x20 ADD DUP3 ADD PUSH1 0x40 MSTORE DUP1 ISZERO PUSH2 0x5A8 JUMPI PUSH1 0x20 DUP3 ADD DUP2 DUP1 CALLDATASIZE DUP4 CALLDATACOPY ADD SWAP1 POP JUMPDEST POP SWAP1 POP PUSH1 0x3 PUSH1 0xFC SHL DUP2 PUSH1 0x0 DUP2 MLOAD DUP2 LT PUSH2 0x5C3 JUMPI PUSH2 0x5C3 PUSH2 0x9C0 JUMP JUMPDEST PUSH1 0x20 ADD ADD SWAP1 PUSH1 0x1 PUSH1 0x1 PUSH1 0xF8 SHL SUB NOT AND SWAP1 DUP2 PUSH1 0x0 BYTE SWAP1 MSTORE8 POP PUSH1 0xF PUSH1 0xFB SHL DUP2 PUSH1 0x1 DUP2 MLOAD DUP2 LT PUSH2 0x5F2 JUMPI PUSH2 0x5F2 PUSH2 0x9C0 JUMP JUMPDEST PUSH1 0x20 ADD ADD SWAP1 PUSH1 0x1 PUSH1 0x1 PUSH1 0xF8 SHL SUB NOT AND SWAP1 DUP2 PUSH1 0x0 BYTE SWAP1 MSTORE8 POP PUSH1 0x0 PUSH2 0x616 DUP5 PUSH1 0x2 PUSH2 0x989 JUMP JUMPDEST PUSH2 0x621 SWAP1 PUSH1 0x1 PUSH2 0x9A8 JUMP JUMPDEST SWAP1 POP JUMPDEST PUSH1 0x1 DUP2 GT ISZERO PUSH2 0x699 JUMPI PUSH16 0x181899199A1A9B1B9C1CB0B131B232B3 PUSH1 0x81 SHL DUP6 PUSH1 0xF AND PUSH1 0x10 DUP2 LT PUSH2 0x655 JUMPI PUSH2 0x655 PUSH2 0x9C0 JUMP JUMPDEST BYTE PUSH1 0xF8 SHL DUP3 DUP3 DUP2 MLOAD DUP2 LT PUSH2 0x66B JUMPI PUSH2 0x66B PUSH2 0x9C0 JUMP JUMPDEST PUSH1 0x20 ADD ADD SWAP1 PUSH1 0x1 PUSH1 0x1 PUSH1 0xF8 SHL SUB NOT AND SWAP1 DUP2 PUSH1 0x0 BYTE SWAP1 MSTORE8 POP PUSH1 0x4 SWAP5 SWAP1 SWAP5 SHR SWAP4 PUSH2 0x692 DUP2 PUSH2 0x957 JUMP JUMPDEST SWAP1 POP PUSH2 0x624 JUMP JUMPDEST POP DUP4 ISZERO PUSH2 0x6E8 JUMPI PUSH1 0x40 MLOAD PUSH3 0x461BCD PUSH1 0xE5 SHL DUP2 MSTORE PUSH1 0x20 PUSH1 0x4 DUP3 ADD DUP2 SWAP1 MSTORE PUSH1 0x24 DUP3 ADD MSTORE PUSH32 0x537472696E67733A20686578206C656E67746820696E73756666696369656E74 PUSH1 0x44 DUP3 ADD MSTORE PUSH1 0x64 ADD PUSH2 0x32E JUMP JUMPDEST SWAP4 SWAP3 POP POP POP JUMP JUMPDEST PUSH4 0x4E487B71 PUSH1 0xE0 SHL PUSH1 0x0 MSTORE PUSH1 0x41 PUSH1 0x4 MSTORE PUSH1 0x24 PUSH1 0x0 REVERT JUMPDEST DUP1 CALLDATALOAD PUSH1 0x1 PUSH1 0x1 PUSH1 0xA0 SHL SUB DUP2 AND DUP2 EQ PUSH2 0x71C JUMPI PUSH1 0x0 DUP1 REVERT JUMPDEST SWAP2 SWAP1 POP JUMP JUMPDEST PUSH1 0x0 DUP1 PUSH1 0x40 DUP4 DUP6 SUB SLT ISZERO PUSH2 0x734 JUMPI PUSH1 0x0 DUP1 REVERT JUMPDEST DUP3 CALLDATALOAD PUSH8 0xFFFFFFFFFFFFFFFF DUP1 DUP3 GT ISZERO PUSH2 0x74C JUMPI PUSH1 0x0 DUP1 REVERT JUMPDEST DUP2 DUP6 ADD SWAP2 POP DUP6 PUSH1 0x1F DUP4 ADD SLT PUSH2 0x760 JUMPI PUSH1 0x0 DUP1 REVERT JUMPDEST DUP2 CALLDATALOAD DUP2 DUP2 GT ISZERO PUSH2 0x772 JUMPI PUSH2 0x772 PUSH2 0x6EF JUMP JUMPDEST PUSH1 0x40 MLOAD PUSH1 0x1F DUP3 ADD PUSH1 0x1F NOT SWAP1 DUP2 AND PUSH1 0x3F ADD AND DUP2 ADD SWAP1 DUP4 DUP3 GT DUP2 DUP4 LT OR ISZERO PUSH2 0x79A JUMPI PUSH2 0x79A PUSH2 0x6EF JUMP JUMPDEST DUP2 PUSH1 0x40 MSTORE DUP3 DUP2 MSTORE DUP9 PUSH1 0x20 DUP5 DUP8 ADD ADD GT ISZERO PUSH2 0x7B3 JUMPI PUSH1 0x0 DUP1 REVERT JUMPDEST DUP3 PUSH1 0x20 DUP7 ADD PUSH1 0x20 DUP4 ADD CALLDATACOPY PUSH1 0x0 PUSH1 0x20 DUP5 DUP4 ADD ADD MSTORE DUP1 SWAP7 POP POP POP POP POP POP PUSH2 0x7DA PUSH1 0x20 DUP5 ADD PUSH2 0x705 JUMP JUMPDEST SWAP1 POP SWAP3 POP SWAP3 SWAP1 POP JUMP JUMPDEST PUSH1 0x0 JUMPDEST DUP4 DUP2 LT ISZERO PUSH2 0x7FE JUMPI DUP2 DUP2 ADD MLOAD DUP4 DUP3 ADD MSTORE PUSH1 0x20 ADD PUSH2 0x7E6 JUMP JUMPDEST DUP4 DUP2 GT ISZERO PUSH2 0x80D JUMPI PUSH1 0x0 DUP5 DUP5 ADD MSTORE JUMPDEST POP POP POP POP JUMP JUMPDEST PUSH1 0x20 DUP2 MSTORE PUSH1 0x0 DUP3 MLOAD DUP1 PUSH1 0x20 DUP5 ADD MSTORE PUSH2 0x832 DUP2 PUSH1 0x40 DUP6 ADD PUSH1 0x20 DUP8 ADD PUSH2 0x7E3 JUMP JUMPDEST PUSH1 0x1F ADD PUSH1 0x1F NOT AND SWAP2 SWAP1 SWAP2 ADD PUSH1 0x40 ADD SWAP3 SWAP2 POP POP JUMP JUMPDEST PUSH1 0x20 DUP2 MSTORE DUP2 PUSH1 0x20 DUP3 ADD MSTORE DUP2 DUP4 PUSH1 0x40 DUP4 ADD CALLDATACOPY PUSH1 0x0 DUP2 DUP4 ADD PUSH1 0x40 SWAP1 DUP2 ADD SWAP2 SWAP1 SWAP2 MSTORE PUSH1 0x1F SWAP1 SWAP3 ADD PUSH1 0x1F NOT AND ADD ADD SWAP2 SWAP1 POP JUMP JUMPDEST PUSH1 0x0 DUP3 MLOAD PUSH2 0x887 DUP2 DUP5 PUSH1 0x20 DUP8 ADD PUSH2 0x7E3 JUMP JUMPDEST SWAP2 SWAP1 SWAP2 ADD SWAP3 SWAP2 POP POP JUMP JUMPDEST PUSH1 0x1 DUP2 DUP2 SHR SWAP1 DUP3 AND DUP1 PUSH2 0x8A5 JUMPI PUSH1 0x7F DUP3 AND SWAP2 POP JUMPDEST PUSH1 0x20 DUP3 LT DUP2 EQ ISZERO PUSH2 0x8C6 JUMPI PUSH4 0x4E487B71 PUSH1 0xE0 SHL PUSH1 0x0 MSTORE PUSH1 0x22 PUSH1 0x4 MSTORE PUSH1 0x24 PUSH1 0x0 REVERT JUMPDEST POP SWAP2 SWAP1 POP JUMP JUMPDEST PUSH32 0x416363657373436F6E74726F6C3A206163636F756E7420000000000000000000 DUP2 MSTORE PUSH1 0x0 DUP4 MLOAD PUSH2 0x904 DUP2 PUSH1 0x17 DUP6 ADD PUSH1 0x20 DUP9 ADD PUSH2 0x7E3 JUMP JUMPDEST PUSH17 0x1034B99036B4B9B9B4B733903937B6329 PUSH1 0x7D SHL PUSH1 0x17 SWAP2 DUP5 ADD SWAP2 DUP3 ADD MSTORE DUP4 MLOAD PUSH2 0x935 DUP2 PUSH1 0x28 DUP5 ADD PUSH1 0x20 DUP9 ADD PUSH2 0x7E3 JUMP JUMPDEST ADD PUSH1 0x28 ADD SWAP5 SWAP4 POP POP POP POP JUMP JUMPDEST PUSH4 0x4E487B71 PUSH1 0xE0 SHL PUSH1 0x0 MSTORE PUSH1 0x11 PUSH1 0x4 MSTORE PUSH1 0x24 PUSH1 0x0 REVERT JUMPDEST PUSH1 0x0 DUP2 PUSH2 0x966 JUMPI PUSH2 0x966 PUSH2 0x941 JUMP JUMPDEST POP PUSH1 0x0 NOT ADD SWAP1 JUMP JUMPDEST PUSH1 0x0 PUSH1 0x0 NOT DUP3 EQ ISZERO PUSH2 0x982 JUMPI PUSH2 0x982 PUSH2 0x941 JUMP JUMPDEST POP PUSH1 0x1 ADD SWAP1 JUMP JUMPDEST PUSH1 0x0 DUP2 PUSH1 0x0 NOT DIV DUP4 GT DUP3 ISZERO ISZERO AND ISZERO PUSH2 0x9A3 JUMPI PUSH2 0x9A3 PUSH2 0x941 JUMP JUMPDEST POP MUL SWAP1 JUMP JUMPDEST PUSH1 0x0 DUP3 NOT DUP3 GT ISZERO PUSH2 0x9BB JUMPI PUSH2 0x9BB PUSH2 0x941 JUMP JUMPDEST POP ADD SWAP1 JUMP JUMPDEST PUSH4 0x4E487B71 PUSH1 0xE0 SHL PUSH1 0x0 MSTORE PUSH1 0x32 PUSH1 0x4 MSTORE PUSH1 0x24 PUSH1 0x0 REVERT INVALID LOG2 PUSH5 0x6970667358 0x22 SLT KECCAK256 DUP3 BASEFEE 0xBE DELEGATECALL 0xE0 PUSH20 0x9C6E1F2F0E7AC416E875FD8C0173004E47DB8D6F PUSH31 0x12EF0FD24364736F6C634300080C0033000000000000000000000000000000 ",
  "sha1": "355238ddf8b62d42ba708d0041ebcc8277bfc498",
  "source": "// SPDX-License-Identifier: MIT\n// OpenZeppelin Contracts v4.4.1 (access/AccessControl.sol)\n\npragma solidity ^0.8.0;\n\nimport \"interfaces/utils/access/IAccessControl.sol\";\nimport \"contracts/utils/context/Context.sol\";\nimport \"@openzeppelin/contracts/utils/Strings.sol\";\nimport \"contracts/utils/context/ContextAdapter.sol\";\n\n\ncontract AccessControl is  IAccessControl, Context {\n    struct RoleData {\n        mapping(address => bool) members;\n        uint256 limit;\n        uint256 count;\n    }\n\n    modifier onlyAdmin() {\n        _checkRole(ADMIN_ROLE, _msgSender());\n        _;\n    }\n\n    modifier onlyRole(string memory role) {\n        _checkRole(role, _msgSender());\n        _;\n    }\n\n    mapping(string => RoleData) private _roles;\n    string public ADMIN_ROLE =\"owner\";\n    function getAdminRole() public view override returns(string memory){\n        string memory _admin_role  = ADMIN_ROLE;\n        return _admin_role;\n    }\n\n    constructor() {\n        _grantRole(ADMIN_ROLE, _msgSender());\n    }\n\n\n    function _grantRole(string memory role, address account) internal virtual {\n\n        if (!hasRole(role, account)) {\n            _roles[role].members[account] = true;\n            _roles[role].count++;\n            // emit RoleGranted(role, account, _msgSender());\n        }\n    }\n\n    function _revokeRole(string memory role, address account) internal virtual {\n        if (hasRole(role, account)) {\n            _roles[role].members[account] = false;\n            _roles[role].count--;\n            // emit RoleRevoked(role, account, _msgSender());\n        }\n    }\n\n    function _checkRole(string memory role, address account) internal view {\n        if (!hasRole(role, account)) {\n            revert(\n                string(\n                    abi.encodePacked(\n                        \"AccessControl: account \",\n                        Strings.toHexString(uint160(account), 20),\n                        \" is missing role \", \n                        role\n                    )\n                )\n            );\n        }\n    }\n\n\n    function hasRole(string memory role, address account) public view override returns (bool) {\n        return _roles[role].members[account];\n    }\n\n    function grantRole(string memory role, address account) public virtual override onlyAdmin {\n        _grantRole(role, account);\n    }\n\n    function revokeRole(string memory role, address account) public virtual override onlyAdmin {\n        _revokeRole(role, account);\n    }\n\n    function renounceRole(string memory role, address account) public virtual override {\n        require(account == _msgSender(), \"AccessControl: can only renounce roles for self\");\n        _revokeRole(role, account);\n    }\n}\n",
  "sourcePath": "contracts/utils/access/AccessControl.sol",
  "type": "contract"
}