{
  "abi": [
    {
      "inputs": [
        {
          "internalType": "string",
          "name": "_name",
          "type": "string"
        },
        {
          "internalType": "string",
          "name": "_symbol",
          "type": "string"
        }
      ],
      "stateMutability": "nonpayable",
      "type": "constructor"
    },
    {
      "inputs": [
        {
          "internalType": "address",
          "name": "",
          "type": "address"
        },
        {
          "internalType": "address",
          "name": "",
          "type": "address"
        }
      ],
      "name": "_balances",
      "outputs": [
        {
          "internalType": "uint256",
          "name": "",
          "type": "uint256"
        }
      ],
      "stateMutability": "view",
      "type": "function"
    },
    {
      "inputs": [],
      "name": "accessController",
      "outputs": [
        {
          "internalType": "contract IAccessControl",
          "name": "",
          "type": "address"
        }
      ],
      "stateMutability": "view",
      "type": "function"
    },
    {
      "inputs": [
        {
          "internalType": "address",
          "name": "asset",
          "type": "address"
        },
        {
          "internalType": "uint256",
          "name": "balance",
          "type": "uint256"
        },
        {
          "internalType": "string",
          "name": "name",
          "type": "string"
        },
        {
          "internalType": "string",
          "name": "mode",
          "type": "string"
        },
        {
          "internalType": "bool",
          "name": "liquid",
          "type": "bool"
        }
      ],
      "name": "addAsset",
      "outputs": [],
      "stateMutability": "nonpayable",
      "type": "function"
    },
    {
      "inputs": [
        {
          "internalType": "address",
          "name": "",
          "type": "address"
        }
      ],
      "name": "asset2index",
      "outputs": [
        {
          "internalType": "uint256",
          "name": "",
          "type": "uint256"
        }
      ],
      "stateMutability": "view",
      "type": "function"
    },
    {
      "inputs": [
        {
          "internalType": "address",
          "name": "asset",
          "type": "address"
        }
      ],
      "name": "assetExists",
      "outputs": [
        {
          "internalType": "bool",
          "name": "",
          "type": "bool"
        }
      ],
      "stateMutability": "view",
      "type": "function"
    },
    {
      "inputs": [
        {
          "internalType": "uint256",
          "name": "",
          "type": "uint256"
        }
      ],
      "name": "assetStates",
      "outputs": [
        {
          "internalType": "address",
          "name": "asset",
          "type": "address"
        },
        {
          "internalType": "string",
          "name": "name",
          "type": "string"
        },
        {
          "internalType": "string",
          "name": "mode",
          "type": "string"
        },
        {
          "internalType": "uint256",
          "name": "balance",
          "type": "uint256"
        },
        {
          "internalType": "uint256",
          "name": "value",
          "type": "uint256"
        },
        {
          "internalType": "address",
          "name": "valueOracle",
          "type": "address"
        },
        {
          "internalType": "bool",
          "name": "liquid",
          "type": "bool"
        },
        {
          "internalType": "uint256",
          "name": "lastUpdateBlock",
          "type": "uint256"
        },
        {
          "internalType": "bytes",
          "name": "metaData",
          "type": "bytes"
        }
      ],
      "stateMutability": "view",
      "type": "function"
    },
    {
      "inputs": [
        {
          "internalType": "address",
          "name": "asset",
          "type": "address"
        },
        {
          "internalType": "uint256",
          "name": "balance",
          "type": "uint256"
        }
      ],
      "name": "balance2value",
      "outputs": [
        {
          "internalType": "uint256",
          "name": "",
          "type": "uint256"
        }
      ],
      "stateMutability": "view",
      "type": "function"
    },
    {
      "inputs": [
        {
          "internalType": "address",
          "name": "account",
          "type": "address"
        },
        {
          "internalType": "address",
          "name": "asset",
          "type": "address"
        }
      ],
      "name": "balanceOf",
      "outputs": [
        {
          "internalType": "uint256",
          "name": "",
          "type": "uint256"
        }
      ],
      "stateMutability": "view",
      "type": "function"
    },
    {
      "inputs": [
        {
          "internalType": "address[]",
          "name": "accounts",
          "type": "address[]"
        },
        {
          "internalType": "address[]",
          "name": "assets",
          "type": "address[]"
        }
      ],
      "name": "balanceOfBatch",
      "outputs": [
        {
          "internalType": "uint256[]",
          "name": "",
          "type": "uint256[]"
        }
      ],
      "stateMutability": "view",
      "type": "function"
    },
    {
      "inputs": [
        {
          "internalType": "address",
          "name": "ac_acccount",
          "type": "address"
        }
      ],
      "name": "connectAccessController",
      "outputs": [],
      "stateMutability": "nonpayable",
      "type": "function"
    },
    {
      "inputs": [
        {
          "internalType": "address",
          "name": "asset",
          "type": "address"
        },
        {
          "internalType": "uint256",
          "name": "balance",
          "type": "uint256"
        },
        {
          "internalType": "string",
          "name": "name",
          "type": "string"
        },
        {
          "internalType": "string",
          "name": "mode",
          "type": "string"
        },
        {
          "internalType": "bool",
          "name": "liquid",
          "type": "bool"
        }
      ],
      "name": "deposit",
      "outputs": [],
      "stateMutability": "nonpayable",
      "type": "function"
    },
    {
      "inputs": [
        {
          "internalType": "address[]",
          "name": "assets",
          "type": "address[]"
        },
        {
          "internalType": "string",
          "name": "mode",
          "type": "string"
        }
      ],
      "name": "filterAssetsByMode",
      "outputs": [
        {
          "internalType": "address[]",
          "name": "",
          "type": "address[]"
        }
      ],
      "stateMutability": "view",
      "type": "function"
    },
    {
      "inputs": [],
      "name": "getAssetStates",
      "outputs": [
        {
          "components": [
            {
              "internalType": "address",
              "name": "asset",
              "type": "address"
            },
            {
              "internalType": "string",
              "name": "name",
              "type": "string"
            },
            {
              "internalType": "string",
              "name": "mode",
              "type": "string"
            },
            {
              "internalType": "uint256",
              "name": "balance",
              "type": "uint256"
            },
            {
              "internalType": "uint256",
              "name": "value",
              "type": "uint256"
            },
            {
              "internalType": "address",
              "name": "valueOracle",
              "type": "address"
            },
            {
              "internalType": "bool",
              "name": "liquid",
              "type": "bool"
            },
            {
              "internalType": "uint256",
              "name": "lastUpdateBlock",
              "type": "uint256"
            },
            {
              "internalType": "bytes",
              "name": "metaData",
              "type": "bytes"
            }
          ],
          "internalType": "struct AssetState[]",
          "name": "",
          "type": "tuple[]"
        }
      ],
      "stateMutability": "view",
      "type": "function"
    },
    {
      "inputs": [
        {
          "internalType": "address",
          "name": "user",
          "type": "address"
        }
      ],
      "name": "getUserValue",
      "outputs": [
        {
          "internalType": "uint256",
          "name": "",
          "type": "uint256"
        }
      ],
      "stateMutability": "view",
      "type": "function"
    },
    {
      "inputs": [
        {
          "internalType": "string",
          "name": "role",
          "type": "string"
        },
        {
          "internalType": "address",
          "name": "account",
          "type": "address"
        }
      ],
      "name": "hasRole",
      "outputs": [
        {
          "internalType": "bool",
          "name": "",
          "type": "bool"
        }
      ],
      "stateMutability": "view",
      "type": "function"
    },
    {
      "inputs": [
        {
          "internalType": "address",
          "name": "account",
          "type": "address"
        },
        {
          "internalType": "address",
          "name": "operator",
          "type": "address"
        }
      ],
      "name": "isApprovedForAll",
      "outputs": [
        {
          "internalType": "bool",
          "name": "",
          "type": "bool"
        }
      ],
      "stateMutability": "view",
      "type": "function"
    },
    {
      "inputs": [
        {
          "internalType": "address",
          "name": "from",
          "type": "address"
        },
        {
          "internalType": "address",
          "name": "to",
          "type": "address"
        },
        {
          "internalType": "address[]",
          "name": "assets",
          "type": "address[]"
        },
        {
          "internalType": "uint256[]",
          "name": "amounts",
          "type": "uint256[]"
        },
        {
          "internalType": "bytes",
          "name": "data",
          "type": "bytes"
        }
      ],
      "name": "safeBatchTransferFrom",
      "outputs": [],
      "stateMutability": "nonpayable",
      "type": "function"
    },
    {
      "inputs": [
        {
          "internalType": "address",
          "name": "operator",
          "type": "address"
        },
        {
          "internalType": "bool",
          "name": "approved",
          "type": "bool"
        }
      ],
      "name": "setApprovalForAll",
      "outputs": [],
      "stateMutability": "nonpayable",
      "type": "function"
    },
    {
      "inputs": [
        {
          "internalType": "uint256[]",
          "name": "array",
          "type": "uint256[]"
        }
      ],
      "name": "sumArray",
      "outputs": [
        {
          "internalType": "uint256",
          "name": "",
          "type": "uint256"
        }
      ],
      "stateMutability": "view",
      "type": "function"
    },
    {
      "inputs": [
        {
          "internalType": "bytes4",
          "name": "interfaceId",
          "type": "bytes4"
        }
      ],
      "name": "supportsInterface",
      "outputs": [
        {
          "internalType": "bool",
          "name": "",
          "type": "bool"
        }
      ],
      "stateMutability": "view",
      "type": "function"
    },
    {
      "inputs": [],
      "name": "treasuryAssetState",
      "outputs": [
        {
          "internalType": "address",
          "name": "asset",
          "type": "address"
        },
        {
          "internalType": "string",
          "name": "name",
          "type": "string"
        },
        {
          "internalType": "string",
          "name": "mode",
          "type": "string"
        },
        {
          "internalType": "uint256",
          "name": "balance",
          "type": "uint256"
        },
        {
          "internalType": "uint256",
          "name": "value",
          "type": "uint256"
        },
        {
          "internalType": "address",
          "name": "valueOracle",
          "type": "address"
        },
        {
          "internalType": "bool",
          "name": "liquid",
          "type": "bool"
        },
        {
          "internalType": "uint256",
          "name": "lastUpdateBlock",
          "type": "uint256"
        },
        {
          "internalType": "bytes",
          "name": "metaData",
          "type": "bytes"
        }
      ],
      "stateMutability": "view",
      "type": "function"
    },
    {
      "inputs": [
        {
          "internalType": "address",
          "name": "",
          "type": "address"
        },
        {
          "internalType": "uint256",
          "name": "",
          "type": "uint256"
        }
      ],
      "name": "user2assets",
      "outputs": [
        {
          "internalType": "address",
          "name": "",
          "type": "address"
        }
      ],
      "stateMutability": "view",
      "type": "function"
    },
    {
      "inputs": [
        {
          "internalType": "uint256",
          "name": "",
          "type": "uint256"
        }
      ],
      "name": "users",
      "outputs": [
        {
          "internalType": "address",
          "name": "",
          "type": "address"
        }
      ],
      "stateMutability": "view",
      "type": "function"
    },
    {
      "inputs": [
        {
          "internalType": "address",
          "name": "account",
          "type": "address"
        },
        {
          "internalType": "address",
          "name": "asset",
          "type": "address"
        }
      ],
      "name": "valueOf",
      "outputs": [
        {
          "internalType": "uint256",
          "name": "",
          "type": "uint256"
        }
      ],
      "stateMutability": "view",
      "type": "function"
    },
    {
      "inputs": [
        {
          "internalType": "address[]",
          "name": "accounts",
          "type": "address[]"
        },
        {
          "internalType": "address[]",
          "name": "assets",
          "type": "address[]"
        }
      ],
      "name": "valueOfBatch",
      "outputs": [
        {
          "internalType": "uint256[]",
          "name": "",
          "type": "uint256[]"
        }
      ],
      "stateMutability": "view",
      "type": "function"
    },
    {
      "inputs": [
        {
          "internalType": "address",
          "name": "asset",
          "type": "address"
        },
        {
          "internalType": "uint256",
          "name": "balance",
          "type": "uint256"
        }
      ],
      "name": "withdraw",
      "outputs": [],
      "stateMutability": "nonpayable",
      "type": "function"
    }
  ],
  "bytecode": "60806040526127106001553480156200001757600080fd5b50604051620038c7380380620038c78339810160408190526200003a91620001a7565b600980546001600160a01b031916309081179091556040516200005d90620000d4565b6001600160a01b03909116815260406020820181905260089082015267747265617375727960c01b6060820152608001604051809103906000f080158015620000aa573d6000803e3d6000fd5b50601180546001600160a01b0319166001600160a01b039290921691909117905550620002119050565b61124b806200267c83390190565b634e487b7160e01b600052604160045260246000fd5b600082601f8301126200010a57600080fd5b81516001600160401b0380821115620001275762000127620000e2565b604051601f8301601f19908116603f01168101908282118183101715620001525762000152620000e2565b816040528381526020925086838588010111156200016f57600080fd5b600091505b8382101562000193578582018301518183018401529082019062000174565b600093810190920192909252949350505050565b60008060408385031215620001bb57600080fd5b82516001600160401b0380821115620001d357600080fd5b620001e186838701620000f8565b93506020850151915080821115620001f857600080fd5b506200020785828601620000f8565b9150509250929050565b61245b80620002216000396000f3fe608060405234801561001057600080fd5b506004361061018e5760003560e01c8063a22cb465116100de578063d536cdd611610097578063e21d072311610071578063e21d0723146103d3578063e985e9c5146103fe578063f3fef3a31461043a578063f7888aec1461044d57600080fd5b8063d536cdd61461038b578063df6e9914146103a0578063e1f9b3ed146103b357600080fd5b8063a22cb46514610319578063a78c849b1461032c578063a8e7fd611461033f578063ad4d4c8914610352578063bc43cbaf14610365578063bf1bd7681461037857600080fd5b806352e5eb791161014b5780636c9cd097116101255780636c9cd097146102cd5780636f79c494146102e05780638a342a88146102f3578063973353c91461030657600080fd5b806352e5eb791461025e57806367d9083b146102905780636c5a5ff1146102b057600080fd5b806301ffc9a7146101935780630ffc231c146101cc5780631e2aea06146101ed57806328520eb914610200578063365b98b2146102205780634125ee3f1461024b575b600080fd5b6101b76101a1366004611932565b6001600160e01b0319166301ffc9a760e01b1490565b60405190151581526020015b60405180910390f35b6101df6101da366004611978565b610460565b6040519081526020016101c3565b6101df6101fb366004611a76565b6104ed565b6101df61020e366004611aaa565b60036020526000908152604090205481565b61023361022e366004611ac5565b61053b565b6040516001600160a01b0390911681526020016101c3565b610233610259366004611978565b610565565b61028e61026c366004611aaa565b600080546001600160a01b0319166001600160a01b0392909216919091179055565b005b6102a361029e366004611b40565b61059d565b6040516101c39190611ba3565b6102b86106aa565b6040516101c399989796959493929190611c37565b6101b76102db366004611d30565b61089a565b6101df6102ee366004611d7d565b610915565b6102b8610301366004611ac5565b61096e565b6102a3610314366004611b40565b6109ad565b61028e610327366004611db5565b610a7f565b6101df61033a366004611aaa565b610a8e565b61028e61034d366004611dec565b610ba2565b6101b7610360366004611aaa565b610d3c565b600054610233906001600160a01b031681565b61028e610386366004611dec565b610d9f565b610393610e1a565b6040516101c39190611e7e565b61028e6103ae366004611f73565b611091565b6103c66103c1366004612030565b611128565b6040516101c39190612089565b6101df6103e1366004611d7d565b600260209081526000928352604080842090915290825290205481565b6101b761040c366004611d7d565b6001600160a01b03918216600090815260086020908152604080832093909416825291909152205460ff1690565b61028e610448366004611978565b6112c2565b6101df61045b366004611d7d565b611340565b6001600160a01b0382166000908152600360205260408120546006805483919083908110610490576104906120ca565b906000526020600020906008020190506000816004015460015483600301546104b991906120f6565b6104c39190612115565b9050600060015482876104d691906120f6565b6104e09190612115565b9450505050505b92915050565b600080805b83518110156105345783818151811061050d5761050d6120ca565b6020026020010151826105209190612137565b91508061052c8161214a565b9150506104f2565b5092915050565b6005818154811061054b57600080fd5b6000918252602090912001546001600160a01b0316905081565b6004602052816000526040600020818154811061058157600080fd5b6000918252602090912001546001600160a01b03169150829050565b606081518351146105c95760405162461bcd60e51b81526004016105c090612163565b60405180910390fd5b600083516001600160401b038111156105e4576105e46119a2565b60405190808252806020026020018201604052801561060d578160200160208202803683370190505b50905060005b84518110156106a257610675848281518110610631576106316120ca565b60200260200101516101da87848151811061064e5761064e6120ca565b6020026020010151878581518110610668576106686120ca565b6020026020010151611340565b828281518110610687576106876120ca565b602090810291909101015261069b8161214a565b9050610613565b509392505050565b60098054600a80546001600160a01b0390921692916106c8906121af565b80601f01602080910402602001604051908101604052809291908181526020018280546106f4906121af565b80156107415780601f1061071657610100808354040283529160200191610741565b820191906000526020600020905b81548152906001019060200180831161072457829003601f168201915b505050505090806002018054610756906121af565b80601f0160208091040260200160405190810160405280929190818152602001828054610782906121af565b80156107cf5780601f106107a4576101008083540402835291602001916107cf565b820191906000526020600020905b8154815290600101906020018083116107b257829003601f168201915b505050506003830154600484015460058501546006860154600787018054969794969395506001600160a01b03831694600160a01b90930460ff1693919291610817906121af565b80601f0160208091040260200160405190810160405280929190818152602001828054610843906121af565b80156108905780601f1061086557610100808354040283529160200191610890565b820191906000526020600020905b81548152906001019060200180831161087357829003601f168201915b5050505050905089565b60008054604051636c9cd09760e01b81526001600160a01b0390911690636c9cd097906108cd90869086906004016121e9565b602060405180830381865afa1580156108ea573d6000803e3d6000fd5b505050506040513d601f19601f8201168201806040525081019061090e9190612213565b9392505050565b60006001600160a01b03831661093d5760405162461bcd60e51b81526004016105c090612230565b6001600160a01b0380831660009081526002602090815260408083209387168352929052205461090e908390610460565b6006818154811061097e57600080fd5b6000918252602090912060089091020180546001820180546001600160a01b039092169350906106c8906121af565b606081518351146109d05760405162461bcd60e51b81526004016105c090612163565b600083516001600160401b038111156109eb576109eb6119a2565b604051908082528060200260200182016040528015610a14578160200160208202803683370190505b50905060005b84518110156106a257610a52858281518110610a3857610a386120ca565b6020026020010151858381518110610668576106686120ca565b828281518110610a6457610a646120ca565b6020908102919091010152610a788161214a565b9050610a1a565b610a8a338383611395565b5050565b6001600160a01b038116600090815260046020908152604080832080548251818502810185019093528083528493830182828015610af557602002820191906000526020600020905b81546001600160a01b03168152600190910190602001808311610ad7575b50505050509050600081516001600160401b03811115610b1757610b176119a2565b604051908082528060200260200182016040528015610b40578160200160208202803683370190505b50905060005b8251811015610b8c5784828281518110610b6257610b626120ca565b6001600160a01b039092166020928302919091019091015280610b848161214a565b915050610b46565b50610b9a6101fb828461059d565b949350505050565b610c0560405180610120016040528060006001600160a01b031681526020016060815260200160608152602001600081526020016000815260200160006001600160a01b0316815260200160001515815260200160008152602001606081525090565b6001600160a01b03868116825260208201858152606083018790526040830185905283151560c08401526006805460018101825560009190915283517ff652222313e28459528d920b65115c16c04f3efc82aaedc97be59f3f377c0d3f600890920291820180546001600160a01b0319169190941617835590518392917ff652222313e28459528d920b65115c16c04f3efc82aaedc97be59f3f377c0d400190610caf90826122c1565b5060408201516002820190610cc490826122c1565b50606082015160038201556080820151600482015560a082015160058201805460c08501511515600160a01b026001600160a81b03199091166001600160a01b039093169290921791909117905560e082015160068201556101008201516007820190610d3190826122c1565b505050505050505050565b6006546000908103610d5057506000919050565b6001600160a01b038216600081815260036020526040902054600680549091908110610d7e57610d7e6120ca565b60009182526020909120600890910201546001600160a01b03161492915050565b610da885610d3c565b610db957610db98585858585610ba2565b6001600160a01b03851660009081526003602090815260408083205460028352818420338086529352908320805492939192889290610df9908490612137565b90915550610e0990508288611430565b610e11611502565b50505050505050565b606060006006805480602002602001604051908101604052809291908181526020016000905b828210156110865760008481526020908190206040805161012081019091526008850290910180546001600160a01b031682526001810180549293919291840191610e8a906121af565b80601f0160208091040260200160405190810160405280929190818152602001828054610eb6906121af565b8015610f035780601f10610ed857610100808354040283529160200191610f03565b820191906000526020600020905b815481529060010190602001808311610ee657829003601f168201915b50505050508152602001600282018054610f1c906121af565b80601f0160208091040260200160405190810160405280929190818152602001828054610f48906121af565b8015610f955780601f10610f6a57610100808354040283529160200191610f95565b820191906000526020600020905b815481529060010190602001808311610f7857829003601f168201915b5050509183525050600382015460208201526004820154604082015260058201546001600160a01b0381166060830152600160a01b900460ff1615156080820152600682015460a082015260078201805460c090920191610ff5906121af565b80601f0160208091040260200160405190810160405280929190818152602001828054611021906121af565b801561106e5780601f106110435761010080835404028352916020019161106e565b820191906000526020600020905b81548152906001019060200180831161105157829003601f168201915b50505050508152505081526020019060010190610e40565b509295945050505050565b6001600160a01b0385163314806110ad57506110ad853361040c565b6111145760405162461bcd60e51b815260206004820152603260248201527f455243313135353a207472616e736665722063616c6c6572206973206e6f74206044820152711bdddb995c881b9bdc88185c1c1c9bdd995960721b60648201526084016105c0565b6111218585858585611617565b5050505050565b60606000805b84518110156112115760006003600087848151811061114f5761114f6120ca565b60200260200101516001600160a01b03166001600160a01b031681526020019081526020016000205490508460405160200161118b9190612380565b60405160208183030381529060405280519060200120600682815481106111b4576111b46120ca565b90600052602060002090600802016002016040516020016111d5919061239c565b60405160208183030381529060405280519060200120036111fe57826111fa8161214a565b9350505b50806112098161214a565b91505061112e565b506000816001600160401b0381111561122c5761122c6119a2565b604051908082528060200260200182016040528015611255578160200160208202803683370190505b50905060005b828110156112b957858181518110611275576112756120ca565b602002602001015182828151811061128f5761128f6120ca565b6001600160a01b0390921660209283029190910190910152806112b18161214a565b91505061125b565b50949350505050565b6001600160a01b03821660009081526003602052604081205460068054919291839081106112f2576112f26120ca565b90600052602060002090600802019050611310816003015484611816565b92508281600301546113229190612412565b6003820181905560000361133a5761133a338561182d565b50505050565b60006001600160a01b0383166113685760405162461bcd60e51b81526004016105c090612230565b506001600160a01b0380821660009081526002602090815260408083209386168352929052205492915050565b816001600160a01b0316836001600160a01b0316036113f65760405162461bcd60e51b815260206004820152601960248201527f4552433732313a20617070726f766520746f2063616c6c65720000000000000060448201526064016105c0565b6001600160a01b03928316600090815260086020908152604080832094909516825292909252919020805460ff1916911515919091179055565b6000805b6001600160a01b0384166000908152600460205260409020548110156114b8576001600160a01b03848116600090815260046020526040902080549185169183908110611483576114836120ca565b6000918252602090912001546001600160a01b0316036114a657600191506114b8565b806114b08161214a565b915050611434565b50806114fd576001600160a01b0383811660009081526004602090815260408220805460018101825590835291200180546001600160a01b0319169184169190911790555b505050565b60005b60065481101561161457600061154660068381548110611527576115276120ca565b60009182526020909120600890910201546001600160a01b03166118ef565b90506006828154811061155b5761155b6120ca565b9060005260206000209060080201600301548161157891906120f6565b6006838154811061158b5761158b6120ca565b90600052602060002090600802016004018190555043600683815481106115b4576115b46120ca565b906000526020600020906008020160060181905550600682815481106115dc576115dc6120ca565b9060005260206000209060080201600401546009600401546115fe9190612137565b600d55508061160c8161214a565b915050611505565b50565b815183511461167c5760405162461bcd60e51b815260206004820152602b60248201527f455243313135353a2061737365747320616e6420616d6f756e7473206c656e6760448201526a0e8d040dad2e6dac2e8c6d60ab1b60648201526084016105c0565b6001600160a01b0384166116e05760405162461bcd60e51b815260206004820152602560248201527f455243313135353a207472616e7366657220746f20746865207a65726f206164604482015264647265737360d81b60648201526084016105c0565b3360005b8451811015610e11576000858281518110611701576117016120ca565b60200260200101519050600085838151811061171f5761171f6120ca565b6020908102919091018101516001600160a01b038085166000908152600284526040808220928e1682529190935290912054909150818110156117b75760405162461bcd60e51b815260206004820152602a60248201527f455243313135353a20696e73756666696369656e742062616c616e636520666f60448201526939103a3930b739b332b960b11b60648201526084016105c0565b6001600160a01b0383811660009081526002602090815260408083208e851684529091528082208585039055918b16815290812080548492906117fb908490612137565b925050819055505050508061180f9061214a565b90506116e4565b600081831015611826578161090e565b5090919050565b60005b6001600160a01b0383166000908152600460205260409020548110156114fd576001600160a01b0383811660009081526004602052604090208054918416918390811061187f5761187f6120ca565b6000918252602090912001546001600160a01b0316036118dd576001600160a01b03831660009081526004602052604090208054829081106118c3576118c36120ca565b600091825260209091200180546001600160a01b03191690555b806118e78161214a565b915050611830565b6001600160a01b03811660009081526003602052604081205460068054839290811061191d5761191d6120ca565b5060005250600292915050565b505050505050565b60006020828403121561194457600080fd5b81356001600160e01b03198116811461090e57600080fd5b80356001600160a01b038116811461197357600080fd5b919050565b6000806040838503121561198b57600080fd5b6119948361195c565b946020939093013593505050565b634e487b7160e01b600052604160045260246000fd5b604051601f8201601f191681016001600160401b03811182821017156119e0576119e06119a2565b604052919050565b60006001600160401b03821115611a0157611a016119a2565b5060051b60200190565b600082601f830112611a1c57600080fd5b81356020611a31611a2c836119e8565b6119b8565b82815260059290921b84018101918181019086841115611a5057600080fd5b8286015b84811015611a6b5780358352918301918301611a54565b509695505050505050565b600060208284031215611a8857600080fd5b81356001600160401b03811115611a9e57600080fd5b610b9a84828501611a0b565b600060208284031215611abc57600080fd5b61090e8261195c565b600060208284031215611ad757600080fd5b5035919050565b600082601f830112611aef57600080fd5b81356020611aff611a2c836119e8565b82815260059290921b84018101918181019086841115611b1e57600080fd5b8286015b84811015611a6b57611b338161195c565b8352918301918301611b22565b60008060408385031215611b5357600080fd5b82356001600160401b0380821115611b6a57600080fd5b611b7686838701611ade565b93506020850135915080821115611b8c57600080fd5b50611b9985828601611ade565b9150509250929050565b6020808252825182820181905260009190848201906040850190845b81811015611bdb57835183529284019291840191600101611bbf565b50909695505050505050565b60005b83811015611c02578181015183820152602001611bea565b50506000910152565b60008151808452611c23816020860160208601611be7565b601f01601f19169290920160200192915050565b6001600160a01b038a8116825261012060208301819052600091611c5d8483018d611c0b565b91508382036040850152611c71828c611c0b565b915089606085015288608085015280881660a08501525085151560c08401528460e0840152828103610100840152611ca98185611c0b565b9c9b505050505050505050505050565b60006001600160401b03831115611cd257611cd26119a2565b611ce5601f8401601f19166020016119b8565b9050828152838383011115611cf957600080fd5b828260208301376000602084830101529392505050565b600082601f830112611d2157600080fd5b61090e83833560208501611cb9565b60008060408385031215611d4357600080fd5b82356001600160401b03811115611d5957600080fd5b611d6585828601611d10565b925050611d746020840161195c565b90509250929050565b60008060408385031215611d9057600080fd5b611d998361195c565b9150611d746020840161195c565b801515811461161457600080fd5b60008060408385031215611dc857600080fd5b611dd18361195c565b91506020830135611de181611da7565b809150509250929050565b600080600080600060a08688031215611e0457600080fd5b611e0d8661195c565b94506020860135935060408601356001600160401b0380821115611e3057600080fd5b611e3c89838a01611d10565b94506060880135915080821115611e5257600080fd5b50611e5f88828901611d10565b9250506080860135611e7081611da7565b809150509295509295909350565b60006020808301818452808551808352604092508286019150828160051b87010184880160005b83811015611f6557888303603f19018552815180516001600160a01b0316845261012088820151818a870152611edd82870182611c0b565b9150508782015185820389870152611ef58282611c0b565b606084810151908801526080808501519088015260a0808501516001600160a01b03169088015260c08085015115159088015260e0808501519088015261010093840151878203948801949094529150611f5190508183611c0b565b968901969450505090860190600101611ea5565b509098975050505050505050565b600080600080600060a08688031215611f8b57600080fd5b611f948661195c565b9450611fa26020870161195c565b935060408601356001600160401b0380821115611fbe57600080fd5b611fca89838a01611ade565b94506060880135915080821115611fe057600080fd5b611fec89838a01611a0b565b9350608088013591508082111561200257600080fd5b508601601f8101881361201457600080fd5b61202388823560208401611cb9565b9150509295509295909350565b6000806040838503121561204357600080fd5b82356001600160401b038082111561205a57600080fd5b61206686838701611ade565b9350602085013591508082111561207c57600080fd5b50611b9985828601611d10565b6020808252825182820181905260009190848201906040850190845b81811015611bdb5783516001600160a01b0316835292840192918401916001016120a5565b634e487b7160e01b600052603260045260246000fd5b634e487b7160e01b600052601160045260246000fd5b6000816000190483118215151615612110576121106120e0565b500290565b60008261213257634e487b7160e01b600052601260045260246000fd5b500490565b808201808211156104e7576104e76120e0565b60006001820161215c5761215c6120e0565b5060010190565b6020808252602c908201527f455243313135353a206163636f756e747320616e6420617373657473206c656e60408201526b0cee8d040dad2e6dac2e8c6d60a31b606082015260800190565b600181811c908216806121c357607f821691505b6020821081036121e357634e487b7160e01b600052602260045260246000fd5b50919050565b6040815260006121fc6040830185611c0b565b905060018060a01b03831660208301529392505050565b60006020828403121561222557600080fd5b815161090e81611da7565b6020808252602b908201527f455243313135353a2062616c616e636520717565727920666f7220746865207a60408201526a65726f206164647265737360a81b606082015260800190565b601f8211156114fd57600081815260208120601f850160051c810160208610156122a25750805b601f850160051c820191505b8181101561192a578281556001016122ae565b81516001600160401b038111156122da576122da6119a2565b6122ee816122e884546121af565b8461227b565b602080601f831160018114612323576000841561230b5750858301515b600019600386901b1c1916600185901b17855561192a565b600085815260208120601f198616915b8281101561235257888601518255948401946001909101908401612333565b50858210156123705787850151600019600388901b60f8161c191681555b5050505050600190811b01905550565b60008251612392818460208701611be7565b9190910192915050565b60008083546123aa816121af565b600182811680156123c257600181146123d757612406565b60ff1984168752821515830287019450612406565b8760005260208060002060005b858110156123fd5781548a8201529084019082016123e4565b50505082870194505b50929695505050505050565b818103818111156104e7576104e76120e056fea264697066735822122005288031c789069a2134a1029a352f35fedba65bccf71e420c06409f256a627264736f6c6343000810003360806040523480156200001157600080fd5b506040516200124b3803806200124b83398101604081905262000034916200007c565b600380546001600160a01b0319166001600160a01b03841617905560056200005d828262000201565b505050620002cd565b634e487b7160e01b600052604160045260246000fd5b600080604083850312156200009057600080fd5b82516001600160a01b0381168114620000a857600080fd5b602084810151919350906001600160401b0380821115620000c857600080fd5b818601915086601f830112620000dd57600080fd5b815181811115620000f257620000f262000066565b604051601f8201601f19908116603f011681019083821181831017156200011d576200011d62000066565b8160405282815289868487010111156200013657600080fd5b600093505b828410156200015a57848401860151818501870152928501926200013b565b60008684830101528096505050505050509250929050565b600181811c908216806200018757607f821691505b602082108103620001a857634e487b7160e01b600052602260045260246000fd5b50919050565b601f821115620001fc57600081815260208120601f850160051c81016020861015620001d75750805b601f850160051c820191505b81811015620001f857828155600101620001e3565b5050505b505050565b81516001600160401b038111156200021d576200021d62000066565b62000235816200022e845462000172565b84620001ae565b602080601f8311600181146200026d5760008415620002545750858301515b600019600386901b1c1916600185901b178555620001f8565b600085815260208120601f198616915b828110156200029e578886015182559484019460019091019084016200027d565b5085821015620002bd5787850151600019600388901b60f8161c191681555b5050505050600190811b01905550565b610f6e80620002dd6000396000f3fe6080604052600436106101095760003560e01c80638b49d47e11610095578063a457c2d711610064578063a457c2d7146102e0578063a9059cbb14610300578063c877097d14610320578063d0e30db01461022b578063dd62ed3e1461033357600080fd5b80638b49d47e1461026357806395d89b411461028157806398fa582a146102965780639dc29fac146102c057600080fd5b806323b872dd116100dc57806323b872dd146101af578063313ce567146101cf57806339509351146101eb57806340c10f191461020b57806370a082311461022d57600080fd5b806306fdde031461010e578063095ea7b314610139578063119df25f1461016957806318160ddd14610190575b600080fd5b34801561011a57600080fd5b50610123610379565b6040516101309190610d27565b60405180910390f35b34801561014557600080fd5b50610159610154366004610d5d565b61040b565b6040519015158152602001610130565b34801561017557600080fd5b50335b6040516001600160a01b039091168152602001610130565b34801561019c57600080fd5b506002545b604051908152602001610130565b3480156101bb57600080fd5b506101596101ca366004610d87565b610422565b3480156101db57600080fd5b5060405160128152602001610130565b3480156101f757600080fd5b50610159610206366004610d5d565b6104cf565b34801561021757600080fd5b5061022b610226366004610d5d565b61050b565b005b34801561023957600080fd5b506101a1610248366004610dc3565b6001600160a01b031660009081526020819052604090205490565b34801561026f57600080fd5b50600036604051610130929190610dde565b34801561028d57600080fd5b50610123610519565b3480156102a257600080fd5b506102ab610528565b60405161013099989796959493929190610e0d565b3480156102cc57600080fd5b5061022b6102db366004610d5d565b610718565b3480156102ec57600080fd5b506101596102fb366004610d5d565b610722565b34801561030c57600080fd5b5061015961031b366004610d5d565b6107bb565b34801561032c57600080fd5b5032610178565b34801561033f57600080fd5b506101a161034e366004610e8f565b6001600160a01b03918216600090815260016020908152604080832093909416825291909152205490565b6060600b805461038890610ec2565b80601f01602080910402602001604051908101604052809291908181526020018280546103b490610ec2565b80156104015780601f106103d657610100808354040283529160200191610401565b820191906000526020600020905b8154815290600101906020018083116103e457829003601f168201915b5050505050905090565b60006104183384846107c8565b5060015b92915050565b6001600160a01b0383166000908152600160209081526040808320338452909152812054828110156104ac5760405162461bcd60e51b815260206004820152602860248201527f45524332303a207472616e7366657220616d6f756e74206578636565647320616044820152676c6c6f77616e636560c01b60648201526084015b60405180910390fd5b6104b78585856108ed565b6104c485338584036107c8565b506001949350505050565b3360008181526001602090815260408083206001600160a01b03871684529091528120549091610418918590610506908690610f12565b6107c8565b6105158282610abc565b5050565b6060600c805461038890610ec2565b60038054600480546001600160a01b03909216929161054690610ec2565b80601f016020809104026020016040519081016040528092919081815260200182805461057290610ec2565b80156105bf5780601f10610594576101008083540402835291602001916105bf565b820191906000526020600020905b8154815290600101906020018083116105a257829003601f168201915b5050505050908060020180546105d490610ec2565b80601f016020809104026020016040519081016040528092919081815260200182805461060090610ec2565b801561064d5780601f106106225761010080835404028352916020019161064d565b820191906000526020600020905b81548152906001019060200180831161063057829003601f168201915b505050506003830154600484015460058501546006860154600787018054969794969395506001600160a01b03831694600160a01b90930460ff169391929161069590610ec2565b80601f01602080910402602001604051908101604052809291908181526020018280546106c190610ec2565b801561070e5780601f106106e35761010080835404028352916020019161070e565b820191906000526020600020905b8154815290600101906020018083116106f157829003601f168201915b5050505050905089565b6105158282610b9b565b3360009081526001602090815260408083206001600160a01b0386168452909152812054828110156107a45760405162461bcd60e51b815260206004820152602560248201527f45524332303a2064656372656173656420616c6c6f77616e63652062656c6f77604482015264207a65726f60d81b60648201526084016104a3565b6107b133858584036107c8565b5060019392505050565b60006104183384846108ed565b6001600160a01b03831661082a5760405162461bcd60e51b8152602060048201526024808201527f45524332303a20617070726f76652066726f6d20746865207a65726f206164646044820152637265737360e01b60648201526084016104a3565b6001600160a01b03821661088b5760405162461bcd60e51b815260206004820152602260248201527f45524332303a20617070726f766520746f20746865207a65726f206164647265604482015261737360f01b60648201526084016104a3565b6001600160a01b0383811660008181526001602090815260408083209487168084529482529182902085905590518481527f8c5be1e5ebec7d5bd14f71427d1e84f3dd0314c0f7b2291e5b200ac8c7c3b92591015b60405180910390a3505050565b6001600160a01b0383166109515760405162461bcd60e51b815260206004820152602560248201527f45524332303a207472616e736665722066726f6d20746865207a65726f206164604482015264647265737360d81b60648201526084016104a3565b6001600160a01b0382166109b35760405162461bcd60e51b815260206004820152602360248201527f45524332303a207472616e7366657220746f20746865207a65726f206164647260448201526265737360e81b60648201526084016104a3565b6001600160a01b03831660009081526020819052604090205481811015610a2b5760405162461bcd60e51b815260206004820152602660248201527f45524332303a207472616e7366657220616d6f756e7420657863656564732062604482015265616c616e636560d01b60648201526084016104a3565b6001600160a01b03808516600090815260208190526040808220858503905591851681529081208054849290610a62908490610f12565b92505081905550826001600160a01b0316846001600160a01b03167fddf252ad1be2c89b69c2b068fc378daa952ba7f163c4a11628f55a4df523b3ef84604051610aae91815260200190565b60405180910390a350505050565b6001600160a01b038216610b125760405162461bcd60e51b815260206004820152601f60248201527f45524332303a206d696e7420746f20746865207a65726f20616464726573730060448201526064016104a3565b8060026000828254610b249190610f12565b90915550506001600160a01b03821660009081526020819052604081208054839290610b51908490610f12565b90915550506040518181526001600160a01b038316906000907fddf252ad1be2c89b69c2b068fc378daa952ba7f163c4a11628f55a4df523b3ef9060200160405180910390a35050565b6001600160a01b038216610bfb5760405162461bcd60e51b815260206004820152602160248201527f45524332303a206275726e2066726f6d20746865207a65726f206164647265736044820152607360f81b60648201526084016104a3565b6001600160a01b03821660009081526020819052604090205481811015610c6f5760405162461bcd60e51b815260206004820152602260248201527f45524332303a206275726e20616d6f756e7420657863656564732062616c616e604482015261636560f01b60648201526084016104a3565b6001600160a01b0383166000908152602081905260408120838303905560028054849290610c9e908490610f25565b90915550506040518281526000906001600160a01b038516907fddf252ad1be2c89b69c2b068fc378daa952ba7f163c4a11628f55a4df523b3ef906020016108e0565b6000815180845260005b81811015610d0757602081850181015186830182015201610ceb565b506000602082860101526020601f19601f83011685010191505092915050565b602081526000610d3a6020830184610ce1565b9392505050565b80356001600160a01b0381168114610d5857600080fd5b919050565b60008060408385031215610d7057600080fd5b610d7983610d41565b946020939093013593505050565b600080600060608486031215610d9c57600080fd5b610da584610d41565b9250610db360208501610d41565b9150604084013590509250925092565b600060208284031215610dd557600080fd5b610d3a82610d41565b60208152816020820152818360408301376000818301604090810191909152601f909201601f19160101919050565b6001600160a01b038a8116825261012060208301819052600091610e338483018d610ce1565b91508382036040850152610e47828c610ce1565b915089606085015288608085015280881660a08501525085151560c08401528460e0840152828103610100840152610e7f8185610ce1565b9c9b505050505050505050505050565b60008060408385031215610ea257600080fd5b610eab83610d41565b9150610eb960208401610d41565b90509250929050565b600181811c90821680610ed657607f821691505b602082108103610ef657634e487b7160e01b600052602260045260246000fd5b50919050565b634e487b7160e01b600052601160045260246000fd5b8082018082111561041c5761041c610efc565b8181038181111561041c5761041c610efc56fea2646970667358221220651539b89089eab19827ca4db89d17862b4c0175696e7a2b13d6d310451f4d6364736f6c63430008100033",
  "bytecodeSha1": "1fedc129c9f51d1958f62d7209ef8b0a67dadc66",
  "compiler": {
    "evm_version": "istanbul",
    "optimizer": {
      "enabled": true,
      "runs": 200
    },
    "version": "0.8.16+commit.07a7930e"
  },
  "contractName": "CommuneTreasury",
  "language": "Solidity",
  "natspec": {
    "details": "Implementation of https://eips.ethereum.org/EIPS/eip-721[ERC721] Non-Fungible Token Standard, including the Metadata extension, but not including the Enumerable extension, which is available separately as {ERC721Enumerable}.",
    "kind": "dev",
    "methods": {
      "getUserValue(address)": {
        "details": "See {IERC165-supportsInterface}."
      },
      "isApprovedForAll(address,address)": {
        "details": "See {IERC1155-isApprovedForAll}."
      },
      "safeBatchTransferFrom(address,address,address[],uint256[],bytes)": {
        "details": "See {IERC1155-safeBatchTransferFrom}."
      },
      "supportsInterface(bytes4)": {
        "details": "See {IERC165-supportsInterface}."
      }
    },
    "stateVariables": {
      "assetToken": {
        "details": "Initializes the contract by setting a `name` and a `symbol` to the token collection."
      }
    },
    "version": 1
  },
  "opcodes": "PUSH1 0x80 PUSH1 0x40 MSTORE CALLVALUE DUP1 ISZERO PUSH2 0x10 JUMPI PUSH1 0x0 DUP1 REVERT JUMPDEST POP PUSH1 0x4 CALLDATASIZE LT PUSH2 0x18E JUMPI PUSH1 0x0 CALLDATALOAD PUSH1 0xE0 SHR DUP1 PUSH4 0xA22CB465 GT PUSH2 0xDE JUMPI DUP1 PUSH4 0xD536CDD6 GT PUSH2 0x97 JUMPI DUP1 PUSH4 0xE21D0723 GT PUSH2 0x71 JUMPI DUP1 PUSH4 0xE21D0723 EQ PUSH2 0x3D3 JUMPI DUP1 PUSH4 0xE985E9C5 EQ PUSH2 0x3FE JUMPI DUP1 PUSH4 0xF3FEF3A3 EQ PUSH2 0x43A JUMPI DUP1 PUSH4 0xF7888AEC EQ PUSH2 0x44D JUMPI PUSH1 0x0 DUP1 REVERT JUMPDEST DUP1 PUSH4 0xD536CDD6 EQ PUSH2 0x38B JUMPI DUP1 PUSH4 0xDF6E9914 EQ PUSH2 0x3A0 JUMPI DUP1 PUSH4 0xE1F9B3ED EQ PUSH2 0x3B3 JUMPI PUSH1 0x0 DUP1 REVERT JUMPDEST DUP1 PUSH4 0xA22CB465 EQ PUSH2 0x319 JUMPI DUP1 PUSH4 0xA78C849B EQ PUSH2 0x32C JUMPI DUP1 PUSH4 0xA8E7FD61 EQ PUSH2 0x33F JUMPI DUP1 PUSH4 0xAD4D4C89 EQ PUSH2 0x352 JUMPI DUP1 PUSH4 0xBC43CBAF EQ PUSH2 0x365 JUMPI DUP1 PUSH4 0xBF1BD768 EQ PUSH2 0x378 JUMPI PUSH1 0x0 DUP1 REVERT JUMPDEST DUP1 PUSH4 0x52E5EB79 GT PUSH2 0x14B JUMPI DUP1 PUSH4 0x6C9CD097 GT PUSH2 0x125 JUMPI DUP1 PUSH4 0x6C9CD097 EQ PUSH2 0x2CD JUMPI DUP1 PUSH4 0x6F79C494 EQ PUSH2 0x2E0 JUMPI DUP1 PUSH4 0x8A342A88 EQ PUSH2 0x2F3 JUMPI DUP1 PUSH4 0x973353C9 EQ PUSH2 0x306 JUMPI PUSH1 0x0 DUP1 REVERT JUMPDEST DUP1 PUSH4 0x52E5EB79 EQ PUSH2 0x25E JUMPI DUP1 PUSH4 0x67D9083B EQ PUSH2 0x290 JUMPI DUP1 PUSH4 0x6C5A5FF1 EQ PUSH2 0x2B0 JUMPI PUSH1 0x0 DUP1 REVERT JUMPDEST DUP1 PUSH4 0x1FFC9A7 EQ PUSH2 0x193 JUMPI DUP1 PUSH4 0xFFC231C EQ PUSH2 0x1CC JUMPI DUP1 PUSH4 0x1E2AEA06 EQ PUSH2 0x1ED JUMPI DUP1 PUSH4 0x28520EB9 EQ PUSH2 0x200 JUMPI DUP1 PUSH4 0x365B98B2 EQ PUSH2 0x220 JUMPI DUP1 PUSH4 0x4125EE3F EQ PUSH2 0x24B JUMPI JUMPDEST PUSH1 0x0 DUP1 REVERT JUMPDEST PUSH2 0x1B7 PUSH2 0x1A1 CALLDATASIZE PUSH1 0x4 PUSH2 0x1932 JUMP JUMPDEST PUSH1 0x1 PUSH1 0x1 PUSH1 0xE0 SHL SUB NOT AND PUSH4 0x1FFC9A7 PUSH1 0xE0 SHL EQ SWAP1 JUMP JUMPDEST PUSH1 0x40 MLOAD SWAP1 ISZERO ISZERO DUP2 MSTORE PUSH1 0x20 ADD JUMPDEST PUSH1 0x40 MLOAD DUP1 SWAP2 SUB SWAP1 RETURN JUMPDEST PUSH2 0x1DF PUSH2 0x1DA CALLDATASIZE PUSH1 0x4 PUSH2 0x1978 JUMP JUMPDEST PUSH2 0x460 JUMP JUMPDEST PUSH1 0x40 MLOAD SWAP1 DUP2 MSTORE PUSH1 0x20 ADD PUSH2 0x1C3 JUMP JUMPDEST PUSH2 0x1DF PUSH2 0x1FB CALLDATASIZE PUSH1 0x4 PUSH2 0x1A76 JUMP JUMPDEST PUSH2 0x4ED JUMP JUMPDEST PUSH2 0x1DF PUSH2 0x20E CALLDATASIZE PUSH1 0x4 PUSH2 0x1AAA JUMP JUMPDEST PUSH1 0x3 PUSH1 0x20 MSTORE PUSH1 0x0 SWAP1 DUP2 MSTORE PUSH1 0x40 SWAP1 KECCAK256 SLOAD DUP2 JUMP JUMPDEST PUSH2 0x233 PUSH2 0x22E CALLDATASIZE PUSH1 0x4 PUSH2 0x1AC5 JUMP JUMPDEST PUSH2 0x53B JUMP JUMPDEST PUSH1 0x40 MLOAD PUSH1 0x1 PUSH1 0x1 PUSH1 0xA0 SHL SUB SWAP1 SWAP2 AND DUP2 MSTORE PUSH1 0x20 ADD PUSH2 0x1C3 JUMP JUMPDEST PUSH2 0x233 PUSH2 0x259 CALLDATASIZE PUSH1 0x4 PUSH2 0x1978 JUMP JUMPDEST PUSH2 0x565 JUMP JUMPDEST PUSH2 0x28E PUSH2 0x26C CALLDATASIZE PUSH1 0x4 PUSH2 0x1AAA JUMP JUMPDEST PUSH1 0x0 DUP1 SLOAD PUSH1 0x1 PUSH1 0x1 PUSH1 0xA0 SHL SUB NOT AND PUSH1 0x1 PUSH1 0x1 PUSH1 0xA0 SHL SUB SWAP3 SWAP1 SWAP3 AND SWAP2 SWAP1 SWAP2 OR SWAP1 SSTORE JUMP JUMPDEST STOP JUMPDEST PUSH2 0x2A3 PUSH2 0x29E CALLDATASIZE PUSH1 0x4 PUSH2 0x1B40 JUMP JUMPDEST PUSH2 0x59D JUMP JUMPDEST PUSH1 0x40 MLOAD PUSH2 0x1C3 SWAP2 SWAP1 PUSH2 0x1BA3 JUMP JUMPDEST PUSH2 0x2B8 PUSH2 0x6AA JUMP JUMPDEST PUSH1 0x40 MLOAD PUSH2 0x1C3 SWAP10 SWAP9 SWAP8 SWAP7 SWAP6 SWAP5 SWAP4 SWAP3 SWAP2 SWAP1 PUSH2 0x1C37 JUMP JUMPDEST PUSH2 0x1B7 PUSH2 0x2DB CALLDATASIZE PUSH1 0x4 PUSH2 0x1D30 JUMP JUMPDEST PUSH2 0x89A JUMP JUMPDEST PUSH2 0x1DF PUSH2 0x2EE CALLDATASIZE PUSH1 0x4 PUSH2 0x1D7D JUMP JUMPDEST PUSH2 0x915 JUMP JUMPDEST PUSH2 0x2B8 PUSH2 0x301 CALLDATASIZE PUSH1 0x4 PUSH2 0x1AC5 JUMP JUMPDEST PUSH2 0x96E JUMP JUMPDEST PUSH2 0x2A3 PUSH2 0x314 CALLDATASIZE PUSH1 0x4 PUSH2 0x1B40 JUMP JUMPDEST PUSH2 0x9AD JUMP JUMPDEST PUSH2 0x28E PUSH2 0x327 CALLDATASIZE PUSH1 0x4 PUSH2 0x1DB5 JUMP JUMPDEST PUSH2 0xA7F JUMP JUMPDEST PUSH2 0x1DF PUSH2 0x33A CALLDATASIZE PUSH1 0x4 PUSH2 0x1AAA JUMP JUMPDEST PUSH2 0xA8E JUMP JUMPDEST PUSH2 0x28E PUSH2 0x34D CALLDATASIZE PUSH1 0x4 PUSH2 0x1DEC JUMP JUMPDEST PUSH2 0xBA2 JUMP JUMPDEST PUSH2 0x1B7 PUSH2 0x360 CALLDATASIZE PUSH1 0x4 PUSH2 0x1AAA JUMP JUMPDEST PUSH2 0xD3C JUMP JUMPDEST PUSH1 0x0 SLOAD PUSH2 0x233 SWAP1 PUSH1 0x1 PUSH1 0x1 PUSH1 0xA0 SHL SUB AND DUP2 JUMP JUMPDEST PUSH2 0x28E PUSH2 0x386 CALLDATASIZE PUSH1 0x4 PUSH2 0x1DEC JUMP JUMPDEST PUSH2 0xD9F JUMP JUMPDEST PUSH2 0x393 PUSH2 0xE1A JUMP JUMPDEST PUSH1 0x40 MLOAD PUSH2 0x1C3 SWAP2 SWAP1 PUSH2 0x1E7E JUMP JUMPDEST PUSH2 0x28E PUSH2 0x3AE CALLDATASIZE PUSH1 0x4 PUSH2 0x1F73 JUMP JUMPDEST PUSH2 0x1091 JUMP JUMPDEST PUSH2 0x3C6 PUSH2 0x3C1 CALLDATASIZE PUSH1 0x4 PUSH2 0x2030 JUMP JUMPDEST PUSH2 0x1128 JUMP JUMPDEST PUSH1 0x40 MLOAD PUSH2 0x1C3 SWAP2 SWAP1 PUSH2 0x2089 JUMP JUMPDEST PUSH2 0x1DF PUSH2 0x3E1 CALLDATASIZE PUSH1 0x4 PUSH2 0x1D7D JUMP JUMPDEST PUSH1 0x2 PUSH1 0x20 SWAP1 DUP2 MSTORE PUSH1 0x0 SWAP3 DUP4 MSTORE PUSH1 0x40 DUP1 DUP5 KECCAK256 SWAP1 SWAP2 MSTORE SWAP1 DUP3 MSTORE SWAP1 KECCAK256 SLOAD DUP2 JUMP JUMPDEST PUSH2 0x1B7 PUSH2 0x40C CALLDATASIZE PUSH1 0x4 PUSH2 0x1D7D JUMP JUMPDEST PUSH1 0x1 PUSH1 0x1 PUSH1 0xA0 SHL SUB SWAP2 DUP3 AND PUSH1 0x0 SWAP1 DUP2 MSTORE PUSH1 0x8 PUSH1 0x20 SWAP1 DUP2 MSTORE PUSH1 0x40 DUP1 DUP4 KECCAK256 SWAP4 SWAP1 SWAP5 AND DUP3 MSTORE SWAP2 SWAP1 SWAP2 MSTORE KECCAK256 SLOAD PUSH1 0xFF AND SWAP1 JUMP JUMPDEST PUSH2 0x28E PUSH2 0x448 CALLDATASIZE PUSH1 0x4 PUSH2 0x1978 JUMP JUMPDEST PUSH2 0x12C2 JUMP JUMPDEST PUSH2 0x1DF PUSH2 0x45B CALLDATASIZE PUSH1 0x4 PUSH2 0x1D7D JUMP JUMPDEST PUSH2 0x1340 JUMP JUMPDEST PUSH1 0x1 PUSH1 0x1 PUSH1 0xA0 SHL SUB DUP3 AND PUSH1 0x0 SWAP1 DUP2 MSTORE PUSH1 0x3 PUSH1 0x20 MSTORE PUSH1 0x40 DUP2 KECCAK256 SLOAD PUSH1 0x6 DUP1 SLOAD DUP4 SWAP2 SWAP1 DUP4 SWAP1 DUP2 LT PUSH2 0x490 JUMPI PUSH2 0x490 PUSH2 0x20CA JUMP JUMPDEST SWAP1 PUSH1 0x0 MSTORE PUSH1 0x20 PUSH1 0x0 KECCAK256 SWAP1 PUSH1 0x8 MUL ADD SWAP1 POP PUSH1 0x0 DUP2 PUSH1 0x4 ADD SLOAD PUSH1 0x1 SLOAD DUP4 PUSH1 0x3 ADD SLOAD PUSH2 0x4B9 SWAP2 SWAP1 PUSH2 0x20F6 JUMP JUMPDEST PUSH2 0x4C3 SWAP2 SWAP1 PUSH2 0x2115 JUMP JUMPDEST SWAP1 POP PUSH1 0x0 PUSH1 0x1 SLOAD DUP3 DUP8 PUSH2 0x4D6 SWAP2 SWAP1 PUSH2 0x20F6 JUMP JUMPDEST PUSH2 0x4E0 SWAP2 SWAP1 PUSH2 0x2115 JUMP JUMPDEST SWAP5 POP POP POP POP POP JUMPDEST SWAP3 SWAP2 POP POP JUMP JUMPDEST PUSH1 0x0 DUP1 DUP1 JUMPDEST DUP4 MLOAD DUP2 LT ISZERO PUSH2 0x534 JUMPI DUP4 DUP2 DUP2 MLOAD DUP2 LT PUSH2 0x50D JUMPI PUSH2 0x50D PUSH2 0x20CA JUMP JUMPDEST PUSH1 0x20 MUL PUSH1 0x20 ADD ADD MLOAD DUP3 PUSH2 0x520 SWAP2 SWAP1 PUSH2 0x2137 JUMP JUMPDEST SWAP2 POP DUP1 PUSH2 0x52C DUP2 PUSH2 0x214A JUMP JUMPDEST SWAP2 POP POP PUSH2 0x4F2 JUMP JUMPDEST POP SWAP3 SWAP2 POP POP JUMP JUMPDEST PUSH1 0x5 DUP2 DUP2 SLOAD DUP2 LT PUSH2 0x54B JUMPI PUSH1 0x0 DUP1 REVERT JUMPDEST PUSH1 0x0 SWAP2 DUP3 MSTORE PUSH1 0x20 SWAP1 SWAP2 KECCAK256 ADD SLOAD PUSH1 0x1 PUSH1 0x1 PUSH1 0xA0 SHL SUB AND SWAP1 POP DUP2 JUMP JUMPDEST PUSH1 0x4 PUSH1 0x20 MSTORE DUP2 PUSH1 0x0 MSTORE PUSH1 0x40 PUSH1 0x0 KECCAK256 DUP2 DUP2 SLOAD DUP2 LT PUSH2 0x581 JUMPI PUSH1 0x0 DUP1 REVERT JUMPDEST PUSH1 0x0 SWAP2 DUP3 MSTORE PUSH1 0x20 SWAP1 SWAP2 KECCAK256 ADD SLOAD PUSH1 0x1 PUSH1 0x1 PUSH1 0xA0 SHL SUB AND SWAP2 POP DUP3 SWAP1 POP JUMP JUMPDEST PUSH1 0x60 DUP2 MLOAD DUP4 MLOAD EQ PUSH2 0x5C9 JUMPI PUSH1 0x40 MLOAD PUSH3 0x461BCD PUSH1 0xE5 SHL DUP2 MSTORE PUSH1 0x4 ADD PUSH2 0x5C0 SWAP1 PUSH2 0x2163 JUMP JUMPDEST PUSH1 0x40 MLOAD DUP1 SWAP2 SUB SWAP1 REVERT JUMPDEST PUSH1 0x0 DUP4 MLOAD PUSH1 0x1 PUSH1 0x1 PUSH1 0x40 SHL SUB DUP2 GT ISZERO PUSH2 0x5E4 JUMPI PUSH2 0x5E4 PUSH2 0x19A2 JUMP JUMPDEST PUSH1 0x40 MLOAD SWAP1 DUP1 DUP3 MSTORE DUP1 PUSH1 0x20 MUL PUSH1 0x20 ADD DUP3 ADD PUSH1 0x40 MSTORE DUP1 ISZERO PUSH2 0x60D JUMPI DUP2 PUSH1 0x20 ADD PUSH1 0x20 DUP3 MUL DUP1 CALLDATASIZE DUP4 CALLDATACOPY ADD SWAP1 POP JUMPDEST POP SWAP1 POP PUSH1 0x0 JUMPDEST DUP5 MLOAD DUP2 LT ISZERO PUSH2 0x6A2 JUMPI PUSH2 0x675 DUP5 DUP3 DUP2 MLOAD DUP2 LT PUSH2 0x631 JUMPI PUSH2 0x631 PUSH2 0x20CA JUMP JUMPDEST PUSH1 0x20 MUL PUSH1 0x20 ADD ADD MLOAD PUSH2 0x1DA DUP8 DUP5 DUP2 MLOAD DUP2 LT PUSH2 0x64E JUMPI PUSH2 0x64E PUSH2 0x20CA JUMP JUMPDEST PUSH1 0x20 MUL PUSH1 0x20 ADD ADD MLOAD DUP8 DUP6 DUP2 MLOAD DUP2 LT PUSH2 0x668 JUMPI PUSH2 0x668 PUSH2 0x20CA JUMP JUMPDEST PUSH1 0x20 MUL PUSH1 0x20 ADD ADD MLOAD PUSH2 0x1340 JUMP JUMPDEST DUP3 DUP3 DUP2 MLOAD DUP2 LT PUSH2 0x687 JUMPI PUSH2 0x687 PUSH2 0x20CA JUMP JUMPDEST PUSH1 0x20 SWAP1 DUP2 MUL SWAP2 SWAP1 SWAP2 ADD ADD MSTORE PUSH2 0x69B DUP2 PUSH2 0x214A JUMP JUMPDEST SWAP1 POP PUSH2 0x613 JUMP JUMPDEST POP SWAP4 SWAP3 POP POP POP JUMP JUMPDEST PUSH1 0x9 DUP1 SLOAD PUSH1 0xA DUP1 SLOAD PUSH1 0x1 PUSH1 0x1 PUSH1 0xA0 SHL SUB SWAP1 SWAP3 AND SWAP3 SWAP2 PUSH2 0x6C8 SWAP1 PUSH2 0x21AF JUMP JUMPDEST DUP1 PUSH1 0x1F ADD PUSH1 0x20 DUP1 SWAP2 DIV MUL PUSH1 0x20 ADD PUSH1 0x40 MLOAD SWAP1 DUP2 ADD PUSH1 0x40 MSTORE DUP1 SWAP3 SWAP2 SWAP1 DUP2 DUP2 MSTORE PUSH1 0x20 ADD DUP3 DUP1 SLOAD PUSH2 0x6F4 SWAP1 PUSH2 0x21AF JUMP JUMPDEST DUP1 ISZERO PUSH2 0x741 JUMPI DUP1 PUSH1 0x1F LT PUSH2 0x716 JUMPI PUSH2 0x100 DUP1 DUP4 SLOAD DIV MUL DUP4 MSTORE SWAP2 PUSH1 0x20 ADD SWAP2 PUSH2 0x741 JUMP JUMPDEST DUP3 ADD SWAP2 SWAP1 PUSH1 0x0 MSTORE PUSH1 0x20 PUSH1 0x0 KECCAK256 SWAP1 JUMPDEST DUP2 SLOAD DUP2 MSTORE SWAP1 PUSH1 0x1 ADD SWAP1 PUSH1 0x20 ADD DUP1 DUP4 GT PUSH2 0x724 JUMPI DUP3 SWAP1 SUB PUSH1 0x1F AND DUP3 ADD SWAP2 JUMPDEST POP POP POP POP POP SWAP1 DUP1 PUSH1 0x2 ADD DUP1 SLOAD PUSH2 0x756 SWAP1 PUSH2 0x21AF JUMP JUMPDEST DUP1 PUSH1 0x1F ADD PUSH1 0x20 DUP1 SWAP2 DIV MUL PUSH1 0x20 ADD PUSH1 0x40 MLOAD SWAP1 DUP2 ADD PUSH1 0x40 MSTORE DUP1 SWAP3 SWAP2 SWAP1 DUP2 DUP2 MSTORE PUSH1 0x20 ADD DUP3 DUP1 SLOAD PUSH2 0x782 SWAP1 PUSH2 0x21AF JUMP JUMPDEST DUP1 ISZERO PUSH2 0x7CF JUMPI DUP1 PUSH1 0x1F LT PUSH2 0x7A4 JUMPI PUSH2 0x100 DUP1 DUP4 SLOAD DIV MUL DUP4 MSTORE SWAP2 PUSH1 0x20 ADD SWAP2 PUSH2 0x7CF JUMP JUMPDEST DUP3 ADD SWAP2 SWAP1 PUSH1 0x0 MSTORE PUSH1 0x20 PUSH1 0x0 KECCAK256 SWAP1 JUMPDEST DUP2 SLOAD DUP2 MSTORE SWAP1 PUSH1 0x1 ADD SWAP1 PUSH1 0x20 ADD DUP1 DUP4 GT PUSH2 0x7B2 JUMPI DUP3 SWAP1 SUB PUSH1 0x1F AND DUP3 ADD SWAP2 JUMPDEST POP POP POP POP PUSH1 0x3 DUP4 ADD SLOAD PUSH1 0x4 DUP5 ADD SLOAD PUSH1 0x5 DUP6 ADD SLOAD PUSH1 0x6 DUP7 ADD SLOAD PUSH1 0x7 DUP8 ADD DUP1 SLOAD SWAP7 SWAP8 SWAP5 SWAP7 SWAP4 SWAP6 POP PUSH1 0x1 PUSH1 0x1 PUSH1 0xA0 SHL SUB DUP4 AND SWAP5 PUSH1 0x1 PUSH1 0xA0 SHL SWAP1 SWAP4 DIV PUSH1 0xFF AND SWAP4 SWAP2 SWAP3 SWAP2 PUSH2 0x817 SWAP1 PUSH2 0x21AF JUMP JUMPDEST DUP1 PUSH1 0x1F ADD PUSH1 0x20 DUP1 SWAP2 DIV MUL PUSH1 0x20 ADD PUSH1 0x40 MLOAD SWAP1 DUP2 ADD PUSH1 0x40 MSTORE DUP1 SWAP3 SWAP2 SWAP1 DUP2 DUP2 MSTORE PUSH1 0x20 ADD DUP3 DUP1 SLOAD PUSH2 0x843 SWAP1 PUSH2 0x21AF JUMP JUMPDEST DUP1 ISZERO PUSH2 0x890 JUMPI DUP1 PUSH1 0x1F LT PUSH2 0x865 JUMPI PUSH2 0x100 DUP1 DUP4 SLOAD DIV MUL DUP4 MSTORE SWAP2 PUSH1 0x20 ADD SWAP2 PUSH2 0x890 JUMP JUMPDEST DUP3 ADD SWAP2 SWAP1 PUSH1 0x0 MSTORE PUSH1 0x20 PUSH1 0x0 KECCAK256 SWAP1 JUMPDEST DUP2 SLOAD DUP2 MSTORE SWAP1 PUSH1 0x1 ADD SWAP1 PUSH1 0x20 ADD DUP1 DUP4 GT PUSH2 0x873 JUMPI DUP3 SWAP1 SUB PUSH1 0x1F AND DUP3 ADD SWAP2 JUMPDEST POP POP POP POP POP SWAP1 POP DUP10 JUMP JUMPDEST PUSH1 0x0 DUP1 SLOAD PUSH1 0x40 MLOAD PUSH4 0x6C9CD097 PUSH1 0xE0 SHL DUP2 MSTORE PUSH1 0x1 PUSH1 0x1 PUSH1 0xA0 SHL SUB SWAP1 SWAP2 AND SWAP1 PUSH4 0x6C9CD097 SWAP1 PUSH2 0x8CD SWAP1 DUP7 SWAP1 DUP7 SWAP1 PUSH1 0x4 ADD PUSH2 0x21E9 JUMP JUMPDEST PUSH1 0x20 PUSH1 0x40 MLOAD DUP1 DUP4 SUB DUP2 DUP7 GAS STATICCALL ISZERO DUP1 ISZERO PUSH2 0x8EA JUMPI RETURNDATASIZE PUSH1 0x0 DUP1 RETURNDATACOPY RETURNDATASIZE PUSH1 0x0 REVERT JUMPDEST POP POP POP POP PUSH1 0x40 MLOAD RETURNDATASIZE PUSH1 0x1F NOT PUSH1 0x1F DUP3 ADD AND DUP3 ADD DUP1 PUSH1 0x40 MSTORE POP DUP2 ADD SWAP1 PUSH2 0x90E SWAP2 SWAP1 PUSH2 0x2213 JUMP JUMPDEST SWAP4 SWAP3 POP POP POP JUMP JUMPDEST PUSH1 0x0 PUSH1 0x1 PUSH1 0x1 PUSH1 0xA0 SHL SUB DUP4 AND PUSH2 0x93D JUMPI PUSH1 0x40 MLOAD PUSH3 0x461BCD PUSH1 0xE5 SHL DUP2 MSTORE PUSH1 0x4 ADD PUSH2 0x5C0 SWAP1 PUSH2 0x2230 JUMP JUMPDEST PUSH1 0x1 PUSH1 0x1 PUSH1 0xA0 SHL SUB DUP1 DUP4 AND PUSH1 0x0 SWAP1 DUP2 MSTORE PUSH1 0x2 PUSH1 0x20 SWAP1 DUP2 MSTORE PUSH1 0x40 DUP1 DUP4 KECCAK256 SWAP4 DUP8 AND DUP4 MSTORE SWAP3 SWAP1 MSTORE KECCAK256 SLOAD PUSH2 0x90E SWAP1 DUP4 SWAP1 PUSH2 0x460 JUMP JUMPDEST PUSH1 0x6 DUP2 DUP2 SLOAD DUP2 LT PUSH2 0x97E JUMPI PUSH1 0x0 DUP1 REVERT JUMPDEST PUSH1 0x0 SWAP2 DUP3 MSTORE PUSH1 0x20 SWAP1 SWAP2 KECCAK256 PUSH1 0x8 SWAP1 SWAP2 MUL ADD DUP1 SLOAD PUSH1 0x1 DUP3 ADD DUP1 SLOAD PUSH1 0x1 PUSH1 0x1 PUSH1 0xA0 SHL SUB SWAP1 SWAP3 AND SWAP4 POP SWAP1 PUSH2 0x6C8 SWAP1 PUSH2 0x21AF JUMP JUMPDEST PUSH1 0x60 DUP2 MLOAD DUP4 MLOAD EQ PUSH2 0x9D0 JUMPI PUSH1 0x40 MLOAD PUSH3 0x461BCD PUSH1 0xE5 SHL DUP2 MSTORE PUSH1 0x4 ADD PUSH2 0x5C0 SWAP1 PUSH2 0x2163 JUMP JUMPDEST PUSH1 0x0 DUP4 MLOAD PUSH1 0x1 PUSH1 0x1 PUSH1 0x40 SHL SUB DUP2 GT ISZERO PUSH2 0x9EB JUMPI PUSH2 0x9EB PUSH2 0x19A2 JUMP JUMPDEST PUSH1 0x40 MLOAD SWAP1 DUP1 DUP3 MSTORE DUP1 PUSH1 0x20 MUL PUSH1 0x20 ADD DUP3 ADD PUSH1 0x40 MSTORE DUP1 ISZERO PUSH2 0xA14 JUMPI DUP2 PUSH1 0x20 ADD PUSH1 0x20 DUP3 MUL DUP1 CALLDATASIZE DUP4 CALLDATACOPY ADD SWAP1 POP JUMPDEST POP SWAP1 POP PUSH1 0x0 JUMPDEST DUP5 MLOAD DUP2 LT ISZERO PUSH2 0x6A2 JUMPI PUSH2 0xA52 DUP6 DUP3 DUP2 MLOAD DUP2 LT PUSH2 0xA38 JUMPI PUSH2 0xA38 PUSH2 0x20CA JUMP JUMPDEST PUSH1 0x20 MUL PUSH1 0x20 ADD ADD MLOAD DUP6 DUP4 DUP2 MLOAD DUP2 LT PUSH2 0x668 JUMPI PUSH2 0x668 PUSH2 0x20CA JUMP JUMPDEST DUP3 DUP3 DUP2 MLOAD DUP2 LT PUSH2 0xA64 JUMPI PUSH2 0xA64 PUSH2 0x20CA JUMP JUMPDEST PUSH1 0x20 SWAP1 DUP2 MUL SWAP2 SWAP1 SWAP2 ADD ADD MSTORE PUSH2 0xA78 DUP2 PUSH2 0x214A JUMP JUMPDEST SWAP1 POP PUSH2 0xA1A JUMP JUMPDEST PUSH2 0xA8A CALLER DUP4 DUP4 PUSH2 0x1395 JUMP JUMPDEST POP POP JUMP JUMPDEST PUSH1 0x1 PUSH1 0x1 PUSH1 0xA0 SHL SUB DUP2 AND PUSH1 0x0 SWAP1 DUP2 MSTORE PUSH1 0x4 PUSH1 0x20 SWAP1 DUP2 MSTORE PUSH1 0x40 DUP1 DUP4 KECCAK256 DUP1 SLOAD DUP3 MLOAD DUP2 DUP6 MUL DUP2 ADD DUP6 ADD SWAP1 SWAP4 MSTORE DUP1 DUP4 MSTORE DUP5 SWAP4 DUP4 ADD DUP3 DUP3 DUP1 ISZERO PUSH2 0xAF5 JUMPI PUSH1 0x20 MUL DUP3 ADD SWAP2 SWAP1 PUSH1 0x0 MSTORE PUSH1 0x20 PUSH1 0x0 KECCAK256 SWAP1 JUMPDEST DUP2 SLOAD PUSH1 0x1 PUSH1 0x1 PUSH1 0xA0 SHL SUB AND DUP2 MSTORE PUSH1 0x1 SWAP1 SWAP2 ADD SWAP1 PUSH1 0x20 ADD DUP1 DUP4 GT PUSH2 0xAD7 JUMPI JUMPDEST POP POP POP POP POP SWAP1 POP PUSH1 0x0 DUP2 MLOAD PUSH1 0x1 PUSH1 0x1 PUSH1 0x40 SHL SUB DUP2 GT ISZERO PUSH2 0xB17 JUMPI PUSH2 0xB17 PUSH2 0x19A2 JUMP JUMPDEST PUSH1 0x40 MLOAD SWAP1 DUP1 DUP3 MSTORE DUP1 PUSH1 0x20 MUL PUSH1 0x20 ADD DUP3 ADD PUSH1 0x40 MSTORE DUP1 ISZERO PUSH2 0xB40 JUMPI DUP2 PUSH1 0x20 ADD PUSH1 0x20 DUP3 MUL DUP1 CALLDATASIZE DUP4 CALLDATACOPY ADD SWAP1 POP JUMPDEST POP SWAP1 POP PUSH1 0x0 JUMPDEST DUP3 MLOAD DUP2 LT ISZERO PUSH2 0xB8C JUMPI DUP5 DUP3 DUP3 DUP2 MLOAD DUP2 LT PUSH2 0xB62 JUMPI PUSH2 0xB62 PUSH2 0x20CA JUMP JUMPDEST PUSH1 0x1 PUSH1 0x1 PUSH1 0xA0 SHL SUB SWAP1 SWAP3 AND PUSH1 0x20 SWAP3 DUP4 MUL SWAP2 SWAP1 SWAP2 ADD SWAP1 SWAP2 ADD MSTORE DUP1 PUSH2 0xB84 DUP2 PUSH2 0x214A JUMP JUMPDEST SWAP2 POP POP PUSH2 0xB46 JUMP JUMPDEST POP PUSH2 0xB9A PUSH2 0x1FB DUP3 DUP5 PUSH2 0x59D JUMP JUMPDEST SWAP5 SWAP4 POP POP POP POP JUMP JUMPDEST PUSH2 0xC05 PUSH1 0x40 MLOAD DUP1 PUSH2 0x120 ADD PUSH1 0x40 MSTORE DUP1 PUSH1 0x0 PUSH1 0x1 PUSH1 0x1 PUSH1 0xA0 SHL SUB AND DUP2 MSTORE PUSH1 0x20 ADD PUSH1 0x60 DUP2 MSTORE PUSH1 0x20 ADD PUSH1 0x60 DUP2 MSTORE PUSH1 0x20 ADD PUSH1 0x0 DUP2 MSTORE PUSH1 0x20 ADD PUSH1 0x0 DUP2 MSTORE PUSH1 0x20 ADD PUSH1 0x0 PUSH1 0x1 PUSH1 0x1 PUSH1 0xA0 SHL SUB AND DUP2 MSTORE PUSH1 0x20 ADD PUSH1 0x0 ISZERO ISZERO DUP2 MSTORE PUSH1 0x20 ADD PUSH1 0x0 DUP2 MSTORE PUSH1 0x20 ADD PUSH1 0x60 DUP2 MSTORE POP SWAP1 JUMP JUMPDEST PUSH1 0x1 PUSH1 0x1 PUSH1 0xA0 SHL SUB DUP7 DUP2 AND DUP3 MSTORE PUSH1 0x20 DUP3 ADD DUP6 DUP2 MSTORE PUSH1 0x60 DUP4 ADD DUP8 SWAP1 MSTORE PUSH1 0x40 DUP4 ADD DUP6 SWAP1 MSTORE DUP4 ISZERO ISZERO PUSH1 0xC0 DUP5 ADD MSTORE PUSH1 0x6 DUP1 SLOAD PUSH1 0x1 DUP2 ADD DUP3 SSTORE PUSH1 0x0 SWAP2 SWAP1 SWAP2 MSTORE DUP4 MLOAD PUSH32 0xF652222313E28459528D920B65115C16C04F3EFC82AAEDC97BE59F3F377C0D3F PUSH1 0x8 SWAP1 SWAP3 MUL SWAP2 DUP3 ADD DUP1 SLOAD PUSH1 0x1 PUSH1 0x1 PUSH1 0xA0 SHL SUB NOT AND SWAP2 SWAP1 SWAP5 AND OR DUP4 SSTORE SWAP1 MLOAD DUP4 SWAP3 SWAP2 PUSH32 0xF652222313E28459528D920B65115C16C04F3EFC82AAEDC97BE59F3F377C0D40 ADD SWAP1 PUSH2 0xCAF SWAP1 DUP3 PUSH2 0x22C1 JUMP JUMPDEST POP PUSH1 0x40 DUP3 ADD MLOAD PUSH1 0x2 DUP3 ADD SWAP1 PUSH2 0xCC4 SWAP1 DUP3 PUSH2 0x22C1 JUMP JUMPDEST POP PUSH1 0x60 DUP3 ADD MLOAD PUSH1 0x3 DUP3 ADD SSTORE PUSH1 0x80 DUP3 ADD MLOAD PUSH1 0x4 DUP3 ADD SSTORE PUSH1 0xA0 DUP3 ADD MLOAD PUSH1 0x5 DUP3 ADD DUP1 SLOAD PUSH1 0xC0 DUP6 ADD MLOAD ISZERO ISZERO PUSH1 0x1 PUSH1 0xA0 SHL MUL PUSH1 0x1 PUSH1 0x1 PUSH1 0xA8 SHL SUB NOT SWAP1 SWAP2 AND PUSH1 0x1 PUSH1 0x1 PUSH1 0xA0 SHL SUB SWAP1 SWAP4 AND SWAP3 SWAP1 SWAP3 OR SWAP2 SWAP1 SWAP2 OR SWAP1 SSTORE PUSH1 0xE0 DUP3 ADD MLOAD PUSH1 0x6 DUP3 ADD SSTORE PUSH2 0x100 DUP3 ADD MLOAD PUSH1 0x7 DUP3 ADD SWAP1 PUSH2 0xD31 SWAP1 DUP3 PUSH2 0x22C1 JUMP JUMPDEST POP POP POP POP POP POP POP POP POP JUMP JUMPDEST PUSH1 0x6 SLOAD PUSH1 0x0 SWAP1 DUP2 SUB PUSH2 0xD50 JUMPI POP PUSH1 0x0 SWAP2 SWAP1 POP JUMP JUMPDEST PUSH1 0x1 PUSH1 0x1 PUSH1 0xA0 SHL SUB DUP3 AND PUSH1 0x0 DUP2 DUP2 MSTORE PUSH1 0x3 PUSH1 0x20 MSTORE PUSH1 0x40 SWAP1 KECCAK256 SLOAD PUSH1 0x6 DUP1 SLOAD SWAP1 SWAP2 SWAP1 DUP2 LT PUSH2 0xD7E JUMPI PUSH2 0xD7E PUSH2 0x20CA JUMP JUMPDEST PUSH1 0x0 SWAP2 DUP3 MSTORE PUSH1 0x20 SWAP1 SWAP2 KECCAK256 PUSH1 0x8 SWAP1 SWAP2 MUL ADD SLOAD PUSH1 0x1 PUSH1 0x1 PUSH1 0xA0 SHL SUB AND EQ SWAP3 SWAP2 POP POP JUMP JUMPDEST PUSH2 0xDA8 DUP6 PUSH2 0xD3C JUMP JUMPDEST PUSH2 0xDB9 JUMPI PUSH2 0xDB9 DUP6 DUP6 DUP6 DUP6 DUP6 PUSH2 0xBA2 JUMP JUMPDEST PUSH1 0x1 PUSH1 0x1 PUSH1 0xA0 SHL SUB DUP6 AND PUSH1 0x0 SWAP1 DUP2 MSTORE PUSH1 0x3 PUSH1 0x20 SWAP1 DUP2 MSTORE PUSH1 0x40 DUP1 DUP4 KECCAK256 SLOAD PUSH1 0x2 DUP4 MSTORE DUP2 DUP5 KECCAK256 CALLER DUP1 DUP7 MSTORE SWAP4 MSTORE SWAP1 DUP4 KECCAK256 DUP1 SLOAD SWAP3 SWAP4 SWAP2 SWAP3 DUP9 SWAP3 SWAP1 PUSH2 0xDF9 SWAP1 DUP5 SWAP1 PUSH2 0x2137 JUMP JUMPDEST SWAP1 SWAP2 SSTORE POP PUSH2 0xE09 SWAP1 POP DUP3 DUP9 PUSH2 0x1430 JUMP JUMPDEST PUSH2 0xE11 PUSH2 0x1502 JUMP JUMPDEST POP POP POP POP POP POP POP JUMP JUMPDEST PUSH1 0x60 PUSH1 0x0 PUSH1 0x6 DUP1 SLOAD DUP1 PUSH1 0x20 MUL PUSH1 0x20 ADD PUSH1 0x40 MLOAD SWAP1 DUP2 ADD PUSH1 0x40 MSTORE DUP1 SWAP3 SWAP2 SWAP1 DUP2 DUP2 MSTORE PUSH1 0x20 ADD PUSH1 0x0 SWAP1 JUMPDEST DUP3 DUP3 LT ISZERO PUSH2 0x1086 JUMPI PUSH1 0x0 DUP5 DUP2 MSTORE PUSH1 0x20 SWAP1 DUP2 SWAP1 KECCAK256 PUSH1 0x40 DUP1 MLOAD PUSH2 0x120 DUP2 ADD SWAP1 SWAP2 MSTORE PUSH1 0x8 DUP6 MUL SWAP1 SWAP2 ADD DUP1 SLOAD PUSH1 0x1 PUSH1 0x1 PUSH1 0xA0 SHL SUB AND DUP3 MSTORE PUSH1 0x1 DUP2 ADD DUP1 SLOAD SWAP3 SWAP4 SWAP2 SWAP3 SWAP2 DUP5 ADD SWAP2 PUSH2 0xE8A SWAP1 PUSH2 0x21AF JUMP JUMPDEST DUP1 PUSH1 0x1F ADD PUSH1 0x20 DUP1 SWAP2 DIV MUL PUSH1 0x20 ADD PUSH1 0x40 MLOAD SWAP1 DUP2 ADD PUSH1 0x40 MSTORE DUP1 SWAP3 SWAP2 SWAP1 DUP2 DUP2 MSTORE PUSH1 0x20 ADD DUP3 DUP1 SLOAD PUSH2 0xEB6 SWAP1 PUSH2 0x21AF JUMP JUMPDEST DUP1 ISZERO PUSH2 0xF03 JUMPI DUP1 PUSH1 0x1F LT PUSH2 0xED8 JUMPI PUSH2 0x100 DUP1 DUP4 SLOAD DIV MUL DUP4 MSTORE SWAP2 PUSH1 0x20 ADD SWAP2 PUSH2 0xF03 JUMP JUMPDEST DUP3 ADD SWAP2 SWAP1 PUSH1 0x0 MSTORE PUSH1 0x20 PUSH1 0x0 KECCAK256 SWAP1 JUMPDEST DUP2 SLOAD DUP2 MSTORE SWAP1 PUSH1 0x1 ADD SWAP1 PUSH1 0x20 ADD DUP1 DUP4 GT PUSH2 0xEE6 JUMPI DUP3 SWAP1 SUB PUSH1 0x1F AND DUP3 ADD SWAP2 JUMPDEST POP POP POP POP POP DUP2 MSTORE PUSH1 0x20 ADD PUSH1 0x2 DUP3 ADD DUP1 SLOAD PUSH2 0xF1C SWAP1 PUSH2 0x21AF JUMP JUMPDEST DUP1 PUSH1 0x1F ADD PUSH1 0x20 DUP1 SWAP2 DIV MUL PUSH1 0x20 ADD PUSH1 0x40 MLOAD SWAP1 DUP2 ADD PUSH1 0x40 MSTORE DUP1 SWAP3 SWAP2 SWAP1 DUP2 DUP2 MSTORE PUSH1 0x20 ADD DUP3 DUP1 SLOAD PUSH2 0xF48 SWAP1 PUSH2 0x21AF JUMP JUMPDEST DUP1 ISZERO PUSH2 0xF95 JUMPI DUP1 PUSH1 0x1F LT PUSH2 0xF6A JUMPI PUSH2 0x100 DUP1 DUP4 SLOAD DIV MUL DUP4 MSTORE SWAP2 PUSH1 0x20 ADD SWAP2 PUSH2 0xF95 JUMP JUMPDEST DUP3 ADD SWAP2 SWAP1 PUSH1 0x0 MSTORE PUSH1 0x20 PUSH1 0x0 KECCAK256 SWAP1 JUMPDEST DUP2 SLOAD DUP2 MSTORE SWAP1 PUSH1 0x1 ADD SWAP1 PUSH1 0x20 ADD DUP1 DUP4 GT PUSH2 0xF78 JUMPI DUP3 SWAP1 SUB PUSH1 0x1F AND DUP3 ADD SWAP2 JUMPDEST POP POP POP SWAP2 DUP4 MSTORE POP POP PUSH1 0x3 DUP3 ADD SLOAD PUSH1 0x20 DUP3 ADD MSTORE PUSH1 0x4 DUP3 ADD SLOAD PUSH1 0x40 DUP3 ADD MSTORE PUSH1 0x5 DUP3 ADD SLOAD PUSH1 0x1 PUSH1 0x1 PUSH1 0xA0 SHL SUB DUP2 AND PUSH1 0x60 DUP4 ADD MSTORE PUSH1 0x1 PUSH1 0xA0 SHL SWAP1 DIV PUSH1 0xFF AND ISZERO ISZERO PUSH1 0x80 DUP3 ADD MSTORE PUSH1 0x6 DUP3 ADD SLOAD PUSH1 0xA0 DUP3 ADD MSTORE PUSH1 0x7 DUP3 ADD DUP1 SLOAD PUSH1 0xC0 SWAP1 SWAP3 ADD SWAP2 PUSH2 0xFF5 SWAP1 PUSH2 0x21AF JUMP JUMPDEST DUP1 PUSH1 0x1F ADD PUSH1 0x20 DUP1 SWAP2 DIV MUL PUSH1 0x20 ADD PUSH1 0x40 MLOAD SWAP1 DUP2 ADD PUSH1 0x40 MSTORE DUP1 SWAP3 SWAP2 SWAP1 DUP2 DUP2 MSTORE PUSH1 0x20 ADD DUP3 DUP1 SLOAD PUSH2 0x1021 SWAP1 PUSH2 0x21AF JUMP JUMPDEST DUP1 ISZERO PUSH2 0x106E JUMPI DUP1 PUSH1 0x1F LT PUSH2 0x1043 JUMPI PUSH2 0x100 DUP1 DUP4 SLOAD DIV MUL DUP4 MSTORE SWAP2 PUSH1 0x20 ADD SWAP2 PUSH2 0x106E JUMP JUMPDEST DUP3 ADD SWAP2 SWAP1 PUSH1 0x0 MSTORE PUSH1 0x20 PUSH1 0x0 KECCAK256 SWAP1 JUMPDEST DUP2 SLOAD DUP2 MSTORE SWAP1 PUSH1 0x1 ADD SWAP1 PUSH1 0x20 ADD DUP1 DUP4 GT PUSH2 0x1051 JUMPI DUP3 SWAP1 SUB PUSH1 0x1F AND DUP3 ADD SWAP2 JUMPDEST POP POP POP POP POP DUP2 MSTORE POP POP DUP2 MSTORE PUSH1 0x20 ADD SWAP1 PUSH1 0x1 ADD SWAP1 PUSH2 0xE40 JUMP JUMPDEST POP SWAP3 SWAP6 SWAP5 POP POP POP POP POP JUMP JUMPDEST PUSH1 0x1 PUSH1 0x1 PUSH1 0xA0 SHL SUB DUP6 AND CALLER EQ DUP1 PUSH2 0x10AD JUMPI POP PUSH2 0x10AD DUP6 CALLER PUSH2 0x40C JUMP JUMPDEST PUSH2 0x1114 JUMPI PUSH1 0x40 MLOAD PUSH3 0x461BCD PUSH1 0xE5 SHL DUP2 MSTORE PUSH1 0x20 PUSH1 0x4 DUP3 ADD MSTORE PUSH1 0x32 PUSH1 0x24 DUP3 ADD MSTORE PUSH32 0x455243313135353A207472616E736665722063616C6C6572206973206E6F7420 PUSH1 0x44 DUP3 ADD MSTORE PUSH18 0x1BDDDB995C881B9BDC88185C1C1C9BDD9959 PUSH1 0x72 SHL PUSH1 0x64 DUP3 ADD MSTORE PUSH1 0x84 ADD PUSH2 0x5C0 JUMP JUMPDEST PUSH2 0x1121 DUP6 DUP6 DUP6 DUP6 DUP6 PUSH2 0x1617 JUMP JUMPDEST POP POP POP POP POP JUMP JUMPDEST PUSH1 0x60 PUSH1 0x0 DUP1 JUMPDEST DUP5 MLOAD DUP2 LT ISZERO PUSH2 0x1211 JUMPI PUSH1 0x0 PUSH1 0x3 PUSH1 0x0 DUP8 DUP5 DUP2 MLOAD DUP2 LT PUSH2 0x114F JUMPI PUSH2 0x114F PUSH2 0x20CA JUMP JUMPDEST PUSH1 0x20 MUL PUSH1 0x20 ADD ADD MLOAD PUSH1 0x1 PUSH1 0x1 PUSH1 0xA0 SHL SUB AND PUSH1 0x1 PUSH1 0x1 PUSH1 0xA0 SHL SUB AND DUP2 MSTORE PUSH1 0x20 ADD SWAP1 DUP2 MSTORE PUSH1 0x20 ADD PUSH1 0x0 KECCAK256 SLOAD SWAP1 POP DUP5 PUSH1 0x40 MLOAD PUSH1 0x20 ADD PUSH2 0x118B SWAP2 SWAP1 PUSH2 0x2380 JUMP JUMPDEST PUSH1 0x40 MLOAD PUSH1 0x20 DUP2 DUP4 SUB SUB DUP2 MSTORE SWAP1 PUSH1 0x40 MSTORE DUP1 MLOAD SWAP1 PUSH1 0x20 ADD KECCAK256 PUSH1 0x6 DUP3 DUP2 SLOAD DUP2 LT PUSH2 0x11B4 JUMPI PUSH2 0x11B4 PUSH2 0x20CA JUMP JUMPDEST SWAP1 PUSH1 0x0 MSTORE PUSH1 0x20 PUSH1 0x0 KECCAK256 SWAP1 PUSH1 0x8 MUL ADD PUSH1 0x2 ADD PUSH1 0x40 MLOAD PUSH1 0x20 ADD PUSH2 0x11D5 SWAP2 SWAP1 PUSH2 0x239C JUMP JUMPDEST PUSH1 0x40 MLOAD PUSH1 0x20 DUP2 DUP4 SUB SUB DUP2 MSTORE SWAP1 PUSH1 0x40 MSTORE DUP1 MLOAD SWAP1 PUSH1 0x20 ADD KECCAK256 SUB PUSH2 0x11FE JUMPI DUP3 PUSH2 0x11FA DUP2 PUSH2 0x214A JUMP JUMPDEST SWAP4 POP POP JUMPDEST POP DUP1 PUSH2 0x1209 DUP2 PUSH2 0x214A JUMP JUMPDEST SWAP2 POP POP PUSH2 0x112E JUMP JUMPDEST POP PUSH1 0x0 DUP2 PUSH1 0x1 PUSH1 0x1 PUSH1 0x40 SHL SUB DUP2 GT ISZERO PUSH2 0x122C JUMPI PUSH2 0x122C PUSH2 0x19A2 JUMP JUMPDEST PUSH1 0x40 MLOAD SWAP1 DUP1 DUP3 MSTORE DUP1 PUSH1 0x20 MUL PUSH1 0x20 ADD DUP3 ADD PUSH1 0x40 MSTORE DUP1 ISZERO PUSH2 0x1255 JUMPI DUP2 PUSH1 0x20 ADD PUSH1 0x20 DUP3 MUL DUP1 CALLDATASIZE DUP4 CALLDATACOPY ADD SWAP1 POP JUMPDEST POP SWAP1 POP PUSH1 0x0 JUMPDEST DUP3 DUP2 LT ISZERO PUSH2 0x12B9 JUMPI DUP6 DUP2 DUP2 MLOAD DUP2 LT PUSH2 0x1275 JUMPI PUSH2 0x1275 PUSH2 0x20CA JUMP JUMPDEST PUSH1 0x20 MUL PUSH1 0x20 ADD ADD MLOAD DUP3 DUP3 DUP2 MLOAD DUP2 LT PUSH2 0x128F JUMPI PUSH2 0x128F PUSH2 0x20CA JUMP JUMPDEST PUSH1 0x1 PUSH1 0x1 PUSH1 0xA0 SHL SUB SWAP1 SWAP3 AND PUSH1 0x20 SWAP3 DUP4 MUL SWAP2 SWAP1 SWAP2 ADD SWAP1 SWAP2 ADD MSTORE DUP1 PUSH2 0x12B1 DUP2 PUSH2 0x214A JUMP JUMPDEST SWAP2 POP POP PUSH2 0x125B JUMP JUMPDEST POP SWAP5 SWAP4 POP POP POP POP JUMP JUMPDEST PUSH1 0x1 PUSH1 0x1 PUSH1 0xA0 SHL SUB DUP3 AND PUSH1 0x0 SWAP1 DUP2 MSTORE PUSH1 0x3 PUSH1 0x20 MSTORE PUSH1 0x40 DUP2 KECCAK256 SLOAD PUSH1 0x6 DUP1 SLOAD SWAP2 SWAP3 SWAP2 DUP4 SWAP1 DUP2 LT PUSH2 0x12F2 JUMPI PUSH2 0x12F2 PUSH2 0x20CA JUMP JUMPDEST SWAP1 PUSH1 0x0 MSTORE PUSH1 0x20 PUSH1 0x0 KECCAK256 SWAP1 PUSH1 0x8 MUL ADD SWAP1 POP PUSH2 0x1310 DUP2 PUSH1 0x3 ADD SLOAD DUP5 PUSH2 0x1816 JUMP JUMPDEST SWAP3 POP DUP3 DUP2 PUSH1 0x3 ADD SLOAD PUSH2 0x1322 SWAP2 SWAP1 PUSH2 0x2412 JUMP JUMPDEST PUSH1 0x3 DUP3 ADD DUP2 SWAP1 SSTORE PUSH1 0x0 SUB PUSH2 0x133A JUMPI PUSH2 0x133A CALLER DUP6 PUSH2 0x182D JUMP JUMPDEST POP POP POP POP JUMP JUMPDEST PUSH1 0x0 PUSH1 0x1 PUSH1 0x1 PUSH1 0xA0 SHL SUB DUP4 AND PUSH2 0x1368 JUMPI PUSH1 0x40 MLOAD PUSH3 0x461BCD PUSH1 0xE5 SHL DUP2 MSTORE PUSH1 0x4 ADD PUSH2 0x5C0 SWAP1 PUSH2 0x2230 JUMP JUMPDEST POP PUSH1 0x1 PUSH1 0x1 PUSH1 0xA0 SHL SUB DUP1 DUP3 AND PUSH1 0x0 SWAP1 DUP2 MSTORE PUSH1 0x2 PUSH1 0x20 SWAP1 DUP2 MSTORE PUSH1 0x40 DUP1 DUP4 KECCAK256 SWAP4 DUP7 AND DUP4 MSTORE SWAP3 SWAP1 MSTORE KECCAK256 SLOAD SWAP3 SWAP2 POP POP JUMP JUMPDEST DUP2 PUSH1 0x1 PUSH1 0x1 PUSH1 0xA0 SHL SUB AND DUP4 PUSH1 0x1 PUSH1 0x1 PUSH1 0xA0 SHL SUB AND SUB PUSH2 0x13F6 JUMPI PUSH1 0x40 MLOAD PUSH3 0x461BCD PUSH1 0xE5 SHL DUP2 MSTORE PUSH1 0x20 PUSH1 0x4 DUP3 ADD MSTORE PUSH1 0x19 PUSH1 0x24 DUP3 ADD MSTORE PUSH32 0x4552433732313A20617070726F766520746F2063616C6C657200000000000000 PUSH1 0x44 DUP3 ADD MSTORE PUSH1 0x64 ADD PUSH2 0x5C0 JUMP JUMPDEST PUSH1 0x1 PUSH1 0x1 PUSH1 0xA0 SHL SUB SWAP3 DUP4 AND PUSH1 0x0 SWAP1 DUP2 MSTORE PUSH1 0x8 PUSH1 0x20 SWAP1 DUP2 MSTORE PUSH1 0x40 DUP1 DUP4 KECCAK256 SWAP5 SWAP1 SWAP6 AND DUP3 MSTORE SWAP3 SWAP1 SWAP3 MSTORE SWAP2 SWAP1 KECCAK256 DUP1 SLOAD PUSH1 0xFF NOT AND SWAP2 ISZERO ISZERO SWAP2 SWAP1 SWAP2 OR SWAP1 SSTORE JUMP JUMPDEST PUSH1 0x0 DUP1 JUMPDEST PUSH1 0x1 PUSH1 0x1 PUSH1 0xA0 SHL SUB DUP5 AND PUSH1 0x0 SWAP1 DUP2 MSTORE PUSH1 0x4 PUSH1 0x20 MSTORE PUSH1 0x40 SWAP1 KECCAK256 SLOAD DUP2 LT ISZERO PUSH2 0x14B8 JUMPI PUSH1 0x1 PUSH1 0x1 PUSH1 0xA0 SHL SUB DUP5 DUP2 AND PUSH1 0x0 SWAP1 DUP2 MSTORE PUSH1 0x4 PUSH1 0x20 MSTORE PUSH1 0x40 SWAP1 KECCAK256 DUP1 SLOAD SWAP2 DUP6 AND SWAP2 DUP4 SWAP1 DUP2 LT PUSH2 0x1483 JUMPI PUSH2 0x1483 PUSH2 0x20CA JUMP JUMPDEST PUSH1 0x0 SWAP2 DUP3 MSTORE PUSH1 0x20 SWAP1 SWAP2 KECCAK256 ADD SLOAD PUSH1 0x1 PUSH1 0x1 PUSH1 0xA0 SHL SUB AND SUB PUSH2 0x14A6 JUMPI PUSH1 0x1 SWAP2 POP PUSH2 0x14B8 JUMP JUMPDEST DUP1 PUSH2 0x14B0 DUP2 PUSH2 0x214A JUMP JUMPDEST SWAP2 POP POP PUSH2 0x1434 JUMP JUMPDEST POP DUP1 PUSH2 0x14FD JUMPI PUSH1 0x1 PUSH1 0x1 PUSH1 0xA0 SHL SUB DUP4 DUP2 AND PUSH1 0x0 SWAP1 DUP2 MSTORE PUSH1 0x4 PUSH1 0x20 SWAP1 DUP2 MSTORE PUSH1 0x40 DUP3 KECCAK256 DUP1 SLOAD PUSH1 0x1 DUP2 ADD DUP3 SSTORE SWAP1 DUP4 MSTORE SWAP2 KECCAK256 ADD DUP1 SLOAD PUSH1 0x1 PUSH1 0x1 PUSH1 0xA0 SHL SUB NOT AND SWAP2 DUP5 AND SWAP2 SWAP1 SWAP2 OR SWAP1 SSTORE JUMPDEST POP POP POP JUMP JUMPDEST PUSH1 0x0 JUMPDEST PUSH1 0x6 SLOAD DUP2 LT ISZERO PUSH2 0x1614 JUMPI PUSH1 0x0 PUSH2 0x1546 PUSH1 0x6 DUP4 DUP2 SLOAD DUP2 LT PUSH2 0x1527 JUMPI PUSH2 0x1527 PUSH2 0x20CA JUMP JUMPDEST PUSH1 0x0 SWAP2 DUP3 MSTORE PUSH1 0x20 SWAP1 SWAP2 KECCAK256 PUSH1 0x8 SWAP1 SWAP2 MUL ADD SLOAD PUSH1 0x1 PUSH1 0x1 PUSH1 0xA0 SHL SUB AND PUSH2 0x18EF JUMP JUMPDEST SWAP1 POP PUSH1 0x6 DUP3 DUP2 SLOAD DUP2 LT PUSH2 0x155B JUMPI PUSH2 0x155B PUSH2 0x20CA JUMP JUMPDEST SWAP1 PUSH1 0x0 MSTORE PUSH1 0x20 PUSH1 0x0 KECCAK256 SWAP1 PUSH1 0x8 MUL ADD PUSH1 0x3 ADD SLOAD DUP2 PUSH2 0x1578 SWAP2 SWAP1 PUSH2 0x20F6 JUMP JUMPDEST PUSH1 0x6 DUP4 DUP2 SLOAD DUP2 LT PUSH2 0x158B JUMPI PUSH2 0x158B PUSH2 0x20CA JUMP JUMPDEST SWAP1 PUSH1 0x0 MSTORE PUSH1 0x20 PUSH1 0x0 KECCAK256 SWAP1 PUSH1 0x8 MUL ADD PUSH1 0x4 ADD DUP2 SWAP1 SSTORE POP NUMBER PUSH1 0x6 DUP4 DUP2 SLOAD DUP2 LT PUSH2 0x15B4 JUMPI PUSH2 0x15B4 PUSH2 0x20CA JUMP JUMPDEST SWAP1 PUSH1 0x0 MSTORE PUSH1 0x20 PUSH1 0x0 KECCAK256 SWAP1 PUSH1 0x8 MUL ADD PUSH1 0x6 ADD DUP2 SWAP1 SSTORE POP PUSH1 0x6 DUP3 DUP2 SLOAD DUP2 LT PUSH2 0x15DC JUMPI PUSH2 0x15DC PUSH2 0x20CA JUMP JUMPDEST SWAP1 PUSH1 0x0 MSTORE PUSH1 0x20 PUSH1 0x0 KECCAK256 SWAP1 PUSH1 0x8 MUL ADD PUSH1 0x4 ADD SLOAD PUSH1 0x9 PUSH1 0x4 ADD SLOAD PUSH2 0x15FE SWAP2 SWAP1 PUSH2 0x2137 JUMP JUMPDEST PUSH1 0xD SSTORE POP DUP1 PUSH2 0x160C DUP2 PUSH2 0x214A JUMP JUMPDEST SWAP2 POP POP PUSH2 0x1505 JUMP JUMPDEST POP JUMP JUMPDEST DUP2 MLOAD DUP4 MLOAD EQ PUSH2 0x167C JUMPI PUSH1 0x40 MLOAD PUSH3 0x461BCD PUSH1 0xE5 SHL DUP2 MSTORE PUSH1 0x20 PUSH1 0x4 DUP3 ADD MSTORE PUSH1 0x2B PUSH1 0x24 DUP3 ADD MSTORE PUSH32 0x455243313135353A2061737365747320616E6420616D6F756E7473206C656E67 PUSH1 0x44 DUP3 ADD MSTORE PUSH11 0xE8D040DAD2E6DAC2E8C6D PUSH1 0xAB SHL PUSH1 0x64 DUP3 ADD MSTORE PUSH1 0x84 ADD PUSH2 0x5C0 JUMP JUMPDEST PUSH1 0x1 PUSH1 0x1 PUSH1 0xA0 SHL SUB DUP5 AND PUSH2 0x16E0 JUMPI PUSH1 0x40 MLOAD PUSH3 0x461BCD PUSH1 0xE5 SHL DUP2 MSTORE PUSH1 0x20 PUSH1 0x4 DUP3 ADD MSTORE PUSH1 0x25 PUSH1 0x24 DUP3 ADD MSTORE PUSH32 0x455243313135353A207472616E7366657220746F20746865207A65726F206164 PUSH1 0x44 DUP3 ADD MSTORE PUSH5 0x6472657373 PUSH1 0xD8 SHL PUSH1 0x64 DUP3 ADD MSTORE PUSH1 0x84 ADD PUSH2 0x5C0 JUMP JUMPDEST CALLER PUSH1 0x0 JUMPDEST DUP5 MLOAD DUP2 LT ISZERO PUSH2 0xE11 JUMPI PUSH1 0x0 DUP6 DUP3 DUP2 MLOAD DUP2 LT PUSH2 0x1701 JUMPI PUSH2 0x1701 PUSH2 0x20CA JUMP JUMPDEST PUSH1 0x20 MUL PUSH1 0x20 ADD ADD MLOAD SWAP1 POP PUSH1 0x0 DUP6 DUP4 DUP2 MLOAD DUP2 LT PUSH2 0x171F JUMPI PUSH2 0x171F PUSH2 0x20CA JUMP JUMPDEST PUSH1 0x20 SWAP1 DUP2 MUL SWAP2 SWAP1 SWAP2 ADD DUP2 ADD MLOAD PUSH1 0x1 PUSH1 0x1 PUSH1 0xA0 SHL SUB DUP1 DUP6 AND PUSH1 0x0 SWAP1 DUP2 MSTORE PUSH1 0x2 DUP5 MSTORE PUSH1 0x40 DUP1 DUP3 KECCAK256 SWAP3 DUP15 AND DUP3 MSTORE SWAP2 SWAP1 SWAP4 MSTORE SWAP1 SWAP2 KECCAK256 SLOAD SWAP1 SWAP2 POP DUP2 DUP2 LT ISZERO PUSH2 0x17B7 JUMPI PUSH1 0x40 MLOAD PUSH3 0x461BCD PUSH1 0xE5 SHL DUP2 MSTORE PUSH1 0x20 PUSH1 0x4 DUP3 ADD MSTORE PUSH1 0x2A PUSH1 0x24 DUP3 ADD MSTORE PUSH32 0x455243313135353A20696E73756666696369656E742062616C616E636520666F PUSH1 0x44 DUP3 ADD MSTORE PUSH10 0x39103A3930B739B332B9 PUSH1 0xB1 SHL PUSH1 0x64 DUP3 ADD MSTORE PUSH1 0x84 ADD PUSH2 0x5C0 JUMP JUMPDEST PUSH1 0x1 PUSH1 0x1 PUSH1 0xA0 SHL SUB DUP4 DUP2 AND PUSH1 0x0 SWAP1 DUP2 MSTORE PUSH1 0x2 PUSH1 0x20 SWAP1 DUP2 MSTORE PUSH1 0x40 DUP1 DUP4 KECCAK256 DUP15 DUP6 AND DUP5 MSTORE SWAP1 SWAP2 MSTORE DUP1 DUP3 KECCAK256 DUP6 DUP6 SUB SWAP1 SSTORE SWAP2 DUP12 AND DUP2 MSTORE SWAP1 DUP2 KECCAK256 DUP1 SLOAD DUP5 SWAP3 SWAP1 PUSH2 0x17FB SWAP1 DUP5 SWAP1 PUSH2 0x2137 JUMP JUMPDEST SWAP3 POP POP DUP2 SWAP1 SSTORE POP POP POP POP DUP1 PUSH2 0x180F SWAP1 PUSH2 0x214A JUMP JUMPDEST SWAP1 POP PUSH2 0x16E4 JUMP JUMPDEST PUSH1 0x0 DUP2 DUP4 LT ISZERO PUSH2 0x1826 JUMPI DUP2 PUSH2 0x90E JUMP JUMPDEST POP SWAP1 SWAP2 SWAP1 POP JUMP JUMPDEST PUSH1 0x0 JUMPDEST PUSH1 0x1 PUSH1 0x1 PUSH1 0xA0 SHL SUB DUP4 AND PUSH1 0x0 SWAP1 DUP2 MSTORE PUSH1 0x4 PUSH1 0x20 MSTORE PUSH1 0x40 SWAP1 KECCAK256 SLOAD DUP2 LT ISZERO PUSH2 0x14FD JUMPI PUSH1 0x1 PUSH1 0x1 PUSH1 0xA0 SHL SUB DUP4 DUP2 AND PUSH1 0x0 SWAP1 DUP2 MSTORE PUSH1 0x4 PUSH1 0x20 MSTORE PUSH1 0x40 SWAP1 KECCAK256 DUP1 SLOAD SWAP2 DUP5 AND SWAP2 DUP4 SWAP1 DUP2 LT PUSH2 0x187F JUMPI PUSH2 0x187F PUSH2 0x20CA JUMP JUMPDEST PUSH1 0x0 SWAP2 DUP3 MSTORE PUSH1 0x20 SWAP1 SWAP2 KECCAK256 ADD SLOAD PUSH1 0x1 PUSH1 0x1 PUSH1 0xA0 SHL SUB AND SUB PUSH2 0x18DD JUMPI PUSH1 0x1 PUSH1 0x1 PUSH1 0xA0 SHL SUB DUP4 AND PUSH1 0x0 SWAP1 DUP2 MSTORE PUSH1 0x4 PUSH1 0x20 MSTORE PUSH1 0x40 SWAP1 KECCAK256 DUP1 SLOAD DUP3 SWAP1 DUP2 LT PUSH2 0x18C3 JUMPI PUSH2 0x18C3 PUSH2 0x20CA JUMP JUMPDEST PUSH1 0x0 SWAP2 DUP3 MSTORE PUSH1 0x20 SWAP1 SWAP2 KECCAK256 ADD DUP1 SLOAD PUSH1 0x1 PUSH1 0x1 PUSH1 0xA0 SHL SUB NOT AND SWAP1 SSTORE JUMPDEST DUP1 PUSH2 0x18E7 DUP2 PUSH2 0x214A JUMP JUMPDEST SWAP2 POP POP PUSH2 0x1830 JUMP JUMPDEST PUSH1 0x1 PUSH1 0x1 PUSH1 0xA0 SHL SUB DUP2 AND PUSH1 0x0 SWAP1 DUP2 MSTORE PUSH1 0x3 PUSH1 0x20 MSTORE PUSH1 0x40 DUP2 KECCAK256 SLOAD PUSH1 0x6 DUP1 SLOAD DUP4 SWAP3 SWAP1 DUP2 LT PUSH2 0x191D JUMPI PUSH2 0x191D PUSH2 0x20CA JUMP JUMPDEST POP PUSH1 0x0 MSTORE POP PUSH1 0x2 SWAP3 SWAP2 POP POP JUMP JUMPDEST POP POP POP POP POP POP JUMP JUMPDEST PUSH1 0x0 PUSH1 0x20 DUP3 DUP5 SUB SLT ISZERO PUSH2 0x1944 JUMPI PUSH1 0x0 DUP1 REVERT JUMPDEST DUP2 CALLDATALOAD PUSH1 0x1 PUSH1 0x1 PUSH1 0xE0 SHL SUB NOT DUP2 AND DUP2 EQ PUSH2 0x90E JUMPI PUSH1 0x0 DUP1 REVERT JUMPDEST DUP1 CALLDATALOAD PUSH1 0x1 PUSH1 0x1 PUSH1 0xA0 SHL SUB DUP2 AND DUP2 EQ PUSH2 0x1973 JUMPI PUSH1 0x0 DUP1 REVERT JUMPDEST SWAP2 SWAP1 POP JUMP JUMPDEST PUSH1 0x0 DUP1 PUSH1 0x40 DUP4 DUP6 SUB SLT ISZERO PUSH2 0x198B JUMPI PUSH1 0x0 DUP1 REVERT JUMPDEST PUSH2 0x1994 DUP4 PUSH2 0x195C JUMP JUMPDEST SWAP5 PUSH1 0x20 SWAP4 SWAP1 SWAP4 ADD CALLDATALOAD SWAP4 POP POP POP JUMP JUMPDEST PUSH4 0x4E487B71 PUSH1 0xE0 SHL PUSH1 0x0 MSTORE PUSH1 0x41 PUSH1 0x4 MSTORE PUSH1 0x24 PUSH1 0x0 REVERT JUMPDEST PUSH1 0x40 MLOAD PUSH1 0x1F DUP3 ADD PUSH1 0x1F NOT AND DUP2 ADD PUSH1 0x1 PUSH1 0x1 PUSH1 0x40 SHL SUB DUP2 GT DUP3 DUP3 LT OR ISZERO PUSH2 0x19E0 JUMPI PUSH2 0x19E0 PUSH2 0x19A2 JUMP JUMPDEST PUSH1 0x40 MSTORE SWAP2 SWAP1 POP JUMP JUMPDEST PUSH1 0x0 PUSH1 0x1 PUSH1 0x1 PUSH1 0x40 SHL SUB DUP3 GT ISZERO PUSH2 0x1A01 JUMPI PUSH2 0x1A01 PUSH2 0x19A2 JUMP JUMPDEST POP PUSH1 0x5 SHL PUSH1 0x20 ADD SWAP1 JUMP JUMPDEST PUSH1 0x0 DUP3 PUSH1 0x1F DUP4 ADD SLT PUSH2 0x1A1C JUMPI PUSH1 0x0 DUP1 REVERT JUMPDEST DUP2 CALLDATALOAD PUSH1 0x20 PUSH2 0x1A31 PUSH2 0x1A2C DUP4 PUSH2 0x19E8 JUMP JUMPDEST PUSH2 0x19B8 JUMP JUMPDEST DUP3 DUP2 MSTORE PUSH1 0x5 SWAP3 SWAP1 SWAP3 SHL DUP5 ADD DUP2 ADD SWAP2 DUP2 DUP2 ADD SWAP1 DUP7 DUP5 GT ISZERO PUSH2 0x1A50 JUMPI PUSH1 0x0 DUP1 REVERT JUMPDEST DUP3 DUP7 ADD JUMPDEST DUP5 DUP2 LT ISZERO PUSH2 0x1A6B JUMPI DUP1 CALLDATALOAD DUP4 MSTORE SWAP2 DUP4 ADD SWAP2 DUP4 ADD PUSH2 0x1A54 JUMP JUMPDEST POP SWAP7 SWAP6 POP POP POP POP POP POP JUMP JUMPDEST PUSH1 0x0 PUSH1 0x20 DUP3 DUP5 SUB SLT ISZERO PUSH2 0x1A88 JUMPI PUSH1 0x0 DUP1 REVERT JUMPDEST DUP2 CALLDATALOAD PUSH1 0x1 PUSH1 0x1 PUSH1 0x40 SHL SUB DUP2 GT ISZERO PUSH2 0x1A9E JUMPI PUSH1 0x0 DUP1 REVERT JUMPDEST PUSH2 0xB9A DUP5 DUP3 DUP6 ADD PUSH2 0x1A0B JUMP JUMPDEST PUSH1 0x0 PUSH1 0x20 DUP3 DUP5 SUB SLT ISZERO PUSH2 0x1ABC JUMPI PUSH1 0x0 DUP1 REVERT JUMPDEST PUSH2 0x90E DUP3 PUSH2 0x195C JUMP JUMPDEST PUSH1 0x0 PUSH1 0x20 DUP3 DUP5 SUB SLT ISZERO PUSH2 0x1AD7 JUMPI PUSH1 0x0 DUP1 REVERT JUMPDEST POP CALLDATALOAD SWAP2 SWAP1 POP JUMP JUMPDEST PUSH1 0x0 DUP3 PUSH1 0x1F DUP4 ADD SLT PUSH2 0x1AEF JUMPI PUSH1 0x0 DUP1 REVERT JUMPDEST DUP2 CALLDATALOAD PUSH1 0x20 PUSH2 0x1AFF PUSH2 0x1A2C DUP4 PUSH2 0x19E8 JUMP JUMPDEST DUP3 DUP2 MSTORE PUSH1 0x5 SWAP3 SWAP1 SWAP3 SHL DUP5 ADD DUP2 ADD SWAP2 DUP2 DUP2 ADD SWAP1 DUP7 DUP5 GT ISZERO PUSH2 0x1B1E JUMPI PUSH1 0x0 DUP1 REVERT JUMPDEST DUP3 DUP7 ADD JUMPDEST DUP5 DUP2 LT ISZERO PUSH2 0x1A6B JUMPI PUSH2 0x1B33 DUP2 PUSH2 0x195C JUMP JUMPDEST DUP4 MSTORE SWAP2 DUP4 ADD SWAP2 DUP4 ADD PUSH2 0x1B22 JUMP JUMPDEST PUSH1 0x0 DUP1 PUSH1 0x40 DUP4 DUP6 SUB SLT ISZERO PUSH2 0x1B53 JUMPI PUSH1 0x0 DUP1 REVERT JUMPDEST DUP3 CALLDATALOAD PUSH1 0x1 PUSH1 0x1 PUSH1 0x40 SHL SUB DUP1 DUP3 GT ISZERO PUSH2 0x1B6A JUMPI PUSH1 0x0 DUP1 REVERT JUMPDEST PUSH2 0x1B76 DUP7 DUP4 DUP8 ADD PUSH2 0x1ADE JUMP JUMPDEST SWAP4 POP PUSH1 0x20 DUP6 ADD CALLDATALOAD SWAP2 POP DUP1 DUP3 GT ISZERO PUSH2 0x1B8C JUMPI PUSH1 0x0 DUP1 REVERT JUMPDEST POP PUSH2 0x1B99 DUP6 DUP3 DUP7 ADD PUSH2 0x1ADE JUMP JUMPDEST SWAP2 POP POP SWAP3 POP SWAP3 SWAP1 POP JUMP JUMPDEST PUSH1 0x20 DUP1 DUP3 MSTORE DUP3 MLOAD DUP3 DUP3 ADD DUP2 SWAP1 MSTORE PUSH1 0x0 SWAP2 SWAP1 DUP5 DUP3 ADD SWAP1 PUSH1 0x40 DUP6 ADD SWAP1 DUP5 JUMPDEST DUP2 DUP2 LT ISZERO PUSH2 0x1BDB JUMPI DUP4 MLOAD DUP4 MSTORE SWAP3 DUP5 ADD SWAP3 SWAP2 DUP5 ADD SWAP2 PUSH1 0x1 ADD PUSH2 0x1BBF JUMP JUMPDEST POP SWAP1 SWAP7 SWAP6 POP POP POP POP POP POP JUMP JUMPDEST PUSH1 0x0 JUMPDEST DUP4 DUP2 LT ISZERO PUSH2 0x1C02 JUMPI DUP2 DUP2 ADD MLOAD DUP4 DUP3 ADD MSTORE PUSH1 0x20 ADD PUSH2 0x1BEA JUMP JUMPDEST POP POP PUSH1 0x0 SWAP2 ADD MSTORE JUMP JUMPDEST PUSH1 0x0 DUP2 MLOAD DUP1 DUP5 MSTORE PUSH2 0x1C23 DUP2 PUSH1 0x20 DUP7 ADD PUSH1 0x20 DUP7 ADD PUSH2 0x1BE7 JUMP JUMPDEST PUSH1 0x1F ADD PUSH1 0x1F NOT AND SWAP3 SWAP1 SWAP3 ADD PUSH1 0x20 ADD SWAP3 SWAP2 POP POP JUMP JUMPDEST PUSH1 0x1 PUSH1 0x1 PUSH1 0xA0 SHL SUB DUP11 DUP2 AND DUP3 MSTORE PUSH2 0x120 PUSH1 0x20 DUP4 ADD DUP2 SWAP1 MSTORE PUSH1 0x0 SWAP2 PUSH2 0x1C5D DUP5 DUP4 ADD DUP14 PUSH2 0x1C0B JUMP JUMPDEST SWAP2 POP DUP4 DUP3 SUB PUSH1 0x40 DUP6 ADD MSTORE PUSH2 0x1C71 DUP3 DUP13 PUSH2 0x1C0B JUMP JUMPDEST SWAP2 POP DUP10 PUSH1 0x60 DUP6 ADD MSTORE DUP9 PUSH1 0x80 DUP6 ADD MSTORE DUP1 DUP9 AND PUSH1 0xA0 DUP6 ADD MSTORE POP DUP6 ISZERO ISZERO PUSH1 0xC0 DUP5 ADD MSTORE DUP5 PUSH1 0xE0 DUP5 ADD MSTORE DUP3 DUP2 SUB PUSH2 0x100 DUP5 ADD MSTORE PUSH2 0x1CA9 DUP2 DUP6 PUSH2 0x1C0B JUMP JUMPDEST SWAP13 SWAP12 POP POP POP POP POP POP POP POP POP POP POP POP JUMP JUMPDEST PUSH1 0x0 PUSH1 0x1 PUSH1 0x1 PUSH1 0x40 SHL SUB DUP4 GT ISZERO PUSH2 0x1CD2 JUMPI PUSH2 0x1CD2 PUSH2 0x19A2 JUMP JUMPDEST PUSH2 0x1CE5 PUSH1 0x1F DUP5 ADD PUSH1 0x1F NOT AND PUSH1 0x20 ADD PUSH2 0x19B8 JUMP JUMPDEST SWAP1 POP DUP3 DUP2 MSTORE DUP4 DUP4 DUP4 ADD GT ISZERO PUSH2 0x1CF9 JUMPI PUSH1 0x0 DUP1 REVERT JUMPDEST DUP3 DUP3 PUSH1 0x20 DUP4 ADD CALLDATACOPY PUSH1 0x0 PUSH1 0x20 DUP5 DUP4 ADD ADD MSTORE SWAP4 SWAP3 POP POP POP JUMP JUMPDEST PUSH1 0x0 DUP3 PUSH1 0x1F DUP4 ADD SLT PUSH2 0x1D21 JUMPI PUSH1 0x0 DUP1 REVERT JUMPDEST PUSH2 0x90E DUP4 DUP4 CALLDATALOAD PUSH1 0x20 DUP6 ADD PUSH2 0x1CB9 JUMP JUMPDEST PUSH1 0x0 DUP1 PUSH1 0x40 DUP4 DUP6 SUB SLT ISZERO PUSH2 0x1D43 JUMPI PUSH1 0x0 DUP1 REVERT JUMPDEST DUP3 CALLDATALOAD PUSH1 0x1 PUSH1 0x1 PUSH1 0x40 SHL SUB DUP2 GT ISZERO PUSH2 0x1D59 JUMPI PUSH1 0x0 DUP1 REVERT JUMPDEST PUSH2 0x1D65 DUP6 DUP3 DUP7 ADD PUSH2 0x1D10 JUMP JUMPDEST SWAP3 POP POP PUSH2 0x1D74 PUSH1 0x20 DUP5 ADD PUSH2 0x195C JUMP JUMPDEST SWAP1 POP SWAP3 POP SWAP3 SWAP1 POP JUMP JUMPDEST PUSH1 0x0 DUP1 PUSH1 0x40 DUP4 DUP6 SUB SLT ISZERO PUSH2 0x1D90 JUMPI PUSH1 0x0 DUP1 REVERT JUMPDEST PUSH2 0x1D99 DUP4 PUSH2 0x195C JUMP JUMPDEST SWAP2 POP PUSH2 0x1D74 PUSH1 0x20 DUP5 ADD PUSH2 0x195C JUMP JUMPDEST DUP1 ISZERO ISZERO DUP2 EQ PUSH2 0x1614 JUMPI PUSH1 0x0 DUP1 REVERT JUMPDEST PUSH1 0x0 DUP1 PUSH1 0x40 DUP4 DUP6 SUB SLT ISZERO PUSH2 0x1DC8 JUMPI PUSH1 0x0 DUP1 REVERT JUMPDEST PUSH2 0x1DD1 DUP4 PUSH2 0x195C JUMP JUMPDEST SWAP2 POP PUSH1 0x20 DUP4 ADD CALLDATALOAD PUSH2 0x1DE1 DUP2 PUSH2 0x1DA7 JUMP JUMPDEST DUP1 SWAP2 POP POP SWAP3 POP SWAP3 SWAP1 POP JUMP JUMPDEST PUSH1 0x0 DUP1 PUSH1 0x0 DUP1 PUSH1 0x0 PUSH1 0xA0 DUP7 DUP9 SUB SLT ISZERO PUSH2 0x1E04 JUMPI PUSH1 0x0 DUP1 REVERT JUMPDEST PUSH2 0x1E0D DUP7 PUSH2 0x195C JUMP JUMPDEST SWAP5 POP PUSH1 0x20 DUP7 ADD CALLDATALOAD SWAP4 POP PUSH1 0x40 DUP7 ADD CALLDATALOAD PUSH1 0x1 PUSH1 0x1 PUSH1 0x40 SHL SUB DUP1 DUP3 GT ISZERO PUSH2 0x1E30 JUMPI PUSH1 0x0 DUP1 REVERT JUMPDEST PUSH2 0x1E3C DUP10 DUP4 DUP11 ADD PUSH2 0x1D10 JUMP JUMPDEST SWAP5 POP PUSH1 0x60 DUP9 ADD CALLDATALOAD SWAP2 POP DUP1 DUP3 GT ISZERO PUSH2 0x1E52 JUMPI PUSH1 0x0 DUP1 REVERT JUMPDEST POP PUSH2 0x1E5F DUP9 DUP3 DUP10 ADD PUSH2 0x1D10 JUMP JUMPDEST SWAP3 POP POP PUSH1 0x80 DUP7 ADD CALLDATALOAD PUSH2 0x1E70 DUP2 PUSH2 0x1DA7 JUMP JUMPDEST DUP1 SWAP2 POP POP SWAP3 SWAP6 POP SWAP3 SWAP6 SWAP1 SWAP4 POP JUMP JUMPDEST PUSH1 0x0 PUSH1 0x20 DUP1 DUP4 ADD DUP2 DUP5 MSTORE DUP1 DUP6 MLOAD DUP1 DUP4 MSTORE PUSH1 0x40 SWAP3 POP DUP3 DUP7 ADD SWAP2 POP DUP3 DUP2 PUSH1 0x5 SHL DUP8 ADD ADD DUP5 DUP9 ADD PUSH1 0x0 JUMPDEST DUP4 DUP2 LT ISZERO PUSH2 0x1F65 JUMPI DUP9 DUP4 SUB PUSH1 0x3F NOT ADD DUP6 MSTORE DUP2 MLOAD DUP1 MLOAD PUSH1 0x1 PUSH1 0x1 PUSH1 0xA0 SHL SUB AND DUP5 MSTORE PUSH2 0x120 DUP9 DUP3 ADD MLOAD DUP2 DUP11 DUP8 ADD MSTORE PUSH2 0x1EDD DUP3 DUP8 ADD DUP3 PUSH2 0x1C0B JUMP JUMPDEST SWAP2 POP POP DUP8 DUP3 ADD MLOAD DUP6 DUP3 SUB DUP10 DUP8 ADD MSTORE PUSH2 0x1EF5 DUP3 DUP3 PUSH2 0x1C0B JUMP JUMPDEST PUSH1 0x60 DUP5 DUP2 ADD MLOAD SWAP1 DUP9 ADD MSTORE PUSH1 0x80 DUP1 DUP6 ADD MLOAD SWAP1 DUP9 ADD MSTORE PUSH1 0xA0 DUP1 DUP6 ADD MLOAD PUSH1 0x1 PUSH1 0x1 PUSH1 0xA0 SHL SUB AND SWAP1 DUP9 ADD MSTORE PUSH1 0xC0 DUP1 DUP6 ADD MLOAD ISZERO ISZERO SWAP1 DUP9 ADD MSTORE PUSH1 0xE0 DUP1 DUP6 ADD MLOAD SWAP1 DUP9 ADD MSTORE PUSH2 0x100 SWAP4 DUP5 ADD MLOAD DUP8 DUP3 SUB SWAP5 DUP9 ADD SWAP5 SWAP1 SWAP5 MSTORE SWAP2 POP PUSH2 0x1F51 SWAP1 POP DUP2 DUP4 PUSH2 0x1C0B JUMP JUMPDEST SWAP7 DUP10 ADD SWAP7 SWAP5 POP POP POP SWAP1 DUP7 ADD SWAP1 PUSH1 0x1 ADD PUSH2 0x1EA5 JUMP JUMPDEST POP SWAP1 SWAP9 SWAP8 POP POP POP POP POP POP POP POP JUMP JUMPDEST PUSH1 0x0 DUP1 PUSH1 0x0 DUP1 PUSH1 0x0 PUSH1 0xA0 DUP7 DUP9 SUB SLT ISZERO PUSH2 0x1F8B JUMPI PUSH1 0x0 DUP1 REVERT JUMPDEST PUSH2 0x1F94 DUP7 PUSH2 0x195C JUMP JUMPDEST SWAP5 POP PUSH2 0x1FA2 PUSH1 0x20 DUP8 ADD PUSH2 0x195C JUMP JUMPDEST SWAP4 POP PUSH1 0x40 DUP7 ADD CALLDATALOAD PUSH1 0x1 PUSH1 0x1 PUSH1 0x40 SHL SUB DUP1 DUP3 GT ISZERO PUSH2 0x1FBE JUMPI PUSH1 0x0 DUP1 REVERT JUMPDEST PUSH2 0x1FCA DUP10 DUP4 DUP11 ADD PUSH2 0x1ADE JUMP JUMPDEST SWAP5 POP PUSH1 0x60 DUP9 ADD CALLDATALOAD SWAP2 POP DUP1 DUP3 GT ISZERO PUSH2 0x1FE0 JUMPI PUSH1 0x0 DUP1 REVERT JUMPDEST PUSH2 0x1FEC DUP10 DUP4 DUP11 ADD PUSH2 0x1A0B JUMP JUMPDEST SWAP4 POP PUSH1 0x80 DUP9 ADD CALLDATALOAD SWAP2 POP DUP1 DUP3 GT ISZERO PUSH2 0x2002 JUMPI PUSH1 0x0 DUP1 REVERT JUMPDEST POP DUP7 ADD PUSH1 0x1F DUP2 ADD DUP9 SGT PUSH2 0x2014 JUMPI PUSH1 0x0 DUP1 REVERT JUMPDEST PUSH2 0x2023 DUP9 DUP3 CALLDATALOAD PUSH1 0x20 DUP5 ADD PUSH2 0x1CB9 JUMP JUMPDEST SWAP2 POP POP SWAP3 SWAP6 POP SWAP3 SWAP6 SWAP1 SWAP4 POP JUMP JUMPDEST PUSH1 0x0 DUP1 PUSH1 0x40 DUP4 DUP6 SUB SLT ISZERO PUSH2 0x2043 JUMPI PUSH1 0x0 DUP1 REVERT JUMPDEST DUP3 CALLDATALOAD PUSH1 0x1 PUSH1 0x1 PUSH1 0x40 SHL SUB DUP1 DUP3 GT ISZERO PUSH2 0x205A JUMPI PUSH1 0x0 DUP1 REVERT JUMPDEST PUSH2 0x2066 DUP7 DUP4 DUP8 ADD PUSH2 0x1ADE JUMP JUMPDEST SWAP4 POP PUSH1 0x20 DUP6 ADD CALLDATALOAD SWAP2 POP DUP1 DUP3 GT ISZERO PUSH2 0x207C JUMPI PUSH1 0x0 DUP1 REVERT JUMPDEST POP PUSH2 0x1B99 DUP6 DUP3 DUP7 ADD PUSH2 0x1D10 JUMP JUMPDEST PUSH1 0x20 DUP1 DUP3 MSTORE DUP3 MLOAD DUP3 DUP3 ADD DUP2 SWAP1 MSTORE PUSH1 0x0 SWAP2 SWAP1 DUP5 DUP3 ADD SWAP1 PUSH1 0x40 DUP6 ADD SWAP1 DUP5 JUMPDEST DUP2 DUP2 LT ISZERO PUSH2 0x1BDB JUMPI DUP4 MLOAD PUSH1 0x1 PUSH1 0x1 PUSH1 0xA0 SHL SUB AND DUP4 MSTORE SWAP3 DUP5 ADD SWAP3 SWAP2 DUP5 ADD SWAP2 PUSH1 0x1 ADD PUSH2 0x20A5 JUMP JUMPDEST PUSH4 0x4E487B71 PUSH1 0xE0 SHL PUSH1 0x0 MSTORE PUSH1 0x32 PUSH1 0x4 MSTORE PUSH1 0x24 PUSH1 0x0 REVERT JUMPDEST PUSH4 0x4E487B71 PUSH1 0xE0 SHL PUSH1 0x0 MSTORE PUSH1 0x11 PUSH1 0x4 MSTORE PUSH1 0x24 PUSH1 0x0 REVERT JUMPDEST PUSH1 0x0 DUP2 PUSH1 0x0 NOT DIV DUP4 GT DUP3 ISZERO ISZERO AND ISZERO PUSH2 0x2110 JUMPI PUSH2 0x2110 PUSH2 0x20E0 JUMP JUMPDEST POP MUL SWAP1 JUMP JUMPDEST PUSH1 0x0 DUP3 PUSH2 0x2132 JUMPI PUSH4 0x4E487B71 PUSH1 0xE0 SHL PUSH1 0x0 MSTORE PUSH1 0x12 PUSH1 0x4 MSTORE PUSH1 0x24 PUSH1 0x0 REVERT JUMPDEST POP DIV SWAP1 JUMP JUMPDEST DUP1 DUP3 ADD DUP1 DUP3 GT ISZERO PUSH2 0x4E7 JUMPI PUSH2 0x4E7 PUSH2 0x20E0 JUMP JUMPDEST PUSH1 0x0 PUSH1 0x1 DUP3 ADD PUSH2 0x215C JUMPI PUSH2 0x215C PUSH2 0x20E0 JUMP JUMPDEST POP PUSH1 0x1 ADD SWAP1 JUMP JUMPDEST PUSH1 0x20 DUP1 DUP3 MSTORE PUSH1 0x2C SWAP1 DUP3 ADD MSTORE PUSH32 0x455243313135353A206163636F756E747320616E6420617373657473206C656E PUSH1 0x40 DUP3 ADD MSTORE PUSH12 0xCEE8D040DAD2E6DAC2E8C6D PUSH1 0xA3 SHL PUSH1 0x60 DUP3 ADD MSTORE PUSH1 0x80 ADD SWAP1 JUMP JUMPDEST PUSH1 0x1 DUP2 DUP2 SHR SWAP1 DUP3 AND DUP1 PUSH2 0x21C3 JUMPI PUSH1 0x7F DUP3 AND SWAP2 POP JUMPDEST PUSH1 0x20 DUP3 LT DUP2 SUB PUSH2 0x21E3 JUMPI PUSH4 0x4E487B71 PUSH1 0xE0 SHL PUSH1 0x0 MSTORE PUSH1 0x22 PUSH1 0x4 MSTORE PUSH1 0x24 PUSH1 0x0 REVERT JUMPDEST POP SWAP2 SWAP1 POP JUMP JUMPDEST PUSH1 0x40 DUP2 MSTORE PUSH1 0x0 PUSH2 0x21FC PUSH1 0x40 DUP4 ADD DUP6 PUSH2 0x1C0B JUMP JUMPDEST SWAP1 POP PUSH1 0x1 DUP1 PUSH1 0xA0 SHL SUB DUP4 AND PUSH1 0x20 DUP4 ADD MSTORE SWAP4 SWAP3 POP POP POP JUMP JUMPDEST PUSH1 0x0 PUSH1 0x20 DUP3 DUP5 SUB SLT ISZERO PUSH2 0x2225 JUMPI PUSH1 0x0 DUP1 REVERT JUMPDEST DUP2 MLOAD PUSH2 0x90E DUP2 PUSH2 0x1DA7 JUMP JUMPDEST PUSH1 0x20 DUP1 DUP3 MSTORE PUSH1 0x2B SWAP1 DUP3 ADD MSTORE PUSH32 0x455243313135353A2062616C616E636520717565727920666F7220746865207A PUSH1 0x40 DUP3 ADD MSTORE PUSH11 0x65726F2061646472657373 PUSH1 0xA8 SHL PUSH1 0x60 DUP3 ADD MSTORE PUSH1 0x80 ADD SWAP1 JUMP JUMPDEST PUSH1 0x1F DUP3 GT ISZERO PUSH2 0x14FD JUMPI PUSH1 0x0 DUP2 DUP2 MSTORE PUSH1 0x20 DUP2 KECCAK256 PUSH1 0x1F DUP6 ADD PUSH1 0x5 SHR DUP2 ADD PUSH1 0x20 DUP7 LT ISZERO PUSH2 0x22A2 JUMPI POP DUP1 JUMPDEST PUSH1 0x1F DUP6 ADD PUSH1 0x5 SHR DUP3 ADD SWAP2 POP JUMPDEST DUP2 DUP2 LT ISZERO PUSH2 0x192A JUMPI DUP3 DUP2 SSTORE PUSH1 0x1 ADD PUSH2 0x22AE JUMP JUMPDEST DUP2 MLOAD PUSH1 0x1 PUSH1 0x1 PUSH1 0x40 SHL SUB DUP2 GT ISZERO PUSH2 0x22DA JUMPI PUSH2 0x22DA PUSH2 0x19A2 JUMP JUMPDEST PUSH2 0x22EE DUP2 PUSH2 0x22E8 DUP5 SLOAD PUSH2 0x21AF JUMP JUMPDEST DUP5 PUSH2 0x227B JUMP JUMPDEST PUSH1 0x20 DUP1 PUSH1 0x1F DUP4 GT PUSH1 0x1 DUP2 EQ PUSH2 0x2323 JUMPI PUSH1 0x0 DUP5 ISZERO PUSH2 0x230B JUMPI POP DUP6 DUP4 ADD MLOAD JUMPDEST PUSH1 0x0 NOT PUSH1 0x3 DUP7 SWAP1 SHL SHR NOT AND PUSH1 0x1 DUP6 SWAP1 SHL OR DUP6 SSTORE PUSH2 0x192A JUMP JUMPDEST PUSH1 0x0 DUP6 DUP2 MSTORE PUSH1 0x20 DUP2 KECCAK256 PUSH1 0x1F NOT DUP7 AND SWAP2 JUMPDEST DUP3 DUP2 LT ISZERO PUSH2 0x2352 JUMPI DUP9 DUP7 ADD MLOAD DUP3 SSTORE SWAP5 DUP5 ADD SWAP5 PUSH1 0x1 SWAP1 SWAP2 ADD SWAP1 DUP5 ADD PUSH2 0x2333 JUMP JUMPDEST POP DUP6 DUP3 LT ISZERO PUSH2 0x2370 JUMPI DUP8 DUP6 ADD MLOAD PUSH1 0x0 NOT PUSH1 0x3 DUP9 SWAP1 SHL PUSH1 0xF8 AND SHR NOT AND DUP2 SSTORE JUMPDEST POP POP POP POP POP PUSH1 0x1 SWAP1 DUP2 SHL ADD SWAP1 SSTORE POP JUMP JUMPDEST PUSH1 0x0 DUP3 MLOAD PUSH2 0x2392 DUP2 DUP5 PUSH1 0x20 DUP8 ADD PUSH2 0x1BE7 JUMP JUMPDEST SWAP2 SWAP1 SWAP2 ADD SWAP3 SWAP2 POP POP JUMP JUMPDEST PUSH1 0x0 DUP1 DUP4 SLOAD PUSH2 0x23AA DUP2 PUSH2 0x21AF JUMP JUMPDEST PUSH1 0x1 DUP3 DUP2 AND DUP1 ISZERO PUSH2 0x23C2 JUMPI PUSH1 0x1 DUP2 EQ PUSH2 0x23D7 JUMPI PUSH2 0x2406 JUMP JUMPDEST PUSH1 0xFF NOT DUP5 AND DUP8 MSTORE DUP3 ISZERO ISZERO DUP4 MUL DUP8 ADD SWAP5 POP PUSH2 0x2406 JUMP JUMPDEST DUP8 PUSH1 0x0 MSTORE PUSH1 0x20 DUP1 PUSH1 0x0 KECCAK256 PUSH1 0x0 JUMPDEST DUP6 DUP2 LT ISZERO PUSH2 0x23FD JUMPI DUP2 SLOAD DUP11 DUP3 ADD MSTORE SWAP1 DUP5 ADD SWAP1 DUP3 ADD PUSH2 0x23E4 JUMP JUMPDEST POP POP POP DUP3 DUP8 ADD SWAP5 POP JUMPDEST POP SWAP3 SWAP7 SWAP6 POP POP POP POP POP POP JUMP JUMPDEST DUP2 DUP2 SUB DUP2 DUP2 GT ISZERO PUSH2 0x4E7 JUMPI PUSH2 0x4E7 PUSH2 0x20E0 JUMP INVALID LOG2 PUSH5 0x6970667358 0x22 SLT KECCAK256 SDIV 0x28 DUP1 BALANCE 0xC7 DUP10 MOD SWAP11 0x21 CALLVALUE LOG1 MUL SWAP11 CALLDATALOAD 0x2F CALLDATALOAD INVALID 0xDB 0xA6 JUMPDEST 0xCC 0xF7 0x1E TIMESTAMP 0xC MOD BLOCKHASH SWAP16 0x25 PUSH11 0x627264736F6C6343000810 STOP CALLER ",
  "sha1": "cd693cebc265081e3fd84a1270f5a72dec6cca5a",
  "source": "// SPDX-License-Identifier: MIT\n// OpenZeppelin Contracts v4.4.1 (token/ERC721/ERC721.sol)\n\npragma solidity ^0.8.0;\n\nimport {IERC721Receiver} from \"@openzeppelin/contracts/token/ERC721/IERC721Receiver.sol\";\n// import {IERC721Metadata} from \"@openzeppelin/contracts/token/ERC721/extensions/IERC721Metadata.sol\";\nimport \"@openzeppelin/contracts/utils/Address.sol\";\nimport \"@openzeppelin/contracts/utils/Context.sol\";\nimport \"@openzeppelin/contracts/utils/Strings.sol\";\nimport \"@openzeppelin/contracts/utils/introspection/ERC165.sol\";\nimport {AccessControlAdapter} from \"contracts/utils/access/AccessControlAdapter.sol\";\nimport {UserState,AssetState} from \"contracts/treasury/Structs.sol\";\nimport {AssetToken} from \"contracts/treasury/token/AssetToken.sol\";\n/**\n * @dev Implementation of https://eips.ethereum.org/EIPS/eip-721[ERC721] Non-Fungible Token Standard, including\n * the Metadata extension, but not including the Enumerable extension, which is available separately as\n * {ERC721Enumerable}.\n */\n\n\ncontract CommuneTreasury is Context, ERC165, AccessControlAdapter {\n    using Address for address;\n    using Strings for uint256;\n    // Token name\n    // Token symbol\n    uint percentBase = 10000;\n    \n\n    // maps user address to assetId to asset ammount\n    \n    // asset to user to balance\n    mapping(address=> mapping(address=>uint256)) public _balances;\n    mapping(address=> uint256) public asset2index;\n    \n    mapping(address=> address[]) public user2assets;\n    address[] public users;\n\n\n    AssetState[] public assetStates; \n\n    mapping(address => mapping(address => uint256)) private _operatorAllowance;\n    mapping(address => mapping(address => bool)) private _operatorApprovals;\n    AssetState public treasuryAssetState;\n\n    /**\n     * @dev Initializes the contract by setting a `name` and a `symbol` to the token collection.\n     */\n     AssetToken assetToken;\n\n\n\n\n    constructor(string memory _name, string memory _symbol) {\n\n        // treasuryAssetState.name = _name;\n        treasuryAssetState.asset = address(this);\n        assetToken = new AssetToken(address(this), 'treasury');\n    }\n\n    function assetExists(address asset) public view returns(bool) {\n        if (assetStates.length == 0) {\n            return false;\n        }\n        return (assetStates[asset2index[asset]].asset == asset);\n    }\n\n\n    function removeAsset(address asset) internal {\n\n        // dummy value for oracle\n        uint256 assetIndex = asset2index[asset];\n        assetStates[assetIndex].valueOracle = address(0);\n\n        delete assetStates[assetIndex];\n        delete asset2index[asset];\n\n    }\n\n    function removeUserAsset(address user, address asset) internal {\n\n        // remove asset from user\n        for (uint i; i < user2assets[user].length; i++) {\n            if (user2assets[user][i] == asset) {\n                delete user2assets[user][i];\n            }\n            \n        }\n        }\n\n\n    function userHasAsset(address user, address asset) internal returns(bool){\n        bool hasAsset = false;\n        for (uint i; i < user2assets[user].length; i++) {\n            if (user2assets[user][i] == asset) {\n                hasAsset=true;\n                break;\n            }\n            \n        }\n        return hasAsset;\n    }\n\n    function addUserAsset(address user, address asset) internal {\n\n        // remove asset from user\n\n        bool hasAsset = false;\n        for (uint i; i < user2assets[user].length; i++) {\n            if (user2assets[user][i] == asset) {\n                hasAsset=true;\n                break;\n            }\n            \n        }\n        // if the user does not have the asset\n        if (!hasAsset) {\n            user2assets[user].push(asset);\n        }\n        }\n\n\n    function getAssetOracleValue(address asset) internal returns (uint256) {\n        address oracle = assetStates[asset2index[asset]].valueOracle;\n\n        // get the oracle value per unit\n        return 2;\n    }\n\n    function updateAssets() internal {\n        for (uint i; i<assetStates.length; i++) {\n            uint256 value_per_unit = getAssetOracleValue(assetStates[i].asset);\n            assetStates[i].value = value_per_unit* assetStates[i].balance;\n            assetStates[i].lastUpdateBlock = block.number;\n            treasuryAssetState.value = treasuryAssetState.value + assetStates[i].value; \n        }\n        \n    }\n\n    function addAsset(address asset, uint256 balance, string memory name, string memory mode, bool liquid ) public {\n        AssetState memory _assetState;\n        _assetState.asset = asset;\n        _assetState.name = name;\n        _assetState.balance = balance; \n        _assetState.mode = mode; \n        _assetState.liquid = liquid; \n\n        assetStates.push(_assetState);\n    }\n\n\n\n    function deposit(address asset, uint256 balance, string memory name, string memory mode, bool liquid  ) public {\n        if (!assetExists(asset)) {\n            addAsset(asset, balance, name, mode, liquid);\n        }\n        address account = _msgSender();\n        uint256 assetIndex = asset2index[asset];\n        _balances[asset][account] += balance;\n        addUserAsset(account, asset);\n        updateAssets();\n    }\n\n\n\n    function withdraw(address asset, uint256 balance) public {\n        uint256 assetIndex = asset2index[asset];\n        AssetState storage assetState = assetStates[assetIndex];\n        balance = max(assetState.balance, balance);\n        assetState.balance = assetState.balance - balance;\n\n        // if the state has 0 balance, delete the asset\n        if ( assetState.balance == 0) {\n            removeUserAsset(_msgSender(), asset);\n        }\n    }\n\n\n    function _safeTransferFrom(\n        address from,\n        address to,\n        address asset,\n        uint256 amount,\n        bytes memory data\n    ) internal virtual {\n        require(to != address(0), \"ERC1155: transfer to the zero address\");\n\n        address operator = _msgSender();\n\n        address[] memory asset_array = new address[](1);\n        asset_array[0] = asset;\n\n        uint256[] memory amount_array = new uint256[](1);\n        amount_array[0] = amount;\n\n        _beforeTokenTransfer(operator, from, to, asset_array, amount_array, data);\n\n        uint256 fromBalance = _balances[asset][from];\n        require(fromBalance >= amount, \"ERC1155: insufficient balance for transfer\");\n        unchecked {\n            _balances[asset][from] = fromBalance - amount;\n        }\n        _balances[asset][to] += amount;\n\n        // emit TransferSingle(operator, from, to, asset, amount);\n\n        // _doSafeTransferAcceptanceCheck(operator, from, to, asset, amount, data);\n    }\n\n\n    /**\n     * @dev See {IERC1155-safeBatchTransferFrom}.\n     */\n    function safeBatchTransferFrom(\n        address from,\n        address to,\n        address[] memory assets,\n        uint256[] memory amounts,\n        bytes memory data\n    ) public virtual {\n        require(\n            from == _msgSender() || isApprovedForAll(from, _msgSender()),\n            \"ERC1155: transfer caller is not owner nor approved\"\n        );\n        _safeBatchTransferFrom(from, to, assets, amounts, data);\n    }\n\n    function _safeBatchTransferFrom(\n        address from,\n        address to,\n        address[] memory assets,\n        uint256[] memory amounts,\n        bytes memory data\n    ) internal virtual {\n        require(assets.length == amounts.length, \"ERC1155: assets and amounts length mismatch\");\n        require(to != address(0), \"ERC1155: transfer to the zero address\");\n\n        address operator = _msgSender();\n\n        _beforeTokenTransfer(operator, from, to, assets, amounts, data);\n\n        for (uint256 i = 0; i < assets.length; ++i) {\n            address asset = assets[i];\n            uint256 amount = amounts[i];\n\n            uint256 fromBalance = _balances[asset][from];\n            require(fromBalance >= amount, \"ERC1155: insufficient balance for transfer\");\n            unchecked {\n                _balances[asset][from] = fromBalance - amount;\n            }\n            _balances[asset][to] += amount;\n        }\n\n        // emit TransferBatch(operator, from, to, assets, amounts);\n\n    }\n\n\n\n    /**\n     * @dev See {IERC165-supportsInterface}.\n     */\n\n\n    function getUserValue(address user) public view returns (uint256) {\n        // calculate the total user value across assets\n        address[] memory assets = user2assets[user];\n        address[] memory _user_array  = new address[](assets.length);\n        for (uint i; i<assets.length; i++) {\n            _user_array[i] = user;\n        }\n        return sumArray(valueOfBatch(_user_array, assets));\n    }\n\n    // function getUser(address user) public override view returns(UserState memory){\n    //     UserState memory _userState=_userStates[user];\n    //     return _userState;\n    // }\n\n\n    function getAssetStates() public view returns(AssetState[] memory){\n        // get the asset state\n        AssetState[] memory _assets = assetStates;\n        return _assets;\n    }\n\n    function filterAssetsByMode(address[] memory assets,  string memory mode) public view returns(address[] memory){\n        // filters assets by mode\n\n        uint asset_count = 0 ;\n        for (uint i; i<assets.length; i++) {\n            uint assetIndex = asset2index[assets[i]];\n            if (keccak256(abi.encodePacked((assetStates[assetIndex].mode))) == keccak256(abi.encodePacked((mode)))){\n                asset_count++;\n            }\n        }\n        address[] memory filtered_assets =  new address[](asset_count);\n        \n        for (uint i; i<asset_count; i++) {\n            filtered_assets[i] = assets[i];\n        }\n\n        return filtered_assets;\n    }\n\n    function balance2value(address asset , uint256 balance ) public view returns(uint256) {\n        /**\n        this converts the balance of each asse to the market\n        **/\n        //\n\n        uint256 assetId = asset2index[asset];\n        AssetState storage assetState = assetStates[assetId];\n        uint256 balance2market_ratio = (assetState.balance*percentBase)/assetState.value;\n        uint256 balance_market_value = (balance*balance2market_ratio)/percentBase;\n        return balance_market_value;\n    }\n\n\n    function balanceOfBatch(address[] memory accounts, address[] memory assets)\n        public\n        view\n        virtual\n        returns (uint256[] memory)\n    {\n        require(accounts.length == assets.length, \"ERC1155: accounts and assets length mismatch\");\n\n        uint256[] memory batchBalances = new uint256[](accounts.length);\n\n        for (uint256 i = 0; i < accounts.length; ++i) {\n            batchBalances[i] = balanceOf(accounts[i], assets[i]);\n        }\n\n        return batchBalances;\n    }\n    \n    function valueOfBatch(address[] memory accounts, address[] memory assets)\n        public\n        view\n        virtual\n        \n        returns (uint256[] memory)\n    {\n        require(accounts.length == assets.length, \"ERC1155: accounts and assets length mismatch\");\n\n        uint256[] memory batchValues = new uint256[](accounts.length);\n\n        for (uint256 i = 0; i < accounts.length; ++i) {\n            batchValues[i] = balance2value(assets[i],balanceOf(accounts[i], assets[i]));\n            \n        }\n\n        return batchValues;\n    }\n\n    function balanceOf(address account, address asset) public view virtual returns (uint256) {\n        require(account != address(0), \"ERC1155: balance query for the zero address\");\n        return _balances[asset][account];\n    }\n\n    function valueOf(address account, address asset) public view virtual returns (uint256) {\n        require(account != address(0), \"ERC1155: balance query for the zero address\");\n        return balance2value(asset, _balances[asset][account] );\n    }\n\n\n\n    function setApprovalForAll(address operator, bool approved) public virtual {\n        _setApprovalForAll(_msgSender(), operator, approved);\n    }\n    function _setApprovalForAll(\n        address user,\n        address operator,\n        bool approved\n    ) internal virtual {\n        require(user != operator, \"ERC721: approve to caller\");\n        _operatorApprovals[user][operator] = approved;\n        // emit ApprovalForAll(user, operator, approved);\n    }\n\n     /**\n     * @dev See {IERC1155-isApprovedForAll}.\n     */\n    function isApprovedForAll(address account, address operator) public view virtual returns (bool) {\n        return _operatorApprovals[account][operator];\n    }\n\n\n    function _beforeTokenTransfer(\n        address operator,\n        address from,\n        address to,\n        address[] memory assets,\n        uint256[] memory amounts,\n        bytes memory data\n    ) internal virtual {}\n\n    function sumArray(uint256[] memory array) public view returns(uint256){\n        uint256 total_sum = 0;\n\n        for (uint i; i< array.length ; i++) {\n            total_sum = total_sum + array[i];\n        }\n        return total_sum;\n    }\n\n    function max(uint256 a, uint256 b) internal pure returns (uint256) {\n        return a >= b ? a : b;\n    }\n\n}\n\n\n\n\n    /**\n     * @dev Returns whether `spender` is allowed to manage `assetId`.\n     *\n     * Requirements:\n     *\n     * - `assetId` must exist.\n     */\n\n\n    // function addAllowance(address spender, uint256 asset, uint256 value) public  returns (bool) {\n    //     _addAllowance(_msgSender(), spender, asset, value)\n    // }\n    // function _addAllowance(address user, address spender, uint256 asset, uint256 value) internal {\n    //     _operatorAllowance[user][spender][asset] = _operatorAllowance[user][spender][asset] + value;\n    // }\n\n\n    // function removeAllowance(address spender, uint256 asset, uint256 value) public  returns (bool) {\n    //     _removeAllowance(_msgSender(), spender, asset, value);\n    // }\n\n    // function _removeAllowance(address user, address spender, uint256 asset, uint256 value) internal view virtual returns (bool) {\n        \n    //     uint256 current_allowance = _operatorAllowance[user][spender][asset];\n    //     if (value >= current_allowance) {\n    //          _operatorAllowance[user][spender][asset] = 0;\n    //     } else {\n    //         _operatorAllowance[user][spender][asset] = _operatorAllowance[user][spender][asset] - value;\n    //     }\n    // }\n\n\n    // function getAllowance(address user, address spender, uint256 asset) internal view virtual returns (bool) {\n    //     return _operatorAllowance[user][spender][asset];\n    // }\n",
  "sourcePath": "contracts/treasury/CommuneTreasury.sol",
  "type": "contract"
}