{
  "abi": [
    {
      "inputs": [],
      "name": "_msgData",
      "outputs": [
        {
          "internalType": "bytes",
          "name": "",
          "type": "bytes"
        }
      ],
      "stateMutability": "view",
      "type": "function"
    },
    {
      "inputs": [],
      "name": "_msgSender",
      "outputs": [
        {
          "internalType": "address",
          "name": "",
          "type": "address"
        }
      ],
      "stateMutability": "view",
      "type": "function"
    },
    {
      "inputs": [],
      "name": "_txSender",
      "outputs": [
        {
          "internalType": "address",
          "name": "",
          "type": "address"
        }
      ],
      "stateMutability": "view",
      "type": "function"
    }
  ],
  "bytecode": "608060405234801561001057600080fd5b5060d98061001f6000396000f3fe6080604052348015600f57600080fd5b5060043610603c5760003560e01c8063119df25f1460415780638b49d47e146060578063c877097d14606f575b600080fd5b335b6040516001600160a01b0390911681526020015b60405180910390f35b60003660405160579291906074565b326043565b60208152816020820152818360408301376000818301604090810191909152601f909201601f1916010191905056fea2646970667358221220634d512eff0976ba8833eb7b34a953a9d1dd586f7d086e1bbe7428cc55fcd9d564736f6c634300080d0033",
  "bytecodeSha1": "8aac090a24eb920f9ed525b7418857497efb086d",
  "compiler": {
    "evm_version": "istanbul",
    "optimizer": {
      "enabled": true,
      "runs": 200
    },
    "version": "0.8.13+commit.abaa5c0e"
  },
  "contractName": "Context",
  "language": "Solidity",
  "natspec": {
    "details": "Provides information about the current execution context, including the sender of the transaction and its data. While these are generally available via msg.sender and msg.data, they should not be accessed in such a direct manner, since when dealing with meta-transactions the account sending and paying for execution may not be the actual sender (as far as an application is concerned). This contract is only required for intermediate, library-like contracts.",
    "kind": "dev",
    "methods": {},
    "version": 1
  },
  "opcodes": "PUSH1 0x80 PUSH1 0x40 MSTORE CALLVALUE DUP1 ISZERO PUSH1 0xF JUMPI PUSH1 0x0 DUP1 REVERT JUMPDEST POP PUSH1 0x4 CALLDATASIZE LT PUSH1 0x3C JUMPI PUSH1 0x0 CALLDATALOAD PUSH1 0xE0 SHR DUP1 PUSH4 0x119DF25F EQ PUSH1 0x41 JUMPI DUP1 PUSH4 0x8B49D47E EQ PUSH1 0x60 JUMPI DUP1 PUSH4 0xC877097D EQ PUSH1 0x6F JUMPI JUMPDEST PUSH1 0x0 DUP1 REVERT JUMPDEST CALLER JUMPDEST PUSH1 0x40 MLOAD PUSH1 0x1 PUSH1 0x1 PUSH1 0xA0 SHL SUB SWAP1 SWAP2 AND DUP2 MSTORE PUSH1 0x20 ADD JUMPDEST PUSH1 0x40 MLOAD DUP1 SWAP2 SUB SWAP1 RETURN JUMPDEST PUSH1 0x0 CALLDATASIZE PUSH1 0x40 MLOAD PUSH1 0x57 SWAP3 SWAP2 SWAP1 PUSH1 0x74 JUMP JUMPDEST ORIGIN PUSH1 0x43 JUMP JUMPDEST PUSH1 0x20 DUP2 MSTORE DUP2 PUSH1 0x20 DUP3 ADD MSTORE DUP2 DUP4 PUSH1 0x40 DUP4 ADD CALLDATACOPY PUSH1 0x0 DUP2 DUP4 ADD PUSH1 0x40 SWAP1 DUP2 ADD SWAP2 SWAP1 SWAP2 MSTORE PUSH1 0x1F SWAP1 SWAP3 ADD PUSH1 0x1F NOT AND ADD ADD SWAP2 SWAP1 POP JUMP INVALID LOG2 PUSH5 0x6970667358 0x22 SLT KECCAK256 PUSH4 0x4D512EFF MULMOD PUSH23 0xBA8833EB7B34A953A9D1DD586F7D086E1BBE7428CC55FC 0xD9 0xD5 PUSH5 0x736F6C6343 STOP ADDMOD 0xD STOP CALLER ",
  "sha1": "fdbdd8d71cb9c2a7032a038586572e6cbf3f4ab1",
  "source": "// SPDX-License-Identifier: MIT\n// OpenZeppelin Contracts v4.4.1 (utils/Context.sol)\n\npragma solidity ^0.8.0;\n\n/**\n * @dev Provides information about the current execution context, including the\n * sender of the transaction and its data. While these are generally available\n * via msg.sender and msg.data, they should not be accessed in such a direct\n * manner, since when dealing with meta-transactions the account sending and\n * paying for execution may not be the actual sender (as far as an application\n * is concerned).\n *\n * This contract is only required for intermediate, library-like contracts.\n */\ncontract Context {\n\n    function _msgSender() public view virtual returns (address) {\n        return msg.sender;\n    }\n\n    function _msgData() public view virtual returns (bytes calldata) {\n        return msg.data;\n    }\n\n    function _txSender() public view virtual returns (address) {\n        return tx.origin;\n    }\n}\n",
  "sourcePath": "contracts/utils/context/Context.sol",
  "type": "contract"
}