{
  "abi": [
    {
      "inputs": [
        {
          "internalType": "address",
          "name": "explainAddress",
          "type": "address"
        }
      ],
      "name": "connectExplain",
      "outputs": [],
      "stateMutability": "nonpayable",
      "type": "function"
    },
    {
      "inputs": [],
      "name": "explain",
      "outputs": [
        {
          "internalType": "contract IExplainManager",
          "name": "",
          "type": "address"
        }
      ],
      "stateMutability": "view",
      "type": "function"
    },
    {
      "inputs": [
        {
          "internalType": "string",
          "name": "name",
          "type": "string"
        }
      ],
      "name": "getExplainer",
      "outputs": [
        {
          "components": [
            {
              "internalType": "string",
              "name": "name",
              "type": "string"
            },
            {
              "internalType": "string",
              "name": "uri",
              "type": "string"
            }
          ],
          "internalType": "struct ExplainSchema",
          "name": "",
          "type": "tuple"
        }
      ],
      "stateMutability": "view",
      "type": "function"
    },
    {
      "inputs": [],
      "name": "getExplainers",
      "outputs": [
        {
          "components": [
            {
              "internalType": "string",
              "name": "name",
              "type": "string"
            },
            {
              "internalType": "string",
              "name": "uri",
              "type": "string"
            }
          ],
          "internalType": "struct ExplainSchema[]",
          "name": "",
          "type": "tuple[]"
        }
      ],
      "stateMutability": "view",
      "type": "function"
    }
  ],
  "bytecode": "608060405234801561001057600080fd5b5061062e806100206000396000f3fe608060405234801561001057600080fd5b506004361061004c5760003560e01c80633f9bb242146100515780635ae6634b1461006f5780636ae7a5411461008f578063ecb8d843146100ba575b600080fd5b6100596100ec565b6040516100669190610282565b60405180910390f35b61008261007d366004610353565b610162565b60405161006691906103d3565b6000546100a2906001600160a01b031681565b6040516001600160a01b039091168152602001610066565b6100ea6100c83660046103ed565b600080546001600160a01b0319166001600160a01b0392909216919091179055565b005b6000805460408051631fcdd92160e11b815290516060936001600160a01b0390931692633f9bb24292600480820193918290030181865afa158015610135573d6000803e3d6000fd5b505050506040513d6000823e601f3d908101601f1916820160405261015d91908101906104ed565b905090565b604080518082018252606080825260208201526000549151635ae6634b60e01b815290916001600160a01b031690635ae6634b906101a49085906004016105b0565b600060405180830381865afa1580156101c1573d6000803e3d6000fd5b505050506040513d6000823e601f3d908101601f191682016040526101e991908101906105c3565b92915050565b60005b8381101561020a5781810151838201526020016101f2565b83811115610219576000848401525b50505050565b600081518084526102378160208601602086016101ef565b601f01601f19169290920160200192915050565b6000815160408452610260604085018261021f565b905060208301518482036020860152610279828261021f565b95945050505050565b6000602080830181845280855180835260408601915060408160051b870101925083870160005b828110156102d757603f198886030184526102c585835161024b565b945092850192908501906001016102a9565b5092979650505050505050565b634e487b7160e01b600052604160045260246000fd5b604051601f8201601f1916810167ffffffffffffffff81118282101715610323576103236102e4565b604052919050565b600067ffffffffffffffff821115610345576103456102e4565b50601f01601f191660200190565b60006020828403121561036557600080fd5b813567ffffffffffffffff81111561037c57600080fd5b8201601f8101841361038d57600080fd5b80356103a061039b8261032b565b6102fa565b8181528560208385010111156103b557600080fd5b81602084016020830137600091810160200191909152949350505050565b6020815260006103e6602083018461024b565b9392505050565b6000602082840312156103ff57600080fd5b81356001600160a01b03811681146103e657600080fd5b600082601f83011261042757600080fd5b815161043561039b8261032b565b81815284602083860101111561044a57600080fd5b61045b8260208301602087016101ef565b949350505050565b60006040828403121561047557600080fd5b6040516040810167ffffffffffffffff8282108183111715610499576104996102e4565b8160405282935084519150808211156104b157600080fd5b6104bd86838701610416565b835260208501519150808211156104d357600080fd5b506104e085828601610416565b6020830152505092915050565b6000602080838503121561050057600080fd5b825167ffffffffffffffff8082111561051857600080fd5b818501915085601f83011261052c57600080fd5b81518181111561053e5761053e6102e4565b8060051b61054d8582016102fa565b918252838101850191858101908984111561056757600080fd5b86860192505b838310156105a3578251858111156105855760008081fd5b6105938b89838a0101610463565b835250918601919086019061056d565b9998505050505050505050565b6020815260006103e6602083018461021f565b6000602082840312156105d557600080fd5b815167ffffffffffffffff8111156105ec57600080fd5b61045b8482850161046356fea2646970667358221220af97e704bfb1b61c242d3438ab05226813d234562f77dc0924b971baa3d9b24e64736f6c634300080d0033",
  "bytecodeSha1": "cb3e63f24a4b9d9143287f28d837bf76f9fe5cc0",
  "compiler": {
    "evm_version": "istanbul",
    "optimizer": {
      "enabled": true,
      "runs": 200
    },
    "version": "0.8.13+commit.abaa5c0e"
  },
  "contractName": "ExplainManagerAdapter",
  "language": "Solidity",
  "natspec": {
    "kind": "dev",
    "methods": {},
    "version": 1
  },
  "opcodes": "PUSH1 0x80 PUSH1 0x40 MSTORE CALLVALUE DUP1 ISZERO PUSH2 0x10 JUMPI PUSH1 0x0 DUP1 REVERT JUMPDEST POP PUSH1 0x4 CALLDATASIZE LT PUSH2 0x4C JUMPI PUSH1 0x0 CALLDATALOAD PUSH1 0xE0 SHR DUP1 PUSH4 0x3F9BB242 EQ PUSH2 0x51 JUMPI DUP1 PUSH4 0x5AE6634B EQ PUSH2 0x6F JUMPI DUP1 PUSH4 0x6AE7A541 EQ PUSH2 0x8F JUMPI DUP1 PUSH4 0xECB8D843 EQ PUSH2 0xBA JUMPI JUMPDEST PUSH1 0x0 DUP1 REVERT JUMPDEST PUSH2 0x59 PUSH2 0xEC JUMP JUMPDEST PUSH1 0x40 MLOAD PUSH2 0x66 SWAP2 SWAP1 PUSH2 0x282 JUMP JUMPDEST PUSH1 0x40 MLOAD DUP1 SWAP2 SUB SWAP1 RETURN JUMPDEST PUSH2 0x82 PUSH2 0x7D CALLDATASIZE PUSH1 0x4 PUSH2 0x353 JUMP JUMPDEST PUSH2 0x162 JUMP JUMPDEST PUSH1 0x40 MLOAD PUSH2 0x66 SWAP2 SWAP1 PUSH2 0x3D3 JUMP JUMPDEST PUSH1 0x0 SLOAD PUSH2 0xA2 SWAP1 PUSH1 0x1 PUSH1 0x1 PUSH1 0xA0 SHL SUB AND DUP2 JUMP JUMPDEST PUSH1 0x40 MLOAD PUSH1 0x1 PUSH1 0x1 PUSH1 0xA0 SHL SUB SWAP1 SWAP2 AND DUP2 MSTORE PUSH1 0x20 ADD PUSH2 0x66 JUMP JUMPDEST PUSH2 0xEA PUSH2 0xC8 CALLDATASIZE PUSH1 0x4 PUSH2 0x3ED JUMP JUMPDEST PUSH1 0x0 DUP1 SLOAD PUSH1 0x1 PUSH1 0x1 PUSH1 0xA0 SHL SUB NOT AND PUSH1 0x1 PUSH1 0x1 PUSH1 0xA0 SHL SUB SWAP3 SWAP1 SWAP3 AND SWAP2 SWAP1 SWAP2 OR SWAP1 SSTORE JUMP JUMPDEST STOP JUMPDEST PUSH1 0x0 DUP1 SLOAD PUSH1 0x40 DUP1 MLOAD PUSH4 0x1FCDD921 PUSH1 0xE1 SHL DUP2 MSTORE SWAP1 MLOAD PUSH1 0x60 SWAP4 PUSH1 0x1 PUSH1 0x1 PUSH1 0xA0 SHL SUB SWAP1 SWAP4 AND SWAP3 PUSH4 0x3F9BB242 SWAP3 PUSH1 0x4 DUP1 DUP3 ADD SWAP4 SWAP2 DUP3 SWAP1 SUB ADD DUP2 DUP7 GAS STATICCALL ISZERO DUP1 ISZERO PUSH2 0x135 JUMPI RETURNDATASIZE PUSH1 0x0 DUP1 RETURNDATACOPY RETURNDATASIZE PUSH1 0x0 REVERT JUMPDEST POP POP POP POP PUSH1 0x40 MLOAD RETURNDATASIZE PUSH1 0x0 DUP3 RETURNDATACOPY PUSH1 0x1F RETURNDATASIZE SWAP1 DUP2 ADD PUSH1 0x1F NOT AND DUP3 ADD PUSH1 0x40 MSTORE PUSH2 0x15D SWAP2 SWAP1 DUP2 ADD SWAP1 PUSH2 0x4ED JUMP JUMPDEST SWAP1 POP SWAP1 JUMP JUMPDEST PUSH1 0x40 DUP1 MLOAD DUP1 DUP3 ADD DUP3 MSTORE PUSH1 0x60 DUP1 DUP3 MSTORE PUSH1 0x20 DUP3 ADD MSTORE PUSH1 0x0 SLOAD SWAP2 MLOAD PUSH4 0x5AE6634B PUSH1 0xE0 SHL DUP2 MSTORE SWAP1 SWAP2 PUSH1 0x1 PUSH1 0x1 PUSH1 0xA0 SHL SUB AND SWAP1 PUSH4 0x5AE6634B SWAP1 PUSH2 0x1A4 SWAP1 DUP6 SWAP1 PUSH1 0x4 ADD PUSH2 0x5B0 JUMP JUMPDEST PUSH1 0x0 PUSH1 0x40 MLOAD DUP1 DUP4 SUB DUP2 DUP7 GAS STATICCALL ISZERO DUP1 ISZERO PUSH2 0x1C1 JUMPI RETURNDATASIZE PUSH1 0x0 DUP1 RETURNDATACOPY RETURNDATASIZE PUSH1 0x0 REVERT JUMPDEST POP POP POP POP PUSH1 0x40 MLOAD RETURNDATASIZE PUSH1 0x0 DUP3 RETURNDATACOPY PUSH1 0x1F RETURNDATASIZE SWAP1 DUP2 ADD PUSH1 0x1F NOT AND DUP3 ADD PUSH1 0x40 MSTORE PUSH2 0x1E9 SWAP2 SWAP1 DUP2 ADD SWAP1 PUSH2 0x5C3 JUMP JUMPDEST SWAP3 SWAP2 POP POP JUMP JUMPDEST PUSH1 0x0 JUMPDEST DUP4 DUP2 LT ISZERO PUSH2 0x20A JUMPI DUP2 DUP2 ADD MLOAD DUP4 DUP3 ADD MSTORE PUSH1 0x20 ADD PUSH2 0x1F2 JUMP JUMPDEST DUP4 DUP2 GT ISZERO PUSH2 0x219 JUMPI PUSH1 0x0 DUP5 DUP5 ADD MSTORE JUMPDEST POP POP POP POP JUMP JUMPDEST PUSH1 0x0 DUP2 MLOAD DUP1 DUP5 MSTORE PUSH2 0x237 DUP2 PUSH1 0x20 DUP7 ADD PUSH1 0x20 DUP7 ADD PUSH2 0x1EF JUMP JUMPDEST PUSH1 0x1F ADD PUSH1 0x1F NOT AND SWAP3 SWAP1 SWAP3 ADD PUSH1 0x20 ADD SWAP3 SWAP2 POP POP JUMP JUMPDEST PUSH1 0x0 DUP2 MLOAD PUSH1 0x40 DUP5 MSTORE PUSH2 0x260 PUSH1 0x40 DUP6 ADD DUP3 PUSH2 0x21F JUMP JUMPDEST SWAP1 POP PUSH1 0x20 DUP4 ADD MLOAD DUP5 DUP3 SUB PUSH1 0x20 DUP7 ADD MSTORE PUSH2 0x279 DUP3 DUP3 PUSH2 0x21F JUMP JUMPDEST SWAP6 SWAP5 POP POP POP POP POP JUMP JUMPDEST PUSH1 0x0 PUSH1 0x20 DUP1 DUP4 ADD DUP2 DUP5 MSTORE DUP1 DUP6 MLOAD DUP1 DUP4 MSTORE PUSH1 0x40 DUP7 ADD SWAP2 POP PUSH1 0x40 DUP2 PUSH1 0x5 SHL DUP8 ADD ADD SWAP3 POP DUP4 DUP8 ADD PUSH1 0x0 JUMPDEST DUP3 DUP2 LT ISZERO PUSH2 0x2D7 JUMPI PUSH1 0x3F NOT DUP9 DUP7 SUB ADD DUP5 MSTORE PUSH2 0x2C5 DUP6 DUP4 MLOAD PUSH2 0x24B JUMP JUMPDEST SWAP5 POP SWAP3 DUP6 ADD SWAP3 SWAP1 DUP6 ADD SWAP1 PUSH1 0x1 ADD PUSH2 0x2A9 JUMP JUMPDEST POP SWAP3 SWAP8 SWAP7 POP POP POP POP POP POP POP JUMP JUMPDEST PUSH4 0x4E487B71 PUSH1 0xE0 SHL PUSH1 0x0 MSTORE PUSH1 0x41 PUSH1 0x4 MSTORE PUSH1 0x24 PUSH1 0x0 REVERT JUMPDEST PUSH1 0x40 MLOAD PUSH1 0x1F DUP3 ADD PUSH1 0x1F NOT AND DUP2 ADD PUSH8 0xFFFFFFFFFFFFFFFF DUP2 GT DUP3 DUP3 LT OR ISZERO PUSH2 0x323 JUMPI PUSH2 0x323 PUSH2 0x2E4 JUMP JUMPDEST PUSH1 0x40 MSTORE SWAP2 SWAP1 POP JUMP JUMPDEST PUSH1 0x0 PUSH8 0xFFFFFFFFFFFFFFFF DUP3 GT ISZERO PUSH2 0x345 JUMPI PUSH2 0x345 PUSH2 0x2E4 JUMP JUMPDEST POP PUSH1 0x1F ADD PUSH1 0x1F NOT AND PUSH1 0x20 ADD SWAP1 JUMP JUMPDEST PUSH1 0x0 PUSH1 0x20 DUP3 DUP5 SUB SLT ISZERO PUSH2 0x365 JUMPI PUSH1 0x0 DUP1 REVERT JUMPDEST DUP2 CALLDATALOAD PUSH8 0xFFFFFFFFFFFFFFFF DUP2 GT ISZERO PUSH2 0x37C JUMPI PUSH1 0x0 DUP1 REVERT JUMPDEST DUP3 ADD PUSH1 0x1F DUP2 ADD DUP5 SGT PUSH2 0x38D JUMPI PUSH1 0x0 DUP1 REVERT JUMPDEST DUP1 CALLDATALOAD PUSH2 0x3A0 PUSH2 0x39B DUP3 PUSH2 0x32B JUMP JUMPDEST PUSH2 0x2FA JUMP JUMPDEST DUP2 DUP2 MSTORE DUP6 PUSH1 0x20 DUP4 DUP6 ADD ADD GT ISZERO PUSH2 0x3B5 JUMPI PUSH1 0x0 DUP1 REVERT JUMPDEST DUP2 PUSH1 0x20 DUP5 ADD PUSH1 0x20 DUP4 ADD CALLDATACOPY PUSH1 0x0 SWAP2 DUP2 ADD PUSH1 0x20 ADD SWAP2 SWAP1 SWAP2 MSTORE SWAP5 SWAP4 POP POP POP POP JUMP JUMPDEST PUSH1 0x20 DUP2 MSTORE PUSH1 0x0 PUSH2 0x3E6 PUSH1 0x20 DUP4 ADD DUP5 PUSH2 0x24B JUMP JUMPDEST SWAP4 SWAP3 POP POP POP JUMP JUMPDEST PUSH1 0x0 PUSH1 0x20 DUP3 DUP5 SUB SLT ISZERO PUSH2 0x3FF JUMPI PUSH1 0x0 DUP1 REVERT JUMPDEST DUP2 CALLDATALOAD PUSH1 0x1 PUSH1 0x1 PUSH1 0xA0 SHL SUB DUP2 AND DUP2 EQ PUSH2 0x3E6 JUMPI PUSH1 0x0 DUP1 REVERT JUMPDEST PUSH1 0x0 DUP3 PUSH1 0x1F DUP4 ADD SLT PUSH2 0x427 JUMPI PUSH1 0x0 DUP1 REVERT JUMPDEST DUP2 MLOAD PUSH2 0x435 PUSH2 0x39B DUP3 PUSH2 0x32B JUMP JUMPDEST DUP2 DUP2 MSTORE DUP5 PUSH1 0x20 DUP4 DUP7 ADD ADD GT ISZERO PUSH2 0x44A JUMPI PUSH1 0x0 DUP1 REVERT JUMPDEST PUSH2 0x45B DUP3 PUSH1 0x20 DUP4 ADD PUSH1 0x20 DUP8 ADD PUSH2 0x1EF JUMP JUMPDEST SWAP5 SWAP4 POP POP POP POP JUMP JUMPDEST PUSH1 0x0 PUSH1 0x40 DUP3 DUP5 SUB SLT ISZERO PUSH2 0x475 JUMPI PUSH1 0x0 DUP1 REVERT JUMPDEST PUSH1 0x40 MLOAD PUSH1 0x40 DUP2 ADD PUSH8 0xFFFFFFFFFFFFFFFF DUP3 DUP3 LT DUP2 DUP4 GT OR ISZERO PUSH2 0x499 JUMPI PUSH2 0x499 PUSH2 0x2E4 JUMP JUMPDEST DUP2 PUSH1 0x40 MSTORE DUP3 SWAP4 POP DUP5 MLOAD SWAP2 POP DUP1 DUP3 GT ISZERO PUSH2 0x4B1 JUMPI PUSH1 0x0 DUP1 REVERT JUMPDEST PUSH2 0x4BD DUP7 DUP4 DUP8 ADD PUSH2 0x416 JUMP JUMPDEST DUP4 MSTORE PUSH1 0x20 DUP6 ADD MLOAD SWAP2 POP DUP1 DUP3 GT ISZERO PUSH2 0x4D3 JUMPI PUSH1 0x0 DUP1 REVERT JUMPDEST POP PUSH2 0x4E0 DUP6 DUP3 DUP7 ADD PUSH2 0x416 JUMP JUMPDEST PUSH1 0x20 DUP4 ADD MSTORE POP POP SWAP3 SWAP2 POP POP JUMP JUMPDEST PUSH1 0x0 PUSH1 0x20 DUP1 DUP4 DUP6 SUB SLT ISZERO PUSH2 0x500 JUMPI PUSH1 0x0 DUP1 REVERT JUMPDEST DUP3 MLOAD PUSH8 0xFFFFFFFFFFFFFFFF DUP1 DUP3 GT ISZERO PUSH2 0x518 JUMPI PUSH1 0x0 DUP1 REVERT JUMPDEST DUP2 DUP6 ADD SWAP2 POP DUP6 PUSH1 0x1F DUP4 ADD SLT PUSH2 0x52C JUMPI PUSH1 0x0 DUP1 REVERT JUMPDEST DUP2 MLOAD DUP2 DUP2 GT ISZERO PUSH2 0x53E JUMPI PUSH2 0x53E PUSH2 0x2E4 JUMP JUMPDEST DUP1 PUSH1 0x5 SHL PUSH2 0x54D DUP6 DUP3 ADD PUSH2 0x2FA JUMP JUMPDEST SWAP2 DUP3 MSTORE DUP4 DUP2 ADD DUP6 ADD SWAP2 DUP6 DUP2 ADD SWAP1 DUP10 DUP5 GT ISZERO PUSH2 0x567 JUMPI PUSH1 0x0 DUP1 REVERT JUMPDEST DUP7 DUP7 ADD SWAP3 POP JUMPDEST DUP4 DUP4 LT ISZERO PUSH2 0x5A3 JUMPI DUP3 MLOAD DUP6 DUP2 GT ISZERO PUSH2 0x585 JUMPI PUSH1 0x0 DUP1 DUP2 REVERT JUMPDEST PUSH2 0x593 DUP12 DUP10 DUP4 DUP11 ADD ADD PUSH2 0x463 JUMP JUMPDEST DUP4 MSTORE POP SWAP2 DUP7 ADD SWAP2 SWAP1 DUP7 ADD SWAP1 PUSH2 0x56D JUMP JUMPDEST SWAP10 SWAP9 POP POP POP POP POP POP POP POP POP JUMP JUMPDEST PUSH1 0x20 DUP2 MSTORE PUSH1 0x0 PUSH2 0x3E6 PUSH1 0x20 DUP4 ADD DUP5 PUSH2 0x21F JUMP JUMPDEST PUSH1 0x0 PUSH1 0x20 DUP3 DUP5 SUB SLT ISZERO PUSH2 0x5D5 JUMPI PUSH1 0x0 DUP1 REVERT JUMPDEST DUP2 MLOAD PUSH8 0xFFFFFFFFFFFFFFFF DUP2 GT ISZERO PUSH2 0x5EC JUMPI PUSH1 0x0 DUP1 REVERT JUMPDEST PUSH2 0x45B DUP5 DUP3 DUP6 ADD PUSH2 0x463 JUMP INVALID LOG2 PUSH5 0x6970667358 0x22 SLT KECCAK256 0xAF SWAP8 0xE7 DIV 0xBF 0xB1 0xB6 SHR 0x24 0x2D CALLVALUE CODESIZE 0xAB SDIV 0x22 PUSH9 0x13D234562F77DC0924 0xB9 PUSH18 0xBAA3D9B24E64736F6C634300080D00330000 ",
  "sha1": "593c3b5120098703364bd6bbab43fcd2f960ca90",
  "source": "// SPDX-License-Identifier: MIT OR Apache-2.0\npragma solidity ^0.8.7;\nimport {ExplainSchema} from \"contracts/explain/Structs.sol\";\nimport {IExplainManager} from \"interfaces/explain/IExplainManager.sol\";\n\ncontract ExplainManagerAdapter {\n\n    IExplainManager public explain;\n\n    function connectExplain(address explainAddress) public {\n        explain = IExplainManager(explainAddress);\n    }\n\n    function getExplainer(string memory name) external view returns(ExplainSchema memory )\n    {\n    return explain.getExplainer(name);\n    }\n    function getExplainers() external view returns(ExplainSchema[] memory )\n    {\n    return explain.getExplainers();\n    }\n     \n}\n",
  "sourcePath": "contracts/explain/ExplainManagerAdapter.sol",
  "type": "contract"
}