{
  "abi": [
    {
      "inputs": [
        {
          "internalType": "string",
          "name": "_name",
          "type": "string"
        },
        {
          "internalType": "string",
          "name": "_baseTokenSymbol",
          "type": "string"
        },
        {
          "internalType": "string[]",
          "name": "_tokenSymbols",
          "type": "string[]"
        },
        {
          "internalType": "address[]",
          "name": "_tokenAddresses",
          "type": "address[]"
        }
      ],
      "stateMutability": "nonpayable",
      "type": "constructor"
    },
    {
      "anonymous": false,
      "inputs": [
        {
          "indexed": false,
          "internalType": "string[]",
          "name": "tokenSymbolPath",
          "type": "string[]"
        },
        {
          "indexed": false,
          "internalType": "uint256",
          "name": "amountIn",
          "type": "uint256"
        }
      ],
      "name": "SwapEvent",
      "type": "event"
    },
    {
      "anonymous": false,
      "inputs": [
        {
          "indexed": false,
          "internalType": "address",
          "name": "to",
          "type": "address"
        },
        {
          "indexed": false,
          "internalType": "string",
          "name": "tokenSymbol",
          "type": "string"
        },
        {
          "indexed": false,
          "internalType": "uint256",
          "name": "balance",
          "type": "uint256"
        },
        {
          "indexed": false,
          "internalType": "uint256",
          "name": "tokenBalance",
          "type": "uint256"
        }
      ],
      "name": "WithdrawToken",
      "type": "event"
    },
    {
      "anonymous": false,
      "inputs": [
        {
          "indexed": false,
          "internalType": "string",
          "name": "symbol",
          "type": "string"
        },
        {
          "indexed": false,
          "internalType": "int256",
          "name": "valueChange",
          "type": "int256"
        },
        {
          "indexed": false,
          "internalType": "uint256",
          "name": "initialValue",
          "type": "uint256"
        }
      ],
      "name": "rebalanceEvent",
      "type": "event"
    },
    {
      "anonymous": false,
      "inputs": [
        {
          "components": [
            {
              "internalType": "uint256",
              "name": "marketValue",
              "type": "uint256"
            },
            {
              "internalType": "uint256",
              "name": "depositValue",
              "type": "uint256"
            },
            {
              "internalType": "uint256",
              "name": "timestamp",
              "type": "uint256"
            },
            {
              "internalType": "uint256",
              "name": "blockNumber",
              "type": "uint256"
            },
            {
              "internalType": "string",
              "name": "baseTokenSymbol",
              "type": "string"
            }
          ],
          "indexed": false,
          "internalType": "struct PortfolioState",
          "name": "state",
          "type": "tuple"
        }
      ],
      "name": "updateStateEvent",
      "type": "event"
    },
    {
      "inputs": [
        {
          "internalType": "string[]",
          "name": "_tokenSymbols",
          "type": "string[]"
        },
        {
          "internalType": "address[]",
          "name": "_tokenAddresses",
          "type": "address[]"
        }
      ],
      "name": "addTokens",
      "outputs": [],
      "stateMutability": "nonpayable",
      "type": "function"
    },
    {
      "inputs": [],
      "name": "baseToken",
      "outputs": [
        {
          "internalType": "string",
          "name": "",
          "type": "string"
        }
      ],
      "stateMutability": "view",
      "type": "function"
    },
    {
      "inputs": [
        {
          "internalType": "address",
          "name": "tokenAddress",
          "type": "address"
        }
      ],
      "name": "connectNFT",
      "outputs": [],
      "stateMutability": "nonpayable",
      "type": "function"
    },
    {
      "inputs": [],
      "name": "deposit",
      "outputs": [],
      "stateMutability": "payable",
      "type": "function"
    },
    {
      "inputs": [],
      "name": "depositNFT",
      "outputs": [
        {
          "internalType": "contract IDepositNFT",
          "name": "",
          "type": "address"
        }
      ],
      "stateMutability": "view",
      "type": "function"
    },
    {
      "inputs": [],
      "name": "getExplain",
      "outputs": [
        {
          "internalType": "string",
          "name": "",
          "type": "string"
        }
      ],
      "stateMutability": "view",
      "type": "function"
    },
    {
      "inputs": [],
      "name": "getModel",
      "outputs": [
        {
          "internalType": "string",
          "name": "",
          "type": "string"
        }
      ],
      "stateMutability": "view",
      "type": "function"
    },
    {
      "inputs": [],
      "name": "getState",
      "outputs": [
        {
          "components": [
            {
              "internalType": "string",
              "name": "name",
              "type": "string"
            },
            {
              "components": [
                {
                  "internalType": "string",
                  "name": "explain",
                  "type": "string"
                },
                {
                  "internalType": "string",
                  "name": "model",
                  "type": "string"
                },
                {
                  "internalType": "string",
                  "name": "code",
                  "type": "string"
                }
              ],
              "internalType": "struct ModelURI",
              "name": "uri",
              "type": "tuple"
            }
          ],
          "internalType": "struct ModelState",
          "name": "",
          "type": "tuple"
        }
      ],
      "stateMutability": "view",
      "type": "function"
    },
    {
      "inputs": [],
      "name": "getStateHistory",
      "outputs": [
        {
          "components": [
            {
              "internalType": "uint256",
              "name": "marketValue",
              "type": "uint256"
            },
            {
              "internalType": "uint256",
              "name": "depositValue",
              "type": "uint256"
            },
            {
              "internalType": "uint256",
              "name": "timestamp",
              "type": "uint256"
            },
            {
              "internalType": "uint256",
              "name": "blockNumber",
              "type": "uint256"
            },
            {
              "internalType": "string",
              "name": "baseTokenSymbol",
              "type": "string"
            }
          ],
          "internalType": "struct PortfolioState[]",
          "name": "",
          "type": "tuple[]"
        }
      ],
      "stateMutability": "view",
      "type": "function"
    },
    {
      "inputs": [
        {
          "internalType": "string",
          "name": "tokenSymbol",
          "type": "string"
        }
      ],
      "name": "getTokenBalance",
      "outputs": [
        {
          "internalType": "uint256",
          "name": "balance",
          "type": "uint256"
        }
      ],
      "stateMutability": "view",
      "type": "function"
    },
    {
      "inputs": [],
      "name": "getTokenStateHistory",
      "outputs": [
        {
          "components": [
            {
              "internalType": "address",
              "name": "Address",
              "type": "address"
            },
            {
              "internalType": "string",
              "name": "symbol",
              "type": "string"
            },
            {
              "internalType": "uint256",
              "name": "value",
              "type": "uint256"
            },
            {
              "internalType": "uint256",
              "name": "balance",
              "type": "uint256"
            },
            {
              "internalType": "uint256",
              "name": "ratio",
              "type": "uint256"
            },
            {
              "internalType": "int256",
              "name": "valueChange",
              "type": "int256"
            },
            {
              "internalType": "int256",
              "name": "decimals",
              "type": "int256"
            },
            {
              "internalType": "uint256",
              "name": "index",
              "type": "uint256"
            }
          ],
          "internalType": "struct TokenState[][]",
          "name": "",
          "type": "tuple[][]"
        }
      ],
      "stateMutability": "view",
      "type": "function"
    },
    {
      "inputs": [],
      "name": "getTokens",
      "outputs": [
        {
          "internalType": "string[]",
          "name": "",
          "type": "string[]"
        }
      ],
      "stateMutability": "view",
      "type": "function"
    },
    {
      "inputs": [],
      "name": "getUserDepositValue",
      "outputs": [
        {
          "internalType": "uint256",
          "name": "",
          "type": "uint256"
        }
      ],
      "stateMutability": "view",
      "type": "function"
    },
    {
      "inputs": [],
      "name": "getUserMarketValue",
      "outputs": [
        {
          "internalType": "uint256",
          "name": "",
          "type": "uint256"
        }
      ],
      "stateMutability": "view",
      "type": "function"
    },
    {
      "inputs": [
        {
          "internalType": "address",
          "name": "owner",
          "type": "address"
        }
      ],
      "name": "getUserTokenStates",
      "outputs": [
        {
          "components": [
            {
              "internalType": "uint256",
              "name": "depositValue",
              "type": "uint256"
            },
            {
              "internalType": "uint256",
              "name": "marketValue",
              "type": "uint256"
            },
            {
              "internalType": "uint256",
              "name": "lastUpdateBlock",
              "type": "uint256"
            },
            {
              "components": [
                {
                  "internalType": "uint256",
                  "name": "marketValue",
                  "type": "uint256"
                },
                {
                  "internalType": "uint256",
                  "name": "depositValue",
                  "type": "uint256"
                },
                {
                  "internalType": "uint256",
                  "name": "timestamp",
                  "type": "uint256"
                },
                {
                  "internalType": "uint256",
                  "name": "blockNumber",
                  "type": "uint256"
                },
                {
                  "internalType": "string",
                  "name": "baseTokenSymbol",
                  "type": "string"
                }
              ],
              "internalType": "struct PortfolioState",
              "name": "portfolio",
              "type": "tuple"
            }
          ],
          "internalType": "struct NFTState[]",
          "name": "",
          "type": "tuple[]"
        }
      ],
      "stateMutability": "view",
      "type": "function"
    },
    {
      "inputs": [],
      "name": "hubToken",
      "outputs": [
        {
          "internalType": "string",
          "name": "",
          "type": "string"
        }
      ],
      "stateMutability": "view",
      "type": "function"
    },
    {
      "inputs": [],
      "name": "modelState",
      "outputs": [
        {
          "internalType": "string",
          "name": "name",
          "type": "string"
        },
        {
          "components": [
            {
              "internalType": "string",
              "name": "explain",
              "type": "string"
            },
            {
              "internalType": "string",
              "name": "model",
              "type": "string"
            },
            {
              "internalType": "string",
              "name": "code",
              "type": "string"
            }
          ],
          "internalType": "struct ModelURI",
          "name": "uri",
          "type": "tuple"
        }
      ],
      "stateMutability": "view",
      "type": "function"
    },
    {
      "inputs": [],
      "name": "name",
      "outputs": [
        {
          "internalType": "string",
          "name": "",
          "type": "string"
        }
      ],
      "stateMutability": "view",
      "type": "function"
    },
    {
      "inputs": [],
      "name": "percentBase",
      "outputs": [
        {
          "internalType": "uint256",
          "name": "",
          "type": "uint256"
        }
      ],
      "stateMutability": "view",
      "type": "function"
    },
    {
      "inputs": [
        {
          "internalType": "string[]",
          "name": "_tokenSymbols",
          "type": "string[]"
        },
        {
          "internalType": "uint256[]",
          "name": "tokenRatios",
          "type": "uint256[]"
        },
        {
          "internalType": "bool",
          "name": "swapBool",
          "type": "bool"
        }
      ],
      "name": "rebalancePortfolio",
      "outputs": [],
      "stateMutability": "nonpayable",
      "type": "function"
    },
    {
      "inputs": [
        {
          "internalType": "string[]",
          "name": "_tokenSymbols",
          "type": "string[]"
        }
      ],
      "name": "removeTokens",
      "outputs": [],
      "stateMutability": "nonpayable",
      "type": "function"
    },
    {
      "inputs": [
        {
          "internalType": "string",
          "name": "_baseTokenSymbol",
          "type": "string"
        }
      ],
      "name": "setBaseToken",
      "outputs": [],
      "stateMutability": "nonpayable",
      "type": "function"
    },
    {
      "inputs": [
        {
          "internalType": "string",
          "name": "uri",
          "type": "string"
        }
      ],
      "name": "setExplain",
      "outputs": [],
      "stateMutability": "nonpayable",
      "type": "function"
    },
    {
      "inputs": [
        {
          "internalType": "string",
          "name": "uri",
          "type": "string"
        }
      ],
      "name": "setModel",
      "outputs": [],
      "stateMutability": "nonpayable",
      "type": "function"
    },
    {
      "inputs": [
        {
          "components": [
            {
              "internalType": "string",
              "name": "name",
              "type": "string"
            },
            {
              "components": [
                {
                  "internalType": "string",
                  "name": "explain",
                  "type": "string"
                },
                {
                  "internalType": "string",
                  "name": "model",
                  "type": "string"
                },
                {
                  "internalType": "string",
                  "name": "code",
                  "type": "string"
                }
              ],
              "internalType": "struct ModelURI",
              "name": "uri",
              "type": "tuple"
            }
          ],
          "internalType": "struct ModelState",
          "name": "_modelState",
          "type": "tuple"
        }
      ],
      "name": "setState",
      "outputs": [],
      "stateMutability": "nonpayable",
      "type": "function"
    },
    {
      "inputs": [],
      "name": "state",
      "outputs": [
        {
          "internalType": "uint256",
          "name": "marketValue",
          "type": "uint256"
        },
        {
          "internalType": "uint256",
          "name": "depositValue",
          "type": "uint256"
        },
        {
          "internalType": "uint256",
          "name": "timestamp",
          "type": "uint256"
        },
        {
          "internalType": "uint256",
          "name": "blockNumber",
          "type": "uint256"
        },
        {
          "internalType": "string",
          "name": "baseTokenSymbol",
          "type": "string"
        }
      ],
      "stateMutability": "view",
      "type": "function"
    },
    {
      "inputs": [
        {
          "internalType": "uint256",
          "name": "",
          "type": "uint256"
        }
      ],
      "name": "stateHistory",
      "outputs": [
        {
          "internalType": "uint256",
          "name": "marketValue",
          "type": "uint256"
        },
        {
          "internalType": "uint256",
          "name": "depositValue",
          "type": "uint256"
        },
        {
          "internalType": "uint256",
          "name": "timestamp",
          "type": "uint256"
        },
        {
          "internalType": "uint256",
          "name": "blockNumber",
          "type": "uint256"
        },
        {
          "internalType": "string",
          "name": "baseTokenSymbol",
          "type": "string"
        }
      ],
      "stateMutability": "view",
      "type": "function"
    },
    {
      "inputs": [],
      "name": "sushiswapFactoryAddress",
      "outputs": [
        {
          "internalType": "address",
          "name": "",
          "type": "address"
        }
      ],
      "stateMutability": "view",
      "type": "function"
    },
    {
      "inputs": [],
      "name": "sushiswapRouterAddress",
      "outputs": [
        {
          "internalType": "address payable",
          "name": "",
          "type": "address"
        }
      ],
      "stateMutability": "view",
      "type": "function"
    },
    {
      "inputs": [
        {
          "internalType": "string[]",
          "name": "tokenSymbolPath",
          "type": "string[]"
        },
        {
          "internalType": "uint256",
          "name": "amountIn",
          "type": "uint256"
        }
      ],
      "name": "swap",
      "outputs": [],
      "stateMutability": "nonpayable",
      "type": "function"
    },
    {
      "inputs": [
        {
          "internalType": "string[]",
          "name": "tokenSymbolPath",
          "type": "string[]"
        },
        {
          "internalType": "uint256",
          "name": "amountInRatio",
          "type": "uint256"
        },
        {
          "internalType": "bool",
          "name": "swapBool",
          "type": "bool"
        }
      ],
      "name": "swapRatio",
      "outputs": [],
      "stateMutability": "nonpayable",
      "type": "function"
    },
    {
      "inputs": [
        {
          "internalType": "string",
          "name": "",
          "type": "string"
        }
      ],
      "name": "tokenStates",
      "outputs": [
        {
          "internalType": "address",
          "name": "Address",
          "type": "address"
        },
        {
          "internalType": "string",
          "name": "symbol",
          "type": "string"
        },
        {
          "internalType": "uint256",
          "name": "value",
          "type": "uint256"
        },
        {
          "internalType": "uint256",
          "name": "balance",
          "type": "uint256"
        },
        {
          "internalType": "uint256",
          "name": "ratio",
          "type": "uint256"
        },
        {
          "internalType": "int256",
          "name": "valueChange",
          "type": "int256"
        },
        {
          "internalType": "int256",
          "name": "decimals",
          "type": "int256"
        },
        {
          "internalType": "uint256",
          "name": "index",
          "type": "uint256"
        }
      ],
      "stateMutability": "view",
      "type": "function"
    },
    {
      "inputs": [
        {
          "internalType": "uint256",
          "name": "",
          "type": "uint256"
        }
      ],
      "name": "tokenStatesArray",
      "outputs": [
        {
          "internalType": "address",
          "name": "Address",
          "type": "address"
        },
        {
          "internalType": "string",
          "name": "symbol",
          "type": "string"
        },
        {
          "internalType": "uint256",
          "name": "value",
          "type": "uint256"
        },
        {
          "internalType": "uint256",
          "name": "balance",
          "type": "uint256"
        },
        {
          "internalType": "uint256",
          "name": "ratio",
          "type": "uint256"
        },
        {
          "internalType": "int256",
          "name": "valueChange",
          "type": "int256"
        },
        {
          "internalType": "int256",
          "name": "decimals",
          "type": "int256"
        },
        {
          "internalType": "uint256",
          "name": "index",
          "type": "uint256"
        }
      ],
      "stateMutability": "view",
      "type": "function"
    },
    {
      "inputs": [
        {
          "internalType": "uint256",
          "name": "",
          "type": "uint256"
        },
        {
          "internalType": "uint256",
          "name": "",
          "type": "uint256"
        }
      ],
      "name": "tokenStatesHistory",
      "outputs": [
        {
          "internalType": "address",
          "name": "Address",
          "type": "address"
        },
        {
          "internalType": "string",
          "name": "symbol",
          "type": "string"
        },
        {
          "internalType": "uint256",
          "name": "value",
          "type": "uint256"
        },
        {
          "internalType": "uint256",
          "name": "balance",
          "type": "uint256"
        },
        {
          "internalType": "uint256",
          "name": "ratio",
          "type": "uint256"
        },
        {
          "internalType": "int256",
          "name": "valueChange",
          "type": "int256"
        },
        {
          "internalType": "int256",
          "name": "decimals",
          "type": "int256"
        },
        {
          "internalType": "uint256",
          "name": "index",
          "type": "uint256"
        }
      ],
      "stateMutability": "view",
      "type": "function"
    },
    {
      "inputs": [
        {
          "internalType": "uint256",
          "name": "",
          "type": "uint256"
        }
      ],
      "name": "tokenSymbols",
      "outputs": [
        {
          "internalType": "string",
          "name": "",
          "type": "string"
        }
      ],
      "stateMutability": "view",
      "type": "function"
    },
    {
      "inputs": [],
      "name": "updateState",
      "outputs": [],
      "stateMutability": "nonpayable",
      "type": "function"
    },
    {
      "inputs": [],
      "name": "wethAddress",
      "outputs": [
        {
          "internalType": "address",
          "name": "",
          "type": "address"
        }
      ],
      "stateMutability": "view",
      "type": "function"
    },
    {
      "inputs": [
        {
          "internalType": "uint256",
          "name": "withdrawRatio",
          "type": "uint256"
        }
      ],
      "name": "withdraw",
      "outputs": [],
      "stateMutability": "nonpayable",
      "type": "function"
    },
    {
      "inputs": [],
      "name": "wrapETH",
      "outputs": [],
      "stateMutability": "payable",
      "type": "function"
    }
  ],
  "bytecode": "60c060405260046080819052630ae8aa8960e31b60a0908152620000279160069190620001d8565b50604080518082019091526004808252630ae8aa8960e31b60209092019182526200005591600791620001d8565b506008805473c02aaa39b223fe8d0a0e5c4f27ead9083c756cc26001600160a01b03199182168117909255600980548216909217909155600a805473d9e1ce17f2641f24ae83637ab66a2cca9c378b9f9083168117909155600b8054831682179055600c8054831682179055600d8054909216179055612710601855348015620000de57600080fd5b506040516200504a3803806200504a83398101604081905262000101916200041e565b8351849062000118906001906020840190620001d8565b5050604051636ea43f5d60e11b8152309063dd487eba906200013f9086906004016200057c565b600060405180830381600087803b1580156200015a57600080fd5b505af11580156200016f573d6000803e3d6000fd5b5050604051639c1faa3560e01b8152309250639c1faa3591506200019a908590859060040162000598565b600060405180830381600087803b158015620001b557600080fd5b505af1158015620001ca573d6000803e3d6000fd5b50505050505050506200067e565b828054620001e69062000642565b90600052602060002090601f0160209004810192826200020a576000855562000255565b82601f106200022557805160ff191683800117855562000255565b8280016001018555821562000255579182015b828111156200025557825182559160200191906001019062000238565b506200026392915062000267565b5090565b5b8082111562000263576000815560010162000268565b634e487b7160e01b600052604160045260246000fd5b604051601f8201601f191681016001600160401b0381118282101715620002bf57620002bf6200027e565b604052919050565b60005b83811015620002e4578181015183820152602001620002ca565b83811115620002f4576000848401525b50505050565b600082601f8301126200030c57600080fd5b81516001600160401b038111156200032857620003286200027e565b6200033d601f8201601f191660200162000294565b8181528460208386010111156200035357600080fd5b62000366826020830160208701620002c7565b949350505050565b60006001600160401b038211156200038a576200038a6200027e565b5060051b60200190565b600082601f830112620003a657600080fd5b81516020620003bf620003b9836200036e565b62000294565b82815260059290921b84018101918181019086841115620003df57600080fd5b8286015b84811015620004135780516001600160a01b0381168114620004055760008081fd5b8352918301918301620003e3565b509695505050505050565b600080600080608085870312156200043557600080fd5b84516001600160401b03808211156200044d57600080fd5b6200045b88838901620002fa565b95506020915081870151818111156200047357600080fd5b6200048189828a01620002fa565b9550506040870151818111156200049757600080fd5b8701601f81018913620004a957600080fd5b8051620004ba620003b9826200036e565b81815260059190911b8201840190848101908b831115620004da57600080fd5b8584015b838110156200051757805186811115620004f85760008081fd5b620005088e8983890101620002fa565b845250918601918601620004de565b5060608b01519097509450505050808211156200053357600080fd5b50620005428782880162000394565b91505092959194509250565b6000815180845262000568816020860160208601620002c7565b601f01601f19169290920160200192915050565b6020815260006200059160208301846200054e565b9392505050565b6000604082016040835280855180835260608501915060608160051b8601019250602080880160005b83811015620005f357605f19888703018552620005e08683516200054e565b95509382019390820190600101620005c1565b50508584038187015286518085528782019482019350915060005b82811015620006355784516001600160a01b0316845293810193928101926001016200060e565b5091979650505050505050565b600181811c908216806200065757607f821691505b6020821081036200067857634e487b7160e01b600052602260045260246000fd5b50919050565b6149bc806200068e6000396000f3fe6080604052600436106102305760003560e01c8063905449841161012e578063c2133213116100ab578063d8dd5eae1161006f578063d8dd5eae1461065a578063dd487eba1461067a578063e017b5891461069a578063e210f330146106d7578063fa8d3a22146106f757600080fd5b8063c2133213146105e8578063c300db47146105fd578063c55dae631461061d578063cd84593b14610632578063d0e30db01461065257600080fd5b8063a85ef678116100f2578063a85ef67814610566578063aa6ca8081461056e578063bbdf680d14610590578063be5d69ae146105b0578063c19d93fb146105d357600080fd5b806390544984146104be57806392a86e1a146104ef5780639342cb8f146105115780639c1faa3514610531578063a0bfa1e01461055157600080fd5b80632e1a7d4d116101bc5780635493458d116101805780635493458d1461042957806355a31dd81461044957806367e3c4d41461046957806368398209146104895780636e7ddea81461049e57600080fd5b80632e1a7d4d1461037557806331243ba81461039557806346d75c8c146103b55780634e2d251a146103d55780634f0e0ef31461040957600080fd5b80631865c57d116102035780631865c57d146102cd57806319d0a9a2146102ef5780631a0387a5146103275780631d8557d714610349578063257aff351461036057600080fd5b8063025abd581461023557806306fdde03146102685780630f137b5b1461028a57806311973f13146102a0575b600080fd5b34801561024157600080fd5b506102556102503660046138e9565b61070c565b6040519081526020015b60405180910390f35b34801561027457600080fd5b5061027d61079d565b60405161025f919061397d565b34801561029657600080fd5b5061025560185481565b3480156102ac57600080fd5b506102c06102bb3660046139ac565b61082b565b60405161025f9190613a37565b3480156102d957600080fd5b506102e26109b4565b60405161025f9190613aea565b3480156102fb57600080fd5b50600a5461030f906001600160a01b031681565b6040516001600160a01b03909116815260200161025f565b34801561033357600080fd5b5061033c610c2a565b60405161025f9190613b23565b34801561035557600080fd5b5061035e610e1b565b005b34801561036c57600080fd5b5061027d611562565b34801561038157600080fd5b5061035e610390366004613c30565b61156f565b3480156103a157600080fd5b5061035e6103b0366004613cf6565b611b08565b3480156103c157600080fd5b5061035e6103d03660046138e9565b611d99565b3480156103e157600080fd5b506103f56103f03660046138e9565b611db0565b60405161025f989796959493929190613d3a565b34801561041557600080fd5b5060085461030f906001600160a01b031681565b34801561043557600080fd5b5061035e610444366004613d92565b611e8e565b34801561045557600080fd5b50600c5461030f906001600160a01b031681565b34801561047557600080fd5b5060005461030f906001600160a01b031681565b34801561049557600080fd5b50610255611f04565b3480156104aa57600080fd5b5061027d6104b9366004613c30565b611fc1565b3480156104ca57600080fd5b506104de6104d9366004613c30565b611fec565b60405161025f959493929190613e98565b3480156104fb57600080fd5b506105046120ba565b60405161025f9190613ece565b34801561051d57600080fd5b506103f561052c366004613c30565b612263565b34801561053d57600080fd5b5061035e61054c366004613f23565b6122a2565b34801561055d57600080fd5b5061027d612478565b61035e61250c565b34801561057a57600080fd5b506105836125d3565b60405161025f9190614039565b34801561059c57600080fd5b5061035e6105ab3660046138e9565b6126ac565b3480156105bc57600080fd5b506105c56126bf565b60405161025f92919061404c565b3480156105df57600080fd5b506104de612917565b3480156105f457600080fd5b50610255612939565b34801561060957600080fd5b5061035e610618366004614071565b6129f6565b34801561062957600080fd5b5061027d612afe565b34801561063e57600080fd5b5061035e61064d3660046140be565b612b0b565b61035e612bcc565b34801561066657600080fd5b5061035e610675366004614118565b612d79565b34801561068657600080fd5b5061035e6106953660046138e9565b6132c7565b3480156106a657600080fd5b5061035e6106b53660046139ac565b600080546001600160a01b0319166001600160a01b0392909216919091179055565b3480156106e357600080fd5b506103f56106f23660046141e2565b6132da565b34801561070357600080fd5b5061027d613333565b600080600e8360405161071f9190614204565b908152604051908190036020018120546370a0823160e01b82523060048301526001600160a01b0316915081906370a0823190602401602060405180830381865afa158015610772573d6000803e3d6000fd5b505050506040513d601f19601f820116820180604052508101906107969190614220565b9392505050565b600180546107aa90614239565b80601f01602080910402602001604051908101604052809291908181526020018280546107d690614239565b80156108235780601f106107f857610100808354040283529160200191610823565b820191906000526020600020905b81548152906001019060200180831161080657829003601f168201915b505050505081565b60008054604051631ebb307360e11b81526001600160a01b038481166004830152606093921690633d7660e690602401600060405180830381865afa158015610878573d6000803e3d6000fd5b505050506040513d6000823e601f3d908101601f191682016040526108a0919081019061426d565b905060005b81518110156109ad5760008282815181106108c2576108c2614406565b602002602001015160600151602001516012600101546108e29190614432565b90506108f2565b60405180910390fd5b600083838151811061090657610906614406565b602002602001015160600151600001516018548360126000015461092a9190614432565b6109349190614449565b61093e919061447e565b905060185484848151811061095557610955614406565b6020026020010151600001518261096c9190614449565b610976919061447e565b84848151811061098857610988614406565b60200260200101516020018181525050505080806109a590614492565b9150506108a5565b5092915050565b6109bc613496565b60026040518060400160405290816000820180546109d990614239565b80601f0160208091040260200160405190810160405280929190818152602001828054610a0590614239565b8015610a525780601f10610a2757610100808354040283529160200191610a52565b820191906000526020600020905b815481529060010190602001808311610a3557829003601f168201915b5050505050815260200160018201604051806060016040529081600082018054610a7b90614239565b80601f0160208091040260200160405190810160405280929190818152602001828054610aa790614239565b8015610af45780601f10610ac957610100808354040283529160200191610af4565b820191906000526020600020905b815481529060010190602001808311610ad757829003601f168201915b50505050508152602001600182018054610b0d90614239565b80601f0160208091040260200160405190810160405280929190818152602001828054610b3990614239565b8015610b865780601f10610b5b57610100808354040283529160200191610b86565b820191906000526020600020905b815481529060010190602001808311610b6957829003601f168201915b50505050508152602001600282018054610b9f90614239565b80601f0160208091040260200160405190810160405280929190818152602001828054610bcb90614239565b8015610c185780601f10610bed57610100808354040283529160200191610c18565b820191906000526020600020905b815481529060010190602001808311610bfb57829003601f168201915b50505050508152505081525050905090565b6010546060906000906001600160401b03811115610c4a57610c4a613798565b604051908082528060200260200182016040528015610c7d57816020015b6060815260200190600190039081610c685790505b50905060005b601054811015610e155760108181548110610ca057610ca0614406565b90600052602060002001805480602002602001604051908101604052809291908181526020016000905b82821015610de15760008481526020908190206040805161010081019091526008850290910180546001600160a01b031682526001810180549293919291840191610d1490614239565b80601f0160208091040260200160405190810160405280929190818152602001828054610d4090614239565b8015610d8d5780601f10610d6257610100808354040283529160200191610d8d565b820191906000526020600020905b815481529060010190602001808311610d7057829003601f168201915b50505050508152602001600282015481526020016003820154815260200160048201548152602001600582015481526020016006820154815260200160078201548152505081526020019060010190610cca565b50505050828281518110610df757610df7614406565b60200260200101819052508080610e0d90614492565b915050610c83565b50919050565b60006012819055436015555b60115481101561116d57600060118281548110610e4657610e46614406565b9060005260206000200190506000610ee6828054610e6390614239565b80601f0160208091040260200160405190810160405280929190818152602001828054610e8f90614239565b8015610edc5780601f10610eb157610100808354040283529160200191610edc565b820191906000526020600020905b815481529060010190602001808311610ebf57829003601f168201915b505050505061070c565b6040805160028082526060820183529293506000929091602083019080368337019050509050600e83604051610f1c919061451a565b9081526040519081900360200190205481516001600160a01b03909116908290600090610f4b57610f4b614406565b6001600160a01b0390921660209283029190910190910152604051600e90610f759060169061451a565b9081526040519081900360200190205481516001600160a01b039091169082906001908110610fa657610fa6614406565b60200260200101906001600160a01b031690816001600160a01b03168152505081600e84604051610fd7919061451a565b908152604051908190036020019020600301558115611157578060018151811061100357611003614406565b60200260200101516001600160a01b03168160008151811061102757611027614406565b60200260200101516001600160a01b0316146110f657600b5460405163d06ca61f60e01b81526001600160a01b039091169063d06ca61f9061106f908590859060040161456a565b600060405180830381865afa15801561108c573d6000803e3d6000fd5b505050506040513d6000823e601f3d908101601f191682016040526110b491908101906145de565b6001815181106110c6576110c6614406565b6020026020010151600e846040516110de919061451a565b9081526040519081900360200190206002015561111b565b81600e84604051611107919061451a565b908152604051908190036020019020600201555b600e8360405161112b919061451a565b908152602001604051809103902060020154601260000160008282546111519190614612565b90915550505b505050808061116590614492565b915050610e27565b5060005b6011548110156113ee57601254611189906001614612565b601854600e601184815481106111a1576111a1614406565b906000526020600020016040516111b8919061451a565b9081526020016040518091039020600201546111d49190614449565b6111de919061447e565b600e601183815481106111f3576111f3614406565b9060005260206000200160405161120a919061451a565b90815260405190819003602001902060040155600f54811061130057600f600e6011838154811061123d5761123d614406565b90600052602060002001604051611254919061451a565b908152604051908190036020908101909120825460018181018555600094855292909320815460089094020180546001600160a01b0319166001600160a01b0390941693909317835581810180549193928301916112b190614239565b6112bc9291906134d1565b5060028201548160020155600382015481600301556004820154816004015560058201548160050155600682015481600601556007820154816007015550506113dc565b600e6011828154811061131557611315614406565b9060005260206000200160405161132c919061451a565b9081526020016040518091039020600f828154811061134d5761134d614406565b60009182526020909120825460089092020180546001600160a01b0319166001600160a01b03909216919091178155600180830180549183019161139090614239565b61139b9291906134d1565b506002820154816002015560038201548160030155600482015481600401556005820154816005015560068201548160060155600782015481600701559050505b806113e681614492565b915050611171565b5060108054600181018255600091909152600f8054611430927f1b6847dc741a1b0cd08d278845f9d819d87b734759afb55fe2de5cb82a9ae67201919061355c565b50601780546001810182556000919091526012805460059092027fc624b66cc0138b8fabc209247f72d758e1cf3343756d543badbf24212bed8c1581019283556013547fc624b66cc0138b8fabc209247f72d758e1cf3343756d543badbf24212bed8c168201556014547fc624b66cc0138b8fabc209247f72d758e1cf3343756d543badbf24212bed8c178201556015547fc624b66cc0138b8fabc209247f72d758e1cf3343756d543badbf24212bed8c18820155601680549293927fc624b66cc0138b8fabc209247f72d758e1cf3343756d543badbf24212bed8c199092019161151a90614239565b6115259291906134d1565b5050507f29eb3e5b78a72b1e23647a2447ea2184d402e3ef9ddeee0ed6d0610d2a585372601260405161155891906146a1565b60405180910390a1565b600680546107aa90614239565b60185481111561157e57506018545b611586610e1b565b60008054604051631661a53160e11b81523360048201526001600160a01b0390911690632cc34a6290602401600060405180830381865afa1580156115cf573d6000803e3d6000fd5b505050506040513d6000823e601f3d908101601f191682016040526115f791908101906146e2565b905060006116043361082b565b905060005b8151811015611b02576018548483838151811061162857611628614406565b60200260200101516020015161163e9190614449565b611648919061447e565b82828151811061165a5761165a614406565b60200260200101516020018181525050600060126000015460185484848151811061168757611687614406565b60200260200101516020015161169d9190614449565b6116a7919061447e565b905060005b60115481101561195e576000600e601183815481106116cd576116cd614406565b906000526020600020016040516116e4919061451a565b90815260200160405180910390206003015490507f6bcbf9e304d3c345bbd2288549950e709e5df8a1cf3b331680de7ae080db3d2a336011848154811061172d5761172d614406565b9060005260206000200185846040516117499493929190614764565b60405180910390a1801561194b576000600e6011848154811061176e5761176e614406565b90600052602060002001604051611785919061451a565b9081526020016040518091039020600201549050600060185485846117aa9190614449565b6117b4919061447e565b9050600060185486846117c79190614449565b6117d1919061447e565b9050600e601186815481106117e8576117e8614406565b906000526020600020016040516117ff919061451a565b9081526040519081900360200181205463a9059cbb60e01b8252336004830152602482018490526001600160a01b03169063a9059cbb906044016020604051808303816000875af1158015611858573d6000803e3d6000fd5b505050506040513d601f19601f8201168201806040525081019061187c919061479b565b5060185488888151811061189257611892614406565b6020026020010151600001518b6018546118ac9190614432565b6118b69190614449565b6118c0919061447e565b8888815181106118d2576118d2614406565b602002602001015160000181815250506018548888815181106118f7576118f7614406565b6020026020010151602001518b6018546119119190614432565b61191b9190614449565b611925919061447e565b88888151811061193757611937614406565b602002602001015160200181815250505050505b508061195681614492565b9150506116ac565b5082828151811061197157611971614406565b602002602001015160000151600003611a0b57600054845180516001600160a01b03909216916342966c689190859081106119ae576119ae614406565b60200260200101516040518263ffffffff1660e01b81526004016119d491815260200190565b600060405180830381600087803b1580156119ee57600080fd5b505af1158015611a02573d6000803e3d6000fd5b50505050611aef565b6000838381518110611a1f57611a1f614406565b6020026020010151600001511115611aef5743838381518110611a4457611a44614406565b602090810291909101015160400152600054845180516001600160a01b03909216916346e5573e919085908110611a7d57611a7d614406565b6020026020010151858581518110611a9757611a97614406565b60200260200101516040518363ffffffff1660e01b8152600401611abc9291906147b8565b600060405180830381600087803b158015611ad657600080fd5b505af1158015611aea573d6000803e3d6000fd5b505050505b5080611afa81614492565b915050611609565b50505050565b600082516001600160401b03811115611b2357611b23613798565b604051908082528060200260200182016040528015611b4c578160200160208202803683370190505b50905060005b8151811015611c9657600e848281518110611b6f57611b6f614406565b6020026020010151604051611b849190614204565b9081526040519081900360200190205482516001600160a01b0390911690839083908110611bb457611bb4614406565b60200260200101906001600160a01b031690816001600160a01b03168152505060006001600160a01b0316828281518110611bf157611bf1614406565b60200260200101516001600160a01b031603611c845760405162461bcd60e51b815260206004820152604660248201527f796f75207061737365642061206e756c6c20746f6b656e53796d626f6c20746860448201527f617420646f65736e74206d617020746f20746865206c697374206f662061646460648201526572657373657360d01b608482015260a4016108e9565b80611c8e81614492565b915050611b52565b507f75a464f58860044bcb7b0ddbde1c4c37c4d04db7626764710e98132327a830ef8383604051611cc89291906147d1565b60405180910390a1611d0381600081518110611ce657611ce6614406565b6020908102919091010151600b546001600160a01b031684613344565b6000611d1142612710614612565b600b546040516338ed173960e01b81529192506001600160a01b0316906338ed173990611d4b9086906000908790309088906004016147f3565b6000604051808303816000875af1158015611d6a573d6000803e3d6000fd5b505050506040513d6000823e601f3d908101601f19168201604052611d9291908101906145de565b5050505050565b8051611dac906004906020840190613628565b5050565b8051602081830181018051600e82529282019190930120915280546001820180546001600160a01b039092169291611de790614239565b80601f0160208091040260200160405190810160405280929190818152602001828054611e1390614239565b8015611e605780601f10611e3557610100808354040283529160200191611e60565b820191906000526020600020905b815481529060010190602001808311611e4357829003601f168201915b5050505050908060020154908060030154908060040154908060050154908060060154908060070154905088565b805180518291600291611ea8918391602090910190613628565b506020828101518051805191926001850192611ec79284920190613628565b506020828101518051611ee09260018501920190613628565b5060408201518051611efc916002840191602090910190613628565b505050505050565b60008054604051631ebb307360e11b815233600482015282916001600160a01b031690633d7660e690602401600060405180830381865afa158015611f4d573d6000803e3d6000fd5b505050506040513d6000823e601f3d908101601f19168201604052611f75919081019061426d565b90506000805b82518110156109ad57828181518110611f9657611f96614406565b60200260200101516000015182611fad9190614612565b915080611fb981614492565b915050611f7b565b60118181548110611fd157600080fd5b9060005260206000200160009150905080546107aa90614239565b60178181548110611ffc57600080fd5b906000526020600020906005020160009150905080600001549080600101549080600201549080600301549080600401805461203790614239565b80601f016020809104026020016040519081016040528092919081815260200182805461206390614239565b80156120b05780601f10612085576101008083540402835291602001916120b0565b820191906000526020600020905b81548152906001019060200180831161209357829003601f168201915b5050505050905085565b6017546060906000906001600160401b038111156120da576120da613798565b60405190808252806020026020018201604052801561213d57816020015b61212a6040518060a0016040528060008152602001600081526020016000815260200160008152602001606081525090565b8152602001906001900390816120f85790505b50905060005b601754811015610e15576017818154811061216057612160614406565b90600052602060002090600502016040518060a0016040529081600082015481526020016001820154815260200160028201548152602001600382015481526020016004820180546121b190614239565b80601f01602080910402602001604051908101604052809291908181526020018280546121dd90614239565b801561222a5780601f106121ff5761010080835404028352916020019161222a565b820191906000526020600020905b81548152906001019060200180831161220d57829003601f168201915b50505050508152505082828151811061224557612245614406565b6020026020010181905250808061225b90614492565b915050612143565b600f818154811061227357600080fd5b6000918252602090912060089091020180546001820180546001600160a01b03909216935090611de790614239565b60005b82518110156124735760006001600160a01b0316600e8483815181106122cd576122cd614406565b60200260200101516040516122e29190614204565b908152604051908190036020019020546001600160a01b0316036124615781818151811061231257612312614406565b6020026020010151600e84838151811061232e5761232e614406565b60200260200101516040516123439190614204565b90815260405190819003602001902080546001600160a01b03929092166001600160a01b0319909216919091179055825183908290811061238657612386614406565b6020026020010151600e8483815181106123a2576123a2614406565b60200260200101516040516123b79190614204565b908152602001604051809103902060010190805190602001906123db929190613628565b5060118382815181106123f0576123f0614406565b602090810291909101810151825460018101845560009384529282902081516124229491909101929190910190613628565b5080600e84838151811061243857612438614406565b602002602001015160405161244d9190614204565b908152604051908190036020019020600701555b8061246b81614492565b9150506122a5565b505050565b600480546060919061248990614239565b80601f01602080910402602001604051908101604052809291908181526020018280546124b590614239565b80156125025780601f106124d757610100808354040283529160200191612502565b820191906000526020600020905b8154815290600101906020018083116124e557829003601f168201915b5050505050905090565b478061255a5760405162461bcd60e51b815260206004820152601860248201527f4e6f2045544820617661696c61626c6520746f2077726170000000000000000060448201526064016108e9565b604051630ae8aa8960e31b8152600e906004019081526040805191829003602001822054630d0e30db60e41b835290516001600160a01b039091169163d0e30db091849160048082019260009290919082900301818588803b1580156125bf57600080fd5b505af1158015611efc573d6000803e3d6000fd5b60606011805480602002602001604051908101604052809291908181526020016000905b828210156126a357838290600052602060002001805461261690614239565b80601f016020809104026020016040519081016040528092919081815260200182805461264290614239565b801561268f5780601f106126645761010080835404028352916020019161268f565b820191906000526020600020905b81548152906001019060200180831161267257829003601f168201915b5050505050815260200190600101906125f7565b50505050905090565b8051611dac906003906020840190613628565b6002805481906126ce90614239565b80601f01602080910402602001604051908101604052809291908181526020018280546126fa90614239565b80156127475780601f1061271c57610100808354040283529160200191612747565b820191906000526020600020905b81548152906001019060200180831161272a57829003601f168201915b5050505050908060010160405180606001604052908160008201805461276c90614239565b80601f016020809104026020016040519081016040528092919081815260200182805461279890614239565b80156127e55780601f106127ba576101008083540402835291602001916127e5565b820191906000526020600020905b8154815290600101906020018083116127c857829003601f168201915b505050505081526020016001820180546127fe90614239565b80601f016020809104026020016040519081016040528092919081815260200182805461282a90614239565b80156128775780601f1061284c57610100808354040283529160200191612877565b820191906000526020600020905b81548152906001019060200180831161285a57829003601f168201915b5050505050815260200160028201805461289090614239565b80601f01602080910402602001604051908101604052809291908181526020018280546128bc90614239565b80156129095780601f106128de57610100808354040283529160200191612909565b820191906000526020600020905b8154815290600101906020018083116128ec57829003601f168201915b505050505081525050905082565b6012805460135460145460155460168054949593949293919261203790614239565b60008054604051631ebb307360e11b815233600482015282916001600160a01b031690633d7660e690602401600060405180830381865afa158015612982573d6000803e3d6000fd5b505050506040513d6000823e601f3d908101601f191682016040526129aa919081019061426d565b90506000805b82518110156109ad578281815181106129cb576129cb614406565b602002602001015160200151826129e29190614612565b9150806129ee81614492565b9150506129b0565b60005b8151811015611dac576000600e838381518110612a1857612a18614406565b6020026020010151604051612a2d9190614204565b908152602001604051809103902060070154905060118181548110612a5457612a54614406565b906000526020600020016000612a6a919061369c565b600e838381518110612a7e57612a7e614406565b6020026020010151604051612a939190614204565b90815260405190819003602001902080546001600160a01b03191681556000612abf600183018261369c565b50600060028201819055600382018190556004820181905560058201819055600682018190556007909101555080612af681614492565b9150506129f9565b600780546107aa90614239565b7f75a464f58860044bcb7b0ddbde1c4c37c4d04db7626764710e98132327a830ef8383604051612b3c9291906147d1565b60405180910390a1801561247357600060185483612b7386600081518110612b6657612b66614406565b602002602001015161070c565b612b7d9190614449565b612b87919061447e565b90507f75a464f58860044bcb7b0ddbde1c4c37c4d04db7626764710e98132327a830ef8482604051612bba9291906147d1565b60405180910390a1611b028482611b08565b60003411612c115760405162461bcd60e51b81526020600482015260126024820152716d73672e76616c756520697320302066616d60701b60448201526064016108e9565b612c1961250c565b612c21610e1b565b601354612c2f903490614612565b601355612c3a6136d9565b3480825260208083019190915243604080840191909152805160a0810182526012805482526013549382019390935260145491810191909152601554606082015260168054919291608084019190612c9190614239565b80601f0160208091040260200160405190810160405280929190818152602001828054612cbd90614239565b8015612d0a5780601f10612cdf57610100808354040283529160200191612d0a565b820191906000526020600020905b815481529060010190602001808311612ced57829003601f168201915b50505091909252505050606082015260005460405163b1d1d00b60e01b81526001600160a01b039091169063b1d1d00b90612d4b903390859060040161482f565b600060405180830381600087803b158015612d6557600080fd5b505af1158015611d92573d6000803e3d6000fd5b612d81610e1b565b60408051600280825260608201909252600091816020015b6060815260200190600190039081612d99579050509050606060008060005b87518110156131b457878181518110612dd357612dd3614406565b60200260200101519350612e7d60126004018054612df090614239565b80601f0160208091040260200160405190810160405280929190818152602001828054612e1c90614239565b8015612e695780601f10612e3e57610100808354040283529160200191612e69565b820191906000526020600020905b815481529060010190602001808311612e4c57829003601f168201915b50505050508561343d90919063ffffffff16565b6131a25760006001600160a01b0316600e85604051612e9c9190614204565b908152604051908190036020019020546001600160a01b031603612f1d5760405162461bcd60e51b815260206004820152603260248201527f5468652053796d626f6c2070726f7669646564206973206e6f7420696e2074686044820152716520506f7274666f6c696f20546f6b656e7360701b60648201526084016108e9565b600e84604051612f2d9190614204565b908152602001604051809103902060040154878281518110612f5157612f51614406565b6020026020010151612f639190614853565b92506000600e85604051612f779190614204565b90815260200160405180910390206003015490506000841215613109578486600081518110612fa857612fa8614406565b602002602001018190525060068054612fc090614239565b80601f0160208091040260200160405190810160405280929190818152602001828054612fec90614239565b80156130395780601f1061300e57610100808354040283529160200191613039565b820191906000526020600020905b81548152906001019060200180831161301c57829003601f168201915b50505050508660018151811061305157613051614406565b6020026020010181905250600e8560405161306c9190614204565b9081526020016040518091039020600401546018548561308c9190614892565b6130969190614917565b6018549093506130a68285614892565b6130b09190614917565b600e866040516130c09190614204565b90815260200160405180910390206005018190555061310486600e876040516130e99190614204565b9081526020016040518091039020600501546103b090614945565b613147565b6018546012546131199086614892565b6131239190614917565b600e866040516131339190614204565b908152604051908190036020019020600501555b7f9b0c6cc9262d1c15ce375ddefd7d9b7d501bcf383890fe59fdb2d99370818bfa85600e876040516131799190614204565b9081526040519081900360200181206005015461319892918590614961565b60405180910390a1505b806131ac81614492565b915050612db8565b5060005b87518110156132b5578781815181106131d3576131d3614406565b602002602001015193506131f060126004018054612df090614239565b6132a3576000600e856040516132069190614204565b90815260200160405180910390206005015413156132a357604051806040016040528060048152602001630ae8aa8960e31b8152508560008151811061324e5761324e614406565b6020026020010181905250838560018151811061326d5761326d614406565b60200260200101819052506132a385600e8660405161328c9190614204565b908152602001604051809103902060050154611b08565b806132ad81614492565b9150506131b8565b506132be610e1b565b50505050505050565b8051611dac906016906020840190613628565b601082815481106132ea57600080fd5b90600052602060002001818154811061330257600080fd5b6000918252602090912060089091020180546001820180546001600160a01b039092169450919250611de790614239565b600380546060919061248990614239565b604080516001600160a01b038481166024830152604480830185905283518084039091018152606490920183526020820180516001600160e01b031663095ea7b360e01b17905291516000928392908716916133a09190614204565b6000604051808303816000865af19150503d80600081146133dd576040519150601f19603f3d011682016040523d82523d6000602084013e6133e2565b606091505b509150915081801561340c57508051158061340c57508080602001905181019061340c919061479b565b611d925760405162461bcd60e51b8152602060048201526002602482015261534160f01b60448201526064016108e9565b6000816040516020016134509190614204565b60405160208183030381529060405280519060200120836040516020016134779190614204565b6040516020818303038152906040528051906020012014905092915050565b6040518060400160405280606081526020016134cc60405180606001604052806060815260200160608152602001606081525090565b905290565b8280546134dd90614239565b90600052602060002090601f0160209004810192826134ff576000855561354c565b82601f10613510578054855561354c565b8280016001018555821561354c57600052602060002091601f016020900482015b8281111561354c578254825591600101919060010190613531565b5061355892915061372b565b5090565b82805482825590600052602060002090600802810192821561361c5760005260206000209160080282015b8281111561361c57825482546001600160a01b0319166001600160a01b039091161782556001808401805485928592908301916135c390614239565b6135ce9291906134d1565b50600282015481600201556003820154816003015560048201548160040155600582015481600501556006820154816006015560078201548160070155505091600801919060080190613587565b50613558929150613740565b82805461363490614239565b90600052602060002090601f016020900481019282613656576000855561354c565b82601f1061366f57805160ff191683800117855561354c565b8280016001018555821561354c579182015b8281111561354c578251825591602001919060010190613681565b5080546136a890614239565b6000825580601f106136b8575050565b601f0160209004906000526020600020908101906136d6919061372b565b50565b60405180608001604052806000815260200160008152602001600081526020016134cc6040518060a0016040528060008152602001600081526020016000815260200160008152602001606081525090565b5b80821115613558576000815560010161372c565b808211156135585780546001600160a01b03191681556000613765600183018261369c565b50600060028201819055600382018190556004820181905560058201819055600682018190556007820155600801613740565b634e487b7160e01b600052604160045260246000fd5b604080519081016001600160401b03811182821017156137d0576137d0613798565b60405290565b604051606081016001600160401b03811182821017156137d0576137d0613798565b604051608081016001600160401b03811182821017156137d0576137d0613798565b60405160a081016001600160401b03811182821017156137d0576137d0613798565b604051601f8201601f191681016001600160401b038111828210171561386457613864613798565b604052919050565b60006001600160401b0382111561388557613885613798565b50601f01601f191660200190565b600082601f8301126138a457600080fd5b81356138b76138b28261386c565b61383c565b8181528460208386010111156138cc57600080fd5b816020850160208301376000918101602001919091529392505050565b6000602082840312156138fb57600080fd5b81356001600160401b0381111561391157600080fd5b61391d84828501613893565b949350505050565b60005b83811015613940578181015183820152602001613928565b83811115611b025750506000910152565b60008151808452613969816020860160208601613925565b601f01601f19169290920160200192915050565b6020815260006107966020830184613951565b80356001600160a01b03811681146139a757600080fd5b919050565b6000602082840312156139be57600080fd5b61079682613990565b805182526020810151602083015260408101516040830152606081015160608301526000608082015160a0608085015261391d60a0850182613951565b805182526020810151602083015260408101516040830152600060608201516080606085015261391d60808501826139c7565b6000602080830181845280855180835260408601915060408160051b870101925083870160005b82811015613a8c57603f19888603018452613a7a858351613a04565b94509285019290850190600101613a5e565b5092979650505050505050565b6000815160608452613aae6060850182613951565b905060208301518482036020860152613ac78282613951565b91505060408301518482036040860152613ae18282613951565b95945050505050565b602081526000825160406020840152613b066060840182613951565b90506020840151601f19848303016040850152613ae18282613a99565b60006020808301818452808551808352604092508286019150828160051b87010184880160005b83811015613c2257888303603f19018552815180518085529088019088850190600581901b86018a0160005b82811015613c0c57878203601f19018452845180516001600160a01b031683528c8101516101008e850181905290613bb082860182613951565b9150508c8201518d8501526060808301518186015250608080830151818601525060a080830151818601525060c080830151818601525060e080830151818601525080935050508b850194508b84019350600181019050613b76565b50978a0197955050509187019150600101613b4a565b509098975050505050505050565b600060208284031215613c4257600080fd5b5035919050565b60006001600160401b03821115613c6257613c62613798565b5060051b60200190565b600082601f830112613c7d57600080fd5b81356020613c8d6138b283613c49565b82815260059290921b84018101918181019086841115613cac57600080fd5b8286015b84811015613ceb5780356001600160401b03811115613ccf5760008081fd5b613cdd8986838b0101613893565b845250918301918301613cb0565b509695505050505050565b60008060408385031215613d0957600080fd5b82356001600160401b03811115613d1f57600080fd5b613d2b85828601613c6c565b95602094909401359450505050565b6001600160a01b038916815261010060208201819052600090613d5f8382018b613951565b604084019990995250506060810195909552608085019390935260a084019190915260c083015260e09091015292915050565b600060208284031215613da457600080fd5b81356001600160401b0380821115613dbb57600080fd5b9083019060408286031215613dcf57600080fd5b613dd76137ae565b823582811115613de657600080fd5b613df287828601613893565b825250602083013582811115613e0757600080fd5b929092019160608387031215613e1c57600080fd5b613e246137d6565b833583811115613e3357600080fd5b613e3f88828701613893565b825250602084013583811115613e5457600080fd5b613e6088828701613893565b602083015250604084013583811115613e7857600080fd5b613e8488828701613893565b604083015250602082015295945050505050565b85815284602082015283604082015282606082015260a060808201526000613ec360a0830184613951565b979650505050505050565b6000602080830181845280855180835260408601915060408160051b870101925083870160005b82811015613a8c57603f19888603018452613f118583516139c7565b94509285019290850190600101613ef5565b60008060408385031215613f3657600080fd5b82356001600160401b0380821115613f4d57600080fd5b613f5986838701613c6c565b9350602091508185013581811115613f7057600080fd5b85019050601f81018613613f8357600080fd5b8035613f916138b282613c49565b81815260059190911b82018301908381019088831115613fb057600080fd5b928401925b82841015613fd557613fc684613990565b82529284019290840190613fb5565b80955050505050509250929050565b600081518084526020808501808196508360051b8101915082860160005b8581101561402c57828403895261401a848351613951565b98850198935090840190600101614002565b5091979650505050505050565b6020815260006107966020830184613fe4565b60408152600061405f6040830185613951565b8281036020840152613ae18185613a99565b60006020828403121561408357600080fd5b81356001600160401b0381111561409957600080fd5b61391d84828501613c6c565b80151581146136d657600080fd5b80356139a7816140a5565b6000806000606084860312156140d357600080fd5b83356001600160401b038111156140e957600080fd5b6140f586828701613c6c565b93505060208401359150604084013561410d816140a5565b809150509250925092565b60008060006060848603121561412d57600080fd5b83356001600160401b038082111561414457600080fd5b61415087838801613c6c565b945060209150818601358181111561416757600080fd5b86019050601f8101871361417a57600080fd5b80356141886138b282613c49565b81815260059190911b820183019083810190898311156141a757600080fd5b928401925b828410156141c5578335825292840192908401906141ac565b80965050505050506141d9604085016140b3565b90509250925092565b600080604083850312156141f557600080fd5b50508035926020909101359150565b60008251614216818460208701613925565b9190910192915050565b60006020828403121561423257600080fd5b5051919050565b600181811c9082168061424d57607f821691505b602082108103610e1557634e487b7160e01b600052602260045260246000fd5b6000602080838503121561428057600080fd5b82516001600160401b038082111561429757600080fd5b818501915085601f8301126142ab57600080fd5b81516142b96138b282613c49565b81815260059190911b830184019084810190888311156142d857600080fd5b8585015b838110156143f9578051858111156142f357600080fd5b8601601f196080828d038201121561430a57600080fd5b6143126137f8565b89830151815260408301518a8201526060830151604082015260808301518881111561433d57600080fd5b929092019160a0838e038301121561435457600080fd5b61435c61381a565b915089830151825260408301518a830152606083015160408301526080830151606083015260a08301518881111561439357600080fd5b8084019350508c603f8401126143a857600080fd5b898301516143b86138b28261386c565b8181528e60408387010111156143cd57600080fd5b6143dd828d830160408801613925565b60808401525060608101919091528452509186019186016142dc565b5098975050505050505050565b634e487b7160e01b600052603260045260246000fd5b634e487b7160e01b600052601160045260246000fd5b6000828210156144445761444461441c565b500390565b60008160001904831182151516156144635761446361441c565b500290565b634e487b7160e01b600052601260045260246000fd5b60008261448d5761448d614468565b500490565b6000600182016144a4576144a461441c565b5060010190565b600081546144b881614239565b600182811680156144d057600181146144e157614510565b60ff19841687528287019450614510565b8560005260208060002060005b858110156145075781548a8201529084019082016144ee565b50505082870194505b5050505092915050565b600061079682846144ab565b600081518084526020808501945080840160005b8381101561455f5781516001600160a01b03168752958201959082019060010161453a565b509495945050505050565b82815260406020820152600061391d6040830184614526565b600082601f83011261459457600080fd5b815160206145a46138b283613c49565b82815260059290921b840181019181810190868411156145c357600080fd5b8286015b84811015613ceb57805183529183019183016145c7565b6000602082840312156145f057600080fd5b81516001600160401b0381111561460657600080fd5b61391d84828501614583565b600082198211156146255761462561441c565b500190565b6000815461463781614239565b808552602060018381168015614654576001811461466857614696565b60ff19851688840152604088019550614696565b866000528260002060005b8581101561468e5781548a8201860152908301908401614673565b890184019650505b505050505092915050565b602081528154602082015260018201546040820152600282015460608201526003820154608082015260a080820152600061079660c083016004850161462a565b6000602082840312156146f457600080fd5b81516001600160401b038082111561470b57600080fd5b908301906020828603121561471f57600080fd5b60405160208101818110838211171561473a5761473a613798565b60405282518281111561474c57600080fd5b61475887828601614583565b82525095945050505050565b6001600160a01b03851681526080602082018190526000906147889083018661462a565b6040830194909452506060015292915050565b6000602082840312156147ad57600080fd5b8151610796816140a5565b82815260406020820152600061391d6040830184613a04565b6040815260006147e46040830185613fe4565b90508260208301529392505050565b85815284602082015260a06040820152600061481260a0830186614526565b6001600160a01b0394909416606083015250608001529392505050565b6001600160a01b038316815260406020820181905260009061391d90830184613a04565b60008083128015600160ff1b8501841216156148715761487161441c565b6001600160ff1b038401831381161561488c5761488c61441c565b50500390565b60006001600160ff1b03818413828413808216868404861116156148b8576148b861441c565b600160ff1b60008712828116878305891216156148d7576148d761441c565b600087129250878205871284841616156148f3576148f361441c565b878505871281841616156149095761490961441c565b505050929093029392505050565b60008261492657614926614468565b600160ff1b8214600019841416156149405761494061441c565b500590565b6000600160ff1b820161495a5761495a61441c565b5060000390565b6060815260006149746060830186613951565b6020830194909452506040015291905056fea2646970667358221220302f56b0a1678877ffed56eddfb89d84153ba2054c9eff1b9bcf55a82b2c43f864736f6c634300080d0033",
  "bytecodeSha1": "276eb4def6451b640c1cf7e0eb50fcb348e4af7f",
  "compiler": {
    "evm_version": "istanbul",
    "optimizer": {
      "enabled": true,
      "runs": 200
    },
    "version": "0.8.13+commit.abaa5c0e"
  },
  "contractName": "ModelPortfolio",
  "language": "Solidity",
  "natspec": {
    "kind": "dev",
    "methods": {},
    "version": 1
  },
  "opcodes": "PUSH1 0x80 PUSH1 0x40 MSTORE PUSH1 0x4 CALLDATASIZE LT PUSH2 0x230 JUMPI PUSH1 0x0 CALLDATALOAD PUSH1 0xE0 SHR DUP1 PUSH4 0x90544984 GT PUSH2 0x12E JUMPI DUP1 PUSH4 0xC2133213 GT PUSH2 0xAB JUMPI DUP1 PUSH4 0xD8DD5EAE GT PUSH2 0x6F JUMPI DUP1 PUSH4 0xD8DD5EAE EQ PUSH2 0x65A JUMPI DUP1 PUSH4 0xDD487EBA EQ PUSH2 0x67A JUMPI DUP1 PUSH4 0xE017B589 EQ PUSH2 0x69A JUMPI DUP1 PUSH4 0xE210F330 EQ PUSH2 0x6D7 JUMPI DUP1 PUSH4 0xFA8D3A22 EQ PUSH2 0x6F7 JUMPI PUSH1 0x0 DUP1 REVERT JUMPDEST DUP1 PUSH4 0xC2133213 EQ PUSH2 0x5E8 JUMPI DUP1 PUSH4 0xC300DB47 EQ PUSH2 0x5FD JUMPI DUP1 PUSH4 0xC55DAE63 EQ PUSH2 0x61D JUMPI DUP1 PUSH4 0xCD84593B EQ PUSH2 0x632 JUMPI DUP1 PUSH4 0xD0E30DB0 EQ PUSH2 0x652 JUMPI PUSH1 0x0 DUP1 REVERT JUMPDEST DUP1 PUSH4 0xA85EF678 GT PUSH2 0xF2 JUMPI DUP1 PUSH4 0xA85EF678 EQ PUSH2 0x566 JUMPI DUP1 PUSH4 0xAA6CA808 EQ PUSH2 0x56E JUMPI DUP1 PUSH4 0xBBDF680D EQ PUSH2 0x590 JUMPI DUP1 PUSH4 0xBE5D69AE EQ PUSH2 0x5B0 JUMPI DUP1 PUSH4 0xC19D93FB EQ PUSH2 0x5D3 JUMPI PUSH1 0x0 DUP1 REVERT JUMPDEST DUP1 PUSH4 0x90544984 EQ PUSH2 0x4BE JUMPI DUP1 PUSH4 0x92A86E1A EQ PUSH2 0x4EF JUMPI DUP1 PUSH4 0x9342CB8F EQ PUSH2 0x511 JUMPI DUP1 PUSH4 0x9C1FAA35 EQ PUSH2 0x531 JUMPI DUP1 PUSH4 0xA0BFA1E0 EQ PUSH2 0x551 JUMPI PUSH1 0x0 DUP1 REVERT JUMPDEST DUP1 PUSH4 0x2E1A7D4D GT PUSH2 0x1BC JUMPI DUP1 PUSH4 0x5493458D GT PUSH2 0x180 JUMPI DUP1 PUSH4 0x5493458D EQ PUSH2 0x429 JUMPI DUP1 PUSH4 0x55A31DD8 EQ PUSH2 0x449 JUMPI DUP1 PUSH4 0x67E3C4D4 EQ PUSH2 0x469 JUMPI DUP1 PUSH4 0x68398209 EQ PUSH2 0x489 JUMPI DUP1 PUSH4 0x6E7DDEA8 EQ PUSH2 0x49E JUMPI PUSH1 0x0 DUP1 REVERT JUMPDEST DUP1 PUSH4 0x2E1A7D4D EQ PUSH2 0x375 JUMPI DUP1 PUSH4 0x31243BA8 EQ PUSH2 0x395 JUMPI DUP1 PUSH4 0x46D75C8C EQ PUSH2 0x3B5 JUMPI DUP1 PUSH4 0x4E2D251A EQ PUSH2 0x3D5 JUMPI DUP1 PUSH4 0x4F0E0EF3 EQ PUSH2 0x409 JUMPI PUSH1 0x0 DUP1 REVERT JUMPDEST DUP1 PUSH4 0x1865C57D GT PUSH2 0x203 JUMPI DUP1 PUSH4 0x1865C57D EQ PUSH2 0x2CD JUMPI DUP1 PUSH4 0x19D0A9A2 EQ PUSH2 0x2EF JUMPI DUP1 PUSH4 0x1A0387A5 EQ PUSH2 0x327 JUMPI DUP1 PUSH4 0x1D8557D7 EQ PUSH2 0x349 JUMPI DUP1 PUSH4 0x257AFF35 EQ PUSH2 0x360 JUMPI PUSH1 0x0 DUP1 REVERT JUMPDEST DUP1 PUSH4 0x25ABD58 EQ PUSH2 0x235 JUMPI DUP1 PUSH4 0x6FDDE03 EQ PUSH2 0x268 JUMPI DUP1 PUSH4 0xF137B5B EQ PUSH2 0x28A JUMPI DUP1 PUSH4 0x11973F13 EQ PUSH2 0x2A0 JUMPI JUMPDEST PUSH1 0x0 DUP1 REVERT JUMPDEST CALLVALUE DUP1 ISZERO PUSH2 0x241 JUMPI PUSH1 0x0 DUP1 REVERT JUMPDEST POP PUSH2 0x255 PUSH2 0x250 CALLDATASIZE PUSH1 0x4 PUSH2 0x38E9 JUMP JUMPDEST PUSH2 0x70C JUMP JUMPDEST PUSH1 0x40 MLOAD SWAP1 DUP2 MSTORE PUSH1 0x20 ADD JUMPDEST PUSH1 0x40 MLOAD DUP1 SWAP2 SUB SWAP1 RETURN JUMPDEST CALLVALUE DUP1 ISZERO PUSH2 0x274 JUMPI PUSH1 0x0 DUP1 REVERT JUMPDEST POP PUSH2 0x27D PUSH2 0x79D JUMP JUMPDEST PUSH1 0x40 MLOAD PUSH2 0x25F SWAP2 SWAP1 PUSH2 0x397D JUMP JUMPDEST CALLVALUE DUP1 ISZERO PUSH2 0x296 JUMPI PUSH1 0x0 DUP1 REVERT JUMPDEST POP PUSH2 0x255 PUSH1 0x18 SLOAD DUP2 JUMP JUMPDEST CALLVALUE DUP1 ISZERO PUSH2 0x2AC JUMPI PUSH1 0x0 DUP1 REVERT JUMPDEST POP PUSH2 0x2C0 PUSH2 0x2BB CALLDATASIZE PUSH1 0x4 PUSH2 0x39AC JUMP JUMPDEST PUSH2 0x82B JUMP JUMPDEST PUSH1 0x40 MLOAD PUSH2 0x25F SWAP2 SWAP1 PUSH2 0x3A37 JUMP JUMPDEST CALLVALUE DUP1 ISZERO PUSH2 0x2D9 JUMPI PUSH1 0x0 DUP1 REVERT JUMPDEST POP PUSH2 0x2E2 PUSH2 0x9B4 JUMP JUMPDEST PUSH1 0x40 MLOAD PUSH2 0x25F SWAP2 SWAP1 PUSH2 0x3AEA JUMP JUMPDEST CALLVALUE DUP1 ISZERO PUSH2 0x2FB JUMPI PUSH1 0x0 DUP1 REVERT JUMPDEST POP PUSH1 0xA SLOAD PUSH2 0x30F SWAP1 PUSH1 0x1 PUSH1 0x1 PUSH1 0xA0 SHL SUB AND DUP2 JUMP JUMPDEST PUSH1 0x40 MLOAD PUSH1 0x1 PUSH1 0x1 PUSH1 0xA0 SHL SUB SWAP1 SWAP2 AND DUP2 MSTORE PUSH1 0x20 ADD PUSH2 0x25F JUMP JUMPDEST CALLVALUE DUP1 ISZERO PUSH2 0x333 JUMPI PUSH1 0x0 DUP1 REVERT JUMPDEST POP PUSH2 0x33C PUSH2 0xC2A JUMP JUMPDEST PUSH1 0x40 MLOAD PUSH2 0x25F SWAP2 SWAP1 PUSH2 0x3B23 JUMP JUMPDEST CALLVALUE DUP1 ISZERO PUSH2 0x355 JUMPI PUSH1 0x0 DUP1 REVERT JUMPDEST POP PUSH2 0x35E PUSH2 0xE1B JUMP JUMPDEST STOP JUMPDEST CALLVALUE DUP1 ISZERO PUSH2 0x36C JUMPI PUSH1 0x0 DUP1 REVERT JUMPDEST POP PUSH2 0x27D PUSH2 0x1562 JUMP JUMPDEST CALLVALUE DUP1 ISZERO PUSH2 0x381 JUMPI PUSH1 0x0 DUP1 REVERT JUMPDEST POP PUSH2 0x35E PUSH2 0x390 CALLDATASIZE PUSH1 0x4 PUSH2 0x3C30 JUMP JUMPDEST PUSH2 0x156F JUMP JUMPDEST CALLVALUE DUP1 ISZERO PUSH2 0x3A1 JUMPI PUSH1 0x0 DUP1 REVERT JUMPDEST POP PUSH2 0x35E PUSH2 0x3B0 CALLDATASIZE PUSH1 0x4 PUSH2 0x3CF6 JUMP JUMPDEST PUSH2 0x1B08 JUMP JUMPDEST CALLVALUE DUP1 ISZERO PUSH2 0x3C1 JUMPI PUSH1 0x0 DUP1 REVERT JUMPDEST POP PUSH2 0x35E PUSH2 0x3D0 CALLDATASIZE PUSH1 0x4 PUSH2 0x38E9 JUMP JUMPDEST PUSH2 0x1D99 JUMP JUMPDEST CALLVALUE DUP1 ISZERO PUSH2 0x3E1 JUMPI PUSH1 0x0 DUP1 REVERT JUMPDEST POP PUSH2 0x3F5 PUSH2 0x3F0 CALLDATASIZE PUSH1 0x4 PUSH2 0x38E9 JUMP JUMPDEST PUSH2 0x1DB0 JUMP JUMPDEST PUSH1 0x40 MLOAD PUSH2 0x25F SWAP9 SWAP8 SWAP7 SWAP6 SWAP5 SWAP4 SWAP3 SWAP2 SWAP1 PUSH2 0x3D3A JUMP JUMPDEST CALLVALUE DUP1 ISZERO PUSH2 0x415 JUMPI PUSH1 0x0 DUP1 REVERT JUMPDEST POP PUSH1 0x8 SLOAD PUSH2 0x30F SWAP1 PUSH1 0x1 PUSH1 0x1 PUSH1 0xA0 SHL SUB AND DUP2 JUMP JUMPDEST CALLVALUE DUP1 ISZERO PUSH2 0x435 JUMPI PUSH1 0x0 DUP1 REVERT JUMPDEST POP PUSH2 0x35E PUSH2 0x444 CALLDATASIZE PUSH1 0x4 PUSH2 0x3D92 JUMP JUMPDEST PUSH2 0x1E8E JUMP JUMPDEST CALLVALUE DUP1 ISZERO PUSH2 0x455 JUMPI PUSH1 0x0 DUP1 REVERT JUMPDEST POP PUSH1 0xC SLOAD PUSH2 0x30F SWAP1 PUSH1 0x1 PUSH1 0x1 PUSH1 0xA0 SHL SUB AND DUP2 JUMP JUMPDEST CALLVALUE DUP1 ISZERO PUSH2 0x475 JUMPI PUSH1 0x0 DUP1 REVERT JUMPDEST POP PUSH1 0x0 SLOAD PUSH2 0x30F SWAP1 PUSH1 0x1 PUSH1 0x1 PUSH1 0xA0 SHL SUB AND DUP2 JUMP JUMPDEST CALLVALUE DUP1 ISZERO PUSH2 0x495 JUMPI PUSH1 0x0 DUP1 REVERT JUMPDEST POP PUSH2 0x255 PUSH2 0x1F04 JUMP JUMPDEST CALLVALUE DUP1 ISZERO PUSH2 0x4AA JUMPI PUSH1 0x0 DUP1 REVERT JUMPDEST POP PUSH2 0x27D PUSH2 0x4B9 CALLDATASIZE PUSH1 0x4 PUSH2 0x3C30 JUMP JUMPDEST PUSH2 0x1FC1 JUMP JUMPDEST CALLVALUE DUP1 ISZERO PUSH2 0x4CA JUMPI PUSH1 0x0 DUP1 REVERT JUMPDEST POP PUSH2 0x4DE PUSH2 0x4D9 CALLDATASIZE PUSH1 0x4 PUSH2 0x3C30 JUMP JUMPDEST PUSH2 0x1FEC JUMP JUMPDEST PUSH1 0x40 MLOAD PUSH2 0x25F SWAP6 SWAP5 SWAP4 SWAP3 SWAP2 SWAP1 PUSH2 0x3E98 JUMP JUMPDEST CALLVALUE DUP1 ISZERO PUSH2 0x4FB JUMPI PUSH1 0x0 DUP1 REVERT JUMPDEST POP PUSH2 0x504 PUSH2 0x20BA JUMP JUMPDEST PUSH1 0x40 MLOAD PUSH2 0x25F SWAP2 SWAP1 PUSH2 0x3ECE JUMP JUMPDEST CALLVALUE DUP1 ISZERO PUSH2 0x51D JUMPI PUSH1 0x0 DUP1 REVERT JUMPDEST POP PUSH2 0x3F5 PUSH2 0x52C CALLDATASIZE PUSH1 0x4 PUSH2 0x3C30 JUMP JUMPDEST PUSH2 0x2263 JUMP JUMPDEST CALLVALUE DUP1 ISZERO PUSH2 0x53D JUMPI PUSH1 0x0 DUP1 REVERT JUMPDEST POP PUSH2 0x35E PUSH2 0x54C CALLDATASIZE PUSH1 0x4 PUSH2 0x3F23 JUMP JUMPDEST PUSH2 0x22A2 JUMP JUMPDEST CALLVALUE DUP1 ISZERO PUSH2 0x55D JUMPI PUSH1 0x0 DUP1 REVERT JUMPDEST POP PUSH2 0x27D PUSH2 0x2478 JUMP JUMPDEST PUSH2 0x35E PUSH2 0x250C JUMP JUMPDEST CALLVALUE DUP1 ISZERO PUSH2 0x57A JUMPI PUSH1 0x0 DUP1 REVERT JUMPDEST POP PUSH2 0x583 PUSH2 0x25D3 JUMP JUMPDEST PUSH1 0x40 MLOAD PUSH2 0x25F SWAP2 SWAP1 PUSH2 0x4039 JUMP JUMPDEST CALLVALUE DUP1 ISZERO PUSH2 0x59C JUMPI PUSH1 0x0 DUP1 REVERT JUMPDEST POP PUSH2 0x35E PUSH2 0x5AB CALLDATASIZE PUSH1 0x4 PUSH2 0x38E9 JUMP JUMPDEST PUSH2 0x26AC JUMP JUMPDEST CALLVALUE DUP1 ISZERO PUSH2 0x5BC JUMPI PUSH1 0x0 DUP1 REVERT JUMPDEST POP PUSH2 0x5C5 PUSH2 0x26BF JUMP JUMPDEST PUSH1 0x40 MLOAD PUSH2 0x25F SWAP3 SWAP2 SWAP1 PUSH2 0x404C JUMP JUMPDEST CALLVALUE DUP1 ISZERO PUSH2 0x5DF JUMPI PUSH1 0x0 DUP1 REVERT JUMPDEST POP PUSH2 0x4DE PUSH2 0x2917 JUMP JUMPDEST CALLVALUE DUP1 ISZERO PUSH2 0x5F4 JUMPI PUSH1 0x0 DUP1 REVERT JUMPDEST POP PUSH2 0x255 PUSH2 0x2939 JUMP JUMPDEST CALLVALUE DUP1 ISZERO PUSH2 0x609 JUMPI PUSH1 0x0 DUP1 REVERT JUMPDEST POP PUSH2 0x35E PUSH2 0x618 CALLDATASIZE PUSH1 0x4 PUSH2 0x4071 JUMP JUMPDEST PUSH2 0x29F6 JUMP JUMPDEST CALLVALUE DUP1 ISZERO PUSH2 0x629 JUMPI PUSH1 0x0 DUP1 REVERT JUMPDEST POP PUSH2 0x27D PUSH2 0x2AFE JUMP JUMPDEST CALLVALUE DUP1 ISZERO PUSH2 0x63E JUMPI PUSH1 0x0 DUP1 REVERT JUMPDEST POP PUSH2 0x35E PUSH2 0x64D CALLDATASIZE PUSH1 0x4 PUSH2 0x40BE JUMP JUMPDEST PUSH2 0x2B0B JUMP JUMPDEST PUSH2 0x35E PUSH2 0x2BCC JUMP JUMPDEST CALLVALUE DUP1 ISZERO PUSH2 0x666 JUMPI PUSH1 0x0 DUP1 REVERT JUMPDEST POP PUSH2 0x35E PUSH2 0x675 CALLDATASIZE PUSH1 0x4 PUSH2 0x4118 JUMP JUMPDEST PUSH2 0x2D79 JUMP JUMPDEST CALLVALUE DUP1 ISZERO PUSH2 0x686 JUMPI PUSH1 0x0 DUP1 REVERT JUMPDEST POP PUSH2 0x35E PUSH2 0x695 CALLDATASIZE PUSH1 0x4 PUSH2 0x38E9 JUMP JUMPDEST PUSH2 0x32C7 JUMP JUMPDEST CALLVALUE DUP1 ISZERO PUSH2 0x6A6 JUMPI PUSH1 0x0 DUP1 REVERT JUMPDEST POP PUSH2 0x35E PUSH2 0x6B5 CALLDATASIZE PUSH1 0x4 PUSH2 0x39AC JUMP JUMPDEST PUSH1 0x0 DUP1 SLOAD PUSH1 0x1 PUSH1 0x1 PUSH1 0xA0 SHL SUB NOT AND PUSH1 0x1 PUSH1 0x1 PUSH1 0xA0 SHL SUB SWAP3 SWAP1 SWAP3 AND SWAP2 SWAP1 SWAP2 OR SWAP1 SSTORE JUMP JUMPDEST CALLVALUE DUP1 ISZERO PUSH2 0x6E3 JUMPI PUSH1 0x0 DUP1 REVERT JUMPDEST POP PUSH2 0x3F5 PUSH2 0x6F2 CALLDATASIZE PUSH1 0x4 PUSH2 0x41E2 JUMP JUMPDEST PUSH2 0x32DA JUMP JUMPDEST CALLVALUE DUP1 ISZERO PUSH2 0x703 JUMPI PUSH1 0x0 DUP1 REVERT JUMPDEST POP PUSH2 0x27D PUSH2 0x3333 JUMP JUMPDEST PUSH1 0x0 DUP1 PUSH1 0xE DUP4 PUSH1 0x40 MLOAD PUSH2 0x71F SWAP2 SWAP1 PUSH2 0x4204 JUMP JUMPDEST SWAP1 DUP2 MSTORE PUSH1 0x40 MLOAD SWAP1 DUP2 SWAP1 SUB PUSH1 0x20 ADD DUP2 KECCAK256 SLOAD PUSH4 0x70A08231 PUSH1 0xE0 SHL DUP3 MSTORE ADDRESS PUSH1 0x4 DUP4 ADD MSTORE PUSH1 0x1 PUSH1 0x1 PUSH1 0xA0 SHL SUB AND SWAP2 POP DUP2 SWAP1 PUSH4 0x70A08231 SWAP1 PUSH1 0x24 ADD PUSH1 0x20 PUSH1 0x40 MLOAD DUP1 DUP4 SUB DUP2 DUP7 GAS STATICCALL ISZERO DUP1 ISZERO PUSH2 0x772 JUMPI RETURNDATASIZE PUSH1 0x0 DUP1 RETURNDATACOPY RETURNDATASIZE PUSH1 0x0 REVERT JUMPDEST POP POP POP POP PUSH1 0x40 MLOAD RETURNDATASIZE PUSH1 0x1F NOT PUSH1 0x1F DUP3 ADD AND DUP3 ADD DUP1 PUSH1 0x40 MSTORE POP DUP2 ADD SWAP1 PUSH2 0x796 SWAP2 SWAP1 PUSH2 0x4220 JUMP JUMPDEST SWAP4 SWAP3 POP POP POP JUMP JUMPDEST PUSH1 0x1 DUP1 SLOAD PUSH2 0x7AA SWAP1 PUSH2 0x4239 JUMP JUMPDEST DUP1 PUSH1 0x1F ADD PUSH1 0x20 DUP1 SWAP2 DIV MUL PUSH1 0x20 ADD PUSH1 0x40 MLOAD SWAP1 DUP2 ADD PUSH1 0x40 MSTORE DUP1 SWAP3 SWAP2 SWAP1 DUP2 DUP2 MSTORE PUSH1 0x20 ADD DUP3 DUP1 SLOAD PUSH2 0x7D6 SWAP1 PUSH2 0x4239 JUMP JUMPDEST DUP1 ISZERO PUSH2 0x823 JUMPI DUP1 PUSH1 0x1F LT PUSH2 0x7F8 JUMPI PUSH2 0x100 DUP1 DUP4 SLOAD DIV MUL DUP4 MSTORE SWAP2 PUSH1 0x20 ADD SWAP2 PUSH2 0x823 JUMP JUMPDEST DUP3 ADD SWAP2 SWAP1 PUSH1 0x0 MSTORE PUSH1 0x20 PUSH1 0x0 KECCAK256 SWAP1 JUMPDEST DUP2 SLOAD DUP2 MSTORE SWAP1 PUSH1 0x1 ADD SWAP1 PUSH1 0x20 ADD DUP1 DUP4 GT PUSH2 0x806 JUMPI DUP3 SWAP1 SUB PUSH1 0x1F AND DUP3 ADD SWAP2 JUMPDEST POP POP POP POP POP DUP2 JUMP JUMPDEST PUSH1 0x0 DUP1 SLOAD PUSH1 0x40 MLOAD PUSH4 0x1EBB3073 PUSH1 0xE1 SHL DUP2 MSTORE PUSH1 0x1 PUSH1 0x1 PUSH1 0xA0 SHL SUB DUP5 DUP2 AND PUSH1 0x4 DUP4 ADD MSTORE PUSH1 0x60 SWAP4 SWAP3 AND SWAP1 PUSH4 0x3D7660E6 SWAP1 PUSH1 0x24 ADD PUSH1 0x0 PUSH1 0x40 MLOAD DUP1 DUP4 SUB DUP2 DUP7 GAS STATICCALL ISZERO DUP1 ISZERO PUSH2 0x878 JUMPI RETURNDATASIZE PUSH1 0x0 DUP1 RETURNDATACOPY RETURNDATASIZE PUSH1 0x0 REVERT JUMPDEST POP POP POP POP PUSH1 0x40 MLOAD RETURNDATASIZE PUSH1 0x0 DUP3 RETURNDATACOPY PUSH1 0x1F RETURNDATASIZE SWAP1 DUP2 ADD PUSH1 0x1F NOT AND DUP3 ADD PUSH1 0x40 MSTORE PUSH2 0x8A0 SWAP2 SWAP1 DUP2 ADD SWAP1 PUSH2 0x426D JUMP JUMPDEST SWAP1 POP PUSH1 0x0 JUMPDEST DUP2 MLOAD DUP2 LT ISZERO PUSH2 0x9AD JUMPI PUSH1 0x0 DUP3 DUP3 DUP2 MLOAD DUP2 LT PUSH2 0x8C2 JUMPI PUSH2 0x8C2 PUSH2 0x4406 JUMP JUMPDEST PUSH1 0x20 MUL PUSH1 0x20 ADD ADD MLOAD PUSH1 0x60 ADD MLOAD PUSH1 0x20 ADD MLOAD PUSH1 0x12 PUSH1 0x1 ADD SLOAD PUSH2 0x8E2 SWAP2 SWAP1 PUSH2 0x4432 JUMP JUMPDEST SWAP1 POP PUSH2 0x8F2 JUMP JUMPDEST PUSH1 0x40 MLOAD DUP1 SWAP2 SUB SWAP1 REVERT JUMPDEST PUSH1 0x0 DUP4 DUP4 DUP2 MLOAD DUP2 LT PUSH2 0x906 JUMPI PUSH2 0x906 PUSH2 0x4406 JUMP JUMPDEST PUSH1 0x20 MUL PUSH1 0x20 ADD ADD MLOAD PUSH1 0x60 ADD MLOAD PUSH1 0x0 ADD MLOAD PUSH1 0x18 SLOAD DUP4 PUSH1 0x12 PUSH1 0x0 ADD SLOAD PUSH2 0x92A SWAP2 SWAP1 PUSH2 0x4432 JUMP JUMPDEST PUSH2 0x934 SWAP2 SWAP1 PUSH2 0x4449 JUMP JUMPDEST PUSH2 0x93E SWAP2 SWAP1 PUSH2 0x447E JUMP JUMPDEST SWAP1 POP PUSH1 0x18 SLOAD DUP5 DUP5 DUP2 MLOAD DUP2 LT PUSH2 0x955 JUMPI PUSH2 0x955 PUSH2 0x4406 JUMP JUMPDEST PUSH1 0x20 MUL PUSH1 0x20 ADD ADD MLOAD PUSH1 0x0 ADD MLOAD DUP3 PUSH2 0x96C SWAP2 SWAP1 PUSH2 0x4449 JUMP JUMPDEST PUSH2 0x976 SWAP2 SWAP1 PUSH2 0x447E JUMP JUMPDEST DUP5 DUP5 DUP2 MLOAD DUP2 LT PUSH2 0x988 JUMPI PUSH2 0x988 PUSH2 0x4406 JUMP JUMPDEST PUSH1 0x20 MUL PUSH1 0x20 ADD ADD MLOAD PUSH1 0x20 ADD DUP2 DUP2 MSTORE POP POP POP POP DUP1 DUP1 PUSH2 0x9A5 SWAP1 PUSH2 0x4492 JUMP JUMPDEST SWAP2 POP POP PUSH2 0x8A5 JUMP JUMPDEST POP SWAP3 SWAP2 POP POP JUMP JUMPDEST PUSH2 0x9BC PUSH2 0x3496 JUMP JUMPDEST PUSH1 0x2 PUSH1 0x40 MLOAD DUP1 PUSH1 0x40 ADD PUSH1 0x40 MSTORE SWAP1 DUP2 PUSH1 0x0 DUP3 ADD DUP1 SLOAD PUSH2 0x9D9 SWAP1 PUSH2 0x4239 JUMP JUMPDEST DUP1 PUSH1 0x1F ADD PUSH1 0x20 DUP1 SWAP2 DIV MUL PUSH1 0x20 ADD PUSH1 0x40 MLOAD SWAP1 DUP2 ADD PUSH1 0x40 MSTORE DUP1 SWAP3 SWAP2 SWAP1 DUP2 DUP2 MSTORE PUSH1 0x20 ADD DUP3 DUP1 SLOAD PUSH2 0xA05 SWAP1 PUSH2 0x4239 JUMP JUMPDEST DUP1 ISZERO PUSH2 0xA52 JUMPI DUP1 PUSH1 0x1F LT PUSH2 0xA27 JUMPI PUSH2 0x100 DUP1 DUP4 SLOAD DIV MUL DUP4 MSTORE SWAP2 PUSH1 0x20 ADD SWAP2 PUSH2 0xA52 JUMP JUMPDEST DUP3 ADD SWAP2 SWAP1 PUSH1 0x0 MSTORE PUSH1 0x20 PUSH1 0x0 KECCAK256 SWAP1 JUMPDEST DUP2 SLOAD DUP2 MSTORE SWAP1 PUSH1 0x1 ADD SWAP1 PUSH1 0x20 ADD DUP1 DUP4 GT PUSH2 0xA35 JUMPI DUP3 SWAP1 SUB PUSH1 0x1F AND DUP3 ADD SWAP2 JUMPDEST POP POP POP POP POP DUP2 MSTORE PUSH1 0x20 ADD PUSH1 0x1 DUP3 ADD PUSH1 0x40 MLOAD DUP1 PUSH1 0x60 ADD PUSH1 0x40 MSTORE SWAP1 DUP2 PUSH1 0x0 DUP3 ADD DUP1 SLOAD PUSH2 0xA7B SWAP1 PUSH2 0x4239 JUMP JUMPDEST DUP1 PUSH1 0x1F ADD PUSH1 0x20 DUP1 SWAP2 DIV MUL PUSH1 0x20 ADD PUSH1 0x40 MLOAD SWAP1 DUP2 ADD PUSH1 0x40 MSTORE DUP1 SWAP3 SWAP2 SWAP1 DUP2 DUP2 MSTORE PUSH1 0x20 ADD DUP3 DUP1 SLOAD PUSH2 0xAA7 SWAP1 PUSH2 0x4239 JUMP JUMPDEST DUP1 ISZERO PUSH2 0xAF4 JUMPI DUP1 PUSH1 0x1F LT PUSH2 0xAC9 JUMPI PUSH2 0x100 DUP1 DUP4 SLOAD DIV MUL DUP4 MSTORE SWAP2 PUSH1 0x20 ADD SWAP2 PUSH2 0xAF4 JUMP JUMPDEST DUP3 ADD SWAP2 SWAP1 PUSH1 0x0 MSTORE PUSH1 0x20 PUSH1 0x0 KECCAK256 SWAP1 JUMPDEST DUP2 SLOAD DUP2 MSTORE SWAP1 PUSH1 0x1 ADD SWAP1 PUSH1 0x20 ADD DUP1 DUP4 GT PUSH2 0xAD7 JUMPI DUP3 SWAP1 SUB PUSH1 0x1F AND DUP3 ADD SWAP2 JUMPDEST POP POP POP POP POP DUP2 MSTORE PUSH1 0x20 ADD PUSH1 0x1 DUP3 ADD DUP1 SLOAD PUSH2 0xB0D SWAP1 PUSH2 0x4239 JUMP JUMPDEST DUP1 PUSH1 0x1F ADD PUSH1 0x20 DUP1 SWAP2 DIV MUL PUSH1 0x20 ADD PUSH1 0x40 MLOAD SWAP1 DUP2 ADD PUSH1 0x40 MSTORE DUP1 SWAP3 SWAP2 SWAP1 DUP2 DUP2 MSTORE PUSH1 0x20 ADD DUP3 DUP1 SLOAD PUSH2 0xB39 SWAP1 PUSH2 0x4239 JUMP JUMPDEST DUP1 ISZERO PUSH2 0xB86 JUMPI DUP1 PUSH1 0x1F LT PUSH2 0xB5B JUMPI PUSH2 0x100 DUP1 DUP4 SLOAD DIV MUL DUP4 MSTORE SWAP2 PUSH1 0x20 ADD SWAP2 PUSH2 0xB86 JUMP JUMPDEST DUP3 ADD SWAP2 SWAP1 PUSH1 0x0 MSTORE PUSH1 0x20 PUSH1 0x0 KECCAK256 SWAP1 JUMPDEST DUP2 SLOAD DUP2 MSTORE SWAP1 PUSH1 0x1 ADD SWAP1 PUSH1 0x20 ADD DUP1 DUP4 GT PUSH2 0xB69 JUMPI DUP3 SWAP1 SUB PUSH1 0x1F AND DUP3 ADD SWAP2 JUMPDEST POP POP POP POP POP DUP2 MSTORE PUSH1 0x20 ADD PUSH1 0x2 DUP3 ADD DUP1 SLOAD PUSH2 0xB9F SWAP1 PUSH2 0x4239 JUMP JUMPDEST DUP1 PUSH1 0x1F ADD PUSH1 0x20 DUP1 SWAP2 DIV MUL PUSH1 0x20 ADD PUSH1 0x40 MLOAD SWAP1 DUP2 ADD PUSH1 0x40 MSTORE DUP1 SWAP3 SWAP2 SWAP1 DUP2 DUP2 MSTORE PUSH1 0x20 ADD DUP3 DUP1 SLOAD PUSH2 0xBCB SWAP1 PUSH2 0x4239 JUMP JUMPDEST DUP1 ISZERO PUSH2 0xC18 JUMPI DUP1 PUSH1 0x1F LT PUSH2 0xBED JUMPI PUSH2 0x100 DUP1 DUP4 SLOAD DIV MUL DUP4 MSTORE SWAP2 PUSH1 0x20 ADD SWAP2 PUSH2 0xC18 JUMP JUMPDEST DUP3 ADD SWAP2 SWAP1 PUSH1 0x0 MSTORE PUSH1 0x20 PUSH1 0x0 KECCAK256 SWAP1 JUMPDEST DUP2 SLOAD DUP2 MSTORE SWAP1 PUSH1 0x1 ADD SWAP1 PUSH1 0x20 ADD DUP1 DUP4 GT PUSH2 0xBFB JUMPI DUP3 SWAP1 SUB PUSH1 0x1F AND DUP3 ADD SWAP2 JUMPDEST POP POP POP POP POP DUP2 MSTORE POP POP DUP2 MSTORE POP POP SWAP1 POP SWAP1 JUMP JUMPDEST PUSH1 0x10 SLOAD PUSH1 0x60 SWAP1 PUSH1 0x0 SWAP1 PUSH1 0x1 PUSH1 0x1 PUSH1 0x40 SHL SUB DUP2 GT ISZERO PUSH2 0xC4A JUMPI PUSH2 0xC4A PUSH2 0x3798 JUMP JUMPDEST PUSH1 0x40 MLOAD SWAP1 DUP1 DUP3 MSTORE DUP1 PUSH1 0x20 MUL PUSH1 0x20 ADD DUP3 ADD PUSH1 0x40 MSTORE DUP1 ISZERO PUSH2 0xC7D JUMPI DUP2 PUSH1 0x20 ADD JUMPDEST PUSH1 0x60 DUP2 MSTORE PUSH1 0x20 ADD SWAP1 PUSH1 0x1 SWAP1 SUB SWAP1 DUP2 PUSH2 0xC68 JUMPI SWAP1 POP JUMPDEST POP SWAP1 POP PUSH1 0x0 JUMPDEST PUSH1 0x10 SLOAD DUP2 LT ISZERO PUSH2 0xE15 JUMPI PUSH1 0x10 DUP2 DUP2 SLOAD DUP2 LT PUSH2 0xCA0 JUMPI PUSH2 0xCA0 PUSH2 0x4406 JUMP JUMPDEST SWAP1 PUSH1 0x0 MSTORE PUSH1 0x20 PUSH1 0x0 KECCAK256 ADD DUP1 SLOAD DUP1 PUSH1 0x20 MUL PUSH1 0x20 ADD PUSH1 0x40 MLOAD SWAP1 DUP2 ADD PUSH1 0x40 MSTORE DUP1 SWAP3 SWAP2 SWAP1 DUP2 DUP2 MSTORE PUSH1 0x20 ADD PUSH1 0x0 SWAP1 JUMPDEST DUP3 DUP3 LT ISZERO PUSH2 0xDE1 JUMPI PUSH1 0x0 DUP5 DUP2 MSTORE PUSH1 0x20 SWAP1 DUP2 SWAP1 KECCAK256 PUSH1 0x40 DUP1 MLOAD PUSH2 0x100 DUP2 ADD SWAP1 SWAP2 MSTORE PUSH1 0x8 DUP6 MUL SWAP1 SWAP2 ADD DUP1 SLOAD PUSH1 0x1 PUSH1 0x1 PUSH1 0xA0 SHL SUB AND DUP3 MSTORE PUSH1 0x1 DUP2 ADD DUP1 SLOAD SWAP3 SWAP4 SWAP2 SWAP3 SWAP2 DUP5 ADD SWAP2 PUSH2 0xD14 SWAP1 PUSH2 0x4239 JUMP JUMPDEST DUP1 PUSH1 0x1F ADD PUSH1 0x20 DUP1 SWAP2 DIV MUL PUSH1 0x20 ADD PUSH1 0x40 MLOAD SWAP1 DUP2 ADD PUSH1 0x40 MSTORE DUP1 SWAP3 SWAP2 SWAP1 DUP2 DUP2 MSTORE PUSH1 0x20 ADD DUP3 DUP1 SLOAD PUSH2 0xD40 SWAP1 PUSH2 0x4239 JUMP JUMPDEST DUP1 ISZERO PUSH2 0xD8D JUMPI DUP1 PUSH1 0x1F LT PUSH2 0xD62 JUMPI PUSH2 0x100 DUP1 DUP4 SLOAD DIV MUL DUP4 MSTORE SWAP2 PUSH1 0x20 ADD SWAP2 PUSH2 0xD8D JUMP JUMPDEST DUP3 ADD SWAP2 SWAP1 PUSH1 0x0 MSTORE PUSH1 0x20 PUSH1 0x0 KECCAK256 SWAP1 JUMPDEST DUP2 SLOAD DUP2 MSTORE SWAP1 PUSH1 0x1 ADD SWAP1 PUSH1 0x20 ADD DUP1 DUP4 GT PUSH2 0xD70 JUMPI DUP3 SWAP1 SUB PUSH1 0x1F AND DUP3 ADD SWAP2 JUMPDEST POP POP POP POP POP DUP2 MSTORE PUSH1 0x20 ADD PUSH1 0x2 DUP3 ADD SLOAD DUP2 MSTORE PUSH1 0x20 ADD PUSH1 0x3 DUP3 ADD SLOAD DUP2 MSTORE PUSH1 0x20 ADD PUSH1 0x4 DUP3 ADD SLOAD DUP2 MSTORE PUSH1 0x20 ADD PUSH1 0x5 DUP3 ADD SLOAD DUP2 MSTORE PUSH1 0x20 ADD PUSH1 0x6 DUP3 ADD SLOAD DUP2 MSTORE PUSH1 0x20 ADD PUSH1 0x7 DUP3 ADD SLOAD DUP2 MSTORE POP POP DUP2 MSTORE PUSH1 0x20 ADD SWAP1 PUSH1 0x1 ADD SWAP1 PUSH2 0xCCA JUMP JUMPDEST POP POP POP POP DUP3 DUP3 DUP2 MLOAD DUP2 LT PUSH2 0xDF7 JUMPI PUSH2 0xDF7 PUSH2 0x4406 JUMP JUMPDEST PUSH1 0x20 MUL PUSH1 0x20 ADD ADD DUP2 SWAP1 MSTORE POP DUP1 DUP1 PUSH2 0xE0D SWAP1 PUSH2 0x4492 JUMP JUMPDEST SWAP2 POP POP PUSH2 0xC83 JUMP JUMPDEST POP SWAP2 SWAP1 POP JUMP JUMPDEST PUSH1 0x0 PUSH1 0x12 DUP2 SWAP1 SSTORE NUMBER PUSH1 0x15 SSTORE JUMPDEST PUSH1 0x11 SLOAD DUP2 LT ISZERO PUSH2 0x116D JUMPI PUSH1 0x0 PUSH1 0x11 DUP3 DUP2 SLOAD DUP2 LT PUSH2 0xE46 JUMPI PUSH2 0xE46 PUSH2 0x4406 JUMP JUMPDEST SWAP1 PUSH1 0x0 MSTORE PUSH1 0x20 PUSH1 0x0 KECCAK256 ADD SWAP1 POP PUSH1 0x0 PUSH2 0xEE6 DUP3 DUP1 SLOAD PUSH2 0xE63 SWAP1 PUSH2 0x4239 JUMP JUMPDEST DUP1 PUSH1 0x1F ADD PUSH1 0x20 DUP1 SWAP2 DIV MUL PUSH1 0x20 ADD PUSH1 0x40 MLOAD SWAP1 DUP2 ADD PUSH1 0x40 MSTORE DUP1 SWAP3 SWAP2 SWAP1 DUP2 DUP2 MSTORE PUSH1 0x20 ADD DUP3 DUP1 SLOAD PUSH2 0xE8F SWAP1 PUSH2 0x4239 JUMP JUMPDEST DUP1 ISZERO PUSH2 0xEDC JUMPI DUP1 PUSH1 0x1F LT PUSH2 0xEB1 JUMPI PUSH2 0x100 DUP1 DUP4 SLOAD DIV MUL DUP4 MSTORE SWAP2 PUSH1 0x20 ADD SWAP2 PUSH2 0xEDC JUMP JUMPDEST DUP3 ADD SWAP2 SWAP1 PUSH1 0x0 MSTORE PUSH1 0x20 PUSH1 0x0 KECCAK256 SWAP1 JUMPDEST DUP2 SLOAD DUP2 MSTORE SWAP1 PUSH1 0x1 ADD SWAP1 PUSH1 0x20 ADD DUP1 DUP4 GT PUSH2 0xEBF JUMPI DUP3 SWAP1 SUB PUSH1 0x1F AND DUP3 ADD SWAP2 JUMPDEST POP POP POP POP POP PUSH2 0x70C JUMP JUMPDEST PUSH1 0x40 DUP1 MLOAD PUSH1 0x2 DUP1 DUP3 MSTORE PUSH1 0x60 DUP3 ADD DUP4 MSTORE SWAP3 SWAP4 POP PUSH1 0x0 SWAP3 SWAP1 SWAP2 PUSH1 0x20 DUP4 ADD SWAP1 DUP1 CALLDATASIZE DUP4 CALLDATACOPY ADD SWAP1 POP POP SWAP1 POP PUSH1 0xE DUP4 PUSH1 0x40 MLOAD PUSH2 0xF1C SWAP2 SWAP1 PUSH2 0x451A JUMP JUMPDEST SWAP1 DUP2 MSTORE PUSH1 0x40 MLOAD SWAP1 DUP2 SWAP1 SUB PUSH1 0x20 ADD SWAP1 KECCAK256 SLOAD DUP2 MLOAD PUSH1 0x1 PUSH1 0x1 PUSH1 0xA0 SHL SUB SWAP1 SWAP2 AND SWAP1 DUP3 SWAP1 PUSH1 0x0 SWAP1 PUSH2 0xF4B JUMPI PUSH2 0xF4B PUSH2 0x4406 JUMP JUMPDEST PUSH1 0x1 PUSH1 0x1 PUSH1 0xA0 SHL SUB SWAP1 SWAP3 AND PUSH1 0x20 SWAP3 DUP4 MUL SWAP2 SWAP1 SWAP2 ADD SWAP1 SWAP2 ADD MSTORE PUSH1 0x40 MLOAD PUSH1 0xE SWAP1 PUSH2 0xF75 SWAP1 PUSH1 0x16 SWAP1 PUSH2 0x451A JUMP JUMPDEST SWAP1 DUP2 MSTORE PUSH1 0x40 MLOAD SWAP1 DUP2 SWAP1 SUB PUSH1 0x20 ADD SWAP1 KECCAK256 SLOAD DUP2 MLOAD PUSH1 0x1 PUSH1 0x1 PUSH1 0xA0 SHL SUB SWAP1 SWAP2 AND SWAP1 DUP3 SWAP1 PUSH1 0x1 SWAP1 DUP2 LT PUSH2 0xFA6 JUMPI PUSH2 0xFA6 PUSH2 0x4406 JUMP JUMPDEST PUSH1 0x20 MUL PUSH1 0x20 ADD ADD SWAP1 PUSH1 0x1 PUSH1 0x1 PUSH1 0xA0 SHL SUB AND SWAP1 DUP2 PUSH1 0x1 PUSH1 0x1 PUSH1 0xA0 SHL SUB AND DUP2 MSTORE POP POP DUP2 PUSH1 0xE DUP5 PUSH1 0x40 MLOAD PUSH2 0xFD7 SWAP2 SWAP1 PUSH2 0x451A JUMP JUMPDEST SWAP1 DUP2 MSTORE PUSH1 0x40 MLOAD SWAP1 DUP2 SWAP1 SUB PUSH1 0x20 ADD SWAP1 KECCAK256 PUSH1 0x3 ADD SSTORE DUP2 ISZERO PUSH2 0x1157 JUMPI DUP1 PUSH1 0x1 DUP2 MLOAD DUP2 LT PUSH2 0x1003 JUMPI PUSH2 0x1003 PUSH2 0x4406 JUMP JUMPDEST PUSH1 0x20 MUL PUSH1 0x20 ADD ADD MLOAD PUSH1 0x1 PUSH1 0x1 PUSH1 0xA0 SHL SUB AND DUP2 PUSH1 0x0 DUP2 MLOAD DUP2 LT PUSH2 0x1027 JUMPI PUSH2 0x1027 PUSH2 0x4406 JUMP JUMPDEST PUSH1 0x20 MUL PUSH1 0x20 ADD ADD MLOAD PUSH1 0x1 PUSH1 0x1 PUSH1 0xA0 SHL SUB AND EQ PUSH2 0x10F6 JUMPI PUSH1 0xB SLOAD PUSH1 0x40 MLOAD PUSH4 0xD06CA61F PUSH1 0xE0 SHL DUP2 MSTORE PUSH1 0x1 PUSH1 0x1 PUSH1 0xA0 SHL SUB SWAP1 SWAP2 AND SWAP1 PUSH4 0xD06CA61F SWAP1 PUSH2 0x106F SWAP1 DUP6 SWAP1 DUP6 SWAP1 PUSH1 0x4 ADD PUSH2 0x456A JUMP JUMPDEST PUSH1 0x0 PUSH1 0x40 MLOAD DUP1 DUP4 SUB DUP2 DUP7 GAS STATICCALL ISZERO DUP1 ISZERO PUSH2 0x108C JUMPI RETURNDATASIZE PUSH1 0x0 DUP1 RETURNDATACOPY RETURNDATASIZE PUSH1 0x0 REVERT JUMPDEST POP POP POP POP PUSH1 0x40 MLOAD RETURNDATASIZE PUSH1 0x0 DUP3 RETURNDATACOPY PUSH1 0x1F RETURNDATASIZE SWAP1 DUP2 ADD PUSH1 0x1F NOT AND DUP3 ADD PUSH1 0x40 MSTORE PUSH2 0x10B4 SWAP2 SWAP1 DUP2 ADD SWAP1 PUSH2 0x45DE JUMP JUMPDEST PUSH1 0x1 DUP2 MLOAD DUP2 LT PUSH2 0x10C6 JUMPI PUSH2 0x10C6 PUSH2 0x4406 JUMP JUMPDEST PUSH1 0x20 MUL PUSH1 0x20 ADD ADD MLOAD PUSH1 0xE DUP5 PUSH1 0x40 MLOAD PUSH2 0x10DE SWAP2 SWAP1 PUSH2 0x451A JUMP JUMPDEST SWAP1 DUP2 MSTORE PUSH1 0x40 MLOAD SWAP1 DUP2 SWAP1 SUB PUSH1 0x20 ADD SWAP1 KECCAK256 PUSH1 0x2 ADD SSTORE PUSH2 0x111B JUMP JUMPDEST DUP2 PUSH1 0xE DUP5 PUSH1 0x40 MLOAD PUSH2 0x1107 SWAP2 SWAP1 PUSH2 0x451A JUMP JUMPDEST SWAP1 DUP2 MSTORE PUSH1 0x40 MLOAD SWAP1 DUP2 SWAP1 SUB PUSH1 0x20 ADD SWAP1 KECCAK256 PUSH1 0x2 ADD SSTORE JUMPDEST PUSH1 0xE DUP4 PUSH1 0x40 MLOAD PUSH2 0x112B SWAP2 SWAP1 PUSH2 0x451A JUMP JUMPDEST SWAP1 DUP2 MSTORE PUSH1 0x20 ADD PUSH1 0x40 MLOAD DUP1 SWAP2 SUB SWAP1 KECCAK256 PUSH1 0x2 ADD SLOAD PUSH1 0x12 PUSH1 0x0 ADD PUSH1 0x0 DUP3 DUP3 SLOAD PUSH2 0x1151 SWAP2 SWAP1 PUSH2 0x4612 JUMP JUMPDEST SWAP1 SWAP2 SSTORE POP POP JUMPDEST POP POP POP DUP1 DUP1 PUSH2 0x1165 SWAP1 PUSH2 0x4492 JUMP JUMPDEST SWAP2 POP POP PUSH2 0xE27 JUMP JUMPDEST POP PUSH1 0x0 JUMPDEST PUSH1 0x11 SLOAD DUP2 LT ISZERO PUSH2 0x13EE JUMPI PUSH1 0x12 SLOAD PUSH2 0x1189 SWAP1 PUSH1 0x1 PUSH2 0x4612 JUMP JUMPDEST PUSH1 0x18 SLOAD PUSH1 0xE PUSH1 0x11 DUP5 DUP2 SLOAD DUP2 LT PUSH2 0x11A1 JUMPI PUSH2 0x11A1 PUSH2 0x4406 JUMP JUMPDEST SWAP1 PUSH1 0x0 MSTORE PUSH1 0x20 PUSH1 0x0 KECCAK256 ADD PUSH1 0x40 MLOAD PUSH2 0x11B8 SWAP2 SWAP1 PUSH2 0x451A JUMP JUMPDEST SWAP1 DUP2 MSTORE PUSH1 0x20 ADD PUSH1 0x40 MLOAD DUP1 SWAP2 SUB SWAP1 KECCAK256 PUSH1 0x2 ADD SLOAD PUSH2 0x11D4 SWAP2 SWAP1 PUSH2 0x4449 JUMP JUMPDEST PUSH2 0x11DE SWAP2 SWAP1 PUSH2 0x447E JUMP JUMPDEST PUSH1 0xE PUSH1 0x11 DUP4 DUP2 SLOAD DUP2 LT PUSH2 0x11F3 JUMPI PUSH2 0x11F3 PUSH2 0x4406 JUMP JUMPDEST SWAP1 PUSH1 0x0 MSTORE PUSH1 0x20 PUSH1 0x0 KECCAK256 ADD PUSH1 0x40 MLOAD PUSH2 0x120A SWAP2 SWAP1 PUSH2 0x451A JUMP JUMPDEST SWAP1 DUP2 MSTORE PUSH1 0x40 MLOAD SWAP1 DUP2 SWAP1 SUB PUSH1 0x20 ADD SWAP1 KECCAK256 PUSH1 0x4 ADD SSTORE PUSH1 0xF SLOAD DUP2 LT PUSH2 0x1300 JUMPI PUSH1 0xF PUSH1 0xE PUSH1 0x11 DUP4 DUP2 SLOAD DUP2 LT PUSH2 0x123D JUMPI PUSH2 0x123D PUSH2 0x4406 JUMP JUMPDEST SWAP1 PUSH1 0x0 MSTORE PUSH1 0x20 PUSH1 0x0 KECCAK256 ADD PUSH1 0x40 MLOAD PUSH2 0x1254 SWAP2 SWAP1 PUSH2 0x451A JUMP JUMPDEST SWAP1 DUP2 MSTORE PUSH1 0x40 MLOAD SWAP1 DUP2 SWAP1 SUB PUSH1 0x20 SWAP1 DUP2 ADD SWAP1 SWAP2 KECCAK256 DUP3 SLOAD PUSH1 0x1 DUP2 DUP2 ADD DUP6 SSTORE PUSH1 0x0 SWAP5 DUP6 MSTORE SWAP3 SWAP1 SWAP4 KECCAK256 DUP2 SLOAD PUSH1 0x8 SWAP1 SWAP5 MUL ADD DUP1 SLOAD PUSH1 0x1 PUSH1 0x1 PUSH1 0xA0 SHL SUB NOT AND PUSH1 0x1 PUSH1 0x1 PUSH1 0xA0 SHL SUB SWAP1 SWAP5 AND SWAP4 SWAP1 SWAP4 OR DUP4 SSTORE DUP2 DUP2 ADD DUP1 SLOAD SWAP2 SWAP4 SWAP3 DUP4 ADD SWAP2 PUSH2 0x12B1 SWAP1 PUSH2 0x4239 JUMP JUMPDEST PUSH2 0x12BC SWAP3 SWAP2 SWAP1 PUSH2 0x34D1 JUMP JUMPDEST POP PUSH1 0x2 DUP3 ADD SLOAD DUP2 PUSH1 0x2 ADD SSTORE PUSH1 0x3 DUP3 ADD SLOAD DUP2 PUSH1 0x3 ADD SSTORE PUSH1 0x4 DUP3 ADD SLOAD DUP2 PUSH1 0x4 ADD SSTORE PUSH1 0x5 DUP3 ADD SLOAD DUP2 PUSH1 0x5 ADD SSTORE PUSH1 0x6 DUP3 ADD SLOAD DUP2 PUSH1 0x6 ADD SSTORE PUSH1 0x7 DUP3 ADD SLOAD DUP2 PUSH1 0x7 ADD SSTORE POP POP PUSH2 0x13DC JUMP JUMPDEST PUSH1 0xE PUSH1 0x11 DUP3 DUP2 SLOAD DUP2 LT PUSH2 0x1315 JUMPI PUSH2 0x1315 PUSH2 0x4406 JUMP JUMPDEST SWAP1 PUSH1 0x0 MSTORE PUSH1 0x20 PUSH1 0x0 KECCAK256 ADD PUSH1 0x40 MLOAD PUSH2 0x132C SWAP2 SWAP1 PUSH2 0x451A JUMP JUMPDEST SWAP1 DUP2 MSTORE PUSH1 0x20 ADD PUSH1 0x40 MLOAD DUP1 SWAP2 SUB SWAP1 KECCAK256 PUSH1 0xF DUP3 DUP2 SLOAD DUP2 LT PUSH2 0x134D JUMPI PUSH2 0x134D PUSH2 0x4406 JUMP JUMPDEST PUSH1 0x0 SWAP2 DUP3 MSTORE PUSH1 0x20 SWAP1 SWAP2 KECCAK256 DUP3 SLOAD PUSH1 0x8 SWAP1 SWAP3 MUL ADD DUP1 SLOAD PUSH1 0x1 PUSH1 0x1 PUSH1 0xA0 SHL SUB NOT AND PUSH1 0x1 PUSH1 0x1 PUSH1 0xA0 SHL SUB SWAP1 SWAP3 AND SWAP2 SWAP1 SWAP2 OR DUP2 SSTORE PUSH1 0x1 DUP1 DUP4 ADD DUP1 SLOAD SWAP2 DUP4 ADD SWAP2 PUSH2 0x1390 SWAP1 PUSH2 0x4239 JUMP JUMPDEST PUSH2 0x139B SWAP3 SWAP2 SWAP1 PUSH2 0x34D1 JUMP JUMPDEST POP PUSH1 0x2 DUP3 ADD SLOAD DUP2 PUSH1 0x2 ADD SSTORE PUSH1 0x3 DUP3 ADD SLOAD DUP2 PUSH1 0x3 ADD SSTORE PUSH1 0x4 DUP3 ADD SLOAD DUP2 PUSH1 0x4 ADD SSTORE PUSH1 0x5 DUP3 ADD SLOAD DUP2 PUSH1 0x5 ADD SSTORE PUSH1 0x6 DUP3 ADD SLOAD DUP2 PUSH1 0x6 ADD SSTORE PUSH1 0x7 DUP3 ADD SLOAD DUP2 PUSH1 0x7 ADD SSTORE SWAP1 POP POP JUMPDEST DUP1 PUSH2 0x13E6 DUP2 PUSH2 0x4492 JUMP JUMPDEST SWAP2 POP POP PUSH2 0x1171 JUMP JUMPDEST POP PUSH1 0x10 DUP1 SLOAD PUSH1 0x1 DUP2 ADD DUP3 SSTORE PUSH1 0x0 SWAP2 SWAP1 SWAP2 MSTORE PUSH1 0xF DUP1 SLOAD PUSH2 0x1430 SWAP3 PUSH32 0x1B6847DC741A1B0CD08D278845F9D819D87B734759AFB55FE2DE5CB82A9AE672 ADD SWAP2 SWAP1 PUSH2 0x355C JUMP JUMPDEST POP PUSH1 0x17 DUP1 SLOAD PUSH1 0x1 DUP2 ADD DUP3 SSTORE PUSH1 0x0 SWAP2 SWAP1 SWAP2 MSTORE PUSH1 0x12 DUP1 SLOAD PUSH1 0x5 SWAP1 SWAP3 MUL PUSH32 0xC624B66CC0138B8FABC209247F72D758E1CF3343756D543BADBF24212BED8C15 DUP2 ADD SWAP3 DUP4 SSTORE PUSH1 0x13 SLOAD PUSH32 0xC624B66CC0138B8FABC209247F72D758E1CF3343756D543BADBF24212BED8C16 DUP3 ADD SSTORE PUSH1 0x14 SLOAD PUSH32 0xC624B66CC0138B8FABC209247F72D758E1CF3343756D543BADBF24212BED8C17 DUP3 ADD SSTORE PUSH1 0x15 SLOAD PUSH32 0xC624B66CC0138B8FABC209247F72D758E1CF3343756D543BADBF24212BED8C18 DUP3 ADD SSTORE PUSH1 0x16 DUP1 SLOAD SWAP3 SWAP4 SWAP3 PUSH32 0xC624B66CC0138B8FABC209247F72D758E1CF3343756D543BADBF24212BED8C19 SWAP1 SWAP3 ADD SWAP2 PUSH2 0x151A SWAP1 PUSH2 0x4239 JUMP JUMPDEST PUSH2 0x1525 SWAP3 SWAP2 SWAP1 PUSH2 0x34D1 JUMP JUMPDEST POP POP POP PUSH32 0x29EB3E5B78A72B1E23647A2447EA2184D402E3EF9DDEEE0ED6D0610D2A585372 PUSH1 0x12 PUSH1 0x40 MLOAD PUSH2 0x1558 SWAP2 SWAP1 PUSH2 0x46A1 JUMP JUMPDEST PUSH1 0x40 MLOAD DUP1 SWAP2 SUB SWAP1 LOG1 JUMP JUMPDEST PUSH1 0x6 DUP1 SLOAD PUSH2 0x7AA SWAP1 PUSH2 0x4239 JUMP JUMPDEST PUSH1 0x18 SLOAD DUP2 GT ISZERO PUSH2 0x157E JUMPI POP PUSH1 0x18 SLOAD JUMPDEST PUSH2 0x1586 PUSH2 0xE1B JUMP JUMPDEST PUSH1 0x0 DUP1 SLOAD PUSH1 0x40 MLOAD PUSH4 0x1661A531 PUSH1 0xE1 SHL DUP2 MSTORE CALLER PUSH1 0x4 DUP3 ADD MSTORE PUSH1 0x1 PUSH1 0x1 PUSH1 0xA0 SHL SUB SWAP1 SWAP2 AND SWAP1 PUSH4 0x2CC34A62 SWAP1 PUSH1 0x24 ADD PUSH1 0x0 PUSH1 0x40 MLOAD DUP1 DUP4 SUB DUP2 DUP7 GAS STATICCALL ISZERO DUP1 ISZERO PUSH2 0x15CF JUMPI RETURNDATASIZE PUSH1 0x0 DUP1 RETURNDATACOPY RETURNDATASIZE PUSH1 0x0 REVERT JUMPDEST POP POP POP POP PUSH1 0x40 MLOAD RETURNDATASIZE PUSH1 0x0 DUP3 RETURNDATACOPY PUSH1 0x1F RETURNDATASIZE SWAP1 DUP2 ADD PUSH1 0x1F NOT AND DUP3 ADD PUSH1 0x40 MSTORE PUSH2 0x15F7 SWAP2 SWAP1 DUP2 ADD SWAP1 PUSH2 0x46E2 JUMP JUMPDEST SWAP1 POP PUSH1 0x0 PUSH2 0x1604 CALLER PUSH2 0x82B JUMP JUMPDEST SWAP1 POP PUSH1 0x0 JUMPDEST DUP2 MLOAD DUP2 LT ISZERO PUSH2 0x1B02 JUMPI PUSH1 0x18 SLOAD DUP5 DUP4 DUP4 DUP2 MLOAD DUP2 LT PUSH2 0x1628 JUMPI PUSH2 0x1628 PUSH2 0x4406 JUMP JUMPDEST PUSH1 0x20 MUL PUSH1 0x20 ADD ADD MLOAD PUSH1 0x20 ADD MLOAD PUSH2 0x163E SWAP2 SWAP1 PUSH2 0x4449 JUMP JUMPDEST PUSH2 0x1648 SWAP2 SWAP1 PUSH2 0x447E JUMP JUMPDEST DUP3 DUP3 DUP2 MLOAD DUP2 LT PUSH2 0x165A JUMPI PUSH2 0x165A PUSH2 0x4406 JUMP JUMPDEST PUSH1 0x20 MUL PUSH1 0x20 ADD ADD MLOAD PUSH1 0x20 ADD DUP2 DUP2 MSTORE POP POP PUSH1 0x0 PUSH1 0x12 PUSH1 0x0 ADD SLOAD PUSH1 0x18 SLOAD DUP5 DUP5 DUP2 MLOAD DUP2 LT PUSH2 0x1687 JUMPI PUSH2 0x1687 PUSH2 0x4406 JUMP JUMPDEST PUSH1 0x20 MUL PUSH1 0x20 ADD ADD MLOAD PUSH1 0x20 ADD MLOAD PUSH2 0x169D SWAP2 SWAP1 PUSH2 0x4449 JUMP JUMPDEST PUSH2 0x16A7 SWAP2 SWAP1 PUSH2 0x447E JUMP JUMPDEST SWAP1 POP PUSH1 0x0 JUMPDEST PUSH1 0x11 SLOAD DUP2 LT ISZERO PUSH2 0x195E JUMPI PUSH1 0x0 PUSH1 0xE PUSH1 0x11 DUP4 DUP2 SLOAD DUP2 LT PUSH2 0x16CD JUMPI PUSH2 0x16CD PUSH2 0x4406 JUMP JUMPDEST SWAP1 PUSH1 0x0 MSTORE PUSH1 0x20 PUSH1 0x0 KECCAK256 ADD PUSH1 0x40 MLOAD PUSH2 0x16E4 SWAP2 SWAP1 PUSH2 0x451A JUMP JUMPDEST SWAP1 DUP2 MSTORE PUSH1 0x20 ADD PUSH1 0x40 MLOAD DUP1 SWAP2 SUB SWAP1 KECCAK256 PUSH1 0x3 ADD SLOAD SWAP1 POP PUSH32 0x6BCBF9E304D3C345BBD2288549950E709E5DF8A1CF3B331680DE7AE080DB3D2A CALLER PUSH1 0x11 DUP5 DUP2 SLOAD DUP2 LT PUSH2 0x172D JUMPI PUSH2 0x172D PUSH2 0x4406 JUMP JUMPDEST SWAP1 PUSH1 0x0 MSTORE PUSH1 0x20 PUSH1 0x0 KECCAK256 ADD DUP6 DUP5 PUSH1 0x40 MLOAD PUSH2 0x1749 SWAP5 SWAP4 SWAP3 SWAP2 SWAP1 PUSH2 0x4764 JUMP JUMPDEST PUSH1 0x40 MLOAD DUP1 SWAP2 SUB SWAP1 LOG1 DUP1 ISZERO PUSH2 0x194B JUMPI PUSH1 0x0 PUSH1 0xE PUSH1 0x11 DUP5 DUP2 SLOAD DUP2 LT PUSH2 0x176E JUMPI PUSH2 0x176E PUSH2 0x4406 JUMP JUMPDEST SWAP1 PUSH1 0x0 MSTORE PUSH1 0x20 PUSH1 0x0 KECCAK256 ADD PUSH1 0x40 MLOAD PUSH2 0x1785 SWAP2 SWAP1 PUSH2 0x451A JUMP JUMPDEST SWAP1 DUP2 MSTORE PUSH1 0x20 ADD PUSH1 0x40 MLOAD DUP1 SWAP2 SUB SWAP1 KECCAK256 PUSH1 0x2 ADD SLOAD SWAP1 POP PUSH1 0x0 PUSH1 0x18 SLOAD DUP6 DUP5 PUSH2 0x17AA SWAP2 SWAP1 PUSH2 0x4449 JUMP JUMPDEST PUSH2 0x17B4 SWAP2 SWAP1 PUSH2 0x447E JUMP JUMPDEST SWAP1 POP PUSH1 0x0 PUSH1 0x18 SLOAD DUP7 DUP5 PUSH2 0x17C7 SWAP2 SWAP1 PUSH2 0x4449 JUMP JUMPDEST PUSH2 0x17D1 SWAP2 SWAP1 PUSH2 0x447E JUMP JUMPDEST SWAP1 POP PUSH1 0xE PUSH1 0x11 DUP7 DUP2 SLOAD DUP2 LT PUSH2 0x17E8 JUMPI PUSH2 0x17E8 PUSH2 0x4406 JUMP JUMPDEST SWAP1 PUSH1 0x0 MSTORE PUSH1 0x20 PUSH1 0x0 KECCAK256 ADD PUSH1 0x40 MLOAD PUSH2 0x17FF SWAP2 SWAP1 PUSH2 0x451A JUMP JUMPDEST SWAP1 DUP2 MSTORE PUSH1 0x40 MLOAD SWAP1 DUP2 SWAP1 SUB PUSH1 0x20 ADD DUP2 KECCAK256 SLOAD PUSH4 0xA9059CBB PUSH1 0xE0 SHL DUP3 MSTORE CALLER PUSH1 0x4 DUP4 ADD MSTORE PUSH1 0x24 DUP3 ADD DUP5 SWAP1 MSTORE PUSH1 0x1 PUSH1 0x1 PUSH1 0xA0 SHL SUB AND SWAP1 PUSH4 0xA9059CBB SWAP1 PUSH1 0x44 ADD PUSH1 0x20 PUSH1 0x40 MLOAD DUP1 DUP4 SUB DUP2 PUSH1 0x0 DUP8 GAS CALL ISZERO DUP1 ISZERO PUSH2 0x1858 JUMPI RETURNDATASIZE PUSH1 0x0 DUP1 RETURNDATACOPY RETURNDATASIZE PUSH1 0x0 REVERT JUMPDEST POP POP POP POP PUSH1 0x40 MLOAD RETURNDATASIZE PUSH1 0x1F NOT PUSH1 0x1F DUP3 ADD AND DUP3 ADD DUP1 PUSH1 0x40 MSTORE POP DUP2 ADD SWAP1 PUSH2 0x187C SWAP2 SWAP1 PUSH2 0x479B JUMP JUMPDEST POP PUSH1 0x18 SLOAD DUP9 DUP9 DUP2 MLOAD DUP2 LT PUSH2 0x1892 JUMPI PUSH2 0x1892 PUSH2 0x4406 JUMP JUMPDEST PUSH1 0x20 MUL PUSH1 0x20 ADD ADD MLOAD PUSH1 0x0 ADD MLOAD DUP12 PUSH1 0x18 SLOAD PUSH2 0x18AC SWAP2 SWAP1 PUSH2 0x4432 JUMP JUMPDEST PUSH2 0x18B6 SWAP2 SWAP1 PUSH2 0x4449 JUMP JUMPDEST PUSH2 0x18C0 SWAP2 SWAP1 PUSH2 0x447E JUMP JUMPDEST DUP9 DUP9 DUP2 MLOAD DUP2 LT PUSH2 0x18D2 JUMPI PUSH2 0x18D2 PUSH2 0x4406 JUMP JUMPDEST PUSH1 0x20 MUL PUSH1 0x20 ADD ADD MLOAD PUSH1 0x0 ADD DUP2 DUP2 MSTORE POP POP PUSH1 0x18 SLOAD DUP9 DUP9 DUP2 MLOAD DUP2 LT PUSH2 0x18F7 JUMPI PUSH2 0x18F7 PUSH2 0x4406 JUMP JUMPDEST PUSH1 0x20 MUL PUSH1 0x20 ADD ADD MLOAD PUSH1 0x20 ADD MLOAD DUP12 PUSH1 0x18 SLOAD PUSH2 0x1911 SWAP2 SWAP1 PUSH2 0x4432 JUMP JUMPDEST PUSH2 0x191B SWAP2 SWAP1 PUSH2 0x4449 JUMP JUMPDEST PUSH2 0x1925 SWAP2 SWAP1 PUSH2 0x447E JUMP JUMPDEST DUP9 DUP9 DUP2 MLOAD DUP2 LT PUSH2 0x1937 JUMPI PUSH2 0x1937 PUSH2 0x4406 JUMP JUMPDEST PUSH1 0x20 MUL PUSH1 0x20 ADD ADD MLOAD PUSH1 0x20 ADD DUP2 DUP2 MSTORE POP POP POP POP POP JUMPDEST POP DUP1 PUSH2 0x1956 DUP2 PUSH2 0x4492 JUMP JUMPDEST SWAP2 POP POP PUSH2 0x16AC JUMP JUMPDEST POP DUP3 DUP3 DUP2 MLOAD DUP2 LT PUSH2 0x1971 JUMPI PUSH2 0x1971 PUSH2 0x4406 JUMP JUMPDEST PUSH1 0x20 MUL PUSH1 0x20 ADD ADD MLOAD PUSH1 0x0 ADD MLOAD PUSH1 0x0 SUB PUSH2 0x1A0B JUMPI PUSH1 0x0 SLOAD DUP5 MLOAD DUP1 MLOAD PUSH1 0x1 PUSH1 0x1 PUSH1 0xA0 SHL SUB SWAP1 SWAP3 AND SWAP2 PUSH4 0x42966C68 SWAP2 SWAP1 DUP6 SWAP1 DUP2 LT PUSH2 0x19AE JUMPI PUSH2 0x19AE PUSH2 0x4406 JUMP JUMPDEST PUSH1 0x20 MUL PUSH1 0x20 ADD ADD MLOAD PUSH1 0x40 MLOAD DUP3 PUSH4 0xFFFFFFFF AND PUSH1 0xE0 SHL DUP2 MSTORE PUSH1 0x4 ADD PUSH2 0x19D4 SWAP2 DUP2 MSTORE PUSH1 0x20 ADD SWAP1 JUMP JUMPDEST PUSH1 0x0 PUSH1 0x40 MLOAD DUP1 DUP4 SUB DUP2 PUSH1 0x0 DUP8 DUP1 EXTCODESIZE ISZERO DUP1 ISZERO PUSH2 0x19EE JUMPI PUSH1 0x0 DUP1 REVERT JUMPDEST POP GAS CALL ISZERO DUP1 ISZERO PUSH2 0x1A02 JUMPI RETURNDATASIZE PUSH1 0x0 DUP1 RETURNDATACOPY RETURNDATASIZE PUSH1 0x0 REVERT JUMPDEST POP POP POP POP PUSH2 0x1AEF JUMP JUMPDEST PUSH1 0x0 DUP4 DUP4 DUP2 MLOAD DUP2 LT PUSH2 0x1A1F JUMPI PUSH2 0x1A1F PUSH2 0x4406 JUMP JUMPDEST PUSH1 0x20 MUL PUSH1 0x20 ADD ADD MLOAD PUSH1 0x0 ADD MLOAD GT ISZERO PUSH2 0x1AEF JUMPI NUMBER DUP4 DUP4 DUP2 MLOAD DUP2 LT PUSH2 0x1A44 JUMPI PUSH2 0x1A44 PUSH2 0x4406 JUMP JUMPDEST PUSH1 0x20 SWAP1 DUP2 MUL SWAP2 SWAP1 SWAP2 ADD ADD MLOAD PUSH1 0x40 ADD MSTORE PUSH1 0x0 SLOAD DUP5 MLOAD DUP1 MLOAD PUSH1 0x1 PUSH1 0x1 PUSH1 0xA0 SHL SUB SWAP1 SWAP3 AND SWAP2 PUSH4 0x46E5573E SWAP2 SWAP1 DUP6 SWAP1 DUP2 LT PUSH2 0x1A7D JUMPI PUSH2 0x1A7D PUSH2 0x4406 JUMP JUMPDEST PUSH1 0x20 MUL PUSH1 0x20 ADD ADD MLOAD DUP6 DUP6 DUP2 MLOAD DUP2 LT PUSH2 0x1A97 JUMPI PUSH2 0x1A97 PUSH2 0x4406 JUMP JUMPDEST PUSH1 0x20 MUL PUSH1 0x20 ADD ADD MLOAD PUSH1 0x40 MLOAD DUP4 PUSH4 0xFFFFFFFF AND PUSH1 0xE0 SHL DUP2 MSTORE PUSH1 0x4 ADD PUSH2 0x1ABC SWAP3 SWAP2 SWAP1 PUSH2 0x47B8 JUMP JUMPDEST PUSH1 0x0 PUSH1 0x40 MLOAD DUP1 DUP4 SUB DUP2 PUSH1 0x0 DUP8 DUP1 EXTCODESIZE ISZERO DUP1 ISZERO PUSH2 0x1AD6 JUMPI PUSH1 0x0 DUP1 REVERT JUMPDEST POP GAS CALL ISZERO DUP1 ISZERO PUSH2 0x1AEA JUMPI RETURNDATASIZE PUSH1 0x0 DUP1 RETURNDATACOPY RETURNDATASIZE PUSH1 0x0 REVERT JUMPDEST POP POP POP POP JUMPDEST POP DUP1 PUSH2 0x1AFA DUP2 PUSH2 0x4492 JUMP JUMPDEST SWAP2 POP POP PUSH2 0x1609 JUMP JUMPDEST POP POP POP POP JUMP JUMPDEST PUSH1 0x0 DUP3 MLOAD PUSH1 0x1 PUSH1 0x1 PUSH1 0x40 SHL SUB DUP2 GT ISZERO PUSH2 0x1B23 JUMPI PUSH2 0x1B23 PUSH2 0x3798 JUMP JUMPDEST PUSH1 0x40 MLOAD SWAP1 DUP1 DUP3 MSTORE DUP1 PUSH1 0x20 MUL PUSH1 0x20 ADD DUP3 ADD PUSH1 0x40 MSTORE DUP1 ISZERO PUSH2 0x1B4C JUMPI DUP2 PUSH1 0x20 ADD PUSH1 0x20 DUP3 MUL DUP1 CALLDATASIZE DUP4 CALLDATACOPY ADD SWAP1 POP JUMPDEST POP SWAP1 POP PUSH1 0x0 JUMPDEST DUP2 MLOAD DUP2 LT ISZERO PUSH2 0x1C96 JUMPI PUSH1 0xE DUP5 DUP3 DUP2 MLOAD DUP2 LT PUSH2 0x1B6F JUMPI PUSH2 0x1B6F PUSH2 0x4406 JUMP JUMPDEST PUSH1 0x20 MUL PUSH1 0x20 ADD ADD MLOAD PUSH1 0x40 MLOAD PUSH2 0x1B84 SWAP2 SWAP1 PUSH2 0x4204 JUMP JUMPDEST SWAP1 DUP2 MSTORE PUSH1 0x40 MLOAD SWAP1 DUP2 SWAP1 SUB PUSH1 0x20 ADD SWAP1 KECCAK256 SLOAD DUP3 MLOAD PUSH1 0x1 PUSH1 0x1 PUSH1 0xA0 SHL SUB SWAP1 SWAP2 AND SWAP1 DUP4 SWAP1 DUP4 SWAP1 DUP2 LT PUSH2 0x1BB4 JUMPI PUSH2 0x1BB4 PUSH2 0x4406 JUMP JUMPDEST PUSH1 0x20 MUL PUSH1 0x20 ADD ADD SWAP1 PUSH1 0x1 PUSH1 0x1 PUSH1 0xA0 SHL SUB AND SWAP1 DUP2 PUSH1 0x1 PUSH1 0x1 PUSH1 0xA0 SHL SUB AND DUP2 MSTORE POP POP PUSH1 0x0 PUSH1 0x1 PUSH1 0x1 PUSH1 0xA0 SHL SUB AND DUP3 DUP3 DUP2 MLOAD DUP2 LT PUSH2 0x1BF1 JUMPI PUSH2 0x1BF1 PUSH2 0x4406 JUMP JUMPDEST PUSH1 0x20 MUL PUSH1 0x20 ADD ADD MLOAD PUSH1 0x1 PUSH1 0x1 PUSH1 0xA0 SHL SUB AND SUB PUSH2 0x1C84 JUMPI PUSH1 0x40 MLOAD PUSH3 0x461BCD PUSH1 0xE5 SHL DUP2 MSTORE PUSH1 0x20 PUSH1 0x4 DUP3 ADD MSTORE PUSH1 0x46 PUSH1 0x24 DUP3 ADD MSTORE PUSH32 0x796F75207061737365642061206E756C6C20746F6B656E53796D626F6C207468 PUSH1 0x44 DUP3 ADD MSTORE PUSH32 0x617420646F65736E74206D617020746F20746865206C697374206F6620616464 PUSH1 0x64 DUP3 ADD MSTORE PUSH6 0x726573736573 PUSH1 0xD0 SHL PUSH1 0x84 DUP3 ADD MSTORE PUSH1 0xA4 ADD PUSH2 0x8E9 JUMP JUMPDEST DUP1 PUSH2 0x1C8E DUP2 PUSH2 0x4492 JUMP JUMPDEST SWAP2 POP POP PUSH2 0x1B52 JUMP JUMPDEST POP PUSH32 0x75A464F58860044BCB7B0DDBDE1C4C37C4D04DB7626764710E98132327A830EF DUP4 DUP4 PUSH1 0x40 MLOAD PUSH2 0x1CC8 SWAP3 SWAP2 SWAP1 PUSH2 0x47D1 JUMP JUMPDEST PUSH1 0x40 MLOAD DUP1 SWAP2 SUB SWAP1 LOG1 PUSH2 0x1D03 DUP2 PUSH1 0x0 DUP2 MLOAD DUP2 LT PUSH2 0x1CE6 JUMPI PUSH2 0x1CE6 PUSH2 0x4406 JUMP JUMPDEST PUSH1 0x20 SWAP1 DUP2 MUL SWAP2 SWAP1 SWAP2 ADD ADD MLOAD PUSH1 0xB SLOAD PUSH1 0x1 PUSH1 0x1 PUSH1 0xA0 SHL SUB AND DUP5 PUSH2 0x3344 JUMP JUMPDEST PUSH1 0x0 PUSH2 0x1D11 TIMESTAMP PUSH2 0x2710 PUSH2 0x4612 JUMP JUMPDEST PUSH1 0xB SLOAD PUSH1 0x40 MLOAD PUSH4 0x38ED1739 PUSH1 0xE0 SHL DUP2 MSTORE SWAP2 SWAP3 POP PUSH1 0x1 PUSH1 0x1 PUSH1 0xA0 SHL SUB AND SWAP1 PUSH4 0x38ED1739 SWAP1 PUSH2 0x1D4B SWAP1 DUP7 SWAP1 PUSH1 0x0 SWAP1 DUP8 SWAP1 ADDRESS SWAP1 DUP9 SWAP1 PUSH1 0x4 ADD PUSH2 0x47F3 JUMP JUMPDEST PUSH1 0x0 PUSH1 0x40 MLOAD DUP1 DUP4 SUB DUP2 PUSH1 0x0 DUP8 GAS CALL ISZERO DUP1 ISZERO PUSH2 0x1D6A JUMPI RETURNDATASIZE PUSH1 0x0 DUP1 RETURNDATACOPY RETURNDATASIZE PUSH1 0x0 REVERT JUMPDEST POP POP POP POP PUSH1 0x40 MLOAD RETURNDATASIZE PUSH1 0x0 DUP3 RETURNDATACOPY PUSH1 0x1F RETURNDATASIZE SWAP1 DUP2 ADD PUSH1 0x1F NOT AND DUP3 ADD PUSH1 0x40 MSTORE PUSH2 0x1D92 SWAP2 SWAP1 DUP2 ADD SWAP1 PUSH2 0x45DE JUMP JUMPDEST POP POP POP POP POP JUMP JUMPDEST DUP1 MLOAD PUSH2 0x1DAC SWAP1 PUSH1 0x4 SWAP1 PUSH1 0x20 DUP5 ADD SWAP1 PUSH2 0x3628 JUMP JUMPDEST POP POP JUMP JUMPDEST DUP1 MLOAD PUSH1 0x20 DUP2 DUP4 ADD DUP2 ADD DUP1 MLOAD PUSH1 0xE DUP3 MSTORE SWAP3 DUP3 ADD SWAP2 SWAP1 SWAP4 ADD KECCAK256 SWAP2 MSTORE DUP1 SLOAD PUSH1 0x1 DUP3 ADD DUP1 SLOAD PUSH1 0x1 PUSH1 0x1 PUSH1 0xA0 SHL SUB SWAP1 SWAP3 AND SWAP3 SWAP2 PUSH2 0x1DE7 SWAP1 PUSH2 0x4239 JUMP JUMPDEST DUP1 PUSH1 0x1F ADD PUSH1 0x20 DUP1 SWAP2 DIV MUL PUSH1 0x20 ADD PUSH1 0x40 MLOAD SWAP1 DUP2 ADD PUSH1 0x40 MSTORE DUP1 SWAP3 SWAP2 SWAP1 DUP2 DUP2 MSTORE PUSH1 0x20 ADD DUP3 DUP1 SLOAD PUSH2 0x1E13 SWAP1 PUSH2 0x4239 JUMP JUMPDEST DUP1 ISZERO PUSH2 0x1E60 JUMPI DUP1 PUSH1 0x1F LT PUSH2 0x1E35 JUMPI PUSH2 0x100 DUP1 DUP4 SLOAD DIV MUL DUP4 MSTORE SWAP2 PUSH1 0x20 ADD SWAP2 PUSH2 0x1E60 JUMP JUMPDEST DUP3 ADD SWAP2 SWAP1 PUSH1 0x0 MSTORE PUSH1 0x20 PUSH1 0x0 KECCAK256 SWAP1 JUMPDEST DUP2 SLOAD DUP2 MSTORE SWAP1 PUSH1 0x1 ADD SWAP1 PUSH1 0x20 ADD DUP1 DUP4 GT PUSH2 0x1E43 JUMPI DUP3 SWAP1 SUB PUSH1 0x1F AND DUP3 ADD SWAP2 JUMPDEST POP POP POP POP POP SWAP1 DUP1 PUSH1 0x2 ADD SLOAD SWAP1 DUP1 PUSH1 0x3 ADD SLOAD SWAP1 DUP1 PUSH1 0x4 ADD SLOAD SWAP1 DUP1 PUSH1 0x5 ADD SLOAD SWAP1 DUP1 PUSH1 0x6 ADD SLOAD SWAP1 DUP1 PUSH1 0x7 ADD SLOAD SWAP1 POP DUP9 JUMP JUMPDEST DUP1 MLOAD DUP1 MLOAD DUP3 SWAP2 PUSH1 0x2 SWAP2 PUSH2 0x1EA8 SWAP2 DUP4 SWAP2 PUSH1 0x20 SWAP1 SWAP2 ADD SWAP1 PUSH2 0x3628 JUMP JUMPDEST POP PUSH1 0x20 DUP3 DUP2 ADD MLOAD DUP1 MLOAD DUP1 MLOAD SWAP2 SWAP3 PUSH1 0x1 DUP6 ADD SWAP3 PUSH2 0x1EC7 SWAP3 DUP5 SWAP3 ADD SWAP1 PUSH2 0x3628 JUMP JUMPDEST POP PUSH1 0x20 DUP3 DUP2 ADD MLOAD DUP1 MLOAD PUSH2 0x1EE0 SWAP3 PUSH1 0x1 DUP6 ADD SWAP3 ADD SWAP1 PUSH2 0x3628 JUMP JUMPDEST POP PUSH1 0x40 DUP3 ADD MLOAD DUP1 MLOAD PUSH2 0x1EFC SWAP2 PUSH1 0x2 DUP5 ADD SWAP2 PUSH1 0x20 SWAP1 SWAP2 ADD SWAP1 PUSH2 0x3628 JUMP JUMPDEST POP POP POP POP POP POP JUMP JUMPDEST PUSH1 0x0 DUP1 SLOAD PUSH1 0x40 MLOAD PUSH4 0x1EBB3073 PUSH1 0xE1 SHL DUP2 MSTORE CALLER PUSH1 0x4 DUP3 ADD MSTORE DUP3 SWAP2 PUSH1 0x1 PUSH1 0x1 PUSH1 0xA0 SHL SUB AND SWAP1 PUSH4 0x3D7660E6 SWAP1 PUSH1 0x24 ADD PUSH1 0x0 PUSH1 0x40 MLOAD DUP1 DUP4 SUB DUP2 DUP7 GAS STATICCALL ISZERO DUP1 ISZERO PUSH2 0x1F4D JUMPI RETURNDATASIZE PUSH1 0x0 DUP1 RETURNDATACOPY RETURNDATASIZE PUSH1 0x0 REVERT JUMPDEST POP POP POP POP PUSH1 0x40 MLOAD RETURNDATASIZE PUSH1 0x0 DUP3 RETURNDATACOPY PUSH1 0x1F RETURNDATASIZE SWAP1 DUP2 ADD PUSH1 0x1F NOT AND DUP3 ADD PUSH1 0x40 MSTORE PUSH2 0x1F75 SWAP2 SWAP1 DUP2 ADD SWAP1 PUSH2 0x426D JUMP JUMPDEST SWAP1 POP PUSH1 0x0 DUP1 JUMPDEST DUP3 MLOAD DUP2 LT ISZERO PUSH2 0x9AD JUMPI DUP3 DUP2 DUP2 MLOAD DUP2 LT PUSH2 0x1F96 JUMPI PUSH2 0x1F96 PUSH2 0x4406 JUMP JUMPDEST PUSH1 0x20 MUL PUSH1 0x20 ADD ADD MLOAD PUSH1 0x0 ADD MLOAD DUP3 PUSH2 0x1FAD SWAP2 SWAP1 PUSH2 0x4612 JUMP JUMPDEST SWAP2 POP DUP1 PUSH2 0x1FB9 DUP2 PUSH2 0x4492 JUMP JUMPDEST SWAP2 POP POP PUSH2 0x1F7B JUMP JUMPDEST PUSH1 0x11 DUP2 DUP2 SLOAD DUP2 LT PUSH2 0x1FD1 JUMPI PUSH1 0x0 DUP1 REVERT JUMPDEST SWAP1 PUSH1 0x0 MSTORE PUSH1 0x20 PUSH1 0x0 KECCAK256 ADD PUSH1 0x0 SWAP2 POP SWAP1 POP DUP1 SLOAD PUSH2 0x7AA SWAP1 PUSH2 0x4239 JUMP JUMPDEST PUSH1 0x17 DUP2 DUP2 SLOAD DUP2 LT PUSH2 0x1FFC JUMPI PUSH1 0x0 DUP1 REVERT JUMPDEST SWAP1 PUSH1 0x0 MSTORE PUSH1 0x20 PUSH1 0x0 KECCAK256 SWAP1 PUSH1 0x5 MUL ADD PUSH1 0x0 SWAP2 POP SWAP1 POP DUP1 PUSH1 0x0 ADD SLOAD SWAP1 DUP1 PUSH1 0x1 ADD SLOAD SWAP1 DUP1 PUSH1 0x2 ADD SLOAD SWAP1 DUP1 PUSH1 0x3 ADD SLOAD SWAP1 DUP1 PUSH1 0x4 ADD DUP1 SLOAD PUSH2 0x2037 SWAP1 PUSH2 0x4239 JUMP JUMPDEST DUP1 PUSH1 0x1F ADD PUSH1 0x20 DUP1 SWAP2 DIV MUL PUSH1 0x20 ADD PUSH1 0x40 MLOAD SWAP1 DUP2 ADD PUSH1 0x40 MSTORE DUP1 SWAP3 SWAP2 SWAP1 DUP2 DUP2 MSTORE PUSH1 0x20 ADD DUP3 DUP1 SLOAD PUSH2 0x2063 SWAP1 PUSH2 0x4239 JUMP JUMPDEST DUP1 ISZERO PUSH2 0x20B0 JUMPI DUP1 PUSH1 0x1F LT PUSH2 0x2085 JUMPI PUSH2 0x100 DUP1 DUP4 SLOAD DIV MUL DUP4 MSTORE SWAP2 PUSH1 0x20 ADD SWAP2 PUSH2 0x20B0 JUMP JUMPDEST DUP3 ADD SWAP2 SWAP1 PUSH1 0x0 MSTORE PUSH1 0x20 PUSH1 0x0 KECCAK256 SWAP1 JUMPDEST DUP2 SLOAD DUP2 MSTORE SWAP1 PUSH1 0x1 ADD SWAP1 PUSH1 0x20 ADD DUP1 DUP4 GT PUSH2 0x2093 JUMPI DUP3 SWAP1 SUB PUSH1 0x1F AND DUP3 ADD SWAP2 JUMPDEST POP POP POP POP POP SWAP1 POP DUP6 JUMP JUMPDEST PUSH1 0x17 SLOAD PUSH1 0x60 SWAP1 PUSH1 0x0 SWAP1 PUSH1 0x1 PUSH1 0x1 PUSH1 0x40 SHL SUB DUP2 GT ISZERO PUSH2 0x20DA JUMPI PUSH2 0x20DA PUSH2 0x3798 JUMP JUMPDEST PUSH1 0x40 MLOAD SWAP1 DUP1 DUP3 MSTORE DUP1 PUSH1 0x20 MUL PUSH1 0x20 ADD DUP3 ADD PUSH1 0x40 MSTORE DUP1 ISZERO PUSH2 0x213D JUMPI DUP2 PUSH1 0x20 ADD JUMPDEST PUSH2 0x212A PUSH1 0x40 MLOAD DUP1 PUSH1 0xA0 ADD PUSH1 0x40 MSTORE DUP1 PUSH1 0x0 DUP2 MSTORE PUSH1 0x20 ADD PUSH1 0x0 DUP2 MSTORE PUSH1 0x20 ADD PUSH1 0x0 DUP2 MSTORE PUSH1 0x20 ADD PUSH1 0x0 DUP2 MSTORE PUSH1 0x20 ADD PUSH1 0x60 DUP2 MSTORE POP SWAP1 JUMP JUMPDEST DUP2 MSTORE PUSH1 0x20 ADD SWAP1 PUSH1 0x1 SWAP1 SUB SWAP1 DUP2 PUSH2 0x20F8 JUMPI SWAP1 POP JUMPDEST POP SWAP1 POP PUSH1 0x0 JUMPDEST PUSH1 0x17 SLOAD DUP2 LT ISZERO PUSH2 0xE15 JUMPI PUSH1 0x17 DUP2 DUP2 SLOAD DUP2 LT PUSH2 0x2160 JUMPI PUSH2 0x2160 PUSH2 0x4406 JUMP JUMPDEST SWAP1 PUSH1 0x0 MSTORE PUSH1 0x20 PUSH1 0x0 KECCAK256 SWAP1 PUSH1 0x5 MUL ADD PUSH1 0x40 MLOAD DUP1 PUSH1 0xA0 ADD PUSH1 0x40 MSTORE SWAP1 DUP2 PUSH1 0x0 DUP3 ADD SLOAD DUP2 MSTORE PUSH1 0x20 ADD PUSH1 0x1 DUP3 ADD SLOAD DUP2 MSTORE PUSH1 0x20 ADD PUSH1 0x2 DUP3 ADD SLOAD DUP2 MSTORE PUSH1 0x20 ADD PUSH1 0x3 DUP3 ADD SLOAD DUP2 MSTORE PUSH1 0x20 ADD PUSH1 0x4 DUP3 ADD DUP1 SLOAD PUSH2 0x21B1 SWAP1 PUSH2 0x4239 JUMP JUMPDEST DUP1 PUSH1 0x1F ADD PUSH1 0x20 DUP1 SWAP2 DIV MUL PUSH1 0x20 ADD PUSH1 0x40 MLOAD SWAP1 DUP2 ADD PUSH1 0x40 MSTORE DUP1 SWAP3 SWAP2 SWAP1 DUP2 DUP2 MSTORE PUSH1 0x20 ADD DUP3 DUP1 SLOAD PUSH2 0x21DD SWAP1 PUSH2 0x4239 JUMP JUMPDEST DUP1 ISZERO PUSH2 0x222A JUMPI DUP1 PUSH1 0x1F LT PUSH2 0x21FF JUMPI PUSH2 0x100 DUP1 DUP4 SLOAD DIV MUL DUP4 MSTORE SWAP2 PUSH1 0x20 ADD SWAP2 PUSH2 0x222A JUMP JUMPDEST DUP3 ADD SWAP2 SWAP1 PUSH1 0x0 MSTORE PUSH1 0x20 PUSH1 0x0 KECCAK256 SWAP1 JUMPDEST DUP2 SLOAD DUP2 MSTORE SWAP1 PUSH1 0x1 ADD SWAP1 PUSH1 0x20 ADD DUP1 DUP4 GT PUSH2 0x220D JUMPI DUP3 SWAP1 SUB PUSH1 0x1F AND DUP3 ADD SWAP2 JUMPDEST POP POP POP POP POP DUP2 MSTORE POP POP DUP3 DUP3 DUP2 MLOAD DUP2 LT PUSH2 0x2245 JUMPI PUSH2 0x2245 PUSH2 0x4406 JUMP JUMPDEST PUSH1 0x20 MUL PUSH1 0x20 ADD ADD DUP2 SWAP1 MSTORE POP DUP1 DUP1 PUSH2 0x225B SWAP1 PUSH2 0x4492 JUMP JUMPDEST SWAP2 POP POP PUSH2 0x2143 JUMP JUMPDEST PUSH1 0xF DUP2 DUP2 SLOAD DUP2 LT PUSH2 0x2273 JUMPI PUSH1 0x0 DUP1 REVERT JUMPDEST PUSH1 0x0 SWAP2 DUP3 MSTORE PUSH1 0x20 SWAP1 SWAP2 KECCAK256 PUSH1 0x8 SWAP1 SWAP2 MUL ADD DUP1 SLOAD PUSH1 0x1 DUP3 ADD DUP1 SLOAD PUSH1 0x1 PUSH1 0x1 PUSH1 0xA0 SHL SUB SWAP1 SWAP3 AND SWAP4 POP SWAP1 PUSH2 0x1DE7 SWAP1 PUSH2 0x4239 JUMP JUMPDEST PUSH1 0x0 JUMPDEST DUP3 MLOAD DUP2 LT ISZERO PUSH2 0x2473 JUMPI PUSH1 0x0 PUSH1 0x1 PUSH1 0x1 PUSH1 0xA0 SHL SUB AND PUSH1 0xE DUP5 DUP4 DUP2 MLOAD DUP2 LT PUSH2 0x22CD JUMPI PUSH2 0x22CD PUSH2 0x4406 JUMP JUMPDEST PUSH1 0x20 MUL PUSH1 0x20 ADD ADD MLOAD PUSH1 0x40 MLOAD PUSH2 0x22E2 SWAP2 SWAP1 PUSH2 0x4204 JUMP JUMPDEST SWAP1 DUP2 MSTORE PUSH1 0x40 MLOAD SWAP1 DUP2 SWAP1 SUB PUSH1 0x20 ADD SWAP1 KECCAK256 SLOAD PUSH1 0x1 PUSH1 0x1 PUSH1 0xA0 SHL SUB AND SUB PUSH2 0x2461 JUMPI DUP2 DUP2 DUP2 MLOAD DUP2 LT PUSH2 0x2312 JUMPI PUSH2 0x2312 PUSH2 0x4406 JUMP JUMPDEST PUSH1 0x20 MUL PUSH1 0x20 ADD ADD MLOAD PUSH1 0xE DUP5 DUP4 DUP2 MLOAD DUP2 LT PUSH2 0x232E JUMPI PUSH2 0x232E PUSH2 0x4406 JUMP JUMPDEST PUSH1 0x20 MUL PUSH1 0x20 ADD ADD MLOAD PUSH1 0x40 MLOAD PUSH2 0x2343 SWAP2 SWAP1 PUSH2 0x4204 JUMP JUMPDEST SWAP1 DUP2 MSTORE PUSH1 0x40 MLOAD SWAP1 DUP2 SWAP1 SUB PUSH1 0x20 ADD SWAP1 KECCAK256 DUP1 SLOAD PUSH1 0x1 PUSH1 0x1 PUSH1 0xA0 SHL SUB SWAP3 SWAP1 SWAP3 AND PUSH1 0x1 PUSH1 0x1 PUSH1 0xA0 SHL SUB NOT SWAP1 SWAP3 AND SWAP2 SWAP1 SWAP2 OR SWAP1 SSTORE DUP3 MLOAD DUP4 SWAP1 DUP3 SWAP1 DUP2 LT PUSH2 0x2386 JUMPI PUSH2 0x2386 PUSH2 0x4406 JUMP JUMPDEST PUSH1 0x20 MUL PUSH1 0x20 ADD ADD MLOAD PUSH1 0xE DUP5 DUP4 DUP2 MLOAD DUP2 LT PUSH2 0x23A2 JUMPI PUSH2 0x23A2 PUSH2 0x4406 JUMP JUMPDEST PUSH1 0x20 MUL PUSH1 0x20 ADD ADD MLOAD PUSH1 0x40 MLOAD PUSH2 0x23B7 SWAP2 SWAP1 PUSH2 0x4204 JUMP JUMPDEST SWAP1 DUP2 MSTORE PUSH1 0x20 ADD PUSH1 0x40 MLOAD DUP1 SWAP2 SUB SWAP1 KECCAK256 PUSH1 0x1 ADD SWAP1 DUP1 MLOAD SWAP1 PUSH1 0x20 ADD SWAP1 PUSH2 0x23DB SWAP3 SWAP2 SWAP1 PUSH2 0x3628 JUMP JUMPDEST POP PUSH1 0x11 DUP4 DUP3 DUP2 MLOAD DUP2 LT PUSH2 0x23F0 JUMPI PUSH2 0x23F0 PUSH2 0x4406 JUMP JUMPDEST PUSH1 0x20 SWAP1 DUP2 MUL SWAP2 SWAP1 SWAP2 ADD DUP2 ADD MLOAD DUP3 SLOAD PUSH1 0x1 DUP2 ADD DUP5 SSTORE PUSH1 0x0 SWAP4 DUP5 MSTORE SWAP3 DUP3 SWAP1 KECCAK256 DUP2 MLOAD PUSH2 0x2422 SWAP5 SWAP2 SWAP1 SWAP2 ADD SWAP3 SWAP2 SWAP1 SWAP2 ADD SWAP1 PUSH2 0x3628 JUMP JUMPDEST POP DUP1 PUSH1 0xE DUP5 DUP4 DUP2 MLOAD DUP2 LT PUSH2 0x2438 JUMPI PUSH2 0x2438 PUSH2 0x4406 JUMP JUMPDEST PUSH1 0x20 MUL PUSH1 0x20 ADD ADD MLOAD PUSH1 0x40 MLOAD PUSH2 0x244D SWAP2 SWAP1 PUSH2 0x4204 JUMP JUMPDEST SWAP1 DUP2 MSTORE PUSH1 0x40 MLOAD SWAP1 DUP2 SWAP1 SUB PUSH1 0x20 ADD SWAP1 KECCAK256 PUSH1 0x7 ADD SSTORE JUMPDEST DUP1 PUSH2 0x246B DUP2 PUSH2 0x4492 JUMP JUMPDEST SWAP2 POP POP PUSH2 0x22A5 JUMP JUMPDEST POP POP POP JUMP JUMPDEST PUSH1 0x4 DUP1 SLOAD PUSH1 0x60 SWAP2 SWAP1 PUSH2 0x2489 SWAP1 PUSH2 0x4239 JUMP JUMPDEST DUP1 PUSH1 0x1F ADD PUSH1 0x20 DUP1 SWAP2 DIV MUL PUSH1 0x20 ADD PUSH1 0x40 MLOAD SWAP1 DUP2 ADD PUSH1 0x40 MSTORE DUP1 SWAP3 SWAP2 SWAP1 DUP2 DUP2 MSTORE PUSH1 0x20 ADD DUP3 DUP1 SLOAD PUSH2 0x24B5 SWAP1 PUSH2 0x4239 JUMP JUMPDEST DUP1 ISZERO PUSH2 0x2502 JUMPI DUP1 PUSH1 0x1F LT PUSH2 0x24D7 JUMPI PUSH2 0x100 DUP1 DUP4 SLOAD DIV MUL DUP4 MSTORE SWAP2 PUSH1 0x20 ADD SWAP2 PUSH2 0x2502 JUMP JUMPDEST DUP3 ADD SWAP2 SWAP1 PUSH1 0x0 MSTORE PUSH1 0x20 PUSH1 0x0 KECCAK256 SWAP1 JUMPDEST DUP2 SLOAD DUP2 MSTORE SWAP1 PUSH1 0x1 ADD SWAP1 PUSH1 0x20 ADD DUP1 DUP4 GT PUSH2 0x24E5 JUMPI DUP3 SWAP1 SUB PUSH1 0x1F AND DUP3 ADD SWAP2 JUMPDEST POP POP POP POP POP SWAP1 POP SWAP1 JUMP JUMPDEST SELFBALANCE DUP1 PUSH2 0x255A JUMPI PUSH1 0x40 MLOAD PUSH3 0x461BCD PUSH1 0xE5 SHL DUP2 MSTORE PUSH1 0x20 PUSH1 0x4 DUP3 ADD MSTORE PUSH1 0x18 PUSH1 0x24 DUP3 ADD MSTORE PUSH32 0x4E6F2045544820617661696C61626C6520746F20777261700000000000000000 PUSH1 0x44 DUP3 ADD MSTORE PUSH1 0x64 ADD PUSH2 0x8E9 JUMP JUMPDEST PUSH1 0x40 MLOAD PUSH4 0xAE8AA89 PUSH1 0xE3 SHL DUP2 MSTORE PUSH1 0xE SWAP1 PUSH1 0x4 ADD SWAP1 DUP2 MSTORE PUSH1 0x40 DUP1 MLOAD SWAP2 DUP3 SWAP1 SUB PUSH1 0x20 ADD DUP3 KECCAK256 SLOAD PUSH4 0xD0E30DB PUSH1 0xE4 SHL DUP4 MSTORE SWAP1 MLOAD PUSH1 0x1 PUSH1 0x1 PUSH1 0xA0 SHL SUB SWAP1 SWAP2 AND SWAP2 PUSH4 0xD0E30DB0 SWAP2 DUP5 SWAP2 PUSH1 0x4 DUP1 DUP3 ADD SWAP3 PUSH1 0x0 SWAP3 SWAP1 SWAP2 SWAP1 DUP3 SWAP1 SUB ADD DUP2 DUP6 DUP9 DUP1 EXTCODESIZE ISZERO DUP1 ISZERO PUSH2 0x25BF JUMPI PUSH1 0x0 DUP1 REVERT JUMPDEST POP GAS CALL ISZERO DUP1 ISZERO PUSH2 0x1EFC JUMPI RETURNDATASIZE PUSH1 0x0 DUP1 RETURNDATACOPY RETURNDATASIZE PUSH1 0x0 REVERT JUMPDEST PUSH1 0x60 PUSH1 0x11 DUP1 SLOAD DUP1 PUSH1 0x20 MUL PUSH1 0x20 ADD PUSH1 0x40 MLOAD SWAP1 DUP2 ADD PUSH1 0x40 MSTORE DUP1 SWAP3 SWAP2 SWAP1 DUP2 DUP2 MSTORE PUSH1 0x20 ADD PUSH1 0x0 SWAP1 JUMPDEST DUP3 DUP3 LT ISZERO PUSH2 0x26A3 JUMPI DUP4 DUP3 SWAP1 PUSH1 0x0 MSTORE PUSH1 0x20 PUSH1 0x0 KECCAK256 ADD DUP1 SLOAD PUSH2 0x2616 SWAP1 PUSH2 0x4239 JUMP JUMPDEST DUP1 PUSH1 0x1F ADD PUSH1 0x20 DUP1 SWAP2 DIV MUL PUSH1 0x20 ADD PUSH1 0x40 MLOAD SWAP1 DUP2 ADD PUSH1 0x40 MSTORE DUP1 SWAP3 SWAP2 SWAP1 DUP2 DUP2 MSTORE PUSH1 0x20 ADD DUP3 DUP1 SLOAD PUSH2 0x2642 SWAP1 PUSH2 0x4239 JUMP JUMPDEST DUP1 ISZERO PUSH2 0x268F JUMPI DUP1 PUSH1 0x1F LT PUSH2 0x2664 JUMPI PUSH2 0x100 DUP1 DUP4 SLOAD DIV MUL DUP4 MSTORE SWAP2 PUSH1 0x20 ADD SWAP2 PUSH2 0x268F JUMP JUMPDEST DUP3 ADD SWAP2 SWAP1 PUSH1 0x0 MSTORE PUSH1 0x20 PUSH1 0x0 KECCAK256 SWAP1 JUMPDEST DUP2 SLOAD DUP2 MSTORE SWAP1 PUSH1 0x1 ADD SWAP1 PUSH1 0x20 ADD DUP1 DUP4 GT PUSH2 0x2672 JUMPI DUP3 SWAP1 SUB PUSH1 0x1F AND DUP3 ADD SWAP2 JUMPDEST POP POP POP POP POP DUP2 MSTORE PUSH1 0x20 ADD SWAP1 PUSH1 0x1 ADD SWAP1 PUSH2 0x25F7 JUMP JUMPDEST POP POP POP POP SWAP1 POP SWAP1 JUMP JUMPDEST DUP1 MLOAD PUSH2 0x1DAC SWAP1 PUSH1 0x3 SWAP1 PUSH1 0x20 DUP5 ADD SWAP1 PUSH2 0x3628 JUMP JUMPDEST PUSH1 0x2 DUP1 SLOAD DUP2 SWAP1 PUSH2 0x26CE SWAP1 PUSH2 0x4239 JUMP JUMPDEST DUP1 PUSH1 0x1F ADD PUSH1 0x20 DUP1 SWAP2 DIV MUL PUSH1 0x20 ADD PUSH1 0x40 MLOAD SWAP1 DUP2 ADD PUSH1 0x40 MSTORE DUP1 SWAP3 SWAP2 SWAP1 DUP2 DUP2 MSTORE PUSH1 0x20 ADD DUP3 DUP1 SLOAD PUSH2 0x26FA SWAP1 PUSH2 0x4239 JUMP JUMPDEST DUP1 ISZERO PUSH2 0x2747 JUMPI DUP1 PUSH1 0x1F LT PUSH2 0x271C JUMPI PUSH2 0x100 DUP1 DUP4 SLOAD DIV MUL DUP4 MSTORE SWAP2 PUSH1 0x20 ADD SWAP2 PUSH2 0x2747 JUMP JUMPDEST DUP3 ADD SWAP2 SWAP1 PUSH1 0x0 MSTORE PUSH1 0x20 PUSH1 0x0 KECCAK256 SWAP1 JUMPDEST DUP2 SLOAD DUP2 MSTORE SWAP1 PUSH1 0x1 ADD SWAP1 PUSH1 0x20 ADD DUP1 DUP4 GT PUSH2 0x272A JUMPI DUP3 SWAP1 SUB PUSH1 0x1F AND DUP3 ADD SWAP2 JUMPDEST POP POP POP POP POP SWAP1 DUP1 PUSH1 0x1 ADD PUSH1 0x40 MLOAD DUP1 PUSH1 0x60 ADD PUSH1 0x40 MSTORE SWAP1 DUP2 PUSH1 0x0 DUP3 ADD DUP1 SLOAD PUSH2 0x276C SWAP1 PUSH2 0x4239 JUMP JUMPDEST DUP1 PUSH1 0x1F ADD PUSH1 0x20 DUP1 SWAP2 DIV MUL PUSH1 0x20 ADD PUSH1 0x40 MLOAD SWAP1 DUP2 ADD PUSH1 0x40 MSTORE DUP1 SWAP3 SWAP2 SWAP1 DUP2 DUP2 MSTORE PUSH1 0x20 ADD DUP3 DUP1 SLOAD PUSH2 0x2798 SWAP1 PUSH2 0x4239 JUMP JUMPDEST DUP1 ISZERO PUSH2 0x27E5 JUMPI DUP1 PUSH1 0x1F LT PUSH2 0x27BA JUMPI PUSH2 0x100 DUP1 DUP4 SLOAD DIV MUL DUP4 MSTORE SWAP2 PUSH1 0x20 ADD SWAP2 PUSH2 0x27E5 JUMP JUMPDEST DUP3 ADD SWAP2 SWAP1 PUSH1 0x0 MSTORE PUSH1 0x20 PUSH1 0x0 KECCAK256 SWAP1 JUMPDEST DUP2 SLOAD DUP2 MSTORE SWAP1 PUSH1 0x1 ADD SWAP1 PUSH1 0x20 ADD DUP1 DUP4 GT PUSH2 0x27C8 JUMPI DUP3 SWAP1 SUB PUSH1 0x1F AND DUP3 ADD SWAP2 JUMPDEST POP POP POP POP POP DUP2 MSTORE PUSH1 0x20 ADD PUSH1 0x1 DUP3 ADD DUP1 SLOAD PUSH2 0x27FE SWAP1 PUSH2 0x4239 JUMP JUMPDEST DUP1 PUSH1 0x1F ADD PUSH1 0x20 DUP1 SWAP2 DIV MUL PUSH1 0x20 ADD PUSH1 0x40 MLOAD SWAP1 DUP2 ADD PUSH1 0x40 MSTORE DUP1 SWAP3 SWAP2 SWAP1 DUP2 DUP2 MSTORE PUSH1 0x20 ADD DUP3 DUP1 SLOAD PUSH2 0x282A SWAP1 PUSH2 0x4239 JUMP JUMPDEST DUP1 ISZERO PUSH2 0x2877 JUMPI DUP1 PUSH1 0x1F LT PUSH2 0x284C JUMPI PUSH2 0x100 DUP1 DUP4 SLOAD DIV MUL DUP4 MSTORE SWAP2 PUSH1 0x20 ADD SWAP2 PUSH2 0x2877 JUMP JUMPDEST DUP3 ADD SWAP2 SWAP1 PUSH1 0x0 MSTORE PUSH1 0x20 PUSH1 0x0 KECCAK256 SWAP1 JUMPDEST DUP2 SLOAD DUP2 MSTORE SWAP1 PUSH1 0x1 ADD SWAP1 PUSH1 0x20 ADD DUP1 DUP4 GT PUSH2 0x285A JUMPI DUP3 SWAP1 SUB PUSH1 0x1F AND DUP3 ADD SWAP2 JUMPDEST POP POP POP POP POP DUP2 MSTORE PUSH1 0x20 ADD PUSH1 0x2 DUP3 ADD DUP1 SLOAD PUSH2 0x2890 SWAP1 PUSH2 0x4239 JUMP JUMPDEST DUP1 PUSH1 0x1F ADD PUSH1 0x20 DUP1 SWAP2 DIV MUL PUSH1 0x20 ADD PUSH1 0x40 MLOAD SWAP1 DUP2 ADD PUSH1 0x40 MSTORE DUP1 SWAP3 SWAP2 SWAP1 DUP2 DUP2 MSTORE PUSH1 0x20 ADD DUP3 DUP1 SLOAD PUSH2 0x28BC SWAP1 PUSH2 0x4239 JUMP JUMPDEST DUP1 ISZERO PUSH2 0x2909 JUMPI DUP1 PUSH1 0x1F LT PUSH2 0x28DE JUMPI PUSH2 0x100 DUP1 DUP4 SLOAD DIV MUL DUP4 MSTORE SWAP2 PUSH1 0x20 ADD SWAP2 PUSH2 0x2909 JUMP JUMPDEST DUP3 ADD SWAP2 SWAP1 PUSH1 0x0 MSTORE PUSH1 0x20 PUSH1 0x0 KECCAK256 SWAP1 JUMPDEST DUP2 SLOAD DUP2 MSTORE SWAP1 PUSH1 0x1 ADD SWAP1 PUSH1 0x20 ADD DUP1 DUP4 GT PUSH2 0x28EC JUMPI DUP3 SWAP1 SUB PUSH1 0x1F AND DUP3 ADD SWAP2 JUMPDEST POP POP POP POP POP DUP2 MSTORE POP POP SWAP1 POP DUP3 JUMP JUMPDEST PUSH1 0x12 DUP1 SLOAD PUSH1 0x13 SLOAD PUSH1 0x14 SLOAD PUSH1 0x15 SLOAD PUSH1 0x16 DUP1 SLOAD SWAP5 SWAP6 SWAP4 SWAP5 SWAP3 SWAP4 SWAP2 SWAP3 PUSH2 0x2037 SWAP1 PUSH2 0x4239 JUMP JUMPDEST PUSH1 0x0 DUP1 SLOAD PUSH1 0x40 MLOAD PUSH4 0x1EBB3073 PUSH1 0xE1 SHL DUP2 MSTORE CALLER PUSH1 0x4 DUP3 ADD MSTORE DUP3 SWAP2 PUSH1 0x1 PUSH1 0x1 PUSH1 0xA0 SHL SUB AND SWAP1 PUSH4 0x3D7660E6 SWAP1 PUSH1 0x24 ADD PUSH1 0x0 PUSH1 0x40 MLOAD DUP1 DUP4 SUB DUP2 DUP7 GAS STATICCALL ISZERO DUP1 ISZERO PUSH2 0x2982 JUMPI RETURNDATASIZE PUSH1 0x0 DUP1 RETURNDATACOPY RETURNDATASIZE PUSH1 0x0 REVERT JUMPDEST POP POP POP POP PUSH1 0x40 MLOAD RETURNDATASIZE PUSH1 0x0 DUP3 RETURNDATACOPY PUSH1 0x1F RETURNDATASIZE SWAP1 DUP2 ADD PUSH1 0x1F NOT AND DUP3 ADD PUSH1 0x40 MSTORE PUSH2 0x29AA SWAP2 SWAP1 DUP2 ADD SWAP1 PUSH2 0x426D JUMP JUMPDEST SWAP1 POP PUSH1 0x0 DUP1 JUMPDEST DUP3 MLOAD DUP2 LT ISZERO PUSH2 0x9AD JUMPI DUP3 DUP2 DUP2 MLOAD DUP2 LT PUSH2 0x29CB JUMPI PUSH2 0x29CB PUSH2 0x4406 JUMP JUMPDEST PUSH1 0x20 MUL PUSH1 0x20 ADD ADD MLOAD PUSH1 0x20 ADD MLOAD DUP3 PUSH2 0x29E2 SWAP2 SWAP1 PUSH2 0x4612 JUMP JUMPDEST SWAP2 POP DUP1 PUSH2 0x29EE DUP2 PUSH2 0x4492 JUMP JUMPDEST SWAP2 POP POP PUSH2 0x29B0 JUMP JUMPDEST PUSH1 0x0 JUMPDEST DUP2 MLOAD DUP2 LT ISZERO PUSH2 0x1DAC JUMPI PUSH1 0x0 PUSH1 0xE DUP4 DUP4 DUP2 MLOAD DUP2 LT PUSH2 0x2A18 JUMPI PUSH2 0x2A18 PUSH2 0x4406 JUMP JUMPDEST PUSH1 0x20 MUL PUSH1 0x20 ADD ADD MLOAD PUSH1 0x40 MLOAD PUSH2 0x2A2D SWAP2 SWAP1 PUSH2 0x4204 JUMP JUMPDEST SWAP1 DUP2 MSTORE PUSH1 0x20 ADD PUSH1 0x40 MLOAD DUP1 SWAP2 SUB SWAP1 KECCAK256 PUSH1 0x7 ADD SLOAD SWAP1 POP PUSH1 0x11 DUP2 DUP2 SLOAD DUP2 LT PUSH2 0x2A54 JUMPI PUSH2 0x2A54 PUSH2 0x4406 JUMP JUMPDEST SWAP1 PUSH1 0x0 MSTORE PUSH1 0x20 PUSH1 0x0 KECCAK256 ADD PUSH1 0x0 PUSH2 0x2A6A SWAP2 SWAP1 PUSH2 0x369C JUMP JUMPDEST PUSH1 0xE DUP4 DUP4 DUP2 MLOAD DUP2 LT PUSH2 0x2A7E JUMPI PUSH2 0x2A7E PUSH2 0x4406 JUMP JUMPDEST PUSH1 0x20 MUL PUSH1 0x20 ADD ADD MLOAD PUSH1 0x40 MLOAD PUSH2 0x2A93 SWAP2 SWAP1 PUSH2 0x4204 JUMP JUMPDEST SWAP1 DUP2 MSTORE PUSH1 0x40 MLOAD SWAP1 DUP2 SWAP1 SUB PUSH1 0x20 ADD SWAP1 KECCAK256 DUP1 SLOAD PUSH1 0x1 PUSH1 0x1 PUSH1 0xA0 SHL SUB NOT AND DUP2 SSTORE PUSH1 0x0 PUSH2 0x2ABF PUSH1 0x1 DUP4 ADD DUP3 PUSH2 0x369C JUMP JUMPDEST POP PUSH1 0x0 PUSH1 0x2 DUP3 ADD DUP2 SWAP1 SSTORE PUSH1 0x3 DUP3 ADD DUP2 SWAP1 SSTORE PUSH1 0x4 DUP3 ADD DUP2 SWAP1 SSTORE PUSH1 0x5 DUP3 ADD DUP2 SWAP1 SSTORE PUSH1 0x6 DUP3 ADD DUP2 SWAP1 SSTORE PUSH1 0x7 SWAP1 SWAP2 ADD SSTORE POP DUP1 PUSH2 0x2AF6 DUP2 PUSH2 0x4492 JUMP JUMPDEST SWAP2 POP POP PUSH2 0x29F9 JUMP JUMPDEST PUSH1 0x7 DUP1 SLOAD PUSH2 0x7AA SWAP1 PUSH2 0x4239 JUMP JUMPDEST PUSH32 0x75A464F58860044BCB7B0DDBDE1C4C37C4D04DB7626764710E98132327A830EF DUP4 DUP4 PUSH1 0x40 MLOAD PUSH2 0x2B3C SWAP3 SWAP2 SWAP1 PUSH2 0x47D1 JUMP JUMPDEST PUSH1 0x40 MLOAD DUP1 SWAP2 SUB SWAP1 LOG1 DUP1 ISZERO PUSH2 0x2473 JUMPI PUSH1 0x0 PUSH1 0x18 SLOAD DUP4 PUSH2 0x2B73 DUP7 PUSH1 0x0 DUP2 MLOAD DUP2 LT PUSH2 0x2B66 JUMPI PUSH2 0x2B66 PUSH2 0x4406 JUMP JUMPDEST PUSH1 0x20 MUL PUSH1 0x20 ADD ADD MLOAD PUSH2 0x70C JUMP JUMPDEST PUSH2 0x2B7D SWAP2 SWAP1 PUSH2 0x4449 JUMP JUMPDEST PUSH2 0x2B87 SWAP2 SWAP1 PUSH2 0x447E JUMP JUMPDEST SWAP1 POP PUSH32 0x75A464F58860044BCB7B0DDBDE1C4C37C4D04DB7626764710E98132327A830EF DUP5 DUP3 PUSH1 0x40 MLOAD PUSH2 0x2BBA SWAP3 SWAP2 SWAP1 PUSH2 0x47D1 JUMP JUMPDEST PUSH1 0x40 MLOAD DUP1 SWAP2 SUB SWAP1 LOG1 PUSH2 0x1B02 DUP5 DUP3 PUSH2 0x1B08 JUMP JUMPDEST PUSH1 0x0 CALLVALUE GT PUSH2 0x2C11 JUMPI PUSH1 0x40 MLOAD PUSH3 0x461BCD PUSH1 0xE5 SHL DUP2 MSTORE PUSH1 0x20 PUSH1 0x4 DUP3 ADD MSTORE PUSH1 0x12 PUSH1 0x24 DUP3 ADD MSTORE PUSH18 0x6D73672E76616C756520697320302066616D PUSH1 0x70 SHL PUSH1 0x44 DUP3 ADD MSTORE PUSH1 0x64 ADD PUSH2 0x8E9 JUMP JUMPDEST PUSH2 0x2C19 PUSH2 0x250C JUMP JUMPDEST PUSH2 0x2C21 PUSH2 0xE1B JUMP JUMPDEST PUSH1 0x13 SLOAD PUSH2 0x2C2F SWAP1 CALLVALUE SWAP1 PUSH2 0x4612 JUMP JUMPDEST PUSH1 0x13 SSTORE PUSH2 0x2C3A PUSH2 0x36D9 JUMP JUMPDEST CALLVALUE DUP1 DUP3 MSTORE PUSH1 0x20 DUP1 DUP4 ADD SWAP2 SWAP1 SWAP2 MSTORE NUMBER PUSH1 0x40 DUP1 DUP5 ADD SWAP2 SWAP1 SWAP2 MSTORE DUP1 MLOAD PUSH1 0xA0 DUP2 ADD DUP3 MSTORE PUSH1 0x12 DUP1 SLOAD DUP3 MSTORE PUSH1 0x13 SLOAD SWAP4 DUP3 ADD SWAP4 SWAP1 SWAP4 MSTORE PUSH1 0x14 SLOAD SWAP2 DUP2 ADD SWAP2 SWAP1 SWAP2 MSTORE PUSH1 0x15 SLOAD PUSH1 0x60 DUP3 ADD MSTORE PUSH1 0x16 DUP1 SLOAD SWAP2 SWAP3 SWAP2 PUSH1 0x80 DUP5 ADD SWAP2 SWAP1 PUSH2 0x2C91 SWAP1 PUSH2 0x4239 JUMP JUMPDEST DUP1 PUSH1 0x1F ADD PUSH1 0x20 DUP1 SWAP2 DIV MUL PUSH1 0x20 ADD PUSH1 0x40 MLOAD SWAP1 DUP2 ADD PUSH1 0x40 MSTORE DUP1 SWAP3 SWAP2 SWAP1 DUP2 DUP2 MSTORE PUSH1 0x20 ADD DUP3 DUP1 SLOAD PUSH2 0x2CBD SWAP1 PUSH2 0x4239 JUMP JUMPDEST DUP1 ISZERO PUSH2 0x2D0A JUMPI DUP1 PUSH1 0x1F LT PUSH2 0x2CDF JUMPI PUSH2 0x100 DUP1 DUP4 SLOAD DIV MUL DUP4 MSTORE SWAP2 PUSH1 0x20 ADD SWAP2 PUSH2 0x2D0A JUMP JUMPDEST DUP3 ADD SWAP2 SWAP1 PUSH1 0x0 MSTORE PUSH1 0x20 PUSH1 0x0 KECCAK256 SWAP1 JUMPDEST DUP2 SLOAD DUP2 MSTORE SWAP1 PUSH1 0x1 ADD SWAP1 PUSH1 0x20 ADD DUP1 DUP4 GT PUSH2 0x2CED JUMPI DUP3 SWAP1 SUB PUSH1 0x1F AND DUP3 ADD SWAP2 JUMPDEST POP POP POP SWAP2 SWAP1 SWAP3 MSTORE POP POP POP PUSH1 0x60 DUP3 ADD MSTORE PUSH1 0x0 SLOAD PUSH1 0x40 MLOAD PUSH4 0xB1D1D00B PUSH1 0xE0 SHL DUP2 MSTORE PUSH1 0x1 PUSH1 0x1 PUSH1 0xA0 SHL SUB SWAP1 SWAP2 AND SWAP1 PUSH4 0xB1D1D00B SWAP1 PUSH2 0x2D4B SWAP1 CALLER SWAP1 DUP6 SWAP1 PUSH1 0x4 ADD PUSH2 0x482F JUMP JUMPDEST PUSH1 0x0 PUSH1 0x40 MLOAD DUP1 DUP4 SUB DUP2 PUSH1 0x0 DUP8 DUP1 EXTCODESIZE ISZERO DUP1 ISZERO PUSH2 0x2D65 JUMPI PUSH1 0x0 DUP1 REVERT JUMPDEST POP GAS CALL ISZERO DUP1 ISZERO PUSH2 0x1D92 JUMPI RETURNDATASIZE PUSH1 0x0 DUP1 RETURNDATACOPY RETURNDATASIZE PUSH1 0x0 REVERT JUMPDEST PUSH2 0x2D81 PUSH2 0xE1B JUMP JUMPDEST PUSH1 0x40 DUP1 MLOAD PUSH1 0x2 DUP1 DUP3 MSTORE PUSH1 0x60 DUP3 ADD SWAP1 SWAP3 MSTORE PUSH1 0x0 SWAP2 DUP2 PUSH1 0x20 ADD JUMPDEST PUSH1 0x60 DUP2 MSTORE PUSH1 0x20 ADD SWAP1 PUSH1 0x1 SWAP1 SUB SWAP1 DUP2 PUSH2 0x2D99 JUMPI SWAP1 POP POP SWAP1 POP PUSH1 0x60 PUSH1 0x0 DUP1 PUSH1 0x0 JUMPDEST DUP8 MLOAD DUP2 LT ISZERO PUSH2 0x31B4 JUMPI DUP8 DUP2 DUP2 MLOAD DUP2 LT PUSH2 0x2DD3 JUMPI PUSH2 0x2DD3 PUSH2 0x4406 JUMP JUMPDEST PUSH1 0x20 MUL PUSH1 0x20 ADD ADD MLOAD SWAP4 POP PUSH2 0x2E7D PUSH1 0x12 PUSH1 0x4 ADD DUP1 SLOAD PUSH2 0x2DF0 SWAP1 PUSH2 0x4239 JUMP JUMPDEST DUP1 PUSH1 0x1F ADD PUSH1 0x20 DUP1 SWAP2 DIV MUL PUSH1 0x20 ADD PUSH1 0x40 MLOAD SWAP1 DUP2 ADD PUSH1 0x40 MSTORE DUP1 SWAP3 SWAP2 SWAP1 DUP2 DUP2 MSTORE PUSH1 0x20 ADD DUP3 DUP1 SLOAD PUSH2 0x2E1C SWAP1 PUSH2 0x4239 JUMP JUMPDEST DUP1 ISZERO PUSH2 0x2E69 JUMPI DUP1 PUSH1 0x1F LT PUSH2 0x2E3E JUMPI PUSH2 0x100 DUP1 DUP4 SLOAD DIV MUL DUP4 MSTORE SWAP2 PUSH1 0x20 ADD SWAP2 PUSH2 0x2E69 JUMP JUMPDEST DUP3 ADD SWAP2 SWAP1 PUSH1 0x0 MSTORE PUSH1 0x20 PUSH1 0x0 KECCAK256 SWAP1 JUMPDEST DUP2 SLOAD DUP2 MSTORE SWAP1 PUSH1 0x1 ADD SWAP1 PUSH1 0x20 ADD DUP1 DUP4 GT PUSH2 0x2E4C JUMPI DUP3 SWAP1 SUB PUSH1 0x1F AND DUP3 ADD SWAP2 JUMPDEST POP POP POP POP POP DUP6 PUSH2 0x343D SWAP1 SWAP2 SWAP1 PUSH4 0xFFFFFFFF AND JUMP JUMPDEST PUSH2 0x31A2 JUMPI PUSH1 0x0 PUSH1 0x1 PUSH1 0x1 PUSH1 0xA0 SHL SUB AND PUSH1 0xE DUP6 PUSH1 0x40 MLOAD PUSH2 0x2E9C SWAP2 SWAP1 PUSH2 0x4204 JUMP JUMPDEST SWAP1 DUP2 MSTORE PUSH1 0x40 MLOAD SWAP1 DUP2 SWAP1 SUB PUSH1 0x20 ADD SWAP1 KECCAK256 SLOAD PUSH1 0x1 PUSH1 0x1 PUSH1 0xA0 SHL SUB AND SUB PUSH2 0x2F1D JUMPI PUSH1 0x40 MLOAD PUSH3 0x461BCD PUSH1 0xE5 SHL DUP2 MSTORE PUSH1 0x20 PUSH1 0x4 DUP3 ADD MSTORE PUSH1 0x32 PUSH1 0x24 DUP3 ADD MSTORE PUSH32 0x5468652053796D626F6C2070726F7669646564206973206E6F7420696E207468 PUSH1 0x44 DUP3 ADD MSTORE PUSH18 0x6520506F7274666F6C696F20546F6B656E73 PUSH1 0x70 SHL PUSH1 0x64 DUP3 ADD MSTORE PUSH1 0x84 ADD PUSH2 0x8E9 JUMP JUMPDEST PUSH1 0xE DUP5 PUSH1 0x40 MLOAD PUSH2 0x2F2D SWAP2 SWAP1 PUSH2 0x4204 JUMP JUMPDEST SWAP1 DUP2 MSTORE PUSH1 0x20 ADD PUSH1 0x40 MLOAD DUP1 SWAP2 SUB SWAP1 KECCAK256 PUSH1 0x4 ADD SLOAD DUP8 DUP3 DUP2 MLOAD DUP2 LT PUSH2 0x2F51 JUMPI PUSH2 0x2F51 PUSH2 0x4406 JUMP JUMPDEST PUSH1 0x20 MUL PUSH1 0x20 ADD ADD MLOAD PUSH2 0x2F63 SWAP2 SWAP1 PUSH2 0x4853 JUMP JUMPDEST SWAP3 POP PUSH1 0x0 PUSH1 0xE DUP6 PUSH1 0x40 MLOAD PUSH2 0x2F77 SWAP2 SWAP1 PUSH2 0x4204 JUMP JUMPDEST SWAP1 DUP2 MSTORE PUSH1 0x20 ADD PUSH1 0x40 MLOAD DUP1 SWAP2 SUB SWAP1 KECCAK256 PUSH1 0x3 ADD SLOAD SWAP1 POP PUSH1 0x0 DUP5 SLT ISZERO PUSH2 0x3109 JUMPI DUP5 DUP7 PUSH1 0x0 DUP2 MLOAD DUP2 LT PUSH2 0x2FA8 JUMPI PUSH2 0x2FA8 PUSH2 0x4406 JUMP JUMPDEST PUSH1 0x20 MUL PUSH1 0x20 ADD ADD DUP2 SWAP1 MSTORE POP PUSH1 0x6 DUP1 SLOAD PUSH2 0x2FC0 SWAP1 PUSH2 0x4239 JUMP JUMPDEST DUP1 PUSH1 0x1F ADD PUSH1 0x20 DUP1 SWAP2 DIV MUL PUSH1 0x20 ADD PUSH1 0x40 MLOAD SWAP1 DUP2 ADD PUSH1 0x40 MSTORE DUP1 SWAP3 SWAP2 SWAP1 DUP2 DUP2 MSTORE PUSH1 0x20 ADD DUP3 DUP1 SLOAD PUSH2 0x2FEC SWAP1 PUSH2 0x4239 JUMP JUMPDEST DUP1 ISZERO PUSH2 0x3039 JUMPI DUP1 PUSH1 0x1F LT PUSH2 0x300E JUMPI PUSH2 0x100 DUP1 DUP4 SLOAD DIV MUL DUP4 MSTORE SWAP2 PUSH1 0x20 ADD SWAP2 PUSH2 0x3039 JUMP JUMPDEST DUP3 ADD SWAP2 SWAP1 PUSH1 0x0 MSTORE PUSH1 0x20 PUSH1 0x0 KECCAK256 SWAP1 JUMPDEST DUP2 SLOAD DUP2 MSTORE SWAP1 PUSH1 0x1 ADD SWAP1 PUSH1 0x20 ADD DUP1 DUP4 GT PUSH2 0x301C JUMPI DUP3 SWAP1 SUB PUSH1 0x1F AND DUP3 ADD SWAP2 JUMPDEST POP POP POP POP POP DUP7 PUSH1 0x1 DUP2 MLOAD DUP2 LT PUSH2 0x3051 JUMPI PUSH2 0x3051 PUSH2 0x4406 JUMP JUMPDEST PUSH1 0x20 MUL PUSH1 0x20 ADD ADD DUP2 SWAP1 MSTORE POP PUSH1 0xE DUP6 PUSH1 0x40 MLOAD PUSH2 0x306C SWAP2 SWAP1 PUSH2 0x4204 JUMP JUMPDEST SWAP1 DUP2 MSTORE PUSH1 0x20 ADD PUSH1 0x40 MLOAD DUP1 SWAP2 SUB SWAP1 KECCAK256 PUSH1 0x4 ADD SLOAD PUSH1 0x18 SLOAD DUP6 PUSH2 0x308C SWAP2 SWAP1 PUSH2 0x4892 JUMP JUMPDEST PUSH2 0x3096 SWAP2 SWAP1 PUSH2 0x4917 JUMP JUMPDEST PUSH1 0x18 SLOAD SWAP1 SWAP4 POP PUSH2 0x30A6 DUP3 DUP6 PUSH2 0x4892 JUMP JUMPDEST PUSH2 0x30B0 SWAP2 SWAP1 PUSH2 0x4917 JUMP JUMPDEST PUSH1 0xE DUP7 PUSH1 0x40 MLOAD PUSH2 0x30C0 SWAP2 SWAP1 PUSH2 0x4204 JUMP JUMPDEST SWAP1 DUP2 MSTORE PUSH1 0x20 ADD PUSH1 0x40 MLOAD DUP1 SWAP2 SUB SWAP1 KECCAK256 PUSH1 0x5 ADD DUP2 SWAP1 SSTORE POP PUSH2 0x3104 DUP7 PUSH1 0xE DUP8 PUSH1 0x40 MLOAD PUSH2 0x30E9 SWAP2 SWAP1 PUSH2 0x4204 JUMP JUMPDEST SWAP1 DUP2 MSTORE PUSH1 0x20 ADD PUSH1 0x40 MLOAD DUP1 SWAP2 SUB SWAP1 KECCAK256 PUSH1 0x5 ADD SLOAD PUSH2 0x3B0 SWAP1 PUSH2 0x4945 JUMP JUMPDEST PUSH2 0x3147 JUMP JUMPDEST PUSH1 0x18 SLOAD PUSH1 0x12 SLOAD PUSH2 0x3119 SWAP1 DUP7 PUSH2 0x4892 JUMP JUMPDEST PUSH2 0x3123 SWAP2 SWAP1 PUSH2 0x4917 JUMP JUMPDEST PUSH1 0xE DUP7 PUSH1 0x40 MLOAD PUSH2 0x3133 SWAP2 SWAP1 PUSH2 0x4204 JUMP JUMPDEST SWAP1 DUP2 MSTORE PUSH1 0x40 MLOAD SWAP1 DUP2 SWAP1 SUB PUSH1 0x20 ADD SWAP1 KECCAK256 PUSH1 0x5 ADD SSTORE JUMPDEST PUSH32 0x9B0C6CC9262D1C15CE375DDEFD7D9B7D501BCF383890FE59FDB2D99370818BFA DUP6 PUSH1 0xE DUP8 PUSH1 0x40 MLOAD PUSH2 0x3179 SWAP2 SWAP1 PUSH2 0x4204 JUMP JUMPDEST SWAP1 DUP2 MSTORE PUSH1 0x40 MLOAD SWAP1 DUP2 SWAP1 SUB PUSH1 0x20 ADD DUP2 KECCAK256 PUSH1 0x5 ADD SLOAD PUSH2 0x3198 SWAP3 SWAP2 DUP6 SWAP1 PUSH2 0x4961 JUMP JUMPDEST PUSH1 0x40 MLOAD DUP1 SWAP2 SUB SWAP1 LOG1 POP JUMPDEST DUP1 PUSH2 0x31AC DUP2 PUSH2 0x4492 JUMP JUMPDEST SWAP2 POP POP PUSH2 0x2DB8 JUMP JUMPDEST POP PUSH1 0x0 JUMPDEST DUP8 MLOAD DUP2 LT ISZERO PUSH2 0x32B5 JUMPI DUP8 DUP2 DUP2 MLOAD DUP2 LT PUSH2 0x31D3 JUMPI PUSH2 0x31D3 PUSH2 0x4406 JUMP JUMPDEST PUSH1 0x20 MUL PUSH1 0x20 ADD ADD MLOAD SWAP4 POP PUSH2 0x31F0 PUSH1 0x12 PUSH1 0x4 ADD DUP1 SLOAD PUSH2 0x2DF0 SWAP1 PUSH2 0x4239 JUMP JUMPDEST PUSH2 0x32A3 JUMPI PUSH1 0x0 PUSH1 0xE DUP6 PUSH1 0x40 MLOAD PUSH2 0x3206 SWAP2 SWAP1 PUSH2 0x4204 JUMP JUMPDEST SWAP1 DUP2 MSTORE PUSH1 0x20 ADD PUSH1 0x40 MLOAD DUP1 SWAP2 SUB SWAP1 KECCAK256 PUSH1 0x5 ADD SLOAD SGT ISZERO PUSH2 0x32A3 JUMPI PUSH1 0x40 MLOAD DUP1 PUSH1 0x40 ADD PUSH1 0x40 MSTORE DUP1 PUSH1 0x4 DUP2 MSTORE PUSH1 0x20 ADD PUSH4 0xAE8AA89 PUSH1 0xE3 SHL DUP2 MSTORE POP DUP6 PUSH1 0x0 DUP2 MLOAD DUP2 LT PUSH2 0x324E JUMPI PUSH2 0x324E PUSH2 0x4406 JUMP JUMPDEST PUSH1 0x20 MUL PUSH1 0x20 ADD ADD DUP2 SWAP1 MSTORE POP DUP4 DUP6 PUSH1 0x1 DUP2 MLOAD DUP2 LT PUSH2 0x326D JUMPI PUSH2 0x326D PUSH2 0x4406 JUMP JUMPDEST PUSH1 0x20 MUL PUSH1 0x20 ADD ADD DUP2 SWAP1 MSTORE POP PUSH2 0x32A3 DUP6 PUSH1 0xE DUP7 PUSH1 0x40 MLOAD PUSH2 0x328C SWAP2 SWAP1 PUSH2 0x4204 JUMP JUMPDEST SWAP1 DUP2 MSTORE PUSH1 0x20 ADD PUSH1 0x40 MLOAD DUP1 SWAP2 SUB SWAP1 KECCAK256 PUSH1 0x5 ADD SLOAD PUSH2 0x1B08 JUMP JUMPDEST DUP1 PUSH2 0x32AD DUP2 PUSH2 0x4492 JUMP JUMPDEST SWAP2 POP POP PUSH2 0x31B8 JUMP JUMPDEST POP PUSH2 0x32BE PUSH2 0xE1B JUMP JUMPDEST POP POP POP POP POP POP POP JUMP JUMPDEST DUP1 MLOAD PUSH2 0x1DAC SWAP1 PUSH1 0x16 SWAP1 PUSH1 0x20 DUP5 ADD SWAP1 PUSH2 0x3628 JUMP JUMPDEST PUSH1 0x10 DUP3 DUP2 SLOAD DUP2 LT PUSH2 0x32EA JUMPI PUSH1 0x0 DUP1 REVERT JUMPDEST SWAP1 PUSH1 0x0 MSTORE PUSH1 0x20 PUSH1 0x0 KECCAK256 ADD DUP2 DUP2 SLOAD DUP2 LT PUSH2 0x3302 JUMPI PUSH1 0x0 DUP1 REVERT JUMPDEST PUSH1 0x0 SWAP2 DUP3 MSTORE PUSH1 0x20 SWAP1 SWAP2 KECCAK256 PUSH1 0x8 SWAP1 SWAP2 MUL ADD DUP1 SLOAD PUSH1 0x1 DUP3 ADD DUP1 SLOAD PUSH1 0x1 PUSH1 0x1 PUSH1 0xA0 SHL SUB SWAP1 SWAP3 AND SWAP5 POP SWAP2 SWAP3 POP PUSH2 0x1DE7 SWAP1 PUSH2 0x4239 JUMP JUMPDEST PUSH1 0x3 DUP1 SLOAD PUSH1 0x60 SWAP2 SWAP1 PUSH2 0x2489 SWAP1 PUSH2 0x4239 JUMP JUMPDEST PUSH1 0x40 DUP1 MLOAD PUSH1 0x1 PUSH1 0x1 PUSH1 0xA0 SHL SUB DUP5 DUP2 AND PUSH1 0x24 DUP4 ADD MSTORE PUSH1 0x44 DUP1 DUP4 ADD DUP6 SWAP1 MSTORE DUP4 MLOAD DUP1 DUP5 SUB SWAP1 SWAP2 ADD DUP2 MSTORE PUSH1 0x64 SWAP1 SWAP3 ADD DUP4 MSTORE PUSH1 0x20 DUP3 ADD DUP1 MLOAD PUSH1 0x1 PUSH1 0x1 PUSH1 0xE0 SHL SUB AND PUSH4 0x95EA7B3 PUSH1 0xE0 SHL OR SWAP1 MSTORE SWAP2 MLOAD PUSH1 0x0 SWAP3 DUP4 SWAP3 SWAP1 DUP8 AND SWAP2 PUSH2 0x33A0 SWAP2 SWAP1 PUSH2 0x4204 JUMP JUMPDEST PUSH1 0x0 PUSH1 0x40 MLOAD DUP1 DUP4 SUB DUP2 PUSH1 0x0 DUP7 GAS CALL SWAP2 POP POP RETURNDATASIZE DUP1 PUSH1 0x0 DUP2 EQ PUSH2 0x33DD JUMPI PUSH1 0x40 MLOAD SWAP2 POP PUSH1 0x1F NOT PUSH1 0x3F RETURNDATASIZE ADD AND DUP3 ADD PUSH1 0x40 MSTORE RETURNDATASIZE DUP3 MSTORE RETURNDATASIZE PUSH1 0x0 PUSH1 0x20 DUP5 ADD RETURNDATACOPY PUSH2 0x33E2 JUMP JUMPDEST PUSH1 0x60 SWAP2 POP JUMPDEST POP SWAP2 POP SWAP2 POP DUP2 DUP1 ISZERO PUSH2 0x340C JUMPI POP DUP1 MLOAD ISZERO DUP1 PUSH2 0x340C JUMPI POP DUP1 DUP1 PUSH1 0x20 ADD SWAP1 MLOAD DUP2 ADD SWAP1 PUSH2 0x340C SWAP2 SWAP1 PUSH2 0x479B JUMP JUMPDEST PUSH2 0x1D92 JUMPI PUSH1 0x40 MLOAD PUSH3 0x461BCD PUSH1 0xE5 SHL DUP2 MSTORE PUSH1 0x20 PUSH1 0x4 DUP3 ADD MSTORE PUSH1 0x2 PUSH1 0x24 DUP3 ADD MSTORE PUSH2 0x5341 PUSH1 0xF0 SHL PUSH1 0x44 DUP3 ADD MSTORE PUSH1 0x64 ADD PUSH2 0x8E9 JUMP JUMPDEST PUSH1 0x0 DUP2 PUSH1 0x40 MLOAD PUSH1 0x20 ADD PUSH2 0x3450 SWAP2 SWAP1 PUSH2 0x4204 JUMP JUMPDEST PUSH1 0x40 MLOAD PUSH1 0x20 DUP2 DUP4 SUB SUB DUP2 MSTORE SWAP1 PUSH1 0x40 MSTORE DUP1 MLOAD SWAP1 PUSH1 0x20 ADD KECCAK256 DUP4 PUSH1 0x40 MLOAD PUSH1 0x20 ADD PUSH2 0x3477 SWAP2 SWAP1 PUSH2 0x4204 JUMP JUMPDEST PUSH1 0x40 MLOAD PUSH1 0x20 DUP2 DUP4 SUB SUB DUP2 MSTORE SWAP1 PUSH1 0x40 MSTORE DUP1 MLOAD SWAP1 PUSH1 0x20 ADD KECCAK256 EQ SWAP1 POP SWAP3 SWAP2 POP POP JUMP JUMPDEST PUSH1 0x40 MLOAD DUP1 PUSH1 0x40 ADD PUSH1 0x40 MSTORE DUP1 PUSH1 0x60 DUP2 MSTORE PUSH1 0x20 ADD PUSH2 0x34CC PUSH1 0x40 MLOAD DUP1 PUSH1 0x60 ADD PUSH1 0x40 MSTORE DUP1 PUSH1 0x60 DUP2 MSTORE PUSH1 0x20 ADD PUSH1 0x60 DUP2 MSTORE PUSH1 0x20 ADD PUSH1 0x60 DUP2 MSTORE POP SWAP1 JUMP JUMPDEST SWAP1 MSTORE SWAP1 JUMP JUMPDEST DUP3 DUP1 SLOAD PUSH2 0x34DD SWAP1 PUSH2 0x4239 JUMP JUMPDEST SWAP1 PUSH1 0x0 MSTORE PUSH1 0x20 PUSH1 0x0 KECCAK256 SWAP1 PUSH1 0x1F ADD PUSH1 0x20 SWAP1 DIV DUP2 ADD SWAP3 DUP3 PUSH2 0x34FF JUMPI PUSH1 0x0 DUP6 SSTORE PUSH2 0x354C JUMP JUMPDEST DUP3 PUSH1 0x1F LT PUSH2 0x3510 JUMPI DUP1 SLOAD DUP6 SSTORE PUSH2 0x354C JUMP JUMPDEST DUP3 DUP1 ADD PUSH1 0x1 ADD DUP6 SSTORE DUP3 ISZERO PUSH2 0x354C JUMPI PUSH1 0x0 MSTORE PUSH1 0x20 PUSH1 0x0 KECCAK256 SWAP2 PUSH1 0x1F ADD PUSH1 0x20 SWAP1 DIV DUP3 ADD JUMPDEST DUP3 DUP2 GT ISZERO PUSH2 0x354C JUMPI DUP3 SLOAD DUP3 SSTORE SWAP2 PUSH1 0x1 ADD SWAP2 SWAP1 PUSH1 0x1 ADD SWAP1 PUSH2 0x3531 JUMP JUMPDEST POP PUSH2 0x3558 SWAP3 SWAP2 POP PUSH2 0x372B JUMP JUMPDEST POP SWAP1 JUMP JUMPDEST DUP3 DUP1 SLOAD DUP3 DUP3 SSTORE SWAP1 PUSH1 0x0 MSTORE PUSH1 0x20 PUSH1 0x0 KECCAK256 SWAP1 PUSH1 0x8 MUL DUP2 ADD SWAP3 DUP3 ISZERO PUSH2 0x361C JUMPI PUSH1 0x0 MSTORE PUSH1 0x20 PUSH1 0x0 KECCAK256 SWAP2 PUSH1 0x8 MUL DUP3 ADD JUMPDEST DUP3 DUP2 GT ISZERO PUSH2 0x361C JUMPI DUP3 SLOAD DUP3 SLOAD PUSH1 0x1 PUSH1 0x1 PUSH1 0xA0 SHL SUB NOT AND PUSH1 0x1 PUSH1 0x1 PUSH1 0xA0 SHL SUB SWAP1 SWAP2 AND OR DUP3 SSTORE PUSH1 0x1 DUP1 DUP5 ADD DUP1 SLOAD DUP6 SWAP3 DUP6 SWAP3 SWAP1 DUP4 ADD SWAP2 PUSH2 0x35C3 SWAP1 PUSH2 0x4239 JUMP JUMPDEST PUSH2 0x35CE SWAP3 SWAP2 SWAP1 PUSH2 0x34D1 JUMP JUMPDEST POP PUSH1 0x2 DUP3 ADD SLOAD DUP2 PUSH1 0x2 ADD SSTORE PUSH1 0x3 DUP3 ADD SLOAD DUP2 PUSH1 0x3 ADD SSTORE PUSH1 0x4 DUP3 ADD SLOAD DUP2 PUSH1 0x4 ADD SSTORE PUSH1 0x5 DUP3 ADD SLOAD DUP2 PUSH1 0x5 ADD SSTORE PUSH1 0x6 DUP3 ADD SLOAD DUP2 PUSH1 0x6 ADD SSTORE PUSH1 0x7 DUP3 ADD SLOAD DUP2 PUSH1 0x7 ADD SSTORE POP POP SWAP2 PUSH1 0x8 ADD SWAP2 SWAP1 PUSH1 0x8 ADD SWAP1 PUSH2 0x3587 JUMP JUMPDEST POP PUSH2 0x3558 SWAP3 SWAP2 POP PUSH2 0x3740 JUMP JUMPDEST DUP3 DUP1 SLOAD PUSH2 0x3634 SWAP1 PUSH2 0x4239 JUMP JUMPDEST SWAP1 PUSH1 0x0 MSTORE PUSH1 0x20 PUSH1 0x0 KECCAK256 SWAP1 PUSH1 0x1F ADD PUSH1 0x20 SWAP1 DIV DUP2 ADD SWAP3 DUP3 PUSH2 0x3656 JUMPI PUSH1 0x0 DUP6 SSTORE PUSH2 0x354C JUMP JUMPDEST DUP3 PUSH1 0x1F LT PUSH2 0x366F JUMPI DUP1 MLOAD PUSH1 0xFF NOT AND DUP4 DUP1 ADD OR DUP6 SSTORE PUSH2 0x354C JUMP JUMPDEST DUP3 DUP1 ADD PUSH1 0x1 ADD DUP6 SSTORE DUP3 ISZERO PUSH2 0x354C JUMPI SWAP2 DUP3 ADD JUMPDEST DUP3 DUP2 GT ISZERO PUSH2 0x354C JUMPI DUP3 MLOAD DUP3 SSTORE SWAP2 PUSH1 0x20 ADD SWAP2 SWAP1 PUSH1 0x1 ADD SWAP1 PUSH2 0x3681 JUMP JUMPDEST POP DUP1 SLOAD PUSH2 0x36A8 SWAP1 PUSH2 0x4239 JUMP JUMPDEST PUSH1 0x0 DUP3 SSTORE DUP1 PUSH1 0x1F LT PUSH2 0x36B8 JUMPI POP POP JUMP JUMPDEST PUSH1 0x1F ADD PUSH1 0x20 SWAP1 DIV SWAP1 PUSH1 0x0 MSTORE PUSH1 0x20 PUSH1 0x0 KECCAK256 SWAP1 DUP2 ADD SWAP1 PUSH2 0x36D6 SWAP2 SWAP1 PUSH2 0x372B JUMP JUMPDEST POP JUMP JUMPDEST PUSH1 0x40 MLOAD DUP1 PUSH1 0x80 ADD PUSH1 0x40 MSTORE DUP1 PUSH1 0x0 DUP2 MSTORE PUSH1 0x20 ADD PUSH1 0x0 DUP2 MSTORE PUSH1 0x20 ADD PUSH1 0x0 DUP2 MSTORE PUSH1 0x20 ADD PUSH2 0x34CC PUSH1 0x40 MLOAD DUP1 PUSH1 0xA0 ADD PUSH1 0x40 MSTORE DUP1 PUSH1 0x0 DUP2 MSTORE PUSH1 0x20 ADD PUSH1 0x0 DUP2 MSTORE PUSH1 0x20 ADD PUSH1 0x0 DUP2 MSTORE PUSH1 0x20 ADD PUSH1 0x0 DUP2 MSTORE PUSH1 0x20 ADD PUSH1 0x60 DUP2 MSTORE POP SWAP1 JUMP JUMPDEST JUMPDEST DUP1 DUP3 GT ISZERO PUSH2 0x3558 JUMPI PUSH1 0x0 DUP2 SSTORE PUSH1 0x1 ADD PUSH2 0x372C JUMP JUMPDEST DUP1 DUP3 GT ISZERO PUSH2 0x3558 JUMPI DUP1 SLOAD PUSH1 0x1 PUSH1 0x1 PUSH1 0xA0 SHL SUB NOT AND DUP2 SSTORE PUSH1 0x0 PUSH2 0x3765 PUSH1 0x1 DUP4 ADD DUP3 PUSH2 0x369C JUMP JUMPDEST POP PUSH1 0x0 PUSH1 0x2 DUP3 ADD DUP2 SWAP1 SSTORE PUSH1 0x3 DUP3 ADD DUP2 SWAP1 SSTORE PUSH1 0x4 DUP3 ADD DUP2 SWAP1 SSTORE PUSH1 0x5 DUP3 ADD DUP2 SWAP1 SSTORE PUSH1 0x6 DUP3 ADD DUP2 SWAP1 SSTORE PUSH1 0x7 DUP3 ADD SSTORE PUSH1 0x8 ADD PUSH2 0x3740 JUMP JUMPDEST PUSH4 0x4E487B71 PUSH1 0xE0 SHL PUSH1 0x0 MSTORE PUSH1 0x41 PUSH1 0x4 MSTORE PUSH1 0x24 PUSH1 0x0 REVERT JUMPDEST PUSH1 0x40 DUP1 MLOAD SWAP1 DUP2 ADD PUSH1 0x1 PUSH1 0x1 PUSH1 0x40 SHL SUB DUP2 GT DUP3 DUP3 LT OR ISZERO PUSH2 0x37D0 JUMPI PUSH2 0x37D0 PUSH2 0x3798 JUMP JUMPDEST PUSH1 0x40 MSTORE SWAP1 JUMP JUMPDEST PUSH1 0x40 MLOAD PUSH1 0x60 DUP2 ADD PUSH1 0x1 PUSH1 0x1 PUSH1 0x40 SHL SUB DUP2 GT DUP3 DUP3 LT OR ISZERO PUSH2 0x37D0 JUMPI PUSH2 0x37D0 PUSH2 0x3798 JUMP JUMPDEST PUSH1 0x40 MLOAD PUSH1 0x80 DUP2 ADD PUSH1 0x1 PUSH1 0x1 PUSH1 0x40 SHL SUB DUP2 GT DUP3 DUP3 LT OR ISZERO PUSH2 0x37D0 JUMPI PUSH2 0x37D0 PUSH2 0x3798 JUMP JUMPDEST PUSH1 0x40 MLOAD PUSH1 0xA0 DUP2 ADD PUSH1 0x1 PUSH1 0x1 PUSH1 0x40 SHL SUB DUP2 GT DUP3 DUP3 LT OR ISZERO PUSH2 0x37D0 JUMPI PUSH2 0x37D0 PUSH2 0x3798 JUMP JUMPDEST PUSH1 0x40 MLOAD PUSH1 0x1F DUP3 ADD PUSH1 0x1F NOT AND DUP2 ADD PUSH1 0x1 PUSH1 0x1 PUSH1 0x40 SHL SUB DUP2 GT DUP3 DUP3 LT OR ISZERO PUSH2 0x3864 JUMPI PUSH2 0x3864 PUSH2 0x3798 JUMP JUMPDEST PUSH1 0x40 MSTORE SWAP2 SWAP1 POP JUMP JUMPDEST PUSH1 0x0 PUSH1 0x1 PUSH1 0x1 PUSH1 0x40 SHL SUB DUP3 GT ISZERO PUSH2 0x3885 JUMPI PUSH2 0x3885 PUSH2 0x3798 JUMP JUMPDEST POP PUSH1 0x1F ADD PUSH1 0x1F NOT AND PUSH1 0x20 ADD SWAP1 JUMP JUMPDEST PUSH1 0x0 DUP3 PUSH1 0x1F DUP4 ADD SLT PUSH2 0x38A4 JUMPI PUSH1 0x0 DUP1 REVERT JUMPDEST DUP2 CALLDATALOAD PUSH2 0x38B7 PUSH2 0x38B2 DUP3 PUSH2 0x386C JUMP JUMPDEST PUSH2 0x383C JUMP JUMPDEST DUP2 DUP2 MSTORE DUP5 PUSH1 0x20 DUP4 DUP7 ADD ADD GT ISZERO PUSH2 0x38CC JUMPI PUSH1 0x0 DUP1 REVERT JUMPDEST DUP2 PUSH1 0x20 DUP6 ADD PUSH1 0x20 DUP4 ADD CALLDATACOPY PUSH1 0x0 SWAP2 DUP2 ADD PUSH1 0x20 ADD SWAP2 SWAP1 SWAP2 MSTORE SWAP4 SWAP3 POP POP POP JUMP JUMPDEST PUSH1 0x0 PUSH1 0x20 DUP3 DUP5 SUB SLT ISZERO PUSH2 0x38FB JUMPI PUSH1 0x0 DUP1 REVERT JUMPDEST DUP2 CALLDATALOAD PUSH1 0x1 PUSH1 0x1 PUSH1 0x40 SHL SUB DUP2 GT ISZERO PUSH2 0x3911 JUMPI PUSH1 0x0 DUP1 REVERT JUMPDEST PUSH2 0x391D DUP5 DUP3 DUP6 ADD PUSH2 0x3893 JUMP JUMPDEST SWAP5 SWAP4 POP POP POP POP JUMP JUMPDEST PUSH1 0x0 JUMPDEST DUP4 DUP2 LT ISZERO PUSH2 0x3940 JUMPI DUP2 DUP2 ADD MLOAD DUP4 DUP3 ADD MSTORE PUSH1 0x20 ADD PUSH2 0x3928 JUMP JUMPDEST DUP4 DUP2 GT ISZERO PUSH2 0x1B02 JUMPI POP POP PUSH1 0x0 SWAP2 ADD MSTORE JUMP JUMPDEST PUSH1 0x0 DUP2 MLOAD DUP1 DUP5 MSTORE PUSH2 0x3969 DUP2 PUSH1 0x20 DUP7 ADD PUSH1 0x20 DUP7 ADD PUSH2 0x3925 JUMP JUMPDEST PUSH1 0x1F ADD PUSH1 0x1F NOT AND SWAP3 SWAP1 SWAP3 ADD PUSH1 0x20 ADD SWAP3 SWAP2 POP POP JUMP JUMPDEST PUSH1 0x20 DUP2 MSTORE PUSH1 0x0 PUSH2 0x796 PUSH1 0x20 DUP4 ADD DUP5 PUSH2 0x3951 JUMP JUMPDEST DUP1 CALLDATALOAD PUSH1 0x1 PUSH1 0x1 PUSH1 0xA0 SHL SUB DUP2 AND DUP2 EQ PUSH2 0x39A7 JUMPI PUSH1 0x0 DUP1 REVERT JUMPDEST SWAP2 SWAP1 POP JUMP JUMPDEST PUSH1 0x0 PUSH1 0x20 DUP3 DUP5 SUB SLT ISZERO PUSH2 0x39BE JUMPI PUSH1 0x0 DUP1 REVERT JUMPDEST PUSH2 0x796 DUP3 PUSH2 0x3990 JUMP JUMPDEST DUP1 MLOAD DUP3 MSTORE PUSH1 0x20 DUP2 ADD MLOAD PUSH1 0x20 DUP4 ADD MSTORE PUSH1 0x40 DUP2 ADD MLOAD PUSH1 0x40 DUP4 ADD MSTORE PUSH1 0x60 DUP2 ADD MLOAD PUSH1 0x60 DUP4 ADD MSTORE PUSH1 0x0 PUSH1 0x80 DUP3 ADD MLOAD PUSH1 0xA0 PUSH1 0x80 DUP6 ADD MSTORE PUSH2 0x391D PUSH1 0xA0 DUP6 ADD DUP3 PUSH2 0x3951 JUMP JUMPDEST DUP1 MLOAD DUP3 MSTORE PUSH1 0x20 DUP2 ADD MLOAD PUSH1 0x20 DUP4 ADD MSTORE PUSH1 0x40 DUP2 ADD MLOAD PUSH1 0x40 DUP4 ADD MSTORE PUSH1 0x0 PUSH1 0x60 DUP3 ADD MLOAD PUSH1 0x80 PUSH1 0x60 DUP6 ADD MSTORE PUSH2 0x391D PUSH1 0x80 DUP6 ADD DUP3 PUSH2 0x39C7 JUMP JUMPDEST PUSH1 0x0 PUSH1 0x20 DUP1 DUP4 ADD DUP2 DUP5 MSTORE DUP1 DUP6 MLOAD DUP1 DUP4 MSTORE PUSH1 0x40 DUP7 ADD SWAP2 POP PUSH1 0x40 DUP2 PUSH1 0x5 SHL DUP8 ADD ADD SWAP3 POP DUP4 DUP8 ADD PUSH1 0x0 JUMPDEST DUP3 DUP2 LT ISZERO PUSH2 0x3A8C JUMPI PUSH1 0x3F NOT DUP9 DUP7 SUB ADD DUP5 MSTORE PUSH2 0x3A7A DUP6 DUP4 MLOAD PUSH2 0x3A04 JUMP JUMPDEST SWAP5 POP SWAP3 DUP6 ADD SWAP3 SWAP1 DUP6 ADD SWAP1 PUSH1 0x1 ADD PUSH2 0x3A5E JUMP JUMPDEST POP SWAP3 SWAP8 SWAP7 POP POP POP POP POP POP POP JUMP JUMPDEST PUSH1 0x0 DUP2 MLOAD PUSH1 0x60 DUP5 MSTORE PUSH2 0x3AAE PUSH1 0x60 DUP6 ADD DUP3 PUSH2 0x3951 JUMP JUMPDEST SWAP1 POP PUSH1 0x20 DUP4 ADD MLOAD DUP5 DUP3 SUB PUSH1 0x20 DUP7 ADD MSTORE PUSH2 0x3AC7 DUP3 DUP3 PUSH2 0x3951 JUMP JUMPDEST SWAP2 POP POP PUSH1 0x40 DUP4 ADD MLOAD DUP5 DUP3 SUB PUSH1 0x40 DUP7 ADD MSTORE PUSH2 0x3AE1 DUP3 DUP3 PUSH2 0x3951 JUMP JUMPDEST SWAP6 SWAP5 POP POP POP POP POP JUMP JUMPDEST PUSH1 0x20 DUP2 MSTORE PUSH1 0x0 DUP3 MLOAD PUSH1 0x40 PUSH1 0x20 DUP5 ADD MSTORE PUSH2 0x3B06 PUSH1 0x60 DUP5 ADD DUP3 PUSH2 0x3951 JUMP JUMPDEST SWAP1 POP PUSH1 0x20 DUP5 ADD MLOAD PUSH1 0x1F NOT DUP5 DUP4 SUB ADD PUSH1 0x40 DUP6 ADD MSTORE PUSH2 0x3AE1 DUP3 DUP3 PUSH2 0x3A99 JUMP JUMPDEST PUSH1 0x0 PUSH1 0x20 DUP1 DUP4 ADD DUP2 DUP5 MSTORE DUP1 DUP6 MLOAD DUP1 DUP4 MSTORE PUSH1 0x40 SWAP3 POP DUP3 DUP7 ADD SWAP2 POP DUP3 DUP2 PUSH1 0x5 SHL DUP8 ADD ADD DUP5 DUP9 ADD PUSH1 0x0 JUMPDEST DUP4 DUP2 LT ISZERO PUSH2 0x3C22 JUMPI DUP9 DUP4 SUB PUSH1 0x3F NOT ADD DUP6 MSTORE DUP2 MLOAD DUP1 MLOAD DUP1 DUP6 MSTORE SWAP1 DUP9 ADD SWAP1 DUP9 DUP6 ADD SWAP1 PUSH1 0x5 DUP2 SWAP1 SHL DUP7 ADD DUP11 ADD PUSH1 0x0 JUMPDEST DUP3 DUP2 LT ISZERO PUSH2 0x3C0C JUMPI DUP8 DUP3 SUB PUSH1 0x1F NOT ADD DUP5 MSTORE DUP5 MLOAD DUP1 MLOAD PUSH1 0x1 PUSH1 0x1 PUSH1 0xA0 SHL SUB AND DUP4 MSTORE DUP13 DUP2 ADD MLOAD PUSH2 0x100 DUP15 DUP6 ADD DUP2 SWAP1 MSTORE SWAP1 PUSH2 0x3BB0 DUP3 DUP7 ADD DUP3 PUSH2 0x3951 JUMP JUMPDEST SWAP2 POP POP DUP13 DUP3 ADD MLOAD DUP14 DUP6 ADD MSTORE PUSH1 0x60 DUP1 DUP4 ADD MLOAD DUP2 DUP7 ADD MSTORE POP PUSH1 0x80 DUP1 DUP4 ADD MLOAD DUP2 DUP7 ADD MSTORE POP PUSH1 0xA0 DUP1 DUP4 ADD MLOAD DUP2 DUP7 ADD MSTORE POP PUSH1 0xC0 DUP1 DUP4 ADD MLOAD DUP2 DUP7 ADD MSTORE POP PUSH1 0xE0 DUP1 DUP4 ADD MLOAD DUP2 DUP7 ADD MSTORE POP DUP1 SWAP4 POP POP POP DUP12 DUP6 ADD SWAP5 POP DUP12 DUP5 ADD SWAP4 POP PUSH1 0x1 DUP2 ADD SWAP1 POP PUSH2 0x3B76 JUMP JUMPDEST POP SWAP8 DUP11 ADD SWAP8 SWAP6 POP POP POP SWAP2 DUP8 ADD SWAP2 POP PUSH1 0x1 ADD PUSH2 0x3B4A JUMP JUMPDEST POP SWAP1 SWAP9 SWAP8 POP POP POP POP POP POP POP POP JUMP JUMPDEST PUSH1 0x0 PUSH1 0x20 DUP3 DUP5 SUB SLT ISZERO PUSH2 0x3C42 JUMPI PUSH1 0x0 DUP1 REVERT JUMPDEST POP CALLDATALOAD SWAP2 SWAP1 POP JUMP JUMPDEST PUSH1 0x0 PUSH1 0x1 PUSH1 0x1 PUSH1 0x40 SHL SUB DUP3 GT ISZERO PUSH2 0x3C62 JUMPI PUSH2 0x3C62 PUSH2 0x3798 JUMP JUMPDEST POP PUSH1 0x5 SHL PUSH1 0x20 ADD SWAP1 JUMP JUMPDEST PUSH1 0x0 DUP3 PUSH1 0x1F DUP4 ADD SLT PUSH2 0x3C7D JUMPI PUSH1 0x0 DUP1 REVERT JUMPDEST DUP2 CALLDATALOAD PUSH1 0x20 PUSH2 0x3C8D PUSH2 0x38B2 DUP4 PUSH2 0x3C49 JUMP JUMPDEST DUP3 DUP2 MSTORE PUSH1 0x5 SWAP3 SWAP1 SWAP3 SHL DUP5 ADD DUP2 ADD SWAP2 DUP2 DUP2 ADD SWAP1 DUP7 DUP5 GT ISZERO PUSH2 0x3CAC JUMPI PUSH1 0x0 DUP1 REVERT JUMPDEST DUP3 DUP7 ADD JUMPDEST DUP5 DUP2 LT ISZERO PUSH2 0x3CEB JUMPI DUP1 CALLDATALOAD PUSH1 0x1 PUSH1 0x1 PUSH1 0x40 SHL SUB DUP2 GT ISZERO PUSH2 0x3CCF JUMPI PUSH1 0x0 DUP1 DUP2 REVERT JUMPDEST PUSH2 0x3CDD DUP10 DUP7 DUP4 DUP12 ADD ADD PUSH2 0x3893 JUMP JUMPDEST DUP5 MSTORE POP SWAP2 DUP4 ADD SWAP2 DUP4 ADD PUSH2 0x3CB0 JUMP JUMPDEST POP SWAP7 SWAP6 POP POP POP POP POP POP JUMP JUMPDEST PUSH1 0x0 DUP1 PUSH1 0x40 DUP4 DUP6 SUB SLT ISZERO PUSH2 0x3D09 JUMPI PUSH1 0x0 DUP1 REVERT JUMPDEST DUP3 CALLDATALOAD PUSH1 0x1 PUSH1 0x1 PUSH1 0x40 SHL SUB DUP2 GT ISZERO PUSH2 0x3D1F JUMPI PUSH1 0x0 DUP1 REVERT JUMPDEST PUSH2 0x3D2B DUP6 DUP3 DUP7 ADD PUSH2 0x3C6C JUMP JUMPDEST SWAP6 PUSH1 0x20 SWAP5 SWAP1 SWAP5 ADD CALLDATALOAD SWAP5 POP POP POP POP JUMP JUMPDEST PUSH1 0x1 PUSH1 0x1 PUSH1 0xA0 SHL SUB DUP10 AND DUP2 MSTORE PUSH2 0x100 PUSH1 0x20 DUP3 ADD DUP2 SWAP1 MSTORE PUSH1 0x0 SWAP1 PUSH2 0x3D5F DUP4 DUP3 ADD DUP12 PUSH2 0x3951 JUMP JUMPDEST PUSH1 0x40 DUP5 ADD SWAP10 SWAP1 SWAP10 MSTORE POP POP PUSH1 0x60 DUP2 ADD SWAP6 SWAP1 SWAP6 MSTORE PUSH1 0x80 DUP6 ADD SWAP4 SWAP1 SWAP4 MSTORE PUSH1 0xA0 DUP5 ADD SWAP2 SWAP1 SWAP2 MSTORE PUSH1 0xC0 DUP4 ADD MSTORE PUSH1 0xE0 SWAP1 SWAP2 ADD MSTORE SWAP3 SWAP2 POP POP JUMP JUMPDEST PUSH1 0x0 PUSH1 0x20 DUP3 DUP5 SUB SLT ISZERO PUSH2 0x3DA4 JUMPI PUSH1 0x0 DUP1 REVERT JUMPDEST DUP2 CALLDATALOAD PUSH1 0x1 PUSH1 0x1 PUSH1 0x40 SHL SUB DUP1 DUP3 GT ISZERO PUSH2 0x3DBB JUMPI PUSH1 0x0 DUP1 REVERT JUMPDEST SWAP1 DUP4 ADD SWAP1 PUSH1 0x40 DUP3 DUP7 SUB SLT ISZERO PUSH2 0x3DCF JUMPI PUSH1 0x0 DUP1 REVERT JUMPDEST PUSH2 0x3DD7 PUSH2 0x37AE JUMP JUMPDEST DUP3 CALLDATALOAD DUP3 DUP2 GT ISZERO PUSH2 0x3DE6 JUMPI PUSH1 0x0 DUP1 REVERT JUMPDEST PUSH2 0x3DF2 DUP8 DUP3 DUP7 ADD PUSH2 0x3893 JUMP JUMPDEST DUP3 MSTORE POP PUSH1 0x20 DUP4 ADD CALLDATALOAD DUP3 DUP2 GT ISZERO PUSH2 0x3E07 JUMPI PUSH1 0x0 DUP1 REVERT JUMPDEST SWAP3 SWAP1 SWAP3 ADD SWAP2 PUSH1 0x60 DUP4 DUP8 SUB SLT ISZERO PUSH2 0x3E1C JUMPI PUSH1 0x0 DUP1 REVERT JUMPDEST PUSH2 0x3E24 PUSH2 0x37D6 JUMP JUMPDEST DUP4 CALLDATALOAD DUP4 DUP2 GT ISZERO PUSH2 0x3E33 JUMPI PUSH1 0x0 DUP1 REVERT JUMPDEST PUSH2 0x3E3F DUP9 DUP3 DUP8 ADD PUSH2 0x3893 JUMP JUMPDEST DUP3 MSTORE POP PUSH1 0x20 DUP5 ADD CALLDATALOAD DUP4 DUP2 GT ISZERO PUSH2 0x3E54 JUMPI PUSH1 0x0 DUP1 REVERT JUMPDEST PUSH2 0x3E60 DUP9 DUP3 DUP8 ADD PUSH2 0x3893 JUMP JUMPDEST PUSH1 0x20 DUP4 ADD MSTORE POP PUSH1 0x40 DUP5 ADD CALLDATALOAD DUP4 DUP2 GT ISZERO PUSH2 0x3E78 JUMPI PUSH1 0x0 DUP1 REVERT JUMPDEST PUSH2 0x3E84 DUP9 DUP3 DUP8 ADD PUSH2 0x3893 JUMP JUMPDEST PUSH1 0x40 DUP4 ADD MSTORE POP PUSH1 0x20 DUP3 ADD MSTORE SWAP6 SWAP5 POP POP POP POP POP JUMP JUMPDEST DUP6 DUP2 MSTORE DUP5 PUSH1 0x20 DUP3 ADD MSTORE DUP4 PUSH1 0x40 DUP3 ADD MSTORE DUP3 PUSH1 0x60 DUP3 ADD MSTORE PUSH1 0xA0 PUSH1 0x80 DUP3 ADD MSTORE PUSH1 0x0 PUSH2 0x3EC3 PUSH1 0xA0 DUP4 ADD DUP5 PUSH2 0x3951 JUMP JUMPDEST SWAP8 SWAP7 POP POP POP POP POP POP POP JUMP JUMPDEST PUSH1 0x0 PUSH1 0x20 DUP1 DUP4 ADD DUP2 DUP5 MSTORE DUP1 DUP6 MLOAD DUP1 DUP4 MSTORE PUSH1 0x40 DUP7 ADD SWAP2 POP PUSH1 0x40 DUP2 PUSH1 0x5 SHL DUP8 ADD ADD SWAP3 POP DUP4 DUP8 ADD PUSH1 0x0 JUMPDEST DUP3 DUP2 LT ISZERO PUSH2 0x3A8C JUMPI PUSH1 0x3F NOT DUP9 DUP7 SUB ADD DUP5 MSTORE PUSH2 0x3F11 DUP6 DUP4 MLOAD PUSH2 0x39C7 JUMP JUMPDEST SWAP5 POP SWAP3 DUP6 ADD SWAP3 SWAP1 DUP6 ADD SWAP1 PUSH1 0x1 ADD PUSH2 0x3EF5 JUMP JUMPDEST PUSH1 0x0 DUP1 PUSH1 0x40 DUP4 DUP6 SUB SLT ISZERO PUSH2 0x3F36 JUMPI PUSH1 0x0 DUP1 REVERT JUMPDEST DUP3 CALLDATALOAD PUSH1 0x1 PUSH1 0x1 PUSH1 0x40 SHL SUB DUP1 DUP3 GT ISZERO PUSH2 0x3F4D JUMPI PUSH1 0x0 DUP1 REVERT JUMPDEST PUSH2 0x3F59 DUP7 DUP4 DUP8 ADD PUSH2 0x3C6C JUMP JUMPDEST SWAP4 POP PUSH1 0x20 SWAP2 POP DUP2 DUP6 ADD CALLDATALOAD DUP2 DUP2 GT ISZERO PUSH2 0x3F70 JUMPI PUSH1 0x0 DUP1 REVERT JUMPDEST DUP6 ADD SWAP1 POP PUSH1 0x1F DUP2 ADD DUP7 SGT PUSH2 0x3F83 JUMPI PUSH1 0x0 DUP1 REVERT JUMPDEST DUP1 CALLDATALOAD PUSH2 0x3F91 PUSH2 0x38B2 DUP3 PUSH2 0x3C49 JUMP JUMPDEST DUP2 DUP2 MSTORE PUSH1 0x5 SWAP2 SWAP1 SWAP2 SHL DUP3 ADD DUP4 ADD SWAP1 DUP4 DUP2 ADD SWAP1 DUP9 DUP4 GT ISZERO PUSH2 0x3FB0 JUMPI PUSH1 0x0 DUP1 REVERT JUMPDEST SWAP3 DUP5 ADD SWAP3 JUMPDEST DUP3 DUP5 LT ISZERO PUSH2 0x3FD5 JUMPI PUSH2 0x3FC6 DUP5 PUSH2 0x3990 JUMP JUMPDEST DUP3 MSTORE SWAP3 DUP5 ADD SWAP3 SWAP1 DUP5 ADD SWAP1 PUSH2 0x3FB5 JUMP JUMPDEST DUP1 SWAP6 POP POP POP POP POP POP SWAP3 POP SWAP3 SWAP1 POP JUMP JUMPDEST PUSH1 0x0 DUP2 MLOAD DUP1 DUP5 MSTORE PUSH1 0x20 DUP1 DUP6 ADD DUP1 DUP2 SWAP7 POP DUP4 PUSH1 0x5 SHL DUP2 ADD SWAP2 POP DUP3 DUP7 ADD PUSH1 0x0 JUMPDEST DUP6 DUP2 LT ISZERO PUSH2 0x402C JUMPI DUP3 DUP5 SUB DUP10 MSTORE PUSH2 0x401A DUP5 DUP4 MLOAD PUSH2 0x3951 JUMP JUMPDEST SWAP9 DUP6 ADD SWAP9 SWAP4 POP SWAP1 DUP5 ADD SWAP1 PUSH1 0x1 ADD PUSH2 0x4002 JUMP JUMPDEST POP SWAP2 SWAP8 SWAP7 POP POP POP POP POP POP POP JUMP JUMPDEST PUSH1 0x20 DUP2 MSTORE PUSH1 0x0 PUSH2 0x796 PUSH1 0x20 DUP4 ADD DUP5 PUSH2 0x3FE4 JUMP JUMPDEST PUSH1 0x40 DUP2 MSTORE PUSH1 0x0 PUSH2 0x405F PUSH1 0x40 DUP4 ADD DUP6 PUSH2 0x3951 JUMP JUMPDEST DUP3 DUP2 SUB PUSH1 0x20 DUP5 ADD MSTORE PUSH2 0x3AE1 DUP2 DUP6 PUSH2 0x3A99 JUMP JUMPDEST PUSH1 0x0 PUSH1 0x20 DUP3 DUP5 SUB SLT ISZERO PUSH2 0x4083 JUMPI PUSH1 0x0 DUP1 REVERT JUMPDEST DUP2 CALLDATALOAD PUSH1 0x1 PUSH1 0x1 PUSH1 0x40 SHL SUB DUP2 GT ISZERO PUSH2 0x4099 JUMPI PUSH1 0x0 DUP1 REVERT JUMPDEST PUSH2 0x391D DUP5 DUP3 DUP6 ADD PUSH2 0x3C6C JUMP JUMPDEST DUP1 ISZERO ISZERO DUP2 EQ PUSH2 0x36D6 JUMPI PUSH1 0x0 DUP1 REVERT JUMPDEST DUP1 CALLDATALOAD PUSH2 0x39A7 DUP2 PUSH2 0x40A5 JUMP JUMPDEST PUSH1 0x0 DUP1 PUSH1 0x0 PUSH1 0x60 DUP5 DUP7 SUB SLT ISZERO PUSH2 0x40D3 JUMPI PUSH1 0x0 DUP1 REVERT JUMPDEST DUP4 CALLDATALOAD PUSH1 0x1 PUSH1 0x1 PUSH1 0x40 SHL SUB DUP2 GT ISZERO PUSH2 0x40E9 JUMPI PUSH1 0x0 DUP1 REVERT JUMPDEST PUSH2 0x40F5 DUP7 DUP3 DUP8 ADD PUSH2 0x3C6C JUMP JUMPDEST SWAP4 POP POP PUSH1 0x20 DUP5 ADD CALLDATALOAD SWAP2 POP PUSH1 0x40 DUP5 ADD CALLDATALOAD PUSH2 0x410D DUP2 PUSH2 0x40A5 JUMP JUMPDEST DUP1 SWAP2 POP POP SWAP3 POP SWAP3 POP SWAP3 JUMP JUMPDEST PUSH1 0x0 DUP1 PUSH1 0x0 PUSH1 0x60 DUP5 DUP7 SUB SLT ISZERO PUSH2 0x412D JUMPI PUSH1 0x0 DUP1 REVERT JUMPDEST DUP4 CALLDATALOAD PUSH1 0x1 PUSH1 0x1 PUSH1 0x40 SHL SUB DUP1 DUP3 GT ISZERO PUSH2 0x4144 JUMPI PUSH1 0x0 DUP1 REVERT JUMPDEST PUSH2 0x4150 DUP8 DUP4 DUP9 ADD PUSH2 0x3C6C JUMP JUMPDEST SWAP5 POP PUSH1 0x20 SWAP2 POP DUP2 DUP7 ADD CALLDATALOAD DUP2 DUP2 GT ISZERO PUSH2 0x4167 JUMPI PUSH1 0x0 DUP1 REVERT JUMPDEST DUP7 ADD SWAP1 POP PUSH1 0x1F DUP2 ADD DUP8 SGT PUSH2 0x417A JUMPI PUSH1 0x0 DUP1 REVERT JUMPDEST DUP1 CALLDATALOAD PUSH2 0x4188 PUSH2 0x38B2 DUP3 PUSH2 0x3C49 JUMP JUMPDEST DUP2 DUP2 MSTORE PUSH1 0x5 SWAP2 SWAP1 SWAP2 SHL DUP3 ADD DUP4 ADD SWAP1 DUP4 DUP2 ADD SWAP1 DUP10 DUP4 GT ISZERO PUSH2 0x41A7 JUMPI PUSH1 0x0 DUP1 REVERT JUMPDEST SWAP3 DUP5 ADD SWAP3 JUMPDEST DUP3 DUP5 LT ISZERO PUSH2 0x41C5 JUMPI DUP4 CALLDATALOAD DUP3 MSTORE SWAP3 DUP5 ADD SWAP3 SWAP1 DUP5 ADD SWAP1 PUSH2 0x41AC JUMP JUMPDEST DUP1 SWAP7 POP POP POP POP POP POP PUSH2 0x41D9 PUSH1 0x40 DUP6 ADD PUSH2 0x40B3 JUMP JUMPDEST SWAP1 POP SWAP3 POP SWAP3 POP SWAP3 JUMP JUMPDEST PUSH1 0x0 DUP1 PUSH1 0x40 DUP4 DUP6 SUB SLT ISZERO PUSH2 0x41F5 JUMPI PUSH1 0x0 DUP1 REVERT JUMPDEST POP POP DUP1 CALLDATALOAD SWAP3 PUSH1 0x20 SWAP1 SWAP2 ADD CALLDATALOAD SWAP2 POP JUMP JUMPDEST PUSH1 0x0 DUP3 MLOAD PUSH2 0x4216 DUP2 DUP5 PUSH1 0x20 DUP8 ADD PUSH2 0x3925 JUMP JUMPDEST SWAP2 SWAP1 SWAP2 ADD SWAP3 SWAP2 POP POP JUMP JUMPDEST PUSH1 0x0 PUSH1 0x20 DUP3 DUP5 SUB SLT ISZERO PUSH2 0x4232 JUMPI PUSH1 0x0 DUP1 REVERT JUMPDEST POP MLOAD SWAP2 SWAP1 POP JUMP JUMPDEST PUSH1 0x1 DUP2 DUP2 SHR SWAP1 DUP3 AND DUP1 PUSH2 0x424D JUMPI PUSH1 0x7F DUP3 AND SWAP2 POP JUMPDEST PUSH1 0x20 DUP3 LT DUP2 SUB PUSH2 0xE15 JUMPI PUSH4 0x4E487B71 PUSH1 0xE0 SHL PUSH1 0x0 MSTORE PUSH1 0x22 PUSH1 0x4 MSTORE PUSH1 0x24 PUSH1 0x0 REVERT JUMPDEST PUSH1 0x0 PUSH1 0x20 DUP1 DUP4 DUP6 SUB SLT ISZERO PUSH2 0x4280 JUMPI PUSH1 0x0 DUP1 REVERT JUMPDEST DUP3 MLOAD PUSH1 0x1 PUSH1 0x1 PUSH1 0x40 SHL SUB DUP1 DUP3 GT ISZERO PUSH2 0x4297 JUMPI PUSH1 0x0 DUP1 REVERT JUMPDEST DUP2 DUP6 ADD SWAP2 POP DUP6 PUSH1 0x1F DUP4 ADD SLT PUSH2 0x42AB JUMPI PUSH1 0x0 DUP1 REVERT JUMPDEST DUP2 MLOAD PUSH2 0x42B9 PUSH2 0x38B2 DUP3 PUSH2 0x3C49 JUMP JUMPDEST DUP2 DUP2 MSTORE PUSH1 0x5 SWAP2 SWAP1 SWAP2 SHL DUP4 ADD DUP5 ADD SWAP1 DUP5 DUP2 ADD SWAP1 DUP9 DUP4 GT ISZERO PUSH2 0x42D8 JUMPI PUSH1 0x0 DUP1 REVERT JUMPDEST DUP6 DUP6 ADD JUMPDEST DUP4 DUP2 LT ISZERO PUSH2 0x43F9 JUMPI DUP1 MLOAD DUP6 DUP2 GT ISZERO PUSH2 0x42F3 JUMPI PUSH1 0x0 DUP1 REVERT JUMPDEST DUP7 ADD PUSH1 0x1F NOT PUSH1 0x80 DUP3 DUP14 SUB DUP3 ADD SLT ISZERO PUSH2 0x430A JUMPI PUSH1 0x0 DUP1 REVERT JUMPDEST PUSH2 0x4312 PUSH2 0x37F8 JUMP JUMPDEST DUP10 DUP4 ADD MLOAD DUP2 MSTORE PUSH1 0x40 DUP4 ADD MLOAD DUP11 DUP3 ADD MSTORE PUSH1 0x60 DUP4 ADD MLOAD PUSH1 0x40 DUP3 ADD MSTORE PUSH1 0x80 DUP4 ADD MLOAD DUP9 DUP2 GT ISZERO PUSH2 0x433D JUMPI PUSH1 0x0 DUP1 REVERT JUMPDEST SWAP3 SWAP1 SWAP3 ADD SWAP2 PUSH1 0xA0 DUP4 DUP15 SUB DUP4 ADD SLT ISZERO PUSH2 0x4354 JUMPI PUSH1 0x0 DUP1 REVERT JUMPDEST PUSH2 0x435C PUSH2 0x381A JUMP JUMPDEST SWAP2 POP DUP10 DUP4 ADD MLOAD DUP3 MSTORE PUSH1 0x40 DUP4 ADD MLOAD DUP11 DUP4 ADD MSTORE PUSH1 0x60 DUP4 ADD MLOAD PUSH1 0x40 DUP4 ADD MSTORE PUSH1 0x80 DUP4 ADD MLOAD PUSH1 0x60 DUP4 ADD MSTORE PUSH1 0xA0 DUP4 ADD MLOAD DUP9 DUP2 GT ISZERO PUSH2 0x4393 JUMPI PUSH1 0x0 DUP1 REVERT JUMPDEST DUP1 DUP5 ADD SWAP4 POP POP DUP13 PUSH1 0x3F DUP5 ADD SLT PUSH2 0x43A8 JUMPI PUSH1 0x0 DUP1 REVERT JUMPDEST DUP10 DUP4 ADD MLOAD PUSH2 0x43B8 PUSH2 0x38B2 DUP3 PUSH2 0x386C JUMP JUMPDEST DUP2 DUP2 MSTORE DUP15 PUSH1 0x40 DUP4 DUP8 ADD ADD GT ISZERO PUSH2 0x43CD JUMPI PUSH1 0x0 DUP1 REVERT JUMPDEST PUSH2 0x43DD DUP3 DUP14 DUP4 ADD PUSH1 0x40 DUP9 ADD PUSH2 0x3925 JUMP JUMPDEST PUSH1 0x80 DUP5 ADD MSTORE POP PUSH1 0x60 DUP2 ADD SWAP2 SWAP1 SWAP2 MSTORE DUP5 MSTORE POP SWAP2 DUP7 ADD SWAP2 DUP7 ADD PUSH2 0x42DC JUMP JUMPDEST POP SWAP9 SWAP8 POP POP POP POP POP POP POP POP JUMP JUMPDEST PUSH4 0x4E487B71 PUSH1 0xE0 SHL PUSH1 0x0 MSTORE PUSH1 0x32 PUSH1 0x4 MSTORE PUSH1 0x24 PUSH1 0x0 REVERT JUMPDEST PUSH4 0x4E487B71 PUSH1 0xE0 SHL PUSH1 0x0 MSTORE PUSH1 0x11 PUSH1 0x4 MSTORE PUSH1 0x24 PUSH1 0x0 REVERT JUMPDEST PUSH1 0x0 DUP3 DUP3 LT ISZERO PUSH2 0x4444 JUMPI PUSH2 0x4444 PUSH2 0x441C JUMP JUMPDEST POP SUB SWAP1 JUMP JUMPDEST PUSH1 0x0 DUP2 PUSH1 0x0 NOT DIV DUP4 GT DUP3 ISZERO ISZERO AND ISZERO PUSH2 0x4463 JUMPI PUSH2 0x4463 PUSH2 0x441C JUMP JUMPDEST POP MUL SWAP1 JUMP JUMPDEST PUSH4 0x4E487B71 PUSH1 0xE0 SHL PUSH1 0x0 MSTORE PUSH1 0x12 PUSH1 0x4 MSTORE PUSH1 0x24 PUSH1 0x0 REVERT JUMPDEST PUSH1 0x0 DUP3 PUSH2 0x448D JUMPI PUSH2 0x448D PUSH2 0x4468 JUMP JUMPDEST POP DIV SWAP1 JUMP JUMPDEST PUSH1 0x0 PUSH1 0x1 DUP3 ADD PUSH2 0x44A4 JUMPI PUSH2 0x44A4 PUSH2 0x441C JUMP JUMPDEST POP PUSH1 0x1 ADD SWAP1 JUMP JUMPDEST PUSH1 0x0 DUP2 SLOAD PUSH2 0x44B8 DUP2 PUSH2 0x4239 JUMP JUMPDEST PUSH1 0x1 DUP3 DUP2 AND DUP1 ISZERO PUSH2 0x44D0 JUMPI PUSH1 0x1 DUP2 EQ PUSH2 0x44E1 JUMPI PUSH2 0x4510 JUMP JUMPDEST PUSH1 0xFF NOT DUP5 AND DUP8 MSTORE DUP3 DUP8 ADD SWAP5 POP PUSH2 0x4510 JUMP JUMPDEST DUP6 PUSH1 0x0 MSTORE PUSH1 0x20 DUP1 PUSH1 0x0 KECCAK256 PUSH1 0x0 JUMPDEST DUP6 DUP2 LT ISZERO PUSH2 0x4507 JUMPI DUP2 SLOAD DUP11 DUP3 ADD MSTORE SWAP1 DUP5 ADD SWAP1 DUP3 ADD PUSH2 0x44EE JUMP JUMPDEST POP POP POP DUP3 DUP8 ADD SWAP5 POP JUMPDEST POP POP POP POP SWAP3 SWAP2 POP POP JUMP JUMPDEST PUSH1 0x0 PUSH2 0x796 DUP3 DUP5 PUSH2 0x44AB JUMP JUMPDEST PUSH1 0x0 DUP2 MLOAD DUP1 DUP5 MSTORE PUSH1 0x20 DUP1 DUP6 ADD SWAP5 POP DUP1 DUP5 ADD PUSH1 0x0 JUMPDEST DUP4 DUP2 LT ISZERO PUSH2 0x455F JUMPI DUP2 MLOAD PUSH1 0x1 PUSH1 0x1 PUSH1 0xA0 SHL SUB AND DUP8 MSTORE SWAP6 DUP3 ADD SWAP6 SWAP1 DUP3 ADD SWAP1 PUSH1 0x1 ADD PUSH2 0x453A JUMP JUMPDEST POP SWAP5 SWAP6 SWAP5 POP POP POP POP POP JUMP JUMPDEST DUP3 DUP2 MSTORE PUSH1 0x40 PUSH1 0x20 DUP3 ADD MSTORE PUSH1 0x0 PUSH2 0x391D PUSH1 0x40 DUP4 ADD DUP5 PUSH2 0x4526 JUMP JUMPDEST PUSH1 0x0 DUP3 PUSH1 0x1F DUP4 ADD SLT PUSH2 0x4594 JUMPI PUSH1 0x0 DUP1 REVERT JUMPDEST DUP2 MLOAD PUSH1 0x20 PUSH2 0x45A4 PUSH2 0x38B2 DUP4 PUSH2 0x3C49 JUMP JUMPDEST DUP3 DUP2 MSTORE PUSH1 0x5 SWAP3 SWAP1 SWAP3 SHL DUP5 ADD DUP2 ADD SWAP2 DUP2 DUP2 ADD SWAP1 DUP7 DUP5 GT ISZERO PUSH2 0x45C3 JUMPI PUSH1 0x0 DUP1 REVERT JUMPDEST DUP3 DUP7 ADD JUMPDEST DUP5 DUP2 LT ISZERO PUSH2 0x3CEB JUMPI DUP1 MLOAD DUP4 MSTORE SWAP2 DUP4 ADD SWAP2 DUP4 ADD PUSH2 0x45C7 JUMP JUMPDEST PUSH1 0x0 PUSH1 0x20 DUP3 DUP5 SUB SLT ISZERO PUSH2 0x45F0 JUMPI PUSH1 0x0 DUP1 REVERT JUMPDEST DUP2 MLOAD PUSH1 0x1 PUSH1 0x1 PUSH1 0x40 SHL SUB DUP2 GT ISZERO PUSH2 0x4606 JUMPI PUSH1 0x0 DUP1 REVERT JUMPDEST PUSH2 0x391D DUP5 DUP3 DUP6 ADD PUSH2 0x4583 JUMP JUMPDEST PUSH1 0x0 DUP3 NOT DUP3 GT ISZERO PUSH2 0x4625 JUMPI PUSH2 0x4625 PUSH2 0x441C JUMP JUMPDEST POP ADD SWAP1 JUMP JUMPDEST PUSH1 0x0 DUP2 SLOAD PUSH2 0x4637 DUP2 PUSH2 0x4239 JUMP JUMPDEST DUP1 DUP6 MSTORE PUSH1 0x20 PUSH1 0x1 DUP4 DUP2 AND DUP1 ISZERO PUSH2 0x4654 JUMPI PUSH1 0x1 DUP2 EQ PUSH2 0x4668 JUMPI PUSH2 0x4696 JUMP JUMPDEST PUSH1 0xFF NOT DUP6 AND DUP9 DUP5 ADD MSTORE PUSH1 0x40 DUP9 ADD SWAP6 POP PUSH2 0x4696 JUMP JUMPDEST DUP7 PUSH1 0x0 MSTORE DUP3 PUSH1 0x0 KECCAK256 PUSH1 0x0 JUMPDEST DUP6 DUP2 LT ISZERO PUSH2 0x468E JUMPI DUP2 SLOAD DUP11 DUP3 ADD DUP7 ADD MSTORE SWAP1 DUP4 ADD SWAP1 DUP5 ADD PUSH2 0x4673 JUMP JUMPDEST DUP10 ADD DUP5 ADD SWAP7 POP POP JUMPDEST POP POP POP POP POP SWAP3 SWAP2 POP POP JUMP JUMPDEST PUSH1 0x20 DUP2 MSTORE DUP2 SLOAD PUSH1 0x20 DUP3 ADD MSTORE PUSH1 0x1 DUP3 ADD SLOAD PUSH1 0x40 DUP3 ADD MSTORE PUSH1 0x2 DUP3 ADD SLOAD PUSH1 0x60 DUP3 ADD MSTORE PUSH1 0x3 DUP3 ADD SLOAD PUSH1 0x80 DUP3 ADD MSTORE PUSH1 0xA0 DUP1 DUP3 ADD MSTORE PUSH1 0x0 PUSH2 0x796 PUSH1 0xC0 DUP4 ADD PUSH1 0x4 DUP6 ADD PUSH2 0x462A JUMP JUMPDEST PUSH1 0x0 PUSH1 0x20 DUP3 DUP5 SUB SLT ISZERO PUSH2 0x46F4 JUMPI PUSH1 0x0 DUP1 REVERT JUMPDEST DUP2 MLOAD PUSH1 0x1 PUSH1 0x1 PUSH1 0x40 SHL SUB DUP1 DUP3 GT ISZERO PUSH2 0x470B JUMPI PUSH1 0x0 DUP1 REVERT JUMPDEST SWAP1 DUP4 ADD SWAP1 PUSH1 0x20 DUP3 DUP7 SUB SLT ISZERO PUSH2 0x471F JUMPI PUSH1 0x0 DUP1 REVERT JUMPDEST PUSH1 0x40 MLOAD PUSH1 0x20 DUP2 ADD DUP2 DUP2 LT DUP4 DUP3 GT OR ISZERO PUSH2 0x473A JUMPI PUSH2 0x473A PUSH2 0x3798 JUMP JUMPDEST PUSH1 0x40 MSTORE DUP3 MLOAD DUP3 DUP2 GT ISZERO PUSH2 0x474C JUMPI PUSH1 0x0 DUP1 REVERT JUMPDEST PUSH2 0x4758 DUP8 DUP3 DUP7 ADD PUSH2 0x4583 JUMP JUMPDEST DUP3 MSTORE POP SWAP6 SWAP5 POP POP POP POP POP JUMP JUMPDEST PUSH1 0x1 PUSH1 0x1 PUSH1 0xA0 SHL SUB DUP6 AND DUP2 MSTORE PUSH1 0x80 PUSH1 0x20 DUP3 ADD DUP2 SWAP1 MSTORE PUSH1 0x0 SWAP1 PUSH2 0x4788 SWAP1 DUP4 ADD DUP7 PUSH2 0x462A JUMP JUMPDEST PUSH1 0x40 DUP4 ADD SWAP5 SWAP1 SWAP5 MSTORE POP PUSH1 0x60 ADD MSTORE SWAP3 SWAP2 POP POP JUMP JUMPDEST PUSH1 0x0 PUSH1 0x20 DUP3 DUP5 SUB SLT ISZERO PUSH2 0x47AD JUMPI PUSH1 0x0 DUP1 REVERT JUMPDEST DUP2 MLOAD PUSH2 0x796 DUP2 PUSH2 0x40A5 JUMP JUMPDEST DUP3 DUP2 MSTORE PUSH1 0x40 PUSH1 0x20 DUP3 ADD MSTORE PUSH1 0x0 PUSH2 0x391D PUSH1 0x40 DUP4 ADD DUP5 PUSH2 0x3A04 JUMP JUMPDEST PUSH1 0x40 DUP2 MSTORE PUSH1 0x0 PUSH2 0x47E4 PUSH1 0x40 DUP4 ADD DUP6 PUSH2 0x3FE4 JUMP JUMPDEST SWAP1 POP DUP3 PUSH1 0x20 DUP4 ADD MSTORE SWAP4 SWAP3 POP POP POP JUMP JUMPDEST DUP6 DUP2 MSTORE DUP5 PUSH1 0x20 DUP3 ADD MSTORE PUSH1 0xA0 PUSH1 0x40 DUP3 ADD MSTORE PUSH1 0x0 PUSH2 0x4812 PUSH1 0xA0 DUP4 ADD DUP7 PUSH2 0x4526 JUMP JUMPDEST PUSH1 0x1 PUSH1 0x1 PUSH1 0xA0 SHL SUB SWAP5 SWAP1 SWAP5 AND PUSH1 0x60 DUP4 ADD MSTORE POP PUSH1 0x80 ADD MSTORE SWAP4 SWAP3 POP POP POP JUMP JUMPDEST PUSH1 0x1 PUSH1 0x1 PUSH1 0xA0 SHL SUB DUP4 AND DUP2 MSTORE PUSH1 0x40 PUSH1 0x20 DUP3 ADD DUP2 SWAP1 MSTORE PUSH1 0x0 SWAP1 PUSH2 0x391D SWAP1 DUP4 ADD DUP5 PUSH2 0x3A04 JUMP JUMPDEST PUSH1 0x0 DUP1 DUP4 SLT DUP1 ISZERO PUSH1 0x1 PUSH1 0xFF SHL DUP6 ADD DUP5 SLT AND ISZERO PUSH2 0x4871 JUMPI PUSH2 0x4871 PUSH2 0x441C JUMP JUMPDEST PUSH1 0x1 PUSH1 0x1 PUSH1 0xFF SHL SUB DUP5 ADD DUP4 SGT DUP2 AND ISZERO PUSH2 0x488C JUMPI PUSH2 0x488C PUSH2 0x441C JUMP JUMPDEST POP POP SUB SWAP1 JUMP JUMPDEST PUSH1 0x0 PUSH1 0x1 PUSH1 0x1 PUSH1 0xFF SHL SUB DUP2 DUP5 SGT DUP3 DUP5 SGT DUP1 DUP3 AND DUP7 DUP5 DIV DUP7 GT AND ISZERO PUSH2 0x48B8 JUMPI PUSH2 0x48B8 PUSH2 0x441C JUMP JUMPDEST PUSH1 0x1 PUSH1 0xFF SHL PUSH1 0x0 DUP8 SLT DUP3 DUP2 AND DUP8 DUP4 SDIV DUP10 SLT AND ISZERO PUSH2 0x48D7 JUMPI PUSH2 0x48D7 PUSH2 0x441C JUMP JUMPDEST PUSH1 0x0 DUP8 SLT SWAP3 POP DUP8 DUP3 SDIV DUP8 SLT DUP5 DUP5 AND AND ISZERO PUSH2 0x48F3 JUMPI PUSH2 0x48F3 PUSH2 0x441C JUMP JUMPDEST DUP8 DUP6 SDIV DUP8 SLT DUP2 DUP5 AND AND ISZERO PUSH2 0x4909 JUMPI PUSH2 0x4909 PUSH2 0x441C JUMP JUMPDEST POP POP POP SWAP3 SWAP1 SWAP4 MUL SWAP4 SWAP3 POP POP POP JUMP JUMPDEST PUSH1 0x0 DUP3 PUSH2 0x4926 JUMPI PUSH2 0x4926 PUSH2 0x4468 JUMP JUMPDEST PUSH1 0x1 PUSH1 0xFF SHL DUP3 EQ PUSH1 0x0 NOT DUP5 EQ AND ISZERO PUSH2 0x4940 JUMPI PUSH2 0x4940 PUSH2 0x441C JUMP JUMPDEST POP SDIV SWAP1 JUMP JUMPDEST PUSH1 0x0 PUSH1 0x1 PUSH1 0xFF SHL DUP3 ADD PUSH2 0x495A JUMPI PUSH2 0x495A PUSH2 0x441C JUMP JUMPDEST POP PUSH1 0x0 SUB SWAP1 JUMP JUMPDEST PUSH1 0x60 DUP2 MSTORE PUSH1 0x0 PUSH2 0x4974 PUSH1 0x60 DUP4 ADD DUP7 PUSH2 0x3951 JUMP JUMPDEST PUSH1 0x20 DUP4 ADD SWAP5 SWAP1 SWAP5 MSTORE POP PUSH1 0x40 ADD MSTORE SWAP2 SWAP1 POP JUMP INVALID LOG2 PUSH5 0x6970667358 0x22 SLT KECCAK256 ADDRESS 0x2F JUMP 0xB0 LOG1 PUSH8 0x8877FFED56EDDFB8 SWAP14 DUP5 ISZERO EXTCODESIZE LOG2 SDIV 0x4C SWAP15 SELFDESTRUCT SHL SWAP12 0xCF SSTORE 0xA8 0x2B 0x2C NUMBER 0xF8 PUSH5 0x736F6C6343 STOP ADDMOD 0xD STOP CALLER ",
  "sha1": "3911e1bc54e1528b33c3c97eadaf98aa0e5760dd",
  "source": "pragma solidity ^0.8.7;\nimport {TransferHelper} from '@uniswap/v3-periphery/contracts/libraries/TransferHelper.sol';\nimport {ISushiswapFactory} from 'interfaces/dex/sushiswap/ISushiswapFactory.sol';\nimport {ISushiswapRouter} from 'interfaces/dex/sushiswap/ISushiswapRouter.sol';\n\nimport {DepositableIERC20} from \"contracts/token/ERC20/DepositableIERC20.sol\";\nimport {IERC20} from \"interfaces/token/ERC20/IERC20.sol\";\nimport \"./token/DepositNFTAdapter.sol\";\nimport \"contracts/model/base/ModelBase.sol\";\nimport \"contracts/utils/Strings.sol\";\nimport { NFTOwnerState, NFTState, NFTContractState} from \"./token/Structs.sol\";\n\nimport {PortfolioState, TokenState} from \"./Structs.sol\";\n\n// import \"contracts/token/ERC20/IERC20.sol\";\n\n\n\ncontract ModelPortfolio is DepositNFTAdapter, ModelBase {\n  using Strings for string;\n  /* Kovan Addresses */\n\n  event updateStateEvent(PortfolioState state);\n  event SwapEvent( string[] tokenSymbolPath, uint256 amountIn);\n\n  event rebalanceEvent(string symbol, int256 valueChange, uint256 initialValue);\n\n  string public hubToken = 'WETH';\n  string public baseToken = 'WETH';\n\n  address public wethAddress = 0xC02aaA39b223FE8D0A0e5C4F27eAD9083C756Cc2;\n  DepositableIERC20 wethToken = DepositableIERC20(wethAddress);\n\n  address payable public sushiswapRouterAddress = payable(0xd9e1cE17f2641f24aE83637ab66a2cca9C378B9F);\n  ISushiswapRouter router = ISushiswapRouter(sushiswapRouterAddress);\n\n  address public sushiswapFactoryAddress  = 0xd9e1cE17f2641f24aE83637ab66a2cca9C378B9F;\n  ISushiswapFactory factory = ISushiswapFactory(sushiswapFactoryAddress);\n\n  mapping(string=>TokenState) public tokenStates;\n\n  TokenState[] public tokenStatesArray;\n  TokenState[][] public tokenStatesHistory;\n  string[] public tokenSymbols;\n  PortfolioState public state;\n  PortfolioState[] public stateHistory;\n  // map the block to the state of the portfolio\n\n  uint256 public percentBase = 10000;\n  \n\n\n  constructor(\n              string memory _name, \n              string memory _baseTokenSymbol,\n              string[] memory _tokenSymbols, address[] memory _tokenAddresses) ModelBase(_name){\n\n    this.setBaseToken(_baseTokenSymbol);\n    this.addTokens(_tokenSymbols, _tokenAddresses);\n    \n  }\n\n  function getTokenStateHistory() view external returns (TokenState[][] memory) {\n    TokenState[][] memory tokenStatesHistoryOutput = new TokenState[][](tokenStatesHistory.length);\n    for (uint i=0; i<tokenStatesHistory.length; i++ ) {\n      tokenStatesHistoryOutput[i]=tokenStatesHistory[i];\n    }\n    return tokenStatesHistoryOutput;\n  }\n\n  function getStateHistory() view external returns (PortfolioState[] memory) {\n    PortfolioState[] memory stateHistoryOutput = new PortfolioState[](stateHistory.length);\n    for (uint i=0; i<stateHistory.length; i++ ) {\n      stateHistoryOutput[i]=stateHistory[i];\n    }\n    return stateHistoryOutput;\n  }\n\n\n  function setBaseToken(string memory _baseTokenSymbol) public {\n\n    // require(tokenStates[baseTokenSymbol].Address != address(0), \n    //       'Base token isnt tracked fam, use addTokens to add the token');\n    state.baseTokenSymbol = _baseTokenSymbol;\n  }\n\n  function getTokens() public view returns(string[] memory) {\n    return tokenSymbols;\n  }\n\n\n\n  function addTokens(string[] memory _tokenSymbols, address[] memory _tokenAddresses) public {\n    \n    for (uint i=0; i<_tokenSymbols.length; i++) {\n      \n      if (tokenStates[_tokenSymbols[i]].Address == address(0)) {\n        tokenStates[_tokenSymbols[i]].Address = _tokenAddresses[i];\n        tokenStates[_tokenSymbols[i]].symbol = _tokenSymbols[i];\n        tokenSymbols.push(_tokenSymbols[i]);\n        tokenStates[_tokenSymbols[i]].index = i;\n    }\n    }\n\n  }\n\n  function removeTokens(string[] memory _tokenSymbols) public {\n      for (uint i=0; i<_tokenSymbols.length; i++) {\n        uint tokenSymbolIndex = tokenStates[_tokenSymbols[i]].index;\n        delete tokenSymbols[tokenSymbolIndex];\n        delete tokenStates[_tokenSymbols[i]];\n\n      }\n    }\n\n\n  function rebalancePortfolio(string[] memory _tokenSymbols, uint256[] memory tokenRatios, bool swapBool) public {\n    updateState();\n\n    string[] memory path = new string[](2);\n    string memory tokenSymbol;\n    int256 tokenRatioChange; \n    int256 relTokenRatioChange;\n    for (uint i; i<_tokenSymbols.length; i++) {\n        tokenSymbol = _tokenSymbols[i];\n\n        if (tokenSymbol.equals(state.baseTokenSymbol)) {\n          continue;\n        }\n\n        require(tokenStates[tokenSymbol].Address!=address(0), \"The Symbol provided is not in the Portfolio Tokens\");\n\n        tokenRatioChange = (int256(tokenRatios[i]) - int256(tokenStates[tokenSymbol].ratio));   \n\n        uint256 tokenBalance = tokenStates[tokenSymbol].balance;\n\n\n\n\n\n        if (tokenRatioChange<0) { \n\n          path[0] = tokenSymbol;\n          path[1] = hubToken; \n\n          relTokenRatioChange = (tokenRatioChange*int256(percentBase))/int256(tokenStates[tokenSymbol].ratio);\n          tokenStates[tokenSymbol].valueChange = (relTokenRatioChange*int256(tokenBalance))/int(percentBase);\n\n\n          swap(path, uint256(-tokenStates[tokenSymbol].valueChange));\n        } else {\n\n          tokenStates[tokenSymbol].valueChange = (tokenRatioChange*int256(state.marketValue))/int(percentBase);\n\n\n        }\n\n        emit rebalanceEvent(tokenSymbol, tokenStates[tokenSymbol].valueChange, tokenBalance);\n\n        \n    } \n\n    for (uint i; i<_tokenSymbols.length; i++) {\n      tokenSymbol = _tokenSymbols[i];\n      if (tokenSymbol.equals(state.baseTokenSymbol)) {\n                continue;\n              }\n      if  (tokenStates[tokenSymbol].valueChange>0) {  \n\n        path[0] = \"WETH\";\n        path[1] =  tokenSymbol; \n        swap(path,  uint(tokenStates[tokenSymbol].valueChange));\n      }\n    }\n    updateState();\n  }\n\n  function updateState() public {\n\n    state.marketValue = 0;\n    state.blockNumber = block.number;\n\n    for (uint i; i<tokenSymbols.length; i++) {\n      string storage tokenSymbol = tokenSymbols[i];\n      uint256 tokenBalance = getTokenBalance(tokenSymbol);\n\n      address[] memory path = new address[](2);\n      path[0]= tokenStates[tokenSymbol].Address;\n      path[1]=  tokenStates[state.baseTokenSymbol].Address;\n      tokenStates[tokenSymbol].balance = tokenBalance;\n      if (tokenBalance> 0 ) {\n        if (path[0] != path[1]) {\n          tokenStates[tokenSymbol].value =router.getAmountsOut(tokenBalance, path)[1];\n        } else {\n          tokenStates[tokenSymbol].value = tokenBalance;\n        }\n\n        state.marketValue += tokenStates[tokenSymbol].value;\n      }\n    }\n\n    for (uint i; i<tokenSymbols.length; i++) {\n      tokenStates[tokenSymbols[i]].ratio = (tokenStates[tokenSymbols[i]].value*percentBase)/(state.marketValue+1);\n      \n      if (i>=tokenStatesArray.length){\n        tokenStatesArray.push(tokenStates[tokenSymbols[i]]);\n      } else {\n        tokenStatesArray[i] = tokenStates[tokenSymbols[i]];\n      }\n    }\n\n    tokenStatesHistory.push(tokenStatesArray);\n    stateHistory.push(state);\n    \n    emit updateStateEvent(state);\n\n  }\n\n  \n  function getTokenBalance(string memory tokenSymbol) public view returns(uint256 balance) {\n    IERC20 token = IERC20(tokenStates[tokenSymbol].Address);\n    return token.balanceOf(address(this));\n  }\n\n  function swapRatio(string[] memory tokenSymbolPath, uint256 amountInRatio, bool swapBool) public {\n\n    // convert ratio (1000 == 100%) to value of token balance\n     emit SwapEvent(tokenSymbolPath, amountInRatio);\n    \n    if (swapBool) {\n     uint256 amountIn = (getTokenBalance(tokenSymbolPath[0])*amountInRatio)/percentBase;\n\n    emit SwapEvent(tokenSymbolPath, amountIn);\n\n    swap(tokenSymbolPath, amountIn);  \n    }\n      }\n  function swap(string[] memory tokenSymbolPath, \n                 uint amountIn) public  {\n\n    // address[] memory tokenAddressPath = address()[]\n\n    address[] memory tokenAddressPath = new address[](tokenSymbolPath.length);\n    for (uint i; i<tokenAddressPath.length; i++) {\n      tokenAddressPath[i]= tokenStates[tokenSymbolPath[i]].Address;\n      require(tokenAddressPath[i] != address(0),\n         \"you passed a null tokenSymbol that doesnt map to the list of addresses\");\n    }\n    \n    emit SwapEvent(tokenSymbolPath, amountIn);\n\n    TransferHelper.safeApprove(tokenAddressPath[0], address(router), amountIn);\n\n    uint deadline = block.timestamp + 10000;\n\n    router.swapExactTokensForTokens(amountIn, 0, tokenAddressPath, address(this),deadline);\n    }\n\n  function wrapETH() public payable{\n    uint ethBalance = address(this).balance;\n    require(ethBalance > 0, \"No ETH available to wrap\");\n    DepositableIERC20(tokenStates[\"WETH\"].Address).deposit{ value: ethBalance }();\n  }\n\n  function getUserTokenStates(address owner) public view returns (NFTState[] memory){\n      \n      NFTState[] memory nftStates = depositNFT.getAllOwnerTokenStates(owner);\n\n      for (uint i=0; i<nftStates.length; i++) {\n      /* \n      - we want to know how much deposit was done since the token minted\n      - this shows how much the market value has changed from when the token was invested\n      */ \n      \n      uint256 depositValueChange = state.depositValue - nftStates[i].portfolio.depositValue;\n\n      require(depositValueChange>=0, \" total deposit value should be greater than token deposit value \");\n      // see what the market change was (while removing the future deposits form other users)\n      \n      uint256 marketValueChangeRatio = ((state.marketValue - depositValueChange)*percentBase)/nftStates[i].portfolio.marketValue;\n\n      nftStates[i].marketValue = (marketValueChangeRatio * nftStates[i].depositValue)/percentBase;\n\n    }\n\n  return nftStates;\n  }\n\n  function getUserMarketValue() public view returns ( uint256 ) {\n    // get the owner state\n\n    // get the token states that were initially deposited by the owner\n    NFTState[] memory nftStates = depositNFT.getAllOwnerTokenStates(msg.sender);\n\n    uint256 userMarketValue = 0;\n    for (uint i=0; i<nftStates.length; i++) {\n      userMarketValue += nftStates[i].marketValue;\n    }\n    return userMarketValue;\n\n  }\n\n  function getUserDepositValue() public view returns ( uint256 ) {\n    // get the owner state\n\n    // get the token states that were initially deposited by the owner\n    NFTState[] memory nftStates = depositNFT.getAllOwnerTokenStates(msg.sender);\n\n\n    uint256 userDepositValue = 0;\n    for (uint i=0; i<nftStates.length; i++) {\n      userDepositValue += nftStates[i].depositValue;\n    }\n    return userDepositValue;\n\n  }\n\n  event WithdrawToken(address to, string tokenSymbol, uint256 balance, uint256 tokenBalance);\n\n  function withdraw(uint256 withdrawRatio) public {\n\n    if (withdrawRatio > percentBase) {\n      withdrawRatio=percentBase;\n    }\n\n    updateState();\n\n    // get the owner state\n    NFTOwnerState memory nftOwnerState = depositNFT.getOwnerState(msg.sender);\n\n    // get the token states that were initially deposited by the owner\n    NFTState[] memory nftStates = getUserTokenStates(msg.sender);\n\n\n    \n    for (uint i=0; i<nftStates.length; i++){\n\n      // calculate the entitled ratio of the \n      nftStates[i].marketValue = (nftStates[i].marketValue*withdrawRatio)/percentBase;\n      uint256 entitledTreasuryRatio =((nftStates[i].marketValue*percentBase)/state.marketValue);\n\n\n    for (uint j=0; j<tokenSymbols.length; j++ ) {\n      // calculate market value ratio of the depositNFT with portfolio value\n      uint256 tokenBalance = tokenStates[tokenSymbols[j]].balance;\n\n      emit WithdrawToken(msg.sender, tokenSymbols[j],entitledTreasuryRatio , tokenBalance);\n\n      if (tokenBalance>0) {\n\n        uint256 tokenValue = tokenStates[tokenSymbols[j]].value;\n        // get amount of token balance to withdrawal\n        uint256 tokenWithdrawAmount = (tokenBalance*entitledTreasuryRatio)/percentBase;\n        uint256 tokenWithdrawValue = (tokenValue*entitledTreasuryRatio)/percentBase;\n        \n        // transfer amount of tokenStates to msg.sender\n        IERC20(tokenStates[tokenSymbols[j]].Address).transfer(msg.sender, tokenWithdrawAmount);\n        nftStates[i].depositValue = (((percentBase - withdrawRatio)*nftStates[i].depositValue)/percentBase);\n        nftStates[i].marketValue = (((percentBase - withdrawRatio)*nftStates[i].marketValue)/percentBase);\n\n\n        }\n  }\n  if (nftStates[i].depositValue==0){\n    depositNFT.burn(nftOwnerState.tokenIds[i]);\n  }\n  else if (nftStates[i].depositValue>0){\n        nftStates[i].lastUpdateBlock = block.number;\n        depositNFT.updateTokenState(nftOwnerState.tokenIds[i], nftStates[i]);\n  }\n}\n\n  }\n\n  function deposit() public payable {\n\n        require(msg.value>0, \"msg.value is 0 fam\");\n        wrapETH();\n        updateState();\n\n\n        state.depositValue = state.depositValue + msg.value;\n        NFTState memory nftState;\n\n        // when minting, the deposit value and current value are the same\n        nftState.depositValue = msg.value;\n        nftState.marketValue = nftState.depositValue;\n\n        // use block to track the last timestamp\n        nftState.lastUpdateBlock = block.number;\n        nftState.portfolio = state;\n        depositNFT.mint(msg.sender, nftState);\n    }\n\n}",
  "sourcePath": "contracts/model/portfolio/ModelPortfolio.sol",
  "type": "contract"
}