{
  "abi": [
    {
      "inputs": [
        {
          "internalType": "string",
          "name": "_name",
          "type": "string"
        }
      ],
      "stateMutability": "nonpayable",
      "type": "constructor"
    },
    {
      "inputs": [
        {
          "internalType": "address",
          "name": "modelContract",
          "type": "address"
        }
      ],
      "name": "addItem",
      "outputs": [],
      "stateMutability": "payable",
      "type": "function"
    },
    {
      "inputs": [],
      "name": "category",
      "outputs": [
        {
          "internalType": "string",
          "name": "",
          "type": "string"
        }
      ],
      "stateMutability": "view",
      "type": "function"
    },
    {
      "inputs": [
        {
          "internalType": "uint256",
          "name": "",
          "type": "uint256"
        }
      ],
      "name": "id2index",
      "outputs": [
        {
          "internalType": "uint256",
          "name": "",
          "type": "uint256"
        }
      ],
      "stateMutability": "view",
      "type": "function"
    },
    {
      "inputs": [
        {
          "internalType": "uint256",
          "name": "",
          "type": "uint256"
        }
      ],
      "name": "itemIds",
      "outputs": [
        {
          "internalType": "uint256",
          "name": "",
          "type": "uint256"
        }
      ],
      "stateMutability": "view",
      "type": "function"
    },
    {
      "inputs": [],
      "name": "listItems",
      "outputs": [
        {
          "components": [
            {
              "internalType": "uint256",
              "name": "id",
              "type": "uint256"
            },
            {
              "internalType": "address",
              "name": "model",
              "type": "address"
            },
            {
              "internalType": "address",
              "name": "creator",
              "type": "address"
            }
          ],
          "internalType": "struct CommuneItem[]",
          "name": "",
          "type": "tuple[]"
        }
      ],
      "stateMutability": "view",
      "type": "function"
    },
    {
      "inputs": [],
      "name": "listMyItems",
      "outputs": [
        {
          "components": [
            {
              "internalType": "uint256",
              "name": "id",
              "type": "uint256"
            },
            {
              "internalType": "address",
              "name": "model",
              "type": "address"
            },
            {
              "internalType": "address",
              "name": "creator",
              "type": "address"
            }
          ],
          "internalType": "struct CommuneItem[]",
          "name": "",
          "type": "tuple[]"
        }
      ],
      "stateMutability": "view",
      "type": "function"
    },
    {
      "inputs": [
        {
          "internalType": "address",
          "name": "",
          "type": "address"
        }
      ],
      "name": "model2id",
      "outputs": [
        {
          "internalType": "uint256",
          "name": "",
          "type": "uint256"
        }
      ],
      "stateMutability": "view",
      "type": "function"
    },
    {
      "inputs": [],
      "name": "name",
      "outputs": [
        {
          "internalType": "string",
          "name": "",
          "type": "string"
        }
      ],
      "stateMutability": "view",
      "type": "function"
    },
    {
      "inputs": [
        {
          "internalType": "uint256",
          "name": "itemId",
          "type": "uint256"
        }
      ],
      "name": "removeItem",
      "outputs": [],
      "stateMutability": "payable",
      "type": "function"
    }
  ],
  "bytecode": "608060405260006002553480156200001657600080fd5b5060405162000cf938038062000cf9833981016040819052620000399162000129565b6001600081905580546001600160a01b031916331790558051620000659060039060208401906200006d565b505062000241565b8280546200007b9062000205565b90600052602060002090601f0160209004810192826200009f5760008555620000ea565b82601f10620000ba57805160ff1916838001178555620000ea565b82800160010185558215620000ea579182015b82811115620000ea578251825591602001919060010190620000cd565b50620000f8929150620000fc565b5090565b5b80821115620000f85760008155600101620000fd565b634e487b7160e01b600052604160045260246000fd5b600060208083850312156200013d57600080fd5b82516001600160401b03808211156200015557600080fd5b818501915085601f8301126200016a57600080fd5b8151818111156200017f576200017f62000113565b604051601f8201601f19908116603f01168101908382118183101715620001aa57620001aa62000113565b816040528281528886848701011115620001c357600080fd5b600093505b82841015620001e75784840186015181850187015292850192620001c8565b82841115620001f95760008684830101525b98975050505050505050565b600181811c908216806200021a57607f821691505b6020821081036200023b57634e487b7160e01b600052602260045260246000fd5b50919050565b610aa880620002516000396000f3fe6080604052600436106100865760003560e01c80637cf90fcc116100595780637cf90fcc14610102578063994e08b514610115578063b3dc00fe14610150578063b4a1277614610170578063ef430aa61461019d57600080fd5b806306fdde031461008b57806317b46fc0146100b6578063355eefc8146100d857806371329171146100ed575b600080fd5b34801561009757600080fd5b506100a06101b2565b6040516100ad91906108ac565b60405180910390f35b3480156100c257600080fd5b506100cb610240565b6040516100ad9190610901565b3480156100e457600080fd5b506100cb610365565b6101006100fb366004610967565b610480565b005b610100610110366004610980565b61070f565b34801561012157600080fd5b50610142610130366004610980565b60086020526000908152604090205481565b6040519081526020016100ad565b34801561015c57600080fd5b5061014261016b366004610967565b61087e565b34801561017c57600080fd5b5061014261018b366004610967565b60076020526000908152604090205481565b3480156101a957600080fd5b506100a061089f565b600380546101bf906109b0565b80601f01602080910402602001604051908101604052809291908181526020018280546101eb906109b0565b80156102385780601f1061020d57610100808354040283529160200191610238565b820191906000526020600020905b81548152906001019060200180831161021b57829003601f168201915b505050505081565b33600090815260056020526040812080546060929067ffffffffffffffff81111561026d5761026d6109ea565b6040519080825280602002602001820160405280156102b857816020015b604080516060810182526000808252602080830182905292820152825260001990920191018161028b5790505b50905060005b825481101561035e5760066000600983815481106102de576102de610a00565b60009182526020808320909101548352828101939093526040918201902081516060810183528154815260018201546001600160a01b039081169482019490945260029091015490921690820152825183908390811061034057610340610a00565b6020026020010181905250808061035690610a2c565b9150506102be565b5092915050565b60025460609060008167ffffffffffffffff811115610386576103866109ea565b6040519080825280602002602001820160405280156103d157816020015b60408051606081018252600080825260208083018290529282015282526000199092019101816103a45790505b50905060005b60095481101561035e57600060066000600984815481106103fa576103fa610a00565b60009182526020808320909101548352828101939093526040918201902081516060810183528154815260018201546001600160a01b0390811694820194909452600282015490931691830191909152845190925084908490811061046157610461610a00565b602002602001018190525050808061047890610a2c565b9150506103d7565b6002600054036104d75760405162461bcd60e51b815260206004820152601f60248201527f5265656e7472616e637947756172643a207265656e7472616e742063616c6c0060448201526064015b60405180910390fd5b60026000908155818152600660209081526040808320600101546001600160a01b0316835260089091529020541561070757336000908152600560205260408120905b81548110156105ca578282828154811061053657610536610a00565b9060005260206000200154036105b8578154829061055690600190610a45565b8154811061056657610566610a00565b906000526020600020015482828154811061058357610583610a00565b9060005260206000200181905550818054806105a1576105a1610a5c565b600190038181906000526020600020016000905590555b806105c281610a2c565b91505061051a565b506000828152600760208190526040822054600980549193916105ef90600190610a45565b815481106105ff576105ff610a00565b600091825260208083209091015483528201929092526040019020556009805461062b90600190610a45565b8154811061063b5761063b610a00565b9060005260206000200154600960076000858152602001908152602001600020548154811061066c5761066c610a00565b600091825260208083209091019290925583815260079091526040812055600980548061069b5761069b610a5c565b600082815260208082208301600019908101839055909201909255838252600680825260408084206001810180546001600160a01b03168652600885529185208590558685529190925291825580546001600160a01b0319908116909155600290910180549091169055505b506001600055565b6002600054036107615760405162461bcd60e51b815260206004820152601f60248201527f5265656e7472616e637947756172643a207265656e7472616e742063616c6c0060448201526064016104ce565b600260009081556001600160a01b0382168152600860205260408120549003610707576002805490600061079483610a2c565b9091555050600254600980546001818101835560008390527f6e1540171b6c0c960b71a7020d9f60077f6af931a8bbf590da0223dacf75c7af90910183905590546107df9190610a45565b60008281526007602090815260408083209390935533808352600582528383208054600181810183559185528385200186905584516060810186528681526001600160a01b0388811682860181815283890195865289885260068752888820935184555193830180549483166001600160a01b031995861617905593516002909201805492909116919092161790558252600890522055506001600055565b6009818154811061088e57600080fd5b600091825260209091200154905081565b600480546101bf906109b0565b600060208083528351808285015260005b818110156108d9578581018301518582016040015282016108bd565b818111156108eb576000604083870101525b50601f01601f1916929092016040019392505050565b602080825282518282018190526000919060409081850190868401855b8281101561095a57815180518552868101516001600160a01b03908116888701529086015116858501526060909301929085019060010161091e565b5091979650505050505050565b60006020828403121561097957600080fd5b5035919050565b60006020828403121561099257600080fd5b81356001600160a01b03811681146109a957600080fd5b9392505050565b600181811c908216806109c457607f821691505b6020821081036109e457634e487b7160e01b600052602260045260246000fd5b50919050565b634e487b7160e01b600052604160045260246000fd5b634e487b7160e01b600052603260045260246000fd5b634e487b7160e01b600052601160045260246000fd5b600060018201610a3e57610a3e610a16565b5060010190565b600082821015610a5757610a57610a16565b500390565b634e487b7160e01b600052603160045260246000fdfea2646970667358221220915fac418888aba0840e824d3157f7bc2baa438aabc11c352b87118a780d64c464736f6c634300080d0033",
  "bytecodeSha1": "38e09c930c7746f3ddc3720927cd7a276e3f6042",
  "compiler": {
    "evm_version": "istanbul",
    "optimizer": {
      "enabled": true,
      "runs": 200
    },
    "version": "0.8.13+commit.abaa5c0e"
  },
  "contractName": "ModelCommune",
  "language": "Solidity",
  "natspec": {
    "kind": "dev",
    "methods": {},
    "version": 1
  },
  "opcodes": "PUSH1 0x80 PUSH1 0x40 MSTORE PUSH1 0x4 CALLDATASIZE LT PUSH2 0x86 JUMPI PUSH1 0x0 CALLDATALOAD PUSH1 0xE0 SHR DUP1 PUSH4 0x7CF90FCC GT PUSH2 0x59 JUMPI DUP1 PUSH4 0x7CF90FCC EQ PUSH2 0x102 JUMPI DUP1 PUSH4 0x994E08B5 EQ PUSH2 0x115 JUMPI DUP1 PUSH4 0xB3DC00FE EQ PUSH2 0x150 JUMPI DUP1 PUSH4 0xB4A12776 EQ PUSH2 0x170 JUMPI DUP1 PUSH4 0xEF430AA6 EQ PUSH2 0x19D JUMPI PUSH1 0x0 DUP1 REVERT JUMPDEST DUP1 PUSH4 0x6FDDE03 EQ PUSH2 0x8B JUMPI DUP1 PUSH4 0x17B46FC0 EQ PUSH2 0xB6 JUMPI DUP1 PUSH4 0x355EEFC8 EQ PUSH2 0xD8 JUMPI DUP1 PUSH4 0x71329171 EQ PUSH2 0xED JUMPI JUMPDEST PUSH1 0x0 DUP1 REVERT JUMPDEST CALLVALUE DUP1 ISZERO PUSH2 0x97 JUMPI PUSH1 0x0 DUP1 REVERT JUMPDEST POP PUSH2 0xA0 PUSH2 0x1B2 JUMP JUMPDEST PUSH1 0x40 MLOAD PUSH2 0xAD SWAP2 SWAP1 PUSH2 0x8AC JUMP JUMPDEST PUSH1 0x40 MLOAD DUP1 SWAP2 SUB SWAP1 RETURN JUMPDEST CALLVALUE DUP1 ISZERO PUSH2 0xC2 JUMPI PUSH1 0x0 DUP1 REVERT JUMPDEST POP PUSH2 0xCB PUSH2 0x240 JUMP JUMPDEST PUSH1 0x40 MLOAD PUSH2 0xAD SWAP2 SWAP1 PUSH2 0x901 JUMP JUMPDEST CALLVALUE DUP1 ISZERO PUSH2 0xE4 JUMPI PUSH1 0x0 DUP1 REVERT JUMPDEST POP PUSH2 0xCB PUSH2 0x365 JUMP JUMPDEST PUSH2 0x100 PUSH2 0xFB CALLDATASIZE PUSH1 0x4 PUSH2 0x967 JUMP JUMPDEST PUSH2 0x480 JUMP JUMPDEST STOP JUMPDEST PUSH2 0x100 PUSH2 0x110 CALLDATASIZE PUSH1 0x4 PUSH2 0x980 JUMP JUMPDEST PUSH2 0x70F JUMP JUMPDEST CALLVALUE DUP1 ISZERO PUSH2 0x121 JUMPI PUSH1 0x0 DUP1 REVERT JUMPDEST POP PUSH2 0x142 PUSH2 0x130 CALLDATASIZE PUSH1 0x4 PUSH2 0x980 JUMP JUMPDEST PUSH1 0x8 PUSH1 0x20 MSTORE PUSH1 0x0 SWAP1 DUP2 MSTORE PUSH1 0x40 SWAP1 KECCAK256 SLOAD DUP2 JUMP JUMPDEST PUSH1 0x40 MLOAD SWAP1 DUP2 MSTORE PUSH1 0x20 ADD PUSH2 0xAD JUMP JUMPDEST CALLVALUE DUP1 ISZERO PUSH2 0x15C JUMPI PUSH1 0x0 DUP1 REVERT JUMPDEST POP PUSH2 0x142 PUSH2 0x16B CALLDATASIZE PUSH1 0x4 PUSH2 0x967 JUMP JUMPDEST PUSH2 0x87E JUMP JUMPDEST CALLVALUE DUP1 ISZERO PUSH2 0x17C JUMPI PUSH1 0x0 DUP1 REVERT JUMPDEST POP PUSH2 0x142 PUSH2 0x18B CALLDATASIZE PUSH1 0x4 PUSH2 0x967 JUMP JUMPDEST PUSH1 0x7 PUSH1 0x20 MSTORE PUSH1 0x0 SWAP1 DUP2 MSTORE PUSH1 0x40 SWAP1 KECCAK256 SLOAD DUP2 JUMP JUMPDEST CALLVALUE DUP1 ISZERO PUSH2 0x1A9 JUMPI PUSH1 0x0 DUP1 REVERT JUMPDEST POP PUSH2 0xA0 PUSH2 0x89F JUMP JUMPDEST PUSH1 0x3 DUP1 SLOAD PUSH2 0x1BF SWAP1 PUSH2 0x9B0 JUMP JUMPDEST DUP1 PUSH1 0x1F ADD PUSH1 0x20 DUP1 SWAP2 DIV MUL PUSH1 0x20 ADD PUSH1 0x40 MLOAD SWAP1 DUP2 ADD PUSH1 0x40 MSTORE DUP1 SWAP3 SWAP2 SWAP1 DUP2 DUP2 MSTORE PUSH1 0x20 ADD DUP3 DUP1 SLOAD PUSH2 0x1EB SWAP1 PUSH2 0x9B0 JUMP JUMPDEST DUP1 ISZERO PUSH2 0x238 JUMPI DUP1 PUSH1 0x1F LT PUSH2 0x20D JUMPI PUSH2 0x100 DUP1 DUP4 SLOAD DIV MUL DUP4 MSTORE SWAP2 PUSH1 0x20 ADD SWAP2 PUSH2 0x238 JUMP JUMPDEST DUP3 ADD SWAP2 SWAP1 PUSH1 0x0 MSTORE PUSH1 0x20 PUSH1 0x0 KECCAK256 SWAP1 JUMPDEST DUP2 SLOAD DUP2 MSTORE SWAP1 PUSH1 0x1 ADD SWAP1 PUSH1 0x20 ADD DUP1 DUP4 GT PUSH2 0x21B JUMPI DUP3 SWAP1 SUB PUSH1 0x1F AND DUP3 ADD SWAP2 JUMPDEST POP POP POP POP POP DUP2 JUMP JUMPDEST CALLER PUSH1 0x0 SWAP1 DUP2 MSTORE PUSH1 0x5 PUSH1 0x20 MSTORE PUSH1 0x40 DUP2 KECCAK256 DUP1 SLOAD PUSH1 0x60 SWAP3 SWAP1 PUSH8 0xFFFFFFFFFFFFFFFF DUP2 GT ISZERO PUSH2 0x26D JUMPI PUSH2 0x26D PUSH2 0x9EA JUMP JUMPDEST PUSH1 0x40 MLOAD SWAP1 DUP1 DUP3 MSTORE DUP1 PUSH1 0x20 MUL PUSH1 0x20 ADD DUP3 ADD PUSH1 0x40 MSTORE DUP1 ISZERO PUSH2 0x2B8 JUMPI DUP2 PUSH1 0x20 ADD JUMPDEST PUSH1 0x40 DUP1 MLOAD PUSH1 0x60 DUP2 ADD DUP3 MSTORE PUSH1 0x0 DUP1 DUP3 MSTORE PUSH1 0x20 DUP1 DUP4 ADD DUP3 SWAP1 MSTORE SWAP3 DUP3 ADD MSTORE DUP3 MSTORE PUSH1 0x0 NOT SWAP1 SWAP3 ADD SWAP2 ADD DUP2 PUSH2 0x28B JUMPI SWAP1 POP JUMPDEST POP SWAP1 POP PUSH1 0x0 JUMPDEST DUP3 SLOAD DUP2 LT ISZERO PUSH2 0x35E JUMPI PUSH1 0x6 PUSH1 0x0 PUSH1 0x9 DUP4 DUP2 SLOAD DUP2 LT PUSH2 0x2DE JUMPI PUSH2 0x2DE PUSH2 0xA00 JUMP JUMPDEST PUSH1 0x0 SWAP2 DUP3 MSTORE PUSH1 0x20 DUP1 DUP4 KECCAK256 SWAP1 SWAP2 ADD SLOAD DUP4 MSTORE DUP3 DUP2 ADD SWAP4 SWAP1 SWAP4 MSTORE PUSH1 0x40 SWAP2 DUP3 ADD SWAP1 KECCAK256 DUP2 MLOAD PUSH1 0x60 DUP2 ADD DUP4 MSTORE DUP2 SLOAD DUP2 MSTORE PUSH1 0x1 DUP3 ADD SLOAD PUSH1 0x1 PUSH1 0x1 PUSH1 0xA0 SHL SUB SWAP1 DUP2 AND SWAP5 DUP3 ADD SWAP5 SWAP1 SWAP5 MSTORE PUSH1 0x2 SWAP1 SWAP2 ADD SLOAD SWAP1 SWAP3 AND SWAP1 DUP3 ADD MSTORE DUP3 MLOAD DUP4 SWAP1 DUP4 SWAP1 DUP2 LT PUSH2 0x340 JUMPI PUSH2 0x340 PUSH2 0xA00 JUMP JUMPDEST PUSH1 0x20 MUL PUSH1 0x20 ADD ADD DUP2 SWAP1 MSTORE POP DUP1 DUP1 PUSH2 0x356 SWAP1 PUSH2 0xA2C JUMP JUMPDEST SWAP2 POP POP PUSH2 0x2BE JUMP JUMPDEST POP SWAP3 SWAP2 POP POP JUMP JUMPDEST PUSH1 0x2 SLOAD PUSH1 0x60 SWAP1 PUSH1 0x0 DUP2 PUSH8 0xFFFFFFFFFFFFFFFF DUP2 GT ISZERO PUSH2 0x386 JUMPI PUSH2 0x386 PUSH2 0x9EA JUMP JUMPDEST PUSH1 0x40 MLOAD SWAP1 DUP1 DUP3 MSTORE DUP1 PUSH1 0x20 MUL PUSH1 0x20 ADD DUP3 ADD PUSH1 0x40 MSTORE DUP1 ISZERO PUSH2 0x3D1 JUMPI DUP2 PUSH1 0x20 ADD JUMPDEST PUSH1 0x40 DUP1 MLOAD PUSH1 0x60 DUP2 ADD DUP3 MSTORE PUSH1 0x0 DUP1 DUP3 MSTORE PUSH1 0x20 DUP1 DUP4 ADD DUP3 SWAP1 MSTORE SWAP3 DUP3 ADD MSTORE DUP3 MSTORE PUSH1 0x0 NOT SWAP1 SWAP3 ADD SWAP2 ADD DUP2 PUSH2 0x3A4 JUMPI SWAP1 POP JUMPDEST POP SWAP1 POP PUSH1 0x0 JUMPDEST PUSH1 0x9 SLOAD DUP2 LT ISZERO PUSH2 0x35E JUMPI PUSH1 0x0 PUSH1 0x6 PUSH1 0x0 PUSH1 0x9 DUP5 DUP2 SLOAD DUP2 LT PUSH2 0x3FA JUMPI PUSH2 0x3FA PUSH2 0xA00 JUMP JUMPDEST PUSH1 0x0 SWAP2 DUP3 MSTORE PUSH1 0x20 DUP1 DUP4 KECCAK256 SWAP1 SWAP2 ADD SLOAD DUP4 MSTORE DUP3 DUP2 ADD SWAP4 SWAP1 SWAP4 MSTORE PUSH1 0x40 SWAP2 DUP3 ADD SWAP1 KECCAK256 DUP2 MLOAD PUSH1 0x60 DUP2 ADD DUP4 MSTORE DUP2 SLOAD DUP2 MSTORE PUSH1 0x1 DUP3 ADD SLOAD PUSH1 0x1 PUSH1 0x1 PUSH1 0xA0 SHL SUB SWAP1 DUP2 AND SWAP5 DUP3 ADD SWAP5 SWAP1 SWAP5 MSTORE PUSH1 0x2 DUP3 ADD SLOAD SWAP1 SWAP4 AND SWAP2 DUP4 ADD SWAP2 SWAP1 SWAP2 MSTORE DUP5 MLOAD SWAP1 SWAP3 POP DUP5 SWAP1 DUP5 SWAP1 DUP2 LT PUSH2 0x461 JUMPI PUSH2 0x461 PUSH2 0xA00 JUMP JUMPDEST PUSH1 0x20 MUL PUSH1 0x20 ADD ADD DUP2 SWAP1 MSTORE POP POP DUP1 DUP1 PUSH2 0x478 SWAP1 PUSH2 0xA2C JUMP JUMPDEST SWAP2 POP POP PUSH2 0x3D7 JUMP JUMPDEST PUSH1 0x2 PUSH1 0x0 SLOAD SUB PUSH2 0x4D7 JUMPI PUSH1 0x40 MLOAD PUSH3 0x461BCD PUSH1 0xE5 SHL DUP2 MSTORE PUSH1 0x20 PUSH1 0x4 DUP3 ADD MSTORE PUSH1 0x1F PUSH1 0x24 DUP3 ADD MSTORE PUSH32 0x5265656E7472616E637947756172643A207265656E7472616E742063616C6C00 PUSH1 0x44 DUP3 ADD MSTORE PUSH1 0x64 ADD JUMPDEST PUSH1 0x40 MLOAD DUP1 SWAP2 SUB SWAP1 REVERT JUMPDEST PUSH1 0x2 PUSH1 0x0 SWAP1 DUP2 SSTORE DUP2 DUP2 MSTORE PUSH1 0x6 PUSH1 0x20 SWAP1 DUP2 MSTORE PUSH1 0x40 DUP1 DUP4 KECCAK256 PUSH1 0x1 ADD SLOAD PUSH1 0x1 PUSH1 0x1 PUSH1 0xA0 SHL SUB AND DUP4 MSTORE PUSH1 0x8 SWAP1 SWAP2 MSTORE SWAP1 KECCAK256 SLOAD ISZERO PUSH2 0x707 JUMPI CALLER PUSH1 0x0 SWAP1 DUP2 MSTORE PUSH1 0x5 PUSH1 0x20 MSTORE PUSH1 0x40 DUP2 KECCAK256 SWAP1 JUMPDEST DUP2 SLOAD DUP2 LT ISZERO PUSH2 0x5CA JUMPI DUP3 DUP3 DUP3 DUP2 SLOAD DUP2 LT PUSH2 0x536 JUMPI PUSH2 0x536 PUSH2 0xA00 JUMP JUMPDEST SWAP1 PUSH1 0x0 MSTORE PUSH1 0x20 PUSH1 0x0 KECCAK256 ADD SLOAD SUB PUSH2 0x5B8 JUMPI DUP2 SLOAD DUP3 SWAP1 PUSH2 0x556 SWAP1 PUSH1 0x1 SWAP1 PUSH2 0xA45 JUMP JUMPDEST DUP2 SLOAD DUP2 LT PUSH2 0x566 JUMPI PUSH2 0x566 PUSH2 0xA00 JUMP JUMPDEST SWAP1 PUSH1 0x0 MSTORE PUSH1 0x20 PUSH1 0x0 KECCAK256 ADD SLOAD DUP3 DUP3 DUP2 SLOAD DUP2 LT PUSH2 0x583 JUMPI PUSH2 0x583 PUSH2 0xA00 JUMP JUMPDEST SWAP1 PUSH1 0x0 MSTORE PUSH1 0x20 PUSH1 0x0 KECCAK256 ADD DUP2 SWAP1 SSTORE POP DUP2 DUP1 SLOAD DUP1 PUSH2 0x5A1 JUMPI PUSH2 0x5A1 PUSH2 0xA5C JUMP JUMPDEST PUSH1 0x1 SWAP1 SUB DUP2 DUP2 SWAP1 PUSH1 0x0 MSTORE PUSH1 0x20 PUSH1 0x0 KECCAK256 ADD PUSH1 0x0 SWAP1 SSTORE SWAP1 SSTORE JUMPDEST DUP1 PUSH2 0x5C2 DUP2 PUSH2 0xA2C JUMP JUMPDEST SWAP2 POP POP PUSH2 0x51A JUMP JUMPDEST POP PUSH1 0x0 DUP3 DUP2 MSTORE PUSH1 0x7 PUSH1 0x20 DUP2 SWAP1 MSTORE PUSH1 0x40 DUP3 KECCAK256 SLOAD PUSH1 0x9 DUP1 SLOAD SWAP2 SWAP4 SWAP2 PUSH2 0x5EF SWAP1 PUSH1 0x1 SWAP1 PUSH2 0xA45 JUMP JUMPDEST DUP2 SLOAD DUP2 LT PUSH2 0x5FF JUMPI PUSH2 0x5FF PUSH2 0xA00 JUMP JUMPDEST PUSH1 0x0 SWAP2 DUP3 MSTORE PUSH1 0x20 DUP1 DUP4 KECCAK256 SWAP1 SWAP2 ADD SLOAD DUP4 MSTORE DUP3 ADD SWAP3 SWAP1 SWAP3 MSTORE PUSH1 0x40 ADD SWAP1 KECCAK256 SSTORE PUSH1 0x9 DUP1 SLOAD PUSH2 0x62B SWAP1 PUSH1 0x1 SWAP1 PUSH2 0xA45 JUMP JUMPDEST DUP2 SLOAD DUP2 LT PUSH2 0x63B JUMPI PUSH2 0x63B PUSH2 0xA00 JUMP JUMPDEST SWAP1 PUSH1 0x0 MSTORE PUSH1 0x20 PUSH1 0x0 KECCAK256 ADD SLOAD PUSH1 0x9 PUSH1 0x7 PUSH1 0x0 DUP6 DUP2 MSTORE PUSH1 0x20 ADD SWAP1 DUP2 MSTORE PUSH1 0x20 ADD PUSH1 0x0 KECCAK256 SLOAD DUP2 SLOAD DUP2 LT PUSH2 0x66C JUMPI PUSH2 0x66C PUSH2 0xA00 JUMP JUMPDEST PUSH1 0x0 SWAP2 DUP3 MSTORE PUSH1 0x20 DUP1 DUP4 KECCAK256 SWAP1 SWAP2 ADD SWAP3 SWAP1 SWAP3 SSTORE DUP4 DUP2 MSTORE PUSH1 0x7 SWAP1 SWAP2 MSTORE PUSH1 0x40 DUP2 KECCAK256 SSTORE PUSH1 0x9 DUP1 SLOAD DUP1 PUSH2 0x69B JUMPI PUSH2 0x69B PUSH2 0xA5C JUMP JUMPDEST PUSH1 0x0 DUP3 DUP2 MSTORE PUSH1 0x20 DUP1 DUP3 KECCAK256 DUP4 ADD PUSH1 0x0 NOT SWAP1 DUP2 ADD DUP4 SWAP1 SSTORE SWAP1 SWAP3 ADD SWAP1 SWAP3 SSTORE DUP4 DUP3 MSTORE PUSH1 0x6 DUP1 DUP3 MSTORE PUSH1 0x40 DUP1 DUP5 KECCAK256 PUSH1 0x1 DUP2 ADD DUP1 SLOAD PUSH1 0x1 PUSH1 0x1 PUSH1 0xA0 SHL SUB AND DUP7 MSTORE PUSH1 0x8 DUP6 MSTORE SWAP2 DUP6 KECCAK256 DUP6 SWAP1 SSTORE DUP7 DUP6 MSTORE SWAP2 SWAP1 SWAP3 MSTORE SWAP2 DUP3 SSTORE DUP1 SLOAD PUSH1 0x1 PUSH1 0x1 PUSH1 0xA0 SHL SUB NOT SWAP1 DUP2 AND SWAP1 SWAP2 SSTORE PUSH1 0x2 SWAP1 SWAP2 ADD DUP1 SLOAD SWAP1 SWAP2 AND SWAP1 SSTORE POP JUMPDEST POP PUSH1 0x1 PUSH1 0x0 SSTORE JUMP JUMPDEST PUSH1 0x2 PUSH1 0x0 SLOAD SUB PUSH2 0x761 JUMPI PUSH1 0x40 MLOAD PUSH3 0x461BCD PUSH1 0xE5 SHL DUP2 MSTORE PUSH1 0x20 PUSH1 0x4 DUP3 ADD MSTORE PUSH1 0x1F PUSH1 0x24 DUP3 ADD MSTORE PUSH32 0x5265656E7472616E637947756172643A207265656E7472616E742063616C6C00 PUSH1 0x44 DUP3 ADD MSTORE PUSH1 0x64 ADD PUSH2 0x4CE JUMP JUMPDEST PUSH1 0x2 PUSH1 0x0 SWAP1 DUP2 SSTORE PUSH1 0x1 PUSH1 0x1 PUSH1 0xA0 SHL SUB DUP3 AND DUP2 MSTORE PUSH1 0x8 PUSH1 0x20 MSTORE PUSH1 0x40 DUP2 KECCAK256 SLOAD SWAP1 SUB PUSH2 0x707 JUMPI PUSH1 0x2 DUP1 SLOAD SWAP1 PUSH1 0x0 PUSH2 0x794 DUP4 PUSH2 0xA2C JUMP JUMPDEST SWAP1 SWAP2 SSTORE POP POP PUSH1 0x2 SLOAD PUSH1 0x9 DUP1 SLOAD PUSH1 0x1 DUP2 DUP2 ADD DUP4 SSTORE PUSH1 0x0 DUP4 SWAP1 MSTORE PUSH32 0x6E1540171B6C0C960B71A7020D9F60077F6AF931A8BBF590DA0223DACF75C7AF SWAP1 SWAP2 ADD DUP4 SWAP1 SSTORE SWAP1 SLOAD PUSH2 0x7DF SWAP2 SWAP1 PUSH2 0xA45 JUMP JUMPDEST PUSH1 0x0 DUP3 DUP2 MSTORE PUSH1 0x7 PUSH1 0x20 SWAP1 DUP2 MSTORE PUSH1 0x40 DUP1 DUP4 KECCAK256 SWAP4 SWAP1 SWAP4 SSTORE CALLER DUP1 DUP4 MSTORE PUSH1 0x5 DUP3 MSTORE DUP4 DUP4 KECCAK256 DUP1 SLOAD PUSH1 0x1 DUP2 DUP2 ADD DUP4 SSTORE SWAP2 DUP6 MSTORE DUP4 DUP6 KECCAK256 ADD DUP7 SWAP1 SSTORE DUP5 MLOAD PUSH1 0x60 DUP2 ADD DUP7 MSTORE DUP7 DUP2 MSTORE PUSH1 0x1 PUSH1 0x1 PUSH1 0xA0 SHL SUB DUP9 DUP2 AND DUP3 DUP7 ADD DUP2 DUP2 MSTORE DUP4 DUP10 ADD SWAP6 DUP7 MSTORE DUP10 DUP9 MSTORE PUSH1 0x6 DUP8 MSTORE DUP9 DUP9 KECCAK256 SWAP4 MLOAD DUP5 SSTORE MLOAD SWAP4 DUP4 ADD DUP1 SLOAD SWAP5 DUP4 AND PUSH1 0x1 PUSH1 0x1 PUSH1 0xA0 SHL SUB NOT SWAP6 DUP7 AND OR SWAP1 SSTORE SWAP4 MLOAD PUSH1 0x2 SWAP1 SWAP3 ADD DUP1 SLOAD SWAP3 SWAP1 SWAP2 AND SWAP2 SWAP1 SWAP3 AND OR SWAP1 SSTORE DUP3 MSTORE PUSH1 0x8 SWAP1 MSTORE KECCAK256 SSTORE POP PUSH1 0x1 PUSH1 0x0 SSTORE JUMP JUMPDEST PUSH1 0x9 DUP2 DUP2 SLOAD DUP2 LT PUSH2 0x88E JUMPI PUSH1 0x0 DUP1 REVERT JUMPDEST PUSH1 0x0 SWAP2 DUP3 MSTORE PUSH1 0x20 SWAP1 SWAP2 KECCAK256 ADD SLOAD SWAP1 POP DUP2 JUMP JUMPDEST PUSH1 0x4 DUP1 SLOAD PUSH2 0x1BF SWAP1 PUSH2 0x9B0 JUMP JUMPDEST PUSH1 0x0 PUSH1 0x20 DUP1 DUP4 MSTORE DUP4 MLOAD DUP1 DUP3 DUP6 ADD MSTORE PUSH1 0x0 JUMPDEST DUP2 DUP2 LT ISZERO PUSH2 0x8D9 JUMPI DUP6 DUP2 ADD DUP4 ADD MLOAD DUP6 DUP3 ADD PUSH1 0x40 ADD MSTORE DUP3 ADD PUSH2 0x8BD JUMP JUMPDEST DUP2 DUP2 GT ISZERO PUSH2 0x8EB JUMPI PUSH1 0x0 PUSH1 0x40 DUP4 DUP8 ADD ADD MSTORE JUMPDEST POP PUSH1 0x1F ADD PUSH1 0x1F NOT AND SWAP3 SWAP1 SWAP3 ADD PUSH1 0x40 ADD SWAP4 SWAP3 POP POP POP JUMP JUMPDEST PUSH1 0x20 DUP1 DUP3 MSTORE DUP3 MLOAD DUP3 DUP3 ADD DUP2 SWAP1 MSTORE PUSH1 0x0 SWAP2 SWAP1 PUSH1 0x40 SWAP1 DUP2 DUP6 ADD SWAP1 DUP7 DUP5 ADD DUP6 JUMPDEST DUP3 DUP2 LT ISZERO PUSH2 0x95A JUMPI DUP2 MLOAD DUP1 MLOAD DUP6 MSTORE DUP7 DUP2 ADD MLOAD PUSH1 0x1 PUSH1 0x1 PUSH1 0xA0 SHL SUB SWAP1 DUP2 AND DUP9 DUP8 ADD MSTORE SWAP1 DUP7 ADD MLOAD AND DUP6 DUP6 ADD MSTORE PUSH1 0x60 SWAP1 SWAP4 ADD SWAP3 SWAP1 DUP6 ADD SWAP1 PUSH1 0x1 ADD PUSH2 0x91E JUMP JUMPDEST POP SWAP2 SWAP8 SWAP7 POP POP POP POP POP POP POP JUMP JUMPDEST PUSH1 0x0 PUSH1 0x20 DUP3 DUP5 SUB SLT ISZERO PUSH2 0x979 JUMPI PUSH1 0x0 DUP1 REVERT JUMPDEST POP CALLDATALOAD SWAP2 SWAP1 POP JUMP JUMPDEST PUSH1 0x0 PUSH1 0x20 DUP3 DUP5 SUB SLT ISZERO PUSH2 0x992 JUMPI PUSH1 0x0 DUP1 REVERT JUMPDEST DUP2 CALLDATALOAD PUSH1 0x1 PUSH1 0x1 PUSH1 0xA0 SHL SUB DUP2 AND DUP2 EQ PUSH2 0x9A9 JUMPI PUSH1 0x0 DUP1 REVERT JUMPDEST SWAP4 SWAP3 POP POP POP JUMP JUMPDEST PUSH1 0x1 DUP2 DUP2 SHR SWAP1 DUP3 AND DUP1 PUSH2 0x9C4 JUMPI PUSH1 0x7F DUP3 AND SWAP2 POP JUMPDEST PUSH1 0x20 DUP3 LT DUP2 SUB PUSH2 0x9E4 JUMPI PUSH4 0x4E487B71 PUSH1 0xE0 SHL PUSH1 0x0 MSTORE PUSH1 0x22 PUSH1 0x4 MSTORE PUSH1 0x24 PUSH1 0x0 REVERT JUMPDEST POP SWAP2 SWAP1 POP JUMP JUMPDEST PUSH4 0x4E487B71 PUSH1 0xE0 SHL PUSH1 0x0 MSTORE PUSH1 0x41 PUSH1 0x4 MSTORE PUSH1 0x24 PUSH1 0x0 REVERT JUMPDEST PUSH4 0x4E487B71 PUSH1 0xE0 SHL PUSH1 0x0 MSTORE PUSH1 0x32 PUSH1 0x4 MSTORE PUSH1 0x24 PUSH1 0x0 REVERT JUMPDEST PUSH4 0x4E487B71 PUSH1 0xE0 SHL PUSH1 0x0 MSTORE PUSH1 0x11 PUSH1 0x4 MSTORE PUSH1 0x24 PUSH1 0x0 REVERT JUMPDEST PUSH1 0x0 PUSH1 0x1 DUP3 ADD PUSH2 0xA3E JUMPI PUSH2 0xA3E PUSH2 0xA16 JUMP JUMPDEST POP PUSH1 0x1 ADD SWAP1 JUMP JUMPDEST PUSH1 0x0 DUP3 DUP3 LT ISZERO PUSH2 0xA57 JUMPI PUSH2 0xA57 PUSH2 0xA16 JUMP JUMPDEST POP SUB SWAP1 JUMP JUMPDEST PUSH4 0x4E487B71 PUSH1 0xE0 SHL PUSH1 0x0 MSTORE PUSH1 0x31 PUSH1 0x4 MSTORE PUSH1 0x24 PUSH1 0x0 REVERT INVALID LOG2 PUSH5 0x6970667358 0x22 SLT KECCAK256 SWAP2 0x5F 0xAC COINBASE DUP9 DUP9 0xAB LOG0 DUP5 0xE DUP3 0x4D BALANCE JUMPI 0xF7 0xBC 0x2B 0xAA NUMBER DUP11 0xAB 0xC1 SHR CALLDATALOAD 0x2B DUP8 GT DUP11 PUSH25 0xD64C464736F6C634300080D00330000000000000000000000 ",
  "sha1": "46516607b98ae53800ad0206e5258d8ba429e0e7",
  "source": "// SPDX-License-Identifier: MIT OR Apache-2.0\npragma solidity ^0.8.3;\n\nimport \"@openzeppelin/contracts/security/ReentrancyGuard.sol\";\nimport \"interfaces/utils/access/IAccessControl.sol\";\nimport {CreatorState, CommuneItem} from \"./Structs.sol\";\n\ncontract ModelCommune is ReentrancyGuard {\n  \n  address payable owner;\n  uint256 nextItemId = 0;\n  string public name;\n  string public category;\n  mapping(address=>CreatorState) creatorStates;\n  mapping(uint256 => CommuneItem) communeItems;\n  mapping(uint256=>uint256) public id2index;\n  mapping(address=>uint256) public model2id;\n  uint256[] public itemIds;\n\n  constructor(string memory _name) {\n    owner = payable(msg.sender);\n    name = _name;\n  }\n\n  function addItem(address modelContract) public payable nonReentrant {\n    if (model2id[modelContract]==0) {\n    nextItemId ++;\n    uint256 itemId = nextItemId;\n\n    // ensure msg.sender has owner role for ModelNFT contract\n    // require(ModelNFT(nftContract).hasRole(\"owner\", msg.sender),\n    //          \"msg.sender does not have owner priveledges\");\n\n    itemIds.push(nextItemId);\n    id2index[itemId] = itemIds.length-1;\n    creatorStates[msg.sender].itemIds.push(itemId);\n    communeItems[itemId] =  CommuneItem(\n      itemId,\n      modelContract,\n      msg.sender\n      );\n    model2id[modelContract] = itemId;  \n    }\n  }\n  function removeItem(uint256 itemId) public payable nonReentrant {\n\n    // ensure msg.sender has owner role for ModelNFT contract\n    // require(ModelNFT(nftContract).hasRole(\"owner\", msg.sender),\n    //          \"msg.sender does not have owner priveledges\");\n\n    if (model2id[communeItems[itemId].model]!=0) {\n      uint256[] storage creatorTokenIds = creatorStates[msg.sender].itemIds;\n      for (uint i; i<creatorTokenIds.length;i++) {\n        if (creatorTokenIds[i] == itemId) {\n          creatorTokenIds[i] = creatorTokenIds[creatorTokenIds.length-1];\n          creatorTokenIds.pop();\n        }\n      }\n\n      // swap last id with current id\n      id2index[itemIds[itemIds.length-1]] = id2index[itemId];\n      itemIds[id2index[itemId]] = itemIds[itemIds.length-1];\n      delete id2index[itemId];\n      itemIds.pop();\n\n      delete model2id[communeItems[itemId].model];\n      delete communeItems[itemId];\n      \n    \n    }\n\n  }\n  \n  /* Returns all unsold items items */\n  function listItems() public view returns (CommuneItem[] memory) {\n    uint itemCount = nextItemId;\n\n    CommuneItem[] memory items = new CommuneItem[](itemCount);\n    for (uint i = 0; i < itemIds.length; i++) {\n        CommuneItem storage currentItem = communeItems[itemIds[i]];\n        items[i] = currentItem;      \n    }\n    return items;\n  }\n  function listMyItems() public view returns (CommuneItem[] memory) {\n    uint256[] storage creatorItemIds = creatorStates[msg.sender].itemIds;\n    CommuneItem[] memory items = new CommuneItem[](creatorItemIds.length);\n    for (uint i = 0; i < creatorItemIds.length; i++) {\n        items[i] = communeItems[itemIds[i]];      \n    }\n    return items;\n  }\n  /* Returns onlyl items that a user has purchased */\n\n  /* Returns only items a user has created */\n}",
  "sourcePath": "contracts/commune/base/CommuneBase.sol",
  "type": "contract"
}