{
  "abi": [
    {
      "inputs": [],
      "name": "rand",
      "outputs": [
        {
          "internalType": "uint256",
          "name": "",
          "type": "uint256"
        }
      ],
      "stateMutability": "nonpayable",
      "type": "function"
    }
  ],
  "bytecode": "608060405260008055606460015534801561001957600080fd5b50610131806100296000396000f3fe6080604052348015600f57600080fd5b506004361060285760003560e01c80633b3dca7614602d575b600080fd5b60336045565b60405190815260200160405180910390f35b60008054818060528360b2565b9091555050600154600054604080514260208201526bffffffffffffffffffffffff193360601b169181019190915260548101919091526074016040516020818303038152906040528051906020012060001c60ad919060da565b905090565b600060001982141560d357634e487b7160e01b600052601160045260246000fd5b5060010190565b60008260f657634e487b7160e01b600052601260045260246000fd5b50069056fea2646970667358221220021e0e1b1857aeb2d7a43cd0abc65a6ced1d9eabc98ba7c95833b660a6ea43d664736f6c634300080c0033",
  "bytecodeSha1": "908068ac2cdc2eb74609aa819450b9523f6c4368",
  "compiler": {
    "evm_version": "istanbul",
    "optimizer": {
      "enabled": true,
      "runs": 200
    },
    "version": "0.8.12+commit.f00d7308"
  },
  "contractName": "RandomGenerator",
  "language": "Solidity",
  "natspec": {
    "kind": "dev",
    "methods": {},
    "version": 1
  },
  "opcodes": "PUSH1 0x80 PUSH1 0x40 MSTORE CALLVALUE DUP1 ISZERO PUSH1 0xF JUMPI PUSH1 0x0 DUP1 REVERT JUMPDEST POP PUSH1 0x4 CALLDATASIZE LT PUSH1 0x28 JUMPI PUSH1 0x0 CALLDATALOAD PUSH1 0xE0 SHR DUP1 PUSH4 0x3B3DCA76 EQ PUSH1 0x2D JUMPI JUMPDEST PUSH1 0x0 DUP1 REVERT JUMPDEST PUSH1 0x33 PUSH1 0x45 JUMP JUMPDEST PUSH1 0x40 MLOAD SWAP1 DUP2 MSTORE PUSH1 0x20 ADD PUSH1 0x40 MLOAD DUP1 SWAP2 SUB SWAP1 RETURN JUMPDEST PUSH1 0x0 DUP1 SLOAD DUP2 DUP1 PUSH1 0x52 DUP4 PUSH1 0xB2 JUMP JUMPDEST SWAP1 SWAP2 SSTORE POP POP PUSH1 0x1 SLOAD PUSH1 0x0 SLOAD PUSH1 0x40 DUP1 MLOAD TIMESTAMP PUSH1 0x20 DUP3 ADD MSTORE PUSH12 0xFFFFFFFFFFFFFFFFFFFFFFFF NOT CALLER PUSH1 0x60 SHL AND SWAP2 DUP2 ADD SWAP2 SWAP1 SWAP2 MSTORE PUSH1 0x54 DUP2 ADD SWAP2 SWAP1 SWAP2 MSTORE PUSH1 0x74 ADD PUSH1 0x40 MLOAD PUSH1 0x20 DUP2 DUP4 SUB SUB DUP2 MSTORE SWAP1 PUSH1 0x40 MSTORE DUP1 MLOAD SWAP1 PUSH1 0x20 ADD KECCAK256 PUSH1 0x0 SHR PUSH1 0xAD SWAP2 SWAP1 PUSH1 0xDA JUMP JUMPDEST SWAP1 POP SWAP1 JUMP JUMPDEST PUSH1 0x0 PUSH1 0x0 NOT DUP3 EQ ISZERO PUSH1 0xD3 JUMPI PUSH4 0x4E487B71 PUSH1 0xE0 SHL PUSH1 0x0 MSTORE PUSH1 0x11 PUSH1 0x4 MSTORE PUSH1 0x24 PUSH1 0x0 REVERT JUMPDEST POP PUSH1 0x1 ADD SWAP1 JUMP JUMPDEST PUSH1 0x0 DUP3 PUSH1 0xF6 JUMPI PUSH4 0x4E487B71 PUSH1 0xE0 SHL PUSH1 0x0 MSTORE PUSH1 0x12 PUSH1 0x4 MSTORE PUSH1 0x24 PUSH1 0x0 REVERT JUMPDEST POP MOD SWAP1 JUMP INVALID LOG2 PUSH5 0x6970667358 0x22 SLT KECCAK256 MUL 0x1E 0xE SHL XOR JUMPI 0xAE 0xB2 0xD7 LOG4 EXTCODECOPY 0xD0 0xAB 0xC6 GAS PUSH13 0xED1D9EABC98BA7C95833B660A6 0xEA NUMBER 0xD6 PUSH5 0x736F6C6343 STOP ADDMOD 0xC STOP CALLER ",
  "sha1": "a952ad5528ca745e8cd0db312a36e187ef48ab5b",
  "source": "\n// Solidity program to\n// demonstrate on how\n// to generate a random number\npragma solidity >=0.6.6;\n\n// Creating a contract\ncontract RandomGenerator\n{\n\n// Initializing the state variable\nuint randNonce = 0;\nuint _modulus = 100;\n\n// Defining a function to generate\n// a random number\nfunction rand() public  returns(uint)\n{\n// increase nonce\nrandNonce++;\nreturn uint(keccak256(abi.encodePacked(block.timestamp ,msg.sender,randNonce))) % _modulus;\n}\n}\n",
  "sourcePath": "contracts/utils/RandomGenerator.sol",
  "type": "contract"
}