{
  "abi": [
    {
      "inputs": [
        {
          "internalType": "bytes32",
          "name": "",
          "type": "bytes32"
        }
      ],
      "name": "symbol_address_map",
      "outputs": [
        {
          "internalType": "address",
          "name": "",
          "type": "address"
        }
      ],
      "stateMutability": "view",
      "type": "function"
    },
    {
      "inputs": [
        {
          "internalType": "bytes32",
          "name": "",
          "type": "bytes32"
        }
      ],
      "name": "symbol_token_map",
      "outputs": [
        {
          "internalType": "contract ERC20",
          "name": "",
          "type": "address"
        }
      ],
      "stateMutability": "view",
      "type": "function"
    },
    {
      "inputs": [
        {
          "internalType": "uint256",
          "name": "",
          "type": "uint256"
        }
      ],
      "name": "token_address_list",
      "outputs": [
        {
          "internalType": "address",
          "name": "",
          "type": "address"
        }
      ],
      "stateMutability": "view",
      "type": "function"
    },
    {
      "inputs": [],
      "name": "token_count",
      "outputs": [
        {
          "internalType": "uint256",
          "name": "",
          "type": "uint256"
        }
      ],
      "stateMutability": "view",
      "type": "function"
    },
    {
      "inputs": [
        {
          "internalType": "uint256",
          "name": "",
          "type": "uint256"
        }
      ],
      "name": "token_symbol_list",
      "outputs": [
        {
          "internalType": "bytes32",
          "name": "",
          "type": "bytes32"
        }
      ],
      "stateMutability": "view",
      "type": "function"
    }
  ],
  "bytecode": "608060405234801561001057600080fd5b506101a2806100206000396000f3fe608060405234801561001057600080fd5b50600436106100575760003560e01c806323b161ab1461005c57806326d7c84614610078578063281cdbb3146100a357806364eb009c146100cc578063f913f021146100df575b600080fd5b61006560045481565b6040519081526020015b60405180910390f35b61008b610086366004610153565b610108565b6040516001600160a01b03909116815260200161006f565b61008b6100b1366004610153565b6001602052600090815260409020546001600160a01b031681565b6100656100da366004610153565b610132565b61008b6100ed366004610153565b6000602081905290815260409020546001600160a01b031681565b6003818154811061011857600080fd5b6000918252602090912001546001600160a01b0316905081565b6002818154811061014257600080fd5b600091825260209091200154905081565b60006020828403121561016557600080fd5b503591905056fea2646970667358221220b755298dd5e3da9d326a57464d7b30fadace95c89fec162470fc7d1d1e6363d864736f6c634300080d0033",
  "bytecodeSha1": "6f09b2b939a68c0a0ccfd039a440cd7e27816f46",
  "compiler": {
    "evm_version": "istanbul",
    "optimizer": {
      "enabled": true,
      "runs": 200
    },
    "version": "0.8.13+commit.abaa5c0e"
  },
  "contractName": "TokenManagerBase",
  "language": "Solidity",
  "natspec": {
    "kind": "dev",
    "methods": {},
    "version": 1
  },
  "opcodes": "PUSH1 0x80 PUSH1 0x40 MSTORE CALLVALUE DUP1 ISZERO PUSH2 0x10 JUMPI PUSH1 0x0 DUP1 REVERT JUMPDEST POP PUSH1 0x4 CALLDATASIZE LT PUSH2 0x57 JUMPI PUSH1 0x0 CALLDATALOAD PUSH1 0xE0 SHR DUP1 PUSH4 0x23B161AB EQ PUSH2 0x5C JUMPI DUP1 PUSH4 0x26D7C846 EQ PUSH2 0x78 JUMPI DUP1 PUSH4 0x281CDBB3 EQ PUSH2 0xA3 JUMPI DUP1 PUSH4 0x64EB009C EQ PUSH2 0xCC JUMPI DUP1 PUSH4 0xF913F021 EQ PUSH2 0xDF JUMPI JUMPDEST PUSH1 0x0 DUP1 REVERT JUMPDEST PUSH2 0x65 PUSH1 0x4 SLOAD DUP2 JUMP JUMPDEST PUSH1 0x40 MLOAD SWAP1 DUP2 MSTORE PUSH1 0x20 ADD JUMPDEST PUSH1 0x40 MLOAD DUP1 SWAP2 SUB SWAP1 RETURN JUMPDEST PUSH2 0x8B PUSH2 0x86 CALLDATASIZE PUSH1 0x4 PUSH2 0x153 JUMP JUMPDEST PUSH2 0x108 JUMP JUMPDEST PUSH1 0x40 MLOAD PUSH1 0x1 PUSH1 0x1 PUSH1 0xA0 SHL SUB SWAP1 SWAP2 AND DUP2 MSTORE PUSH1 0x20 ADD PUSH2 0x6F JUMP JUMPDEST PUSH2 0x8B PUSH2 0xB1 CALLDATASIZE PUSH1 0x4 PUSH2 0x153 JUMP JUMPDEST PUSH1 0x1 PUSH1 0x20 MSTORE PUSH1 0x0 SWAP1 DUP2 MSTORE PUSH1 0x40 SWAP1 KECCAK256 SLOAD PUSH1 0x1 PUSH1 0x1 PUSH1 0xA0 SHL SUB AND DUP2 JUMP JUMPDEST PUSH2 0x65 PUSH2 0xDA CALLDATASIZE PUSH1 0x4 PUSH2 0x153 JUMP JUMPDEST PUSH2 0x132 JUMP JUMPDEST PUSH2 0x8B PUSH2 0xED CALLDATASIZE PUSH1 0x4 PUSH2 0x153 JUMP JUMPDEST PUSH1 0x0 PUSH1 0x20 DUP2 SWAP1 MSTORE SWAP1 DUP2 MSTORE PUSH1 0x40 SWAP1 KECCAK256 SLOAD PUSH1 0x1 PUSH1 0x1 PUSH1 0xA0 SHL SUB AND DUP2 JUMP JUMPDEST PUSH1 0x3 DUP2 DUP2 SLOAD DUP2 LT PUSH2 0x118 JUMPI PUSH1 0x0 DUP1 REVERT JUMPDEST PUSH1 0x0 SWAP2 DUP3 MSTORE PUSH1 0x20 SWAP1 SWAP2 KECCAK256 ADD SLOAD PUSH1 0x1 PUSH1 0x1 PUSH1 0xA0 SHL SUB AND SWAP1 POP DUP2 JUMP JUMPDEST PUSH1 0x2 DUP2 DUP2 SLOAD DUP2 LT PUSH2 0x142 JUMPI PUSH1 0x0 DUP1 REVERT JUMPDEST PUSH1 0x0 SWAP2 DUP3 MSTORE PUSH1 0x20 SWAP1 SWAP2 KECCAK256 ADD SLOAD SWAP1 POP DUP2 JUMP JUMPDEST PUSH1 0x0 PUSH1 0x20 DUP3 DUP5 SUB SLT ISZERO PUSH2 0x165 JUMPI PUSH1 0x0 DUP1 REVERT JUMPDEST POP CALLDATALOAD SWAP2 SWAP1 POP JUMP INVALID LOG2 PUSH5 0x6970667358 0x22 SLT KECCAK256 0xB7 SSTORE 0x29 DUP14 0xD5 0xE3 0xDA SWAP14 ORIGIN PUSH11 0x57464D7B30FADACE95C89F 0xEC AND 0x24 PUSH17 0xFC7D1D1E6363D864736F6C634300080D00 CALLER ",
  "sha1": "7f1a16424f8a9aa4834151b5e4741d98b839311c",
  "source": "// SPDX-License-Identifier: GPL-3.0\npragma solidity ^0.8.7;\n\n/*\n@title myVault\n@license GNU GPLv3\n@author James Bachini\n@notice A vault to automate and decentralize a long term donation strategy\n*/\n// import \"@openzeppelin/contracts/token/ERC20/extensions/IERC20Metadata.sol\";\nimport \"contracts/token/ERC20/ERC20.sol\";\n// interface IERC20Extented is IERC20 {\n//     function decimals() view returns (uint8);\n// }\n\n\ncontract TokenManagerBase {\n\n    mapping(bytes32=>address) public symbol_address_map;\n    mapping(bytes32=>ERC20) public symbol_token_map;\n\n\n    bytes32[] public token_symbol_list ;\n    address[] public token_address_list ;\n\n    uint public token_count;\n\n\n    \n}",
  "sourcePath": "contracts/token/TokenManagerBase.sol",
  "type": "contract"
}