{
  "abi": [
    {
      "inputs": [
        {
          "internalType": "bytes32[]",
          "name": "_token_symbol_list",
          "type": "bytes32[]"
        },
        {
          "internalType": "address[]",
          "name": "_token_address_list",
          "type": "address[]"
        }
      ],
      "stateMutability": "nonpayable",
      "type": "constructor"
    },
    {
      "inputs": [
        {
          "internalType": "bytes32",
          "name": "_tokenSymbol",
          "type": "bytes32"
        },
        {
          "internalType": "address",
          "name": "_tokenAddress",
          "type": "address"
        }
      ],
      "name": "addToken",
      "outputs": [],
      "stateMutability": "nonpayable",
      "type": "function"
    },
    {
      "inputs": [
        {
          "internalType": "bytes32[]",
          "name": "_token_symbol_list",
          "type": "bytes32[]"
        },
        {
          "internalType": "address[]",
          "name": "_token_address_list",
          "type": "address[]"
        }
      ],
      "name": "addTokens",
      "outputs": [],
      "stateMutability": "nonpayable",
      "type": "function"
    },
    {
      "inputs": [
        {
          "internalType": "bytes32",
          "name": "",
          "type": "bytes32"
        }
      ],
      "name": "symbol_address_map",
      "outputs": [
        {
          "internalType": "address",
          "name": "",
          "type": "address"
        }
      ],
      "stateMutability": "view",
      "type": "function"
    },
    {
      "inputs": [
        {
          "internalType": "bytes32",
          "name": "",
          "type": "bytes32"
        }
      ],
      "name": "symbol_token_map",
      "outputs": [
        {
          "internalType": "contract ERC20",
          "name": "",
          "type": "address"
        }
      ],
      "stateMutability": "view",
      "type": "function"
    },
    {
      "inputs": [
        {
          "internalType": "uint256",
          "name": "",
          "type": "uint256"
        }
      ],
      "name": "token_address_list",
      "outputs": [
        {
          "internalType": "address",
          "name": "",
          "type": "address"
        }
      ],
      "stateMutability": "view",
      "type": "function"
    },
    {
      "inputs": [],
      "name": "token_count",
      "outputs": [
        {
          "internalType": "uint256",
          "name": "",
          "type": "uint256"
        }
      ],
      "stateMutability": "view",
      "type": "function"
    },
    {
      "inputs": [
        {
          "internalType": "uint256",
          "name": "",
          "type": "uint256"
        }
      ],
      "name": "token_symbol_list",
      "outputs": [
        {
          "internalType": "bytes32",
          "name": "",
          "type": "bytes32"
        }
      ],
      "stateMutability": "view",
      "type": "function"
    }
  ],
  "bytecode": "608060405234801561001057600080fd5b506040516200089d3803806200089d83398101604081905261003191610263565b61003b8282610042565b505061035b565b80518251146100bd5760405162461bcd60e51b815260206004820152603360248201527f746f6b656e5f616464726573735f6c69737420616e6420746f6b656e5f73796d60448201527f626f6c5f6c697374206d75737420657175616c00000000000000000000000000606482015260840160405180910390fd5b60005b82518110156101335761010b8382815181106100de576100de61031e565b60200260200101518383815181106100f8576100f861031e565b602002602001015161013860201b60201c565b6004805490600061011b83610334565b9190505550808061012b90610334565b9150506100c0565b505050565b60009182526020828152604080842080546001600160a01b039094166001600160a01b03199485168117909155600190925290922080549091169091179055565b634e487b7160e01b600052604160045260246000fd5b604051601f8201601f191681016001600160401b03811182821017156101b7576101b7610179565b604052919050565b60006001600160401b038211156101d8576101d8610179565b5060051b60200190565b600082601f8301126101f357600080fd5b81516020610208610203836101bf565b61018f565b82815260059290921b8401810191818101908684111561022757600080fd5b8286015b848110156102585780516001600160a01b038116811461024b5760008081fd5b835291830191830161022b565b509695505050505050565b6000806040838503121561027657600080fd5b82516001600160401b038082111561028d57600080fd5b818501915085601f8301126102a157600080fd5b815160206102b1610203836101bf565b82815260059290921b840181019181810190898411156102d057600080fd5b948201945b838610156102ee578551825294820194908201906102d5565b9188015191965090935050508082111561030757600080fd5b50610314858286016101e2565b9150509250929050565b634e487b7160e01b600052603260045260246000fd5b60006001820161035457634e487b7160e01b600052601160045260246000fd5b5060010190565b610532806200036b6000396000f3fe608060405234801561001057600080fd5b506004361061007d5760003560e01c8063281cdbb31161005b578063281cdbb3146100de57806364eb009c146101075780639776aacf1461011a578063f913f0211461012d57600080fd5b806304222cdf1461008257806323b161ab1461009757806326d7c846146100b3575b600080fd5b6100956100903660046103c1565b610156565b005b6100a060045481565b6040519081526020015b60405180910390f35b6100c66100c136600461047a565b61023c565b6040516001600160a01b0390911681526020016100aa565b6100c66100ec36600461047a565b6001602052600090815260409020546001600160a01b031681565b6100a061011536600461047a565b610266565b610095610128366004610493565b610287565b6100c661013b36600461047a565b6000602081905290815260409020546001600160a01b031681565b80518251146101c75760405162461bcd60e51b815260206004820152603360248201527f746f6b656e5f616464726573735f6c69737420616e6420746f6b656e5f73796d604482015272189bdb17db1a5cdd081b5d5cdd08195c5d585b606a1b606482015260840160405180910390fd5b60005b82518110156102375761020f8382815181106101e8576101e86104bf565b6020026020010151838381518110610202576102026104bf565b6020026020010151610287565b6004805490600061021f836104d5565b9190505550808061022f906104d5565b9150506101ca565b505050565b6003818154811061024c57600080fd5b6000918252602090912001546001600160a01b0316905081565b6002818154811061027657600080fd5b600091825260209091200154905081565b60009182526020828152604080842080546001600160a01b039094166001600160a01b03199485168117909155600190925290922080549091169091179055565b634e487b7160e01b600052604160045260246000fd5b604051601f8201601f1916810167ffffffffffffffff81118282101715610307576103076102c8565b604052919050565b600067ffffffffffffffff821115610329576103296102c8565b5060051b60200190565b80356001600160a01b038116811461034a57600080fd5b919050565b600082601f83011261036057600080fd5b813560206103756103708361030f565b6102de565b82815260059290921b8401810191818101908684111561039457600080fd5b8286015b848110156103b6576103a981610333565b8352918301918301610398565b509695505050505050565b600080604083850312156103d457600080fd5b823567ffffffffffffffff808211156103ec57600080fd5b818501915085601f83011261040057600080fd5b813560206104106103708361030f565b82815260059290921b8401810191818101908984111561042f57600080fd5b948201945b8386101561044d57853582529482019490820190610434565b9650508601359250508082111561046357600080fd5b506104708582860161034f565b9150509250929050565b60006020828403121561048c57600080fd5b5035919050565b600080604083850312156104a657600080fd5b823591506104b660208401610333565b90509250929050565b634e487b7160e01b600052603260045260246000fd5b6000600182016104f557634e487b7160e01b600052601160045260246000fd5b506001019056fea26469706673582212200c793ccc4b33cb8eab413e5d2f8762c87fb84a1034ed31bd9b976296e0a78bbc64736f6c634300080d0033",
  "bytecodeSha1": "708ed9abe451ce5efe5cdf582cb45e67b018aee3",
  "compiler": {
    "evm_version": "istanbul",
    "optimizer": {
      "enabled": true,
      "runs": 200
    },
    "version": "0.8.13+commit.abaa5c0e"
  },
  "contractName": "TokenManager",
  "language": "Solidity",
  "natspec": {
    "kind": "dev",
    "methods": {},
    "version": 1
  },
  "opcodes": "PUSH1 0x80 PUSH1 0x40 MSTORE CALLVALUE DUP1 ISZERO PUSH2 0x10 JUMPI PUSH1 0x0 DUP1 REVERT JUMPDEST POP PUSH1 0x4 CALLDATASIZE LT PUSH2 0x7D JUMPI PUSH1 0x0 CALLDATALOAD PUSH1 0xE0 SHR DUP1 PUSH4 0x281CDBB3 GT PUSH2 0x5B JUMPI DUP1 PUSH4 0x281CDBB3 EQ PUSH2 0xDE JUMPI DUP1 PUSH4 0x64EB009C EQ PUSH2 0x107 JUMPI DUP1 PUSH4 0x9776AACF EQ PUSH2 0x11A JUMPI DUP1 PUSH4 0xF913F021 EQ PUSH2 0x12D JUMPI PUSH1 0x0 DUP1 REVERT JUMPDEST DUP1 PUSH4 0x4222CDF EQ PUSH2 0x82 JUMPI DUP1 PUSH4 0x23B161AB EQ PUSH2 0x97 JUMPI DUP1 PUSH4 0x26D7C846 EQ PUSH2 0xB3 JUMPI JUMPDEST PUSH1 0x0 DUP1 REVERT JUMPDEST PUSH2 0x95 PUSH2 0x90 CALLDATASIZE PUSH1 0x4 PUSH2 0x3C1 JUMP JUMPDEST PUSH2 0x156 JUMP JUMPDEST STOP JUMPDEST PUSH2 0xA0 PUSH1 0x4 SLOAD DUP2 JUMP JUMPDEST PUSH1 0x40 MLOAD SWAP1 DUP2 MSTORE PUSH1 0x20 ADD JUMPDEST PUSH1 0x40 MLOAD DUP1 SWAP2 SUB SWAP1 RETURN JUMPDEST PUSH2 0xC6 PUSH2 0xC1 CALLDATASIZE PUSH1 0x4 PUSH2 0x47A JUMP JUMPDEST PUSH2 0x23C JUMP JUMPDEST PUSH1 0x40 MLOAD PUSH1 0x1 PUSH1 0x1 PUSH1 0xA0 SHL SUB SWAP1 SWAP2 AND DUP2 MSTORE PUSH1 0x20 ADD PUSH2 0xAA JUMP JUMPDEST PUSH2 0xC6 PUSH2 0xEC CALLDATASIZE PUSH1 0x4 PUSH2 0x47A JUMP JUMPDEST PUSH1 0x1 PUSH1 0x20 MSTORE PUSH1 0x0 SWAP1 DUP2 MSTORE PUSH1 0x40 SWAP1 KECCAK256 SLOAD PUSH1 0x1 PUSH1 0x1 PUSH1 0xA0 SHL SUB AND DUP2 JUMP JUMPDEST PUSH2 0xA0 PUSH2 0x115 CALLDATASIZE PUSH1 0x4 PUSH2 0x47A JUMP JUMPDEST PUSH2 0x266 JUMP JUMPDEST PUSH2 0x95 PUSH2 0x128 CALLDATASIZE PUSH1 0x4 PUSH2 0x493 JUMP JUMPDEST PUSH2 0x287 JUMP JUMPDEST PUSH2 0xC6 PUSH2 0x13B CALLDATASIZE PUSH1 0x4 PUSH2 0x47A JUMP JUMPDEST PUSH1 0x0 PUSH1 0x20 DUP2 SWAP1 MSTORE SWAP1 DUP2 MSTORE PUSH1 0x40 SWAP1 KECCAK256 SLOAD PUSH1 0x1 PUSH1 0x1 PUSH1 0xA0 SHL SUB AND DUP2 JUMP JUMPDEST DUP1 MLOAD DUP3 MLOAD EQ PUSH2 0x1C7 JUMPI PUSH1 0x40 MLOAD PUSH3 0x461BCD PUSH1 0xE5 SHL DUP2 MSTORE PUSH1 0x20 PUSH1 0x4 DUP3 ADD MSTORE PUSH1 0x33 PUSH1 0x24 DUP3 ADD MSTORE PUSH32 0x746F6B656E5F616464726573735F6C69737420616E6420746F6B656E5F73796D PUSH1 0x44 DUP3 ADD MSTORE PUSH19 0x189BDB17DB1A5CDD081B5D5CDD08195C5D585B PUSH1 0x6A SHL PUSH1 0x64 DUP3 ADD MSTORE PUSH1 0x84 ADD PUSH1 0x40 MLOAD DUP1 SWAP2 SUB SWAP1 REVERT JUMPDEST PUSH1 0x0 JUMPDEST DUP3 MLOAD DUP2 LT ISZERO PUSH2 0x237 JUMPI PUSH2 0x20F DUP4 DUP3 DUP2 MLOAD DUP2 LT PUSH2 0x1E8 JUMPI PUSH2 0x1E8 PUSH2 0x4BF JUMP JUMPDEST PUSH1 0x20 MUL PUSH1 0x20 ADD ADD MLOAD DUP4 DUP4 DUP2 MLOAD DUP2 LT PUSH2 0x202 JUMPI PUSH2 0x202 PUSH2 0x4BF JUMP JUMPDEST PUSH1 0x20 MUL PUSH1 0x20 ADD ADD MLOAD PUSH2 0x287 JUMP JUMPDEST PUSH1 0x4 DUP1 SLOAD SWAP1 PUSH1 0x0 PUSH2 0x21F DUP4 PUSH2 0x4D5 JUMP JUMPDEST SWAP2 SWAP1 POP SSTORE POP DUP1 DUP1 PUSH2 0x22F SWAP1 PUSH2 0x4D5 JUMP JUMPDEST SWAP2 POP POP PUSH2 0x1CA JUMP JUMPDEST POP POP POP JUMP JUMPDEST PUSH1 0x3 DUP2 DUP2 SLOAD DUP2 LT PUSH2 0x24C JUMPI PUSH1 0x0 DUP1 REVERT JUMPDEST PUSH1 0x0 SWAP2 DUP3 MSTORE PUSH1 0x20 SWAP1 SWAP2 KECCAK256 ADD SLOAD PUSH1 0x1 PUSH1 0x1 PUSH1 0xA0 SHL SUB AND SWAP1 POP DUP2 JUMP JUMPDEST PUSH1 0x2 DUP2 DUP2 SLOAD DUP2 LT PUSH2 0x276 JUMPI PUSH1 0x0 DUP1 REVERT JUMPDEST PUSH1 0x0 SWAP2 DUP3 MSTORE PUSH1 0x20 SWAP1 SWAP2 KECCAK256 ADD SLOAD SWAP1 POP DUP2 JUMP JUMPDEST PUSH1 0x0 SWAP2 DUP3 MSTORE PUSH1 0x20 DUP3 DUP2 MSTORE PUSH1 0x40 DUP1 DUP5 KECCAK256 DUP1 SLOAD PUSH1 0x1 PUSH1 0x1 PUSH1 0xA0 SHL SUB SWAP1 SWAP5 AND PUSH1 0x1 PUSH1 0x1 PUSH1 0xA0 SHL SUB NOT SWAP5 DUP6 AND DUP2 OR SWAP1 SWAP2 SSTORE PUSH1 0x1 SWAP1 SWAP3 MSTORE SWAP1 SWAP3 KECCAK256 DUP1 SLOAD SWAP1 SWAP2 AND SWAP1 SWAP2 OR SWAP1 SSTORE JUMP JUMPDEST PUSH4 0x4E487B71 PUSH1 0xE0 SHL PUSH1 0x0 MSTORE PUSH1 0x41 PUSH1 0x4 MSTORE PUSH1 0x24 PUSH1 0x0 REVERT JUMPDEST PUSH1 0x40 MLOAD PUSH1 0x1F DUP3 ADD PUSH1 0x1F NOT AND DUP2 ADD PUSH8 0xFFFFFFFFFFFFFFFF DUP2 GT DUP3 DUP3 LT OR ISZERO PUSH2 0x307 JUMPI PUSH2 0x307 PUSH2 0x2C8 JUMP JUMPDEST PUSH1 0x40 MSTORE SWAP2 SWAP1 POP JUMP JUMPDEST PUSH1 0x0 PUSH8 0xFFFFFFFFFFFFFFFF DUP3 GT ISZERO PUSH2 0x329 JUMPI PUSH2 0x329 PUSH2 0x2C8 JUMP JUMPDEST POP PUSH1 0x5 SHL PUSH1 0x20 ADD SWAP1 JUMP JUMPDEST DUP1 CALLDATALOAD PUSH1 0x1 PUSH1 0x1 PUSH1 0xA0 SHL SUB DUP2 AND DUP2 EQ PUSH2 0x34A JUMPI PUSH1 0x0 DUP1 REVERT JUMPDEST SWAP2 SWAP1 POP JUMP JUMPDEST PUSH1 0x0 DUP3 PUSH1 0x1F DUP4 ADD SLT PUSH2 0x360 JUMPI PUSH1 0x0 DUP1 REVERT JUMPDEST DUP2 CALLDATALOAD PUSH1 0x20 PUSH2 0x375 PUSH2 0x370 DUP4 PUSH2 0x30F JUMP JUMPDEST PUSH2 0x2DE JUMP JUMPDEST DUP3 DUP2 MSTORE PUSH1 0x5 SWAP3 SWAP1 SWAP3 SHL DUP5 ADD DUP2 ADD SWAP2 DUP2 DUP2 ADD SWAP1 DUP7 DUP5 GT ISZERO PUSH2 0x394 JUMPI PUSH1 0x0 DUP1 REVERT JUMPDEST DUP3 DUP7 ADD JUMPDEST DUP5 DUP2 LT ISZERO PUSH2 0x3B6 JUMPI PUSH2 0x3A9 DUP2 PUSH2 0x333 JUMP JUMPDEST DUP4 MSTORE SWAP2 DUP4 ADD SWAP2 DUP4 ADD PUSH2 0x398 JUMP JUMPDEST POP SWAP7 SWAP6 POP POP POP POP POP POP JUMP JUMPDEST PUSH1 0x0 DUP1 PUSH1 0x40 DUP4 DUP6 SUB SLT ISZERO PUSH2 0x3D4 JUMPI PUSH1 0x0 DUP1 REVERT JUMPDEST DUP3 CALLDATALOAD PUSH8 0xFFFFFFFFFFFFFFFF DUP1 DUP3 GT ISZERO PUSH2 0x3EC JUMPI PUSH1 0x0 DUP1 REVERT JUMPDEST DUP2 DUP6 ADD SWAP2 POP DUP6 PUSH1 0x1F DUP4 ADD SLT PUSH2 0x400 JUMPI PUSH1 0x0 DUP1 REVERT JUMPDEST DUP2 CALLDATALOAD PUSH1 0x20 PUSH2 0x410 PUSH2 0x370 DUP4 PUSH2 0x30F JUMP JUMPDEST DUP3 DUP2 MSTORE PUSH1 0x5 SWAP3 SWAP1 SWAP3 SHL DUP5 ADD DUP2 ADD SWAP2 DUP2 DUP2 ADD SWAP1 DUP10 DUP5 GT ISZERO PUSH2 0x42F JUMPI PUSH1 0x0 DUP1 REVERT JUMPDEST SWAP5 DUP3 ADD SWAP5 JUMPDEST DUP4 DUP7 LT ISZERO PUSH2 0x44D JUMPI DUP6 CALLDATALOAD DUP3 MSTORE SWAP5 DUP3 ADD SWAP5 SWAP1 DUP3 ADD SWAP1 PUSH2 0x434 JUMP JUMPDEST SWAP7 POP POP DUP7 ADD CALLDATALOAD SWAP3 POP POP DUP1 DUP3 GT ISZERO PUSH2 0x463 JUMPI PUSH1 0x0 DUP1 REVERT JUMPDEST POP PUSH2 0x470 DUP6 DUP3 DUP7 ADD PUSH2 0x34F JUMP JUMPDEST SWAP2 POP POP SWAP3 POP SWAP3 SWAP1 POP JUMP JUMPDEST PUSH1 0x0 PUSH1 0x20 DUP3 DUP5 SUB SLT ISZERO PUSH2 0x48C JUMPI PUSH1 0x0 DUP1 REVERT JUMPDEST POP CALLDATALOAD SWAP2 SWAP1 POP JUMP JUMPDEST PUSH1 0x0 DUP1 PUSH1 0x40 DUP4 DUP6 SUB SLT ISZERO PUSH2 0x4A6 JUMPI PUSH1 0x0 DUP1 REVERT JUMPDEST DUP3 CALLDATALOAD SWAP2 POP PUSH2 0x4B6 PUSH1 0x20 DUP5 ADD PUSH2 0x333 JUMP JUMPDEST SWAP1 POP SWAP3 POP SWAP3 SWAP1 POP JUMP JUMPDEST PUSH4 0x4E487B71 PUSH1 0xE0 SHL PUSH1 0x0 MSTORE PUSH1 0x32 PUSH1 0x4 MSTORE PUSH1 0x24 PUSH1 0x0 REVERT JUMPDEST PUSH1 0x0 PUSH1 0x1 DUP3 ADD PUSH2 0x4F5 JUMPI PUSH4 0x4E487B71 PUSH1 0xE0 SHL PUSH1 0x0 MSTORE PUSH1 0x11 PUSH1 0x4 MSTORE PUSH1 0x24 PUSH1 0x0 REVERT JUMPDEST POP PUSH1 0x1 ADD SWAP1 JUMP INVALID LOG2 PUSH5 0x6970667358 0x22 SLT KECCAK256 0xC PUSH26 0x3CCC4B33CB8EAB413E5D2F8762C87FB84A1034ED31BD9B976296 0xE0 0xA7 DUP12 0xBC PUSH5 0x736F6C6343 STOP ADDMOD 0xD STOP CALLER ",
  "sha1": "7d0b9b073072fbbc50f42d51942bb54330438262",
  "source": "// SPDX-License-Identifier: GPL-3.0\npragma solidity ^0.8.7;\n\n/*\n@title myVault\n@license GNU GPLv3\n@author James Bachini\n@notice A vault to automate and decentralize a long term donation strategy\n*/\n// import \"@openzeppelin/contracts/token/ERC20/extensions/IERC20Metadata.sol\";\nimport \"contracts/token/TokenManagerBase.sol\";\n\n\n// interface IERC20Extented is IERC20 {\n//     function decimals() view returns (uint8);\n// }\n\n\ncontract TokenManager is TokenManagerBase{\n\n    constructor(bytes32[] memory _token_symbol_list, address[] memory _token_address_list) {\n        addTokens(_token_symbol_list, _token_address_list);\n    }\n\n    function addToken(bytes32 _tokenSymbol, address _tokenAddress) public  {\n\n            // map the symbol to the address \n            symbol_address_map[_tokenSymbol] = _tokenAddress;\n\n            // map the symbol to the token\n            symbol_token_map[_tokenSymbol] = ERC20(_tokenAddress);\n\n    }\n\n    function addTokens(bytes32[] memory _token_symbol_list, address[] memory _token_address_list ) public {\n\n        require(_token_symbol_list.length==_token_address_list.length, \"token_address_list and token_symbol_list must equal\");\n        for (uint i=0;i<_token_symbol_list.length; i++)\n        {\n            addToken( _token_symbol_list[i], _token_address_list[i]);\n            token_count ++;\n        }\n\n    }\n\n\n    \n}",
  "sourcePath": "contracts/token/TokenManager.sol",
  "type": "contract"
}